:020000040800F2
:100000004818002045010008950A0008970A0008D2
:100010009B0A00089F0A0008A30A000800000000CD
:10002000000000000000000000000000A70A000817
:10003000A90A000800000000AB0A0008AD0A000889
:100040005F0100085F0100085F0100085F01000810
:100050005F0100085F0100085F0100085F01000800
:100060005F0100085F0100085F0100085F010008F0
:100070005F0100085F0100085F0100085F010008E0
:100080005F0100085F0100085F0100085F010008D0
:100090005F0100085F0100085F0100085F010008C0
:1000A0005F0100085F0100085F0100085F010008B0
:1000B0005F0100085F0100085F0100085F010008A0
:1000C0005F0100085F0100085F0100085F01000890
:1000D0005F010008B50A00085F010008E50A000892
:1000E0005F0100085F0100085F0100085F01000870
:1000F0005F0100085F0100085F0100085F01000860
:100100005F0100085F0100085F0100085F0100084F
:100110005F0100085F0100085F0100085F0100083F
:100120005F0100085F0100085F0100085F0100082F
:10013000DFF80CD006F08CFA00480047690100088F
:10014000481800200648804706480047FEE7FEE7BB
:10015000FEE7FEE7FEE7FEE7FEE7FEE7FEE7FEE777
:10016000EB170008310100089AB000F085FF00F09D
:1001700087FD01F055F801F03FF901F0EAF901F0CF
:100180009DFA01F003FA01F0A3FA42F2107000F0B8
:100190008AFD03F0E7FE04F0B4F804F057FA12A168
:1001A00001A806F077FA01A9164800F0D0FF07E091
:1001B00015A101A806F06EFA01A9124800F0C7FFC8
:1001C00004F0F3FF0028F3D015A101A806F062FAAD
:1001D00001A90C4800F0BBFF05F037F803F061FE01
:1001E00001E003F0F0FDFCE75468697320697320B7
:1001F0007468652064656275672065646974696FF9
:100200006E0A0000003801404D5335383337206402
:100210006973636F6E6E65637465640A0000000045
:100220004D533538333720636F6E6E656374656484
:100230000A0000002DE9F34FC1B08268C468056967
:10024000D0F814C08369C669076AD0F82480CDF855
:100250000081002106E0DDF8088158F821804DF882
:100260002180491C1029F6DB10214DE0A1F1020884
:100270005DF828804FEA5849A1F102085DF828800E
:1002800049EAC838A1F102095DF829904FEAD94A34
:10029000A1F102095DF829904AEA493988EA09087A
:1002A000A1F102095DF8299088EA9929A1F10708CE
:1002B0005DF82880C844A1F10F095DF829904FEA44
:1002C000D91AA1F10F091DF829904AEA4969A1F14B
:1002D0000F0A5DF82AA04FEA9A4BA1F10F0A5DF8C8
:1002E0002AA04BEA8A3A89EA0A09A1F10F0A5DF8C5
:1002F0002AA089EADA09C144A1F110085DF8288032
:10030000C8444DF82180491C4029AFDB002149E059
:100310004FEA931A4AEA836A4FEAD32B4BEA435BCC
:100320008AEA0B0A4FEA536B4BEAC31B8AEA0B0AB1
:10033000DDF800B1D34403EA060A27EA030E8AEA8D
:100340000E0ADA44DFF82CB65BF821B0DA445DF827
:1003500021B00AEB0B084FEA920A4AEA827B4FEA85
:10036000523A4AEAC24A8BEA0A0B4FEA925A4AEADE
:10037000822A8BEA0A0B02EA040A02EA050E8AEADA
:100380000E0A04EA050E8AEA0E0A0BEB0A094097E8
:1003900037461E460CEB0803AC462546144608EBD0
:1003A0000902491C4029B3DBD0F808809044C0F80A
:1003B0000880D0F80C8008EB0409C0F80C90D0F845
:1003C000108008EB0509C0F81090D0F8148008EBF5
:1003D0000C09C0F81490D0F8188008EB0309C0F895
:1003E0001890D0F81C8008EB0609C0F81C90D0F8D3
:1003F000208008EB0709C0F82090D0F82490DDF8A1
:100400000081C144C0F8249043B0BDE8F08F2DE9CD
:10041000F04F91B0044689461546CA46D4F800B05C
:10042000206800EBC50020602068584502D2606853
:10043000401C6060CBF3C50630E0C6F14007BD420A
:1004400000D22F4604F1280188193A46514605F09A
:1004500022FD3E44BA44ED1B402E1ED104F128007B
:1004600000904FF000080FE0009A02EB880001AA0C
:1004700002EB8801C2780A7082784A7042788A70EA
:100480000278CA7008F10108B8F1100FECDB01A97D
:100490002046FFF7CFFE002600BF00BF002DCCD1C5
:1004A00011B0BDE8F08F2DE9F04192B004460E4640
:1004B0002088C0F3C508C8F1770000F03F00451C54
:1004C00004F1080780208DF8000047210DF101009C
:1004D00005F0FAFC2178E81D0DF800102088C0F323
:1004E0000721A81D0DF800102068C0F30741681D02
:1004F0000DF800102068000E291D0DF8010021796B
:10050000E81C0DF80010A088C0F30721A81C0DF806
:1005100000106068C0F30741681C0DF800106068A7
:10052000000E0DF8050005F1080269462046FFF7A8
:100530006EFFF8783070B87870707878B07038786E
:10054000F070F8793071B879707112B0BDE8F0814F
:100550002DE9F04FA1B007460C46164606F1020BF6
:1005600006F58D7808F1070020903878012121EAFE
:10057000500998F800A01FB9012021B0BDE8F08F04
:1005800006A8002101604160FB498160FB4AC2600E
:10059000FB4A0261FB4A4261FB4A8261FB4AC2613B
:1005A000FB4A0262FB4A426200BF202207F11001AF
:1005B000FFF72DFFF07800F10A02594606A8FFF771
:1005C00026FF022206F58C7106A8FFF720FF0722FE
:1005D000414606A8FFF71BFF04A906A8FFF763FF23
:1005E000062204A8209905F07AFC08B10020C4E78F
:1005F000002102910391D8F801000290B8F805009B
:10060000ADF80C000CB90020B7E7002518E0F1792F
:1006100005EBC502A01C1044407881420ED1317A0E
:1006200005EBC502A01C10448078814206D105EB81
:10063000C501A01C405C504500D104E0681C85B297
:100640002088A842E3DC00BF2088A84229D1208866
:10065000102801DB002090E7B9F1000F0CD0CE4B41
:10066000DDE90220D11840F10000D7E90223891A00
:10067000984101D2002080E7F17905EBC502A01C6A
:1006800010444170317A05EBC502A01C1044817002
:1006900005EBC501A01C00F801A02088401C2080AB
:1006A00018E000210091019105EBC501A01C084450
:1006B00050F8031F00918088ADF80400B9F1000FD5
:1006C00007D001A80DC80099891A984101D30020CC
:1006D00053E700BF05EBC501A01C0844D8F8011082
:1006E00040F8031FB8F805108180D7E90230DDE932
:1006F0000212591A904103D2DDE90201C7E9020151
:1007000001203AE700BF037883EA010282EA02137C
:10071000DAB203881B1283EA022383EAC20383EA64
:100720002213038000BF70472DE9F84F05460C46A1
:10073000164699460A9F002000902070E078102805
:1007400027D2DFE800F0080927485C646C747C94C9
:10075000A3B8C9F9FAF600BFFD2E0CD10220E07053
:100760000020E870AE70207B20F001002073284646
:1007700000F0F7F90DE0FE2E0BD10220E070002012
:10078000E870AE70207B40F001002073284600F036
:10079000E8F94EE1207850B16078401C6070204646
:1007A00000F0DBF9002020700120E07012E0EE7014
:1007B0000020207131462846FFF7A4FF207B00F07F
:1007C000010028B10020287168710520E07001E067
:1007D0000320E0702DE12E71287920F0010038B15E
:1007E000204600F0BAF9002020700120E07020E1DE
:1007F00031462846FFF786FF0420E07019E16E714C
:1008000031462846FFF77EFF0520E07011E1AE710A
:1008100031462846FFF776FF0620E07009E1EE71C9
:1008200031462846FFF76EFF0720E07001E12E7287
:1008300031462846FFF766FF0820E070F9E0A86817
:1008400066F31F20A86031462846FFF75BFF207B38
:1008500000F0010040B1E878002802DD0B20E070D4
:1008600004E00C20E07001E00920E070E1E0A868FD
:10087000000A40EA0621A86861F31F20A8603146FB
:100880002846FFF73FFF0A20E070D2E0A868000A80
:1008900040EA0641A86861F31F20A8603146284657
:1008A000FFF730FFE878002802DD0B20E07001E060
:1008B0000C20E070BDE02179481C207105F110008A
:1008C000465431462846FFF71DFF2079E9788842D3
:1008D00001D10C20E070ACE0A968080A00F047F9EB
:1008E0008046B8F1000F02D098F8040000E0002024
:1008F000834659462846FFF705FF2878B04202D0C4
:100900000E20E07001E00D20E07085F81861B8F16C
:10091000000F0DD0207998F80510884208DA98F871
:1009200005202379D11A05F11002981805F0CCFAA8
:100930007FE04DE001E0FFE700BFE0780E2803D044
:100940002888B6EB202F02D00220207001E0012081
:10095000207040F219104655287900F00100E8B1E6
:100960000F20E0700D206073207802282FD0002027
:1009700020702CE00467000867E6096A85AE67BB53
:1009800072F36E3C3AF54FA57F520E518C68059B71
:10099000ABD9831F19CDE05B808D5B00206970B1FE
:1009A0002069006B30B1A868010A2069026B2046FB
:1009B000904720B92078022801D003202070012020
:1009C000E0704FF494722946484605F064FA30E02E
:1009D000607BC0F10D0105F58D704654607B401EB3
:1009E0006073607B20BB2A46D4E90401FFF7B0FDA9
:1009F0008246BAF1000F0BD12069006B40B1A868A4
:100A0000010A2069026B2046904708B14FF0010AA5
:100A1000BAF1000F02D00120207001E00320207005
:100A20000120E0704FF494722946484605F033FAED
:100A300000BF00BF0098401C00902078012808D11A
:100A4000A8796071208908B9002060812089401C44
:100A50002081E87889F80300E078F870207938710F
:100A60006079401C787120893881A0787881207B5A
:100A700038730020A0702078022808D195F818114A
:100A800040F21910405D41EA0020A9F800002078EA
:100A9000BDE8F88F704700BFFEE700BFFEE700BF6C
:100AA000FEE700BFFEE770477047704710B503F0E0
:100AB00025F910BD10B5D0B040F22551684802F0BC
:100AC000D1FB68B1664802F04DFBC4B26B4606AA82
:100AD0002146002000F079F810B106A803F05CFE72
:100AE00050B010BD10B540F227715E4802F0BAFB5D
:100AF000E0B15D4802780078401C5B4B18705B48A1
:100B0000815C584802F02AFB574800785849097818
:100B1000884205D1002240F22771524802F0BDFA06
:100B200040F227714F4802F0C7FB10E040F2255118
:100B30004C4802F097FB50B14A49091D0988C8B2D8
:100B400005F06AF840F22551464802F0B5FB4FF433
:100B50005871444802F0B0FB10BD8178491C817087
:100B6000704700BF4FF6FF71018000BF704730B57E
:100B700001460022A72316E0541C1C44600800EB29
:100B800040043C4D55F824408C4201D9431E0AE0F4
:100B900000EB4004374D55F824408C4201D2024608
:100BA00001E0024601E09A42E6D300BF02EB4200B8
:100BB000304C54F82000884201D0002030BD02EBB8
:100BC00042002C4C04EB8000F8E72DE9F84F8046FA
:100BD0000C4616461D4600BF404600F031F88146DF
:100BE000404600F034F88246334622464946009596
:100BF000FFF79AFD0746022F01D0032F1ED1404672
:100C000000F025F88246404600F01AF88146484632
:100C1000FFF7A3FF002089F80000012089F80300F6
:100C2000FD2C08D1022089F8030000208AF8030077
:100C30005046FFF796FF0020BDE8F88F3846FBE7E7
:100C4000014601EB41000C4A02EBC000704701462F
:100C500001EB810000EB4110084A02EBC000704735
:100C6000003801400048004000000020180100202A
:100C7000010000200468000818020020780200200B
:100C800008B50121082001F0BBF9C020ADF8000033
:100C900003208DF8020014208DF803006946EB480C
:100CA00000F0F2FE08BD014641F2883201FB02F07D
:100CB00000E0401E0028FCD17047052001E0411EE5
:100CC000C8B20028FBD1704700B54020DF4914317D
:100CD0000860FFF7F2FF8020DC4914310860FFF75D
:100CE000ECFF4020D94910310860FFF7E6FF4020B3
:100CF000D64914310860FFF7E0FF00BD00B5402081
:100D0000D24914310860FFF7D8FF8020CF49103155
:100D10000860FFF7D2FF4020CC4910310860FFF790
:100D2000CCFF4020C94914310860FFF7C6FF00BD61
:100D300000B58020C5491031086040200860FFF7E9
:100D4000BCFFC2480830006808B9012000E000205C
:100D500000F0800008B1002000BD8020BB491431A4
:100D60000860FFF7AAFFB9480830006800F080006B
:100D700008B10020F0E78020B44914310860FFF783
:100D80009CFF0120E8E700B54020B049143108601D
:100D9000FFF793FF8020AD4914310860FFF78DFF06
:100DA0004020AA4910310860FFF787FF8020A7493B
:100DB00010310860FFF781FF00BD00B54020A34956
:100DC00014310860FFF779FF8020A04910310860D6
:100DD000FFF773FF40209D4910310860FFF76DFF5A
:100DE0009A480830006800F0800038B140209749E8
:100DF00014310860FFF761FF002000BD40209349D7
:100E000014310860FFF759FF0120F6E700B50246EC
:100E100008231BE040208D4914310860FFF74DFF87
:100E200002F0800020B1802088491031086003E082
:100E300080208649143108605006020EFFF73DFFFE
:100E40004020824910310860FFF737FF1800A3F1F6
:100E50000101CBB2DED140207C491431086000BDD5
:100E600000B508230022802078491031086015E081
:100E70005006020E4020754914310860FFF71DFF2F
:100E80004020724910310860FFF717FF6F480830A3
:100E9000006800F0800008B142F001021800A3F1E0
:100EA0000101CBB2E4D140206849143108601046FA
:100EB00000BD70B504460D461646FFF739FF08B968
:100EC000002070BD2046FFF7A1FFFFF776FF18B99D
:100ED000FFF759FF0020F4E72846FFF797FFFFF7D9
:100EE0006CFF3046FFF792FFFFF767FFFFF74BFFFE
:100EF0000120FFF7D8FE0120E3E770B504460D4658
:100F0000FFF716FF08B9002070BD2046FFF77EFFEF
:100F1000FFF753FF18B9FFF736FF0020F4E7284624
:100F2000FFF774FFFFF749FF18B9FFF72CFF002008
:100F3000EAE7FFF7FDFE44F00100FFF767FFFFF768
:100F40003CFF18B9FFF71FFF0020DDE7FFF788FF20
:100F50000646FFF7D3FEFFF716FF3046D4E730B55D
:100F60000446FFF7E5FE08B9002030BD2046FFF734
:100F70004DFFFFF722FF0546FFF705FF2846F4E780
:100F8000F0B505460E461746FFF7D2FE2846FFF796
:100F90003DFFFFF712FF18B9FFF7F5FE0020F0BD87
:100FA00000240BE0305DFFF731FFFFF706FF18B9B3
:100FB000FFF7E9FE0020F2E7601CC4B2BC42F1DB9F
:100FC000FFF7E1FE0120EAE7F0B504460E461746BA
:100FD0001D46FFF7ADFE08B90020F0BD2046FFF723
:100FE00015FFFFF7EAFE18B9FFF7CDFE0020F4E782
:100FF0003846FFF70BFFFFF7E0FE18B9FFF7C3FE17
:101000000020EAE7FFF794FE44F00100FFF7FEFE40
:10101000FFF7D3FE18B9FFF7B6FE0020DDE70EE0BC
:10102000FFF71EFF3070761C012D02DDFFF74CFE2E
:1010300003E0FFF763FEFFF7A6FE681E85B2002DF2
:10104000EED1FFF7A0FE0120C7E70000000C014031
:1010500008B54FF4A06000F049FC25208DF8000091
:1010600003208DF801008DF8020001208DF80300A7
:10107000684600F040FC08BD00B585B001210420A1
:1010800000F0BEFF0121880300F0BAFF4FF40070AA
:10109000ADF8100018208DF8130003208DF8120011
:1010A00004A9534800F0F0FC4FF48060ADF8100044
:1010B00004208DF8130004A94D4800F0E5FC4FF41E
:1010C000E13000900020ADF80400ADF80600ADF866
:1010D0000800ADF80C000C20ADF80A006946454840
:1010E00001F043FFFFF7B4FF012240F225514148D0
:1010F00001F0D3FF01213F4801F0C3FF05B000BD5F
:1011000070B504460D462946204602F027F800BF78
:101110008021204602F090F80028F9D070BD2DE91A
:10112000F04107460D461646002405E0295D384685
:10113000FFF7E6FF601CC4B2B442F7DB00BF4021FA
:10114000384602F079F80028F9D0BDE8F08170B592
:1011500006460C46002500BF615D3046FFF7D0FF14
:101160006D1C605D0028F7D100BF4021304602F0C1
:1011700063F80028F9D070BD2DE9F04105460C4612
:10118000260AE7B23146284601F0E8FF00BF802179
:10119000284602F051F80028F9D03946284601F0D7
:1011A000DDFF00BF8021284602F046F80028F9D074
:1011B000BDE8F08170B504460D46E1B20D4801F07E
:1011C000CDFF00BF80210B4802F036F80028F9D08F
:1011D000204670BD10B5044600BF2021054802F02E
:1011E0002BF80028F9D0034801F0BCFF10BD000027
:1011F000000801400038014008B54FF4A06000F03D
:1012000075FB27208DF8000003208DF801000120D8
:101210008DF802008DF80300684600F06CFB08BDF5
:1012200000B585B00121102000F0EAFE01218804FC
:1012300000F0F3FE0121084600F0E2FE01211E4805
:1012400000F0F3FC4FF48060ADF8100018208DF82A
:10125000130003208DF8120004A9184800F014FCB4
:101260004FF40060ADF8100004208DF8130004A9BD
:10127000124800F009FC4FF4E13000900020ADF876
:101280000400ADF80600ADF80800ADF80C000C2025
:10129000ADF80A0069460A4801F067FEFFF7ACFFA7
:1012A000012240F22551064801F0F7FE01210448D1
:1012B00001F0E7FE05B000BD100014000010014071
:1012C0000048004008B50121042000F099FE4020AC
:1012D000ADF8000018208DF8030003208DF80200FF
:1012E0006946524800F0D0FB0121042000F088FE3E
:1012F0008020ADF8000018208DF8030003208DF841
:1013000002006946494800F0BFFB0121082000F0B7
:1013100077FE0120ADF8000018208DF803000320AF
:101320008DF802006946424800F0AEFB012108201A
:1013300000F066FE0220ADF8000018208DF80300D2
:1013400003208DF802006946394800F09DFB08BD76
:10135000F0B587B04FF4C8642546264627460121DC
:10136000022000F05AFE44F61F60ADF8140047203A
:10137000ADF810000020ADF81600ADF812008DF8A1
:10138000180004A92B4800F073FF6020ADF800009E
:101390000120ADF802000020ADF80800ADF80640CD
:1013A0006946244800F0A1FF0821224801F0ECFB27
:1013B000ADF8065069461F4800F0D9FF08211D48C6
:1013C00001F0EBFBADF8066069461A4801F01CF825
:1013D0000821184801F0EEFBADF806706946154883
:1013E00001F05DF80821134801F0EDFB01211148DF
:1013F00001F09AFA07B0F0BD10B5FFF763FFFFF7F1
:10140000A7FF10BD10B50446A1B20A4801F024FDA3
:10141000A1B2084801F022FDA1B2064801F020FD6A
:10142000A1B2044801F01EFD10BD000000080140FB
:10143000000C01400004004008B50121102000F01C
:10144000DFFD0121042000F0DBFD18208DF80300F2
:101450004020ADF8000003208DF80200694649489D
:1014600000F012FB8020ADF800006946454800F00E
:101470000BFB4FF48070ADF800006946414800F066
:1014800003FB4FF40070ADF8000069463D4800F0E2
:10149000FBFA08BD00B587B00121480300F0B0FD9C
:1014A00044F61F60ADF814004720ADF8100000208E
:1014B000ADF81600ADF812008DF8180004A93248F6
:1014C00000F0D6FE7020ADF800000120ADF802005B
:1014D0000020ADF808004FF48070ADF80C004FF418
:1014E000C860ADF806006946274800F0FEFE0821F6
:1014F000254801F049FB4FF4C860ADF80600694685
:10150000214800F034FF08211F4801F046FB4FF44A
:10151000C860ADF8060069461B4800F075FF082159
:10152000194801F047FB40F2A460ADF80600694697
:10153000154800F0B4FF0821134801F044FB0121D5
:10154000114801F0F1F901210F4801F0F9F907B054
:1015500000BD10B5FFF770FFFFF79CFF10BD10B581
:101560000446A1B2084801F077FCA1B2064801F098
:1015700075FCA1B2044801F073FCA1B2024801F06D
:1015800071FC10BD001001400034014030B5164818
:1015900000684FF47A72B0FBF2F1B1F1807F01D3B1
:1015A00001201DE021F07F40401E4FF0E0225061FD
:1015B00050170D22002807DA13071D0E0B4B00F001
:1015C0000F04241F1D5503E013071C0E084B1C5469
:1015D00000BF00204FF0E022906107201061002042
:1015E00008B100BFFEE730BD0400002018ED00E0A8
:1015F00000E400E008B50121082000F001FD4FF4EF
:101600008070ADF8000018208DF8030003208DF8DD
:10161000020069462C4800F037FA0121082000F04A
:10162000EFFC4FF40070ADF8000018208DF80300B7
:1016300003208DF802006946234800F025FA08BD12
:1016400030B587B042F210752C460121042000F01D
:10165000E4FC44F61F60ADF814004720ADF810001C
:101660000020ADF81600ADF812008DF8180004A99E
:10167000164800F0FDFD6020ADF800000120ADF837
:1016800002000020ADF80800ADF8065069460F488A
:1016900000F0BAFE08210D4801F08CFAADF80640C2
:1016A00069460A4800F0FBFE0821084801F08BFA61
:1016B0000121064801F038F907B030BD10B5FFF739
:1016C00099FFFFF7BDFF10BD000C0140000800406E
:1016D00008B50121102000F093FC0220ADF80000B5
:1016E00010208DF8030003208DF80200694606489B
:1016F00000F0CAF90221044800F075FA02210248FC
:1017000000F06FFA08BD0000001001400CB5002089
:10171000019000906C48006840F480306A4908608D
:1017200000BF6948006800F4003000900198401C38
:101730000190009818B90198B0F5A06FF1D16248F6
:10174000006800F4003010B10120009001E000209A
:1017500000900098012843D15C48006840F01000D8
:101760005A4908600846006820F0030008600846EF
:10177000006840F0020008605348406852494860E1
:101780000846406848600846406840F48060486009
:101790000846406820F47C1048600846406840F4E1
:1017A000E81048600846006840F08070086000BF9C
:1017B0004548006800F000700028F9D042484068B1
:1017C00020F00300404948600846406840F00200AD
:1017D000486000BF3C48406800F00C000828F9D180
:1017E0000CBD10B5FFF792FF10BD10B5364800686C
:1017F00040F0010034490860084640683449084018
:101800003149486008460068324908402E4908605E
:101810000846006820F4802008600846406820F4EC
:10182000FE0048604FF41F008860FFF7DAFF4FF0BA
:1018300000602949086010BD10B500210020002279
:10184000214B5B6803F00C0121B1042906D0082963
:1018500028D107E0214B224C236027E01F4B204C6E
:10186000236023E0184B5B6803F47010164B5B6831
:1018700003F48032022303EB904022B9194B434317
:10188000174C23600DE0104B5B6803F4003323B169
:10189000144B4343124C236003E0104B4343104C62
:1018A000236003E00D4B0E4C236000BF00BF064BCE
:1018B0005B68C3F303130C4CE15C094B1B68CB4022
:1018C000074C236010BD00000010024000200240C1
:1018D0000000FFF8FFFFF6FE08ED00E000127A00BE
:1018E0000400002000093D000800002031490143A8
:1018F000314A1160704770B5002100230F22C4786F
:1019000004B32D4C246804F4E064C4F5E064210AB7
:10191000C1F10403CA40447804FA03F18478144006
:1019200021430901254C0678A155047804F01F05D0
:101930000124AC4005786D11AD0005F1E025C5F836
:10194000004109E0047804F01F050124AC401C4D5F
:101950000678761145F8264070BD1A4A0A400243BF
:10196000154B1B1F1A60704739B1134A121D1268BC
:101970000243114B1B1D1A6006E00F4A121D12682C
:1019800082430D4B1B1D1A607047042808D14FF08D
:10199000E021096941F004014FF0E022116107E004
:1019A0004FF0E021096921F004014FF0E0221161BC
:1019B000704700000000FA050CED00E000E400E0D4
:1019C00080E100E080FFFF1F10B50446CC48844250
:1019D00008D10121042000F02DFB0021042000F09B
:1019E00029FB46E0C748844208D10121082000F0C5
:1019F00021FB0021082000F01DFB3AE0C248844290
:101A000008D10121102000F015FB0021102000F06A
:101A100011FB2EE0BD48844208D10121202000F0B6
:101A200009FB0021202000F005FB22E0B848844299
:101A300008D10121402000F0FDFA0021402000F0F3
:101A4000F9FA16E0B348844208D10121802000F061
:101A5000F1FA0021802000F0EDFA0AE0AE4884425D
:101A600007D10121801500F0E5FA0021A01500F052
:101A7000E1FA10BD10B50121084600F0DBFA0021A3
:101A8000012000F0D7FA10BD2DE9F04102460025F3
:101A90000026002000230024002791F803C00CF04A
:101AA0000F0591F803C00CF0100CBCF1000F03D02F
:101AB00091F802C04CEA050591F800C0BCF1000F96
:101AC00031D0146800202BE04FF0010C0CFA00F329
:101AD000B1F800C00CEA03069E4220D183004FF00B
:101AE0000F0C0CFA03F7BC4305FA03FC4CEA0404A0
:101AF00091F803C0BCF1280F06D14FF0010C0CFA8D
:101B000000FCC2F814C00AE091F803C0BCF1480F11
:101B100005D14FF0010C0CFA00FCC2F810C0401CBB
:101B20000828D1D31460B1F800C0BCF1FF0F34DD38
:101B3000546800202EE000F1080C4FF0010808FA6C
:101B40000CF3B1F800C00CEA03069E4221D18300D9
:101B50004FF00F0C0CFA03F7BC4305FA03FC4CEAF8
:101B6000040491F803C0BCF1280F05D100F1080C62
:101B700008FA0CF8C2F8148091F803C0BCF1480FC1
:101B800007D100F1080C4FF0010808FA0CF8C2F870
:101B90001080401C0828CED35460BDE8F0814FF679
:101BA000FF710180022181700421C17070470246DB
:101BB000002093680B400BB1012000E0002070472B
:101BC0000146886880B2704702460020D3680B4007
:101BD0000BB1012000E0002070470146C86880B2C8
:101BE000704701617047416170470AB1016100E0CF
:101BF00041617047C16070474FF480320A4382618F
:101C00008161826182698269704702460020434B8C
:101C100018684FF68073184040EA021008433F4BA3
:101C2000186070473E49C8617047F0B50A46002306
:101C300000240021002500F00046B6F1004F02D13B
:101C4000364EF16901E0354E7168C0F3034583B249
:101C500000F44016B6F5401F08D121F070612F4EF8
:101C6000766826F070662D4F7E6012E000F48016D4
:101C7000B6F5801F06D1032606FA05F4A14341F00C
:101C8000706106E0460D360103FA06F6B14341F0F5
:101C9000706122B1460D360103FA06F6314300F0B9
:101CA0000046B6F1004F02D11C4EF16101E01B4E1F
:101CB0007160F0BD30B500228B071C0F0F2303FAB3
:101CC00004F2164B08338C1053F824309343134C12
:101CD00008348D1044F8253023468C1053F82430F6
:101CE0008C07240F00FA04F423430C4C08348D10A5
:101CF00044F8253030BD0A49DC31086070470000E7
:101D000000080140000C0140001001400014014097
:101D100000180140001C014000200140000001406B
:101D200000002042DF48006840F00100DD49086003
:101D300008464068DC490840DA49486008460068BF
:101D4000DA490840D74908600846006820F4802036
:101D500008600846406820F4FE0048604FF41F0009
:101D600088607047CF49096821F48031CD4A1160FD
:101D70001146096821F480211160B0F5803F03D03D
:101D8000B0F5802F0ED106E0C649096841F48031D4
:101D9000C44A116007E0C349096841F4A021C14A5F
:101DA000116000E000BF00BF704710B5014600227F
:101DB000002300204A11012A02D1BA4C236806E010
:101DC000022A02D1B74C236A01E0B64C636A01F0E3
:101DD0001F02012494401C400CB1012000E00020AF
:101DE00010BD38B5002000900024002500BF312030
:101DF000FFF7DBFF05460098401C00900098B0F507
:101E0000A06F01D0002DF2D03120FFF7CEFF08B136
:101E1000012400E00024204638BD01460020A14AEC
:101E2000106820F0F80040EAC10010607047A04937
:101E300008607047024600209A4B586820F47C10D6
:101E400042EA01031843974B586070479849086667
:101E5000704701460020934A506820F00300084371
:101E6000506070478F48406800F00C007047014692
:101E700000208C4A506820F0F00008435060704702
:101E800001460020874A506820F4E0600843506013
:101E9000704701460020834A506820F4605040EAB1
:101EA000C1005060704729B17E4A527A02437D4B8F
:101EB0005A7204E07B4A527A82437A4B5A727047D4
:101EC0007B49D8310860704701460020754A506848
:101ED00020F440400843506070470021714A20328E
:101EE0001170704A82F82010012802D004280AD10B
:101EF00004E001216B4A2032117005E00521694A96
:101F00002032117000E000BF00BF704769490860CF
:101F100070476449096A0143624A11627047654922
:101F200044390860704730B50021002200240023A6
:101F30005C4D6D6805F00C0121B1042905D008291C
:101F400023D105E05C4D056022E05B4D05601FE09C
:101F5000544D6D6805F47012524D6D6805F480346F
:101F6000022505EB92421CB9544D554305600BE028
:101F70004C4D6D6805F400351DB1504D554305605D
:101F800002E04D4D5543056002E04B4D056000BF3A
:101F900000BF444D6D6805F0F0010909484D6B5CC8
:101FA0000568DD4045603F4D6D6805F4E061090A54
:101FB000434D6B5C4568DD4085603A4D6D6805F4C6
:101FC0006051C90A3E4D6B5C4568DD40C560354DCA
:101FD0006D6805F44041890B3A4D6B5CC568B5FBF3
:101FE000F3F5056130BD29B12E4A526902432D4BEC
:101FF0005A6104E02B4A526982432A4B5A61704766
:1020000029B1284A92690243264B9A6104E0254A85
:1020100092698243234B9A61704729B1214AD26960
:102020000243204BDA6104E01E4AD26982431D4B11
:10203000DA61704729B11B4AD2680243194BDA6052
:1020400004E0184AD2688243164BDA60704729B11F
:10205000144A12690243134B1A6104E0114A1269CF
:102060008243104B1A61704712494039086070472B
:102070000F49C86470470B49C87170470948406AE6
:1020800040F0807007494862704701460020054AC9
:1020900092680A400AB1012000E00020704701491F
:1020A00088727047001002400000FFF8FFFFF6FE44
:1020B000000042428004424200127A0000093D00C2
:1020C000180000202800002010B50446FE48844275
:1020D00008D10121C014FFF7ADFF0021E014FFF784
:1020E000A9FFC4E0B4F1804F08D101210846FFF7F1
:1020F000AEFF00210120FFF7AAFFB8E0F3488442B9
:1021000008D101210220FFF7A2FF00210220FFF7E2
:102110009EFFACE0EE48844208D101210420FFF785
:1021200096FF00210420FFF792FFA0E0E9488442D7
:1021300008D101210820FFF78AFF00210820FFF7BE
:1021400086FF94E0E448844208D101211020FFF783
:102150007EFF00211020FFF77AFF88E0DF488442ED
:1021600008D101212020FFF772FF00212020FFF776
:102170006EFF7CE0DA48844208D101214014FFF769
:1021800059FF00216014FFF755FF70E0D5488442E5
:1021900009D10121C804FFF74DFF00214FF40020B1
:1021A000FFF748FF63E0D048844209D101210805C8
:1021B000FFF740FF00214FF48010FFF73BFF56E090
:1021C000CA48844209D101214805FFF733FF0021A5
:1021D0004FF40010FFF72EFF49E0C548844208D1B4
:1021E00001214020FFF733FF00214020FFF72FFFA0
:1021F0003DE0C048844208D101218020FFF727FF3D
:1022000000218020FFF723FF31E0BB48844208D142
:1022100001218015FFF71BFF0021A015FFF717FF15
:1022200025E0B648844209D101210804FFF702FFE6
:1022300000214FF48030FFF7FDFE18E0B0488442E3
:1022400009D101214804FFF7F5FE00214FF40030C9
:10225000FFF7F0FE0BE0AB48844208D1012188046F
:10226000FFF7E8FE00214FF48020FFF7E3FE10BDEA
:1022700000220288944B98420ED0994B98420BD082
:10228000B0F1804F08D0914B984205D0904B9842C6
:1022900002D0904B984204D14FF68F731A404B886E
:1022A0001A438D4B984207D08C4B984204D04FF67E
:1022B000FF431A40CB881A4302808B8883850B88A2
:1022C0000385814B98420BD0854B984208D08B4BAD
:1022D000984205D08A4B984202D08A4B984201D14D
:1022E0000B7A038601238382704770B50024002295
:1022F0000023058C4FF6FE7635400584028C8388DA
:10230000048B4FF68F752C40B51E2C400D882C4346
:10231000751E2A400D892A434D882A436A4DA842DA
:102320000BD06F4DA84208D0744DA84205D0744D13
:10233000A84202D0734DA84213D14FF6F7752A4038
:102340004D892A434FF6FB752A408D882A434FF664
:10235000FF652B404FF6FF552B408D892B43CD89D0
:102360002B4383800483CD888586028470BD70B53D
:10237000002400220023058C4FF6EF7635400584BB
:10238000028C8388048B48F6FF752C404FF6FF457E
:102390002C400D884FF6FF7606EA05252C434FF6B4
:1023A000DF752A400D8906EA05152A434D8806EA9D
:1023B00005152A43444DA84202D0494DA8421DD1DB
:1023C0004FF67F752A404D894FF6FF7606EA0515D0
:1023D0002A434FF6BF752A408D8806EA05152A4321
:1023E0004FF6FF352B404FF2FF752B408D8906EAE3
:1023F00085052B43CD8906EA85052B43838004831D
:10240000CD880587028470BD70B5002400220023AA
:10241000058C4FF6FF6635400584028C8388848BDB
:102420004FF68F752C404FF6FC752C400D882C43D1
:102430004FF6FF552A400D894FF6FF7606EA05252F
:102440002A434D8806EA05252A431F4DA84202D09B
:10245000234DA8421DD14FF2FF752A404D894FF6FA
:10246000FF7606EA05252A434FF6FF352A408D8878
:1024700006EA05252A434EF6FF752B404DF6FF75FB
:102480002B408D8906EA05152B43CD8906EA0515F3
:102490002B4383808483CD888587028470BD70B58B
:1024A000002200230024058C4EF6FF76354005847B
:1024B000038C8488828B48F6FF752A404FF6FF45CF
:1024C0002A400D8820E00000002C0140000400405C
:1024D00000080040000C00400010004000140040C4
:1024E00000340140004C01400050014000540140C4
:1024F00000180040001C0040002000400040014047
:1025000000440140004801404FF6FF7606EA0525E9
:102510002A434DF6FF752B400D8906EA05352B43FE
:102520004D8806EA05352B43FA4DA84202D0FA4DF4
:10253000A84208D14BF6FF752C408D894FF6FF76E7
:1025400006EA85152C4384808283CD88A0F840500C
:10255000038470BD828B4FF2FF331A408283828BDB
:102560004FF6FF7303EA01231A4382837047F0B5E5
:102570000C461546002200210026078C4EF6FF7CF3
:1025800007EA0C070784828B018C4FF6FF7707EA76
:10259000043640F6FF473A404FF6FF7707EA052733
:1025A0003A434FF6FF7707EA03373A43D94FB84229
:1025B0000ED0D94FB8420BD0B0F1804F08D0D74FD2
:1025C000B84205D0D64FB84202D0D64FB84206D155
:1025D0004DF6FF77394046F48057394305E047F61A
:1025E000FF57394044F48057394382830184F0BD5A
:1025F000828B4FF6F3731A408283828B0A43828365
:102600007047F0B50C461546002200210026078CC5
:102610004FF6FF6C07EA0C070784828B018C4FF69C
:10262000FF7707EA04264FF60C773A404FF6FF771C
:1026300007EA03172F433A43B64FB8420ED0B64FBE
:10264000B8420BD0B0F1804F08D0B44FB84205D09B
:10265000B34FB84202D0B34FB84206D14FF6FF573E
:10266000394046F48077394305E04FF2FF5739404F
:1026700044F48077394382830184F0BD028B4FF2AA
:10268000FF331A400283028B4FF6FF7303EA0123E4
:102690001A4302837047F0B50C461546002200210C
:1026A0000026078C4FF6EF7C07EA0C070784028BA5
:1026B000018C4FF6FF7707EA041640F6FF473A40D1
:1026C0004FF6FF7707EA03373A434FF6FF7707EAFB
:1026D00005273A438F4FB8420ED08F4FB8420BD0E8
:1026E000B0F1804F08D08D4FB84205D08C4FB84222
:1026F00002D08C4FB84206D14FF6DF77394046F012
:102700001007394305E04FF65F77394044F0100772
:10271000394302830184F0BD028B4FF6F3731A40F4
:102720000283028B0A4302837047F0B50C461546BC
:1027300000220021068C4FF6FE773E400684028B75
:10274000018C4FF60C7632407E1C06EA03162E43AF
:102750003243704EB0420ED06F4EB0420BD0B0F14B
:10276000804F08D06D4EB04205D06D4EB04202D0C1
:102770006C4EB04206D14FF6FD76314044F0010672
:10278000314305E04FF6F576314044F00106314320
:1027900002830184F0BD70B505460C465D48854254
:1027A0000ED05D4885420BD0B5F1804F08D05B4814
:1027B000854205D05A48854202D05A48854200D108
:1027C00000E000BF208850B92389A288618828468C
:1027D000FFF7ABFFE1882846FFF79EFF25E0208842
:1027E00004280AD12389A28861882846FFF753FF6D
:1027F000E1882846FFF742FF17E0208808280AD121
:102800002389A28861882846FFF7FBFEE1882846D5
:10281000FFF7EEFE09E02389A28861882846FFF7CA
:10282000A6FEE1882846FFF795FE70BD2DE9F04130
:1028300005460C4600260127608808B9022600E0FC
:102840000026A088012801D1022700E00127208866
:10285000A0B92389A28861882846FFF766FFE1882E
:102860002846FFF759FF23893A4631462846FFF7A5
:1028700012FFE1882846FFF701FF13E02389A288B1
:1028800061882846FFF707FFE1882846FFF7F6FE34
:1028900023893A4631462846FFF747FFE188284614
:1028A000FFF73AFFBDE8F0810A884B881A438B880E
:1028B0001A43CB881A430B891A434B891A438B89D5
:1028C0001A43A0F8442070474FF6FF718180002121
:1028D0000180C180418001727047002101804180E8
:1028E0008180C180018141818181C1817047002146
:1028F00001804180012181800021C18001817047D8
:102900000021018041808180C180018141818181DC
:1029100070470000002C01400034014000040040DA
:1029200000080040000C004021B1028842F0010282
:10293000028004E002884FF6FE731A40028070475E
:1029400031B1B0F8442042F40042A0F8442005E040
:10295000B0F84420C2F30E02A0F8442070471AB128
:1029600083890B43838102E083898B438381704792
:102970008182704741EA0203A0F8483070471AB1DB
:1029800083890B43838102E083898B438381704772
:1029900001894FF6F8721140018170470A46002103
:1029A00001894FF68F73194011430181704730B58B
:1029B00004460D4629462046FFF7F0FF208940F0E7
:1029C0000700208130BD2DE9F04104460D46164632
:1029D0001F46602D06D13B46012231462046FFF7B7
:1029E0005AFE05E03B46012231462046FFF79DFE98
:1029F00029462046FFF7D2FF208940F007002081BA
:102A0000BDE8F08130B50C4600210189C9B24FF60E
:102A1000FF7505EA0325154325432943018130BD90
:102A20002DE9F04105460E461746984600244346D8
:102A30003A4631462846FFF7E5FF2C894FF6F870F5
:102A4000044044F007044FF68F70044044F07004D3
:102A50002C81BDE8F081F0B504460D4616461F46B0
:102A60003B46324629462046FFF7CCFF208940F4FA
:102A700080402081F0BD0185828270470A46002196
:102A800001884FF68F731940114301807047F0B5EC
:102A90000C4615461E460021002200230189028BA8
:102AA000038C4FF6F877394021434FF6FC473A4004
:102AB00040F201173A434FF6DD773B404FF6FF7780
:102AC00007EA06172F433B43018102830384F0BDCD
:102AD0000A460021018B4FF68F7319401143018381
:102AE00070470A460021018B48F6FF7319404FF6E4
:102AF000FF7303EA02231943018370470A4600214A
:102B0000818B4FF68F7319401143818370470A46BA
:102B10000021818B48F6FF7319404FF6FF7303EADB
:102B2000022319438183704721B1028842F0800259
:102B3000028004E002884FF67F731A4002807047DB
:102B400021B1828842F00402828004E082884FF63C
:102B5000FB731A408280704721B1828842F00802DC
:102B6000828004E082884FF6F7731A4082807047B3
:102B700021B1828842F00102828004E082884FF60F
:102B8000FE731A40828070470A460021018B4FF67F
:102B9000F77319401143018370470A460021018BE6
:102BA0004FF2FF7319404FF6FF7303EA02231943F4
:102BB000018370470A460021818B4FF6F773194055
:102BC0001143818370470A460021818B4FF2FF73C6
:102BD00019404FF6FF7303EA0223194381837047BC
:102BE0000A460021018B4FF6FB7319401143018304
:102BF00070470A460021018B4FF6FF3319404FF60C
:102C0000FF7303EA02231943018370470A46002138
:102C1000818B4FF6FB7319401143818370470A463D
:102C20000021818B4FF6FF3319404FF6FF7303EA03
:102C300002231943818370470A460021018B4FF616
:102C40007F7319401143018370470A460021018BAD
:102C5000C1F30E014FF6FF7303EA02231943018308
:102C600070470A460021818B4FF67F73194011434C
:102C7000818370470A460021818BC1F30E014FF614
:102C8000FF7303EA02231943818370470A46002138
:102C9000018C4FF6FD7319401143018470470A46B9
:102CA0000021018C4FF6F7731940114301847047DE
:102CB0000A460021018C4FF6DF7319404FF6FF736F
:102CC00003EA02131943018470470A460021018C6C
:102CD0004FF67F7319404FF6FF7303EA021319434F
:102CE000018470470A460021018C4FF6FF531940BA
:102CF0004FF6FF7303EA02231943018470470A4623
:102D00000021018C4FF2FF7319404FF6FF7303EA65
:102D100002231943018470470A460021018C4DF6B5
:102D2000FF7319404FF6FF7303EA0233194301841E
:102D3000704730B5002301248C40A3B2048C9C431F
:102D40000484048C02FA01F5ADB22C43048430BD36
:102D500030B5002304248C40A3B2048C9C4304842B
:102D6000048C02FA01F5ADB22C43048430BD70B579
:102D70000346002000241846183001258D40ACB2CF
:102D80001D8CA5431D8409B1082909D100EB610000
:102D9000056825F0700505600568154305600EE0BF
:102DA0000D1FC5F34E052844056825F4E045056070
:102DB00005684FF6FF7606EA02263543056070BDCA
:102DC00021B1028842F00202028004E002884FF63C
:102DD000FD731A400280704721B1028842F004025C
:102DE000028004E002884FF6FB731A4002807047AD
:102DF00021B1828842F08002828004E082884FF60E
:102E00007F731A408280704702884FF6F7731A402A
:102E1000028002880A430280704782884FF68F73CF
:102E20001A40828082880A438280704702894FF666
:102E3000F8731A40028102890A43028170470289AD
:102E40004FF67F731A40028102890A43028170475C
:102E500081847047818570478186704701877047FC
:102E600081877047A0F84010704702884FF6FF43F3
:102E70001A40028002880A43028070470146888E09
:102E800070470146088F70470146888F704701469A
:102E9000B1F8400070470146888C70470146088DA4
:102EA000704702460020138A0B400BB1012000E05E
:102EB00000207047CA430282704730B502460020A6
:102EC00000230024158A05EA0103958905EA010417
:102ED00013B10CB1012000E0002030BDCA430282D2
:102EE0007047000010B50446FB48844209D1012117
:102EF0008803FFF79FF800214FF48040FFF79AF80E
:102F000032E0F648844209D101214804FFF79FF8D6
:102F100000214FF40030FFF79AF825E0F048844292
:102F200009D101218804FFF792F800214FF4802095
:102F3000FFF78DF818E0EB48844209D10121C8045D
:102F4000FFF785F800214FF40020FFF780F80BE031
:102F5000E548844208D101210805FFF778F80021EF
:102F60004FF48010FFF773F810BD2DE9F04786B0DD
:102F700005460E460024A24600BFA1460027B089A0
:102F800000B100BF2F462C8A4CF6FF700440F08839
:102F900004432C82AC894EF6F3100440B08831898A
:102FA0000843718908430443AC81AC8A4FF6FF4063
:102FB0000440B0890443AC8201A8FEF7B4FFC648C0
:102FC000874202D1DDF810A001E0DDF80CA0A8894D
:102FD00000F4004040B10AEBCA0000EB0A1031686F
:102FE0004900B0FBF1F807E00AEBCA0000EB0A1059
:102FF00031688900B0FBF1F86420B8FBF0F00401FF
:103000002009642101FB1089A88900F4004040B127
:10301000322000EBC900B0FBF1F000F007000443E0
:1030200008E0322000EB09106421B0FBF1F000F061
:103030000F0004432C8106B0BDE8F0874FF4165111
:10304000016000218180C18001810C21418100212A
:103050008181704710B502460020108A4FF2FF03AD
:1030600018400B884C8823438C882343CC88234307
:103070001843108210BD0021018041808180C180F1
:10308000704721B1828942F40052828104E0828932
:103090004DF6FF731A4082817047F0B50346002455
:1030A00000260025002040F66A17B94200D100BF73
:1030B0001846C1F3421401F01F06012707FA06F56E
:1030C000012C01D10C3004E0022C01D1103000E0C1
:1030D00014301AB107682F43076002E00768AF4356
:1030E0000760F0BD1AB1838A0B43838202E0838AB2
:1030F0008B4383827047028A4FF6F0731A40028234
:10310000028A0A430282704782894FF2FF731A4093
:10311000828182890A438281704721B1828942F08B
:103120000202828104E082894FF6FD731A40828197
:103130007047028A4FF6DF731A400282028A0A43FE
:103140000282704721B1028A42F48042028204E086
:10315000028A4BF6FF731A4002827047C1F30802DD
:103160008280704701468888C0F3080070478189D3
:1031700041F0010181817047028BD2B20283028B40
:1031800042EA012202837047028B02F47F420283EB
:10319000028B0A430283704721B1828A42F02002E7
:1031A000828204E0828A4FF6DF731A40828270477F
:1031B00021B1828A42F01002828204E0828A4FF6B4
:1031C000EF731A408282704721B1828A42F008026E
:1031D000828204E0828A4FF6F7731A408282704737
:1031E00021B1828942F40042828103E08289C2F3E4
:1031F0000E028281704721B1828A42F4006282828B
:1032000004E0828A4FF2FF731A4082827047828AFA
:103210004FF6FB731A408282828A0A438282704789
:1032200021B1828A42F00202828204E0828A4FF651
:10323000FD731A408282704702460020B1F5007F7C
:1032400000D100BF13880B400BB1012000E000202B
:10325000704701F40072B2F5007F00D100BFCA438D
:103260000280704770B5024600240023002500202C
:1032700040F66A16B14200D100BFC1F3421501F019
:103280001F03012606FA03F3012D02D1968933406C
:1032900006E0022D02D1168A334001E0968A3340BF
:1032A0000C12012606FA04F41688344013B10CB14E
:1032B000012000E0002070BD10B50022002340F680
:1032C0006A14A14200D100BF0A1201249440A3B2A3
:1032D000DC43048010BD0000003801400044004081
:1032E00000480040004C0040005000402DE9F041F3
:1032F00004460D461646284603F04EF88046214601
:1033000003F0B6F803D2284603F046F80CE0304646
:1033100003F042F88046214603F0A0F803D230467D
:1033200003F03AF800E02046074603F04FF8BDE806
:10333000F08170B5DDE904450463456301604260D6
:103340008360002606614661866186624662C662C7
:10335000C661866370BD70B50446D4E9070102F00A
:103360001DFEA062D4E9091002F018FEE062A06A16
:103370006062A16A206802F017FE2061A16A60689D
:1033800002F012FE0546616902F0B6FD6061226B33
:1033900051426069FFF7AAFF054602F0FDFF606138
:1033A000E16AA06802F000FEA06170BDC1617047D3
:1033B00000214161704710B50446A16A206802F0FF
:1033C000F3FD206110BD70B50446A16A606802F08B
:1033D000EBFD0546616902F08FFD6061226B514291
:1033E0006069FFF783FF054602F0D6FF606170BD9C
:1033F00010B50446E16AA06802F0D6FDA06110BDD8
:1034000070B50446D4E9040102F076FDA063626B56
:103410005142A06BFFF76AFF054602F0BDFFA063B3
:1034200070BD70B50446D4E9040102F065FD05469F
:10343000A16902F061FDA063626B5142A06BFFF7CE
:1034400055FF054602F0A8FFA06370BD2DE9F84FB7
:103450000646002700240025704202F09DFF044626
:1034600077480168204602F099FD074674480460D9
:1034700021467448006802F03FFD724908607249B5
:103480007048006802F0F4FF02D26F486D4908608E
:103490006E496C48006802F0E1FF02D26B4869494E
:1034A000086039466A48006802F07EFD21460090B7
:1034B0006848006802F078FD824621466648006848
:1034C00002F072FD8346514602F016FD81460099D6
:1034D00002F012FD804602F079FF0546502D00DD16
:1034E000502515F1500F01DA6FF04F052846BDE861
:1034F000F88F2DE9F84F064600270024002570427A
:1035000002F04AFF044655480168204602F046FD95
:1035100007465248046021465148006802F0ECFC1E
:103520004F49086048494E48006802F0A1FF02D2A6
:1035300045484B49086045494948006802F08EFFFC
:1035400002D242484649086039464648006802F0BF
:103550002BFD214600904448006802F025FD82467C
:1035600021464248006802F01FFD8346514602F0A2
:10357000C3FC8146009902F0BFFC804602F026FFA2
:1035800005463C2D00DD3C2515F13C0F01DA6FF0BE
:103590003B052846BDE8F88F2DE9F84F0646002781
:1035A00000240025704202F0F7FE0446304801680E
:1035B000204602F0F3FC07462D48046021462D48C2
:1035C000006802F099FC2B4908602B4929480068E3
:1035D00002F04EFF02D228482649086027492548B4
:1035E000006802F03BFF02D22448224908603946B5
:1035F0002348006802F0D8FC21460090214800686A
:1036000002F0D2FC824621461F48006802F0CCFC42
:103610008346514602F070FC8146009902F06CFC32
:10362000804602F0D3FE0546642D00DD642515F1C9
:10363000640F01DA6FF063052846BDE8F88F0000DB
:10364000500000205400002000002042000020C252
:1036500034000020300000202C0000205800002002
:103660005C000020400000203C00002038000020CA
:1036700060000020640000200000C8420000C8C2B2
:103680004C000020480000204400002002460B7837
:1036900083EA020080EA0013D8B20B881B1283EA87
:1036A000002383EAC00383EA20130B8070472DE9CF
:1036B000F34FC1B08268C4680569D0F814C083694B
:1036C000C669076AD0F82480CDF80081002106E0A1
:1036D000DDF8088158F821804DF82180491C102917
:1036E000F6DB10214DE0A1F102085DF828804FEAD9
:1036F0005849A1F102085DF8288049EAC838A1F1CB
:1037000002095DF829904FEAD94AA1F102095DF852
:1037100029904AEA493988EA0908A1F102095DF8C5
:10372000299088EA9929A1F107085DF82880C84402
:10373000A1F10F095DF829904FEAD91AA1F10F09FB
:103740001DF829904AEA4969A1F10F0A5DF82AA0FB
:103750004FEA9A4BA1F10F0A5DF82AA04BEA8A3A88
:1037600089EA0A09A1F10F0A5DF82AA089EADA09B3
:10377000C144A1F110085DF82880C8444DF82180AB
:10378000491C4029AFDB002149E04FEA931A4AEA7D
:10379000836A4FEAD32B4BEA435B8AEA0B0A4FEA70
:1037A000536B4BEAC31B8AEA0B0ADDF800B1D34422
:1037B00003EA060A27EA030E8AEA0E0ADA44DFF869
:1037C00058B65BF821B0DA445DF821B00AEB0B087B
:1037D0004FEA920A4AEA827B4FEA523A4AEAC24ADE
:1037E0008BEA0A0B4FEA925A4AEA822A8BEA0A0BC0
:1037F00002EA040A02EA050E8AEA0E0A04EA050E43
:103800008AEA0E0A0BEB0A09409737461E460CEB74
:103810000803AC462546144608EB0902491C40291A
:10382000B3DBD0F808809044C0F80880D0F80C8052
:1038300008EB0409C0F80C90D0F8108008EB0509DB
:10384000C0F81090D0F8148008EB0C09C0F8149060
:10385000D0F8188008EB0309C0F81890D0F81C8045
:1038600008EB0609C0F81C90D0F8208008EB070987
:10387000C0F82090D0F82490DDF80081C144C0F851
:10388000249043B0BDE8F08F2DE9F04F91B004468D
:1038900089461546CA46D4F800B0206800EBC5003A
:1038A00020602068584502D26068401C6060CBF3FD
:1038B000C50630E0C6F14007BD4200D22F4604F1F4
:1038C000280188193A46514602F0E5FA3E44BA44C6
:1038D000ED1B402E1ED104F1280000904FF000088F
:1038E0000FE0009A02EB880001AA02EB8801C2787F
:1038F0000A7082784A7042788A700278CA7008F139
:103900000108B8F1100FECDB01A92046FFF7CFFE4C
:10391000002600BF00BF002DCCD111B0BDE8F08F54
:103920002DE9F04192B004460E462088C0F3C50848
:10393000C8F1770000F03F00451C04F10807802023
:103940008DF8000047210DF1010002F0BDFA217849
:10395000E81D0DF800102088C0F30721A81D0DF800
:1039600000102068C0F30741681D0DF800102068A2
:10397000000E291D0DF801002179E81C0DF800103A
:10398000A088C0F30721A81C0DF800106068C0F3E0
:103990000741681C0DF800106068000E0DF8050066
:1039A00005F1080269462046FFF76EFFF87830708F
:1039B000B87870707878B0703878F070F8793071C5
:1039C000B879707112B0BDE8F0812DE9F0479CB074
:1039D00004460D4616461F46DDE9259ADDF890801F
:1039E0001CB1207800F0010018B900201CB0BDE81F
:1039F000F08760782870D4E90201CDE900010098D1
:103A0000C5F80100BDF80400A5F80500D4E90220BE
:103A1000521C40F10000C4E9022002A8002101600C
:103A20004160FE498160FE4AC260FE4A0261FE4A70
:103A30004261FE4A8261FE4AC261FE4A0262FE4A59
:103A4000426200BF202204F11001FFF71DFF3A4639
:103A5000314602A8FFF718FF4A46414602A8FFF781
:103A600013FF0222514602A8FFF70EFF0722294644
:103A700002A8FFF709FFE91D02A8FFF751FF0D207B
:103A8000B4E7024601E0481EC1B2012903DD481E29
:103A9000105C0028F7D0084670472DE9FF4F87B02B
:103AA00004461D46287BC0F3400646B9286930B15C
:103AB0002869007800F0010008B1012000E0002032
:103AC0008146B9F1000F01D00D2000E000200690E2
:103AD0000A271EB1FE20A070062701E0FD20A0707D
:103AE0000EB1149804E004F110001599FFF7C9FF16
:103AF000E0700898E0710998207200202071B9F1F7
:103B0000000F03D0207940F0010020710020607187
:103B1000A879A071A879401CA871A0788DF80C0034
:103B2000E0788DF80D006EB1A0798DF80E00E07987
:103B30008DF80F00207A8DF810002089000A8DF88A
:103B400011001AE020798DF80E0060798DF80F00D1
:103B5000A0798DF81000E0798DF81100207A8DF8A9
:103B600012002089000A8DF81300A068000C8DF85F
:103B70001400A068000E8DF815000DF10D08781ED8
:103B80001FFA80FA00BF4FF6FF70029000BF04E0FA
:103B900018F8010B02A9FFF779FD5FEA0A00AAF104
:103BA00001011FFA81FAF3D1BDF808002080A04678
:103BB00004F1100AE0780290D34604E01BF8010BF0
:103BC0004146FFF763FD0298411E89B20291002829
:103BD000F4D100BF21461698FFF758FD2178E2780E
:103BE00004F11000815420880212E078401C04F196
:103BF00010010A54B9F1000F0FD0E17804F1100060
:103C0000084404F11002CDE9002102903B4603AACA
:103C100004F58D712869FFF7D8FEE0783844801CE0
:103C2000069908440BB0BDE8F08F2DE9F047054632
:103C30000C46E678A078FE281AD14FF00009052737
:103C4000A07828706E70A079A870E079E870207A6A
:103C500028712089000A6871E27804F11001A81D1A
:103C600002F019F9E819401CE17800EB01082FE097
:103C7000314604F11000FFF704FF06460927A0783B
:103C800028706E702079A8706079E870A07928712A
:103C9000E0796871207AA8712089000AE871A0682B
:103CA000000C2872A068000E6872324604F1100100
:103CB00005F10A0002F0EFF8E819401C00EB0608D5
:103CC000207900F0010008B10D2000E000208146BD
:103CD000207888F800002088001288F80100B9F1E7
:103CE000000F06DD4A4604F58D7108F1020002F06E
:103CF000D2F8F81C30444844BDE8F0874F480088AB
:103D0000401C00B24D4908804D480088401C00B25C
:103D10004B4908804B480088401C00B24949088044
:103D200049480088401C00B247490880474800883D
:103D3000401C00B24549088045480088401C00B23C
:103D40004349088043480068401C42490860704766
:103D500010B500F004FB10BD10B500F0B3FC10BDB1
:103D600010B500F022F910BD10B53B493B4801F0F9
:103D700074FB04463849394802F023F804463649B2
:103D8000364802F01EF8044610BD10B501F017FBCE
:103D900010BD1FB5002404200021D822CDE9001257
:103DA0000C232E4ACDE90210C821012000F08EF824
:103DB0002A492948FFF739FF044622462649284860
:103DC000FDF7ADF91FBD10B51C48B0F9000014286F
:103DD00007DB2448007808B1FFF7BAFF0020174935
:103DE00008801748B0F900000A2804DBFFF7B4FF89
:103DF0000020134908801348B0F90000642807DB4D
:103E00001848007808B1FFF7ABFF00200D49088083
:103E10000D48B0F9000027E0D86F000867E6096A8E
:103E200085AE67BB72F36E3C3AF54FA57F520E51DB
:103E30008C68059BABD9831F19CDE05B680000201F
:103E40006A0000206C0000206E000020700000203E
:103E50007200002078000020400800201807002091
:103E60000038014074000020322804DBFFF77CFF9B
:103E70000020334908803348B0F90000432804DBB0
:103E8000FFF783FF00202F4908802F48B0F900007A
:103E9000B0F57A7F04DBFFF77CFF00202A49088019
:103EA00010BD00202949088029490880512029494E
:103EB0000880002022490880224908802249088081
:103EC0002549086001202549087070472DE9F04F09
:103ED00087B005460E4614469B46129804908DF80E
:103EE00014B010988DF8150011988DF816001398DD
:103EF0008DF8170003208DF81800092204A904F199
:103F0000100001F0C8FF207AA0600927BA464FF0E0
:103F100032084FF0000900BF09EB4900104901EBDE
:103F2000C0000390CDE901A80097324629462046FB
:103F3000039BFFF7B2FD00BF07B0BDE8F08F0000A4
:103F40006E00002070000020720000206800002039
:103F50006A0000206C00002078000020740000201F
:103F6000401000201CB542F210704110524B00224C
:103F7000CDE9001051495248FFF7DBF942F21070C9
:103F800041104D4B0022CDE900104C494D48FFF740
:103F9000D0F942F21070411000231A46CDE900100A
:103FA00049494A48FFF7C5F91CBD2DE9F041484889
:103FB00000684449086246484068444908624448E9
:103FC00080683F490862086A424902F051FA0DD8F8
:103FD0003B49086A02F013FA064600223E4B02F003
:103FE000F4F8044602F01EFA354908623549086AB9
:103FF000384902F03DFA0DD83249086A02F0FFF95B
:1040000006460022344B02F0E0F8044602F00AFAB9
:104010002C490862314801682E4801F06DFF0446C2
:104020002A48016A204602F019FA0DD82749086A81
:1040300002F0E5F906460022274B02F0C6F80446D6
:1040400002F0F0F9214908621D48FFF784F91D4884
:10405000FFF781F91D48FFF77EF91948FFF7E1F9ED
:104060001848FFF7DEF91948FFF7DBF91449886BA8
:104070001B4901F0CBFF1B4908601249886B1849A6
:1040800001F0C4FF184908601049886B144901F019
:10409000BDFF16490860134801681548FFF786F907
:1040A000114801681348FFF781F910480168124868
:1040B000FFF77CF9BDE8F0810000A0400000A041BE
:1040C000A0100020DC10002000002041181100206A
:1040D000DC1200200000344300807640D80000202D
:1040E0000000C8427C0000208000002084000020E6
:1040F0005411002090110020CC11002070B504460E
:104100000D46FE48FEF7BAFEA0F2DC50A04200D1F8
:1041100070BDB4F5FA7F01DD4FF4FA7414F5FA7F3F
:1041200000DAF74C35B104F2DC5081B2F348FEF707
:1041300093FE06E040F2DC50001B81B2EF48FEF730
:104140008BFE00BFE4E770B504460D46EB48FEF772
:1041500098FEA0F2DC50A04200D170BDB4F5FA7F09
:1041600001DD4FF4FA7414F5FA7F00DAE44C35B14E
:1041700004F2DC5081B2E148FEF770FE06E040F246
:10418000DC50001B81B2DD48FEF768FE00BFE4E7AB
:1041900070B504460D46D948FEF776FEA0F2DC5015
:1041A000A04200D170BDB4F5FA7F01DD4FF4FA747E
:1041B00014F5FA7F00DAD24C35B104F2DC5081B24A
:1041C000CE48FEF74DFE06E040F2DC50001B81B207
:1041D000CA48FEF745FE00BFE4E770B504460D4649
:1041E000C648FEF754FEA0F2DC50A04200D170BDDC
:1041F000B4F5FA7F01DD4FF4FA7414F5FA7F00DAB2
:10420000BF4C35B104F2DC5081B2BC48FEF72AFE47
:1042100006E040F2DC50001B81B2B848FEF722FEF7
:1042200000BFE4E770B504460D46B648FEF726FE2B
:10423000A0F2DC50A04200D170BDB4F5FA7F01DDE0
:104240004FF4FA7414F5FA7F00DAAD4C35B104F28C
:10425000DC5081B2AB48FEF7FFFD06E040F2DC50D7
:10426000001B81B2A748FEF7F7FD00BFE4E770B579
:1042700004460D46A348FEF704FEA0F2DC50A0421F
:1042800000D170BDB4F5FA7F01DD4FF4FA7414F576
:10429000FA7F00DA9A4C35B104F2DC5081B29948C9
:1042A000FEF7DCFD06E040F2DC50001B81B29548D1
:1042B000FEF7D4FD00BFE4E770B504460D46914813
:1042C000FEF7E2FDA0F2DC50A04200D170BDB4F5D3
:1042D000FA7F01DD4FF4FA7414F5FA7F00DA884CA6
:1042E00035B104F2DC5081B28648FEF7B9FD06E034
:1042F00040F2DC50001B81B28248FEF7B1FD00BFE6
:10430000E4E71CB542F21070411000231A46CDE9D3
:1043100000107D497D48FFF70CF842F21070411003
:104320007B4B8206CDE900107A497B48FFF701F804
:1043300042F210704110764B1A46CDE900107549D3
:104340007648FEF7F6FF42F2107041100023704AE3
:10435000CDE900106F497248FEF7EBFF1CBD2DE957
:10436000F047704800686D4908626E4840686C49C3
:1043700008626C4880686849086200F034FF63494D
:1043800008626649C869684901F0B6FD0446634899
:10439000016A204602F062F806D86049086A63495B
:1043A00001F0FCFD5D4908625D49C8695E4901F0A4
:1043B000A3FD04465A48016A204602F04FF806D889
:1043C0005749086A594901F0E9FD554908625249BF
:1043D000C869554901F090FD04464F48016A2046DE
:1043E00002F03CF806D84C49086A504901F0D6FD65
:1043F000494908624848FEF7AEFF4848FEF7ABFF60
:104400004748FEF7A8FF4148FEF7A5FF4248FFF7DF
:1044100008F84248FFF705F84148FFF702F83B4823
:10442000FEF7FFFF3C49886B414901F0EFFD414930
:1044300008603A49886B3E4901F0E8FD3E49086052
:104440003749886B3A4901F0E1FD3C4908602F4942
:10445000886B304901F0DAFD394908603748016856
:104460004FF07E5001F0A0FD064636480168364800
:10447000006801F041FD0746314601F03DFD05466B
:1044800001F0A4FF0446314801682046FFF75BFEB7
:104490002C4801682C48006801F080FD054601F0B9
:1044A00095FF04462A4801682046FFF727FE254865
:1044B00001682548006801F071FD054601F086FF9E
:1044C0000446244801682046FFF762FE1B48016845
:1044D0004FF07E5001F068FD06461A4801681A4800
:1044E000006801F009FD0746314601F057FD054619
:1044F00001F06CFF0446184801682FE000040040FA
:104500000CFEFFFF003401400000A0410812002013
:104510000000A040000048425411002090110020EB
:10452000CC110020CC1200200000FA4400007A4593
:104530000000C842880000208C000020900000206D
:1045400094000020D0000020CC0000209800002023
:104550009C000020A4000020A00000202046FFF7BF
:104560003CFE334801684FF07E5001F01DFD0746C8
:10457000304801684FF07E5001F016FD80462E480D
:1045800001682E48006801F0B7FC8146414601F001
:10459000B3FC0646394601F0AFFC054601F016FFB4
:1045A0000446274801682046FFF73CFE2048016882
:1045B0004FF07E5001F0F8FC07461E4801684FF0AE
:1045C0007E5001F0F1FC80461B4801681B480068E2
:1045D00001F092FC8146414601F0E0FC0646394676
:1045E00001F08AFC054601F0F1FE04461548016819
:1045F0002046FFF73CFE0E4801684FF0804001F076
:10460000D3FC06460C4801680C48006801F074FCB5
:104610000746314601F0C2FC054601F0D7FE0446CC
:10462000094801682046FFF747FEBDE8F087000013
:10463000880000208C00002094000020D40000207E
:10464000A8000020AC000020B000002010B5624897
:1046500040686249086062496048006801F008FFEC
:1046600006D860495D48006801F098FC5B49086025
:104670005A4800685C49086000205C4908605C4951
:1046800008605C4908605C4908605C4908605C49F6
:1046900008605C4908605C490860574801685B48ED
:1046A000FEF784FE554801685948FEF77FFE4E48E4
:1046B00001685848FEF77AFE4E4801685648FEF7F2
:1046C00075FE10BD2DE9FC5F5449B1F9000001F001
:1046D0006CFE80460022524B01F0EFFD06460022A0
:1046E000504B01F078FD044601F09CFE3F49086004
:1046F0004A49B1F9020001F058FE06460022484B33
:1047000001F0DBFD80460022464B01F064FD0446CB
:1047100001F088FE364908604049B1F9040001F013
:1047200044FE064600223E4B01F0C7FD80460022B3
:104730003C4B01F050FD044601F074FE2D49086029
:104740002648006801F05BFE804689463349B1F98E
:10475000060001F02AFE06460022314B01F0ADFDB5
:1047600004460022304B01F036FD824642464B465D
:1047700001F08AFCCDE9000101F054FE1A490860FD
:104780001C4801682448FEF711FE174801682148BB
:10479000FEF70CFEBDE8FC9F2DE9F0410446962192
:1047A000A068B1EB102F14D125461C4EE8780A28DA
:1047B00001DAE87800E00A200746002030607060E7
:1047C00030813A4605F11001304601F064FB00BF2C
:1047D00000BFBDE8F0810000DC120020BC0000201A
:1047E000000034430000B443D8000020CC00002077
:1047F000D0000020D4000020B4000020B800002029
:10480000C0000020C4000020C8000020A01000202C
:10481000DC10002018110020081200204412002093
:104820000000E04000406F400080664002460B7888
:1048300083EA020080EA0013D8B20B881B1283EAD5
:10484000002383EAC00383EA20130B8070472DE91D
:10485000F34FC1B08268C4680569D0F814C0836999
:10486000C669076AD0F82480CDF80081002106E0EF
:10487000DDF8088158F821804DF82180491C102965
:10488000F6DB10214DE0A1F102085DF828804FEA27
:104890005849A1F102085DF8288049EAC838A1F119
:1048A00002095DF829904FEAD94AA1F102095DF8A1
:1048B00029904AEA493988EA0908A1F102095DF814
:1048C000299088EA9929A1F107085DF82880C84451
:1048D000A1F10F095DF829904FEAD91AA1F10F094A
:1048E0001DF829904AEA4969A1F10F0A5DF82AA04A
:1048F0004FEA9A4BA1F10F0A5DF82AA04BEA8A3AD7
:1049000089EA0A09A1F10F0A5DF82AA089EADA0901
:10491000C144A1F110085DF82880C8444DF82180F9
:10492000491C4029AFDB002149E04FEA931A4AEACB
:10493000836A4FEAD32B4BEA435B8AEA0B0A4FEABE
:10494000536B4BEAC31B8AEA0B0ADDF800B1D34470
:1049500003EA060A27EA030E8AEA0E0ADA44DFF8B7
:1049600058B65BF821B0DA445DF821B00AEB0B08C9
:104970004FEA920A4AEA827B4FEA523A4AEAC24A2C
:104980008BEA0A0B4FEA925A4AEA822A8BEA0A0B0E
:1049900002EA040A02EA050E8AEA0E0A04EA050E91
:1049A0008AEA0E0A0BEB0A09409737461E460CEBC3
:1049B0000803AC462546144608EB0902491C402969
:1049C000B3DBD0F808809044C0F80880D0F80C80A1
:1049D00008EB0409C0F80C90D0F8108008EB05092A
:1049E000C0F81090D0F8148008EB0C09C0F81490AF
:1049F000D0F8188008EB0309C0F81890D0F81C8094
:104A000008EB0609C0F81C90D0F8208008EB0709D5
:104A1000C0F82090D0F82490DDF80081C144C0F89F
:104A2000249043B0BDE8F08F2DE9F04F91B00446DB
:104A300089461546CA46D4F800B0206800EBC50088
:104A400020602068584502D26068401C6060CBF34B
:104A5000C50630E0C6F14007BD4200D22F4604F142
:104A6000280188193A46514601F015FA3E44BA44E5
:104A7000ED1B402E1ED104F1280000904FF00008DD
:104A80000FE0009A02EB880001AA02EB8801C278CD
:104A90000A7082784A7042788A700278CA7008F187
:104AA0000108B8F1100FECDB01A92046FFF7CFFE9B
:104AB000002600BF00BF002DCCD111B0BDE8F08FA3
:104AC0002DE9F04192B004460E462088C0F3C50897
:104AD000C8F1770000F03F00451C04F10807802072
:104AE0008DF8000047210DF1010001F0EDF921786A
:104AF000E81D0DF800102088C0F30721A81D0DF84F
:104B000000102068C0F30741681D0DF800102068F0
:104B1000000E291D0DF801002179E81C0DF8001088
:104B2000A088C0F30721A81C0DF800106068C0F32E
:104B30000741681C0DF800106068000E0DF80500B4
:104B400005F1080269462046FFF76EFFF8783070DD
:104B5000B87870707878B0703878F070F879307113
:104B6000B879707112B0BDE8F0812DE9F0479CB0C2
:104B700004460D4616461F46DDE9259ADDF890806D
:104B80001CB1207800F0010018B900201CB0BDE86D
:104B9000F08760782870D4E90201CDE9000100981F
:104BA000C5F80100BDF80400A5F80500D4E902200D
:104BB000521C40F10000C4E9022002A8002101605B
:104BC0004160FE498160FE4AC260FE4A0261FE4ABF
:104BD0004261FE4A8261FE4AC261FE4A0262FE4AA8
:104BE000426200BF202204F11001FFF71DFF3A4688
:104BF000314602A8FFF718FF4A46414602A8FFF7D0
:104C000013FF0222514602A8FFF70EFF0722294692
:104C100002A8FFF709FFE91D02A8FFF751FF0D20C9
:104C2000B4E7024601E0481EC1B2012903DD481E77
:104C3000105C0028F7D0084670472DE9FF4F87B079
:104C400004461D46287BC0F3400646B9286930B1AA
:104C50002869007800F0010008B1012000E0002080
:104C60008146B9F1000F01D00D2000E00020069030
:104C70000A271EB1FE20A070062701E0FD20A070CB
:104C80000EB1149804E004F110001599FFF7C9FF64
:104C9000E0700898E0710998207200202071B9F145
:104CA000000F03D0207940F00100207100206071D6
:104CB000A879A071A879401CA871A0788DF80C0083
:104CC000E0788DF80D006EB1A0798DF80E00E079D6
:104CD0008DF80F00207A8DF810002089000A8DF8D9
:104CE00011001AE020798DF80E0060798DF80F0020
:104CF000A0798DF81000E0798DF81100207A8DF8F8
:104D000012002089000A8DF81300A068000C8DF8AD
:104D10001400A068000E8DF815000DF10D08781E26
:104D20001FFA80FA00BF4FF6FF70029000BF04E048
:104D300018F8010B02A9FFF779FD5FEA0A00AAF152
:104D400001011FFA81FAF3D1BDF808002080A046C6
:104D500004F1100AE0780290D34604E01BF8010B3E
:104D60004146FFF763FD0298411E89B20291002877
:104D7000F4D100BF21461698FFF758FD2178E2785C
:104D800004F11000815420880212E078401C04F1E4
:104D900010010A54B9F1000F0FD0E17804F11000AE
:104DA000084404F11002CDE9002102903B4603AA19
:104DB00004F58D712869FFF7D8FEE0783844801C2F
:104DC000069908440BB0BDE8F08F2DE9F047054681
:104DD0000C46E678A078FE281AD14FF00009052786
:104DE000A07828706E70A079A870E079E870207AB9
:104DF00028712089000A6871E27804F11001A81D69
:104E000001F049F8E819401CE17800EB01082FE0B7
:104E1000314604F11000FFF704FF06460927A07889
:104E200028706E702079A8706079E870A079287178
:104E3000E0796871207AA8712089000AE871A06879
:104E4000000C2872A068000E6872324604F110014E
:104E500005F10A0001F01FF8E819401C00EB0608F4
:104E6000207900F0010008B10D2000E0002081460B
:104E7000207888F800002088001288F80100B9F135
:104E8000000F06DD4A4604F58D7108F1020001F0BD
:104E900002F8F81C30444844BDE8F08710B51E22E3
:104EA0001146EC20FCF705F810BD2DE9F04F8BB052
:104EB0004A4840894A490968A1EB00244748C0880C
:104EC0000022E117A0FB043C02FB04C200FB01200E
:104ED0004FF48072CDE902300023DDE9020100F0D9
:104EE000A9FF3E4A52884FF40043A2FB03238518D2
:104EF00041EB0306394800890022E117A0FB043C7E
:104F000002FB04C200FB01208022CDE90230002315
:104F1000DDE9020100F08EFF304A92884FF48033C1
:104F2000A2FB032380185941CDE908012B48808951
:104F30000022E117A0FB043C02FB04C200FB01209D
:104F40004FF40002CDE902300023DDE9020100F058
:104F500071FF4FF4FA614018224908602248006846
:104F60004FF00001A0FB05B301FB053100FB06116A
:104F70004FF400124FF00003584600F05BFFDDE9EC
:104F80000823801A61EB03014FF400520023CDE99E
:104F9000020100F04FFF15490860124800686421C3
:104FA00090FBF1F0142872DA032080FB0401E31770
:104FB000A0FB042C1CE00000D870000867E6096A1A
:104FC00085AE67BB72F36E3C3AF54FA57F520E512A
:104FD0008C68059BABD9831F19CDE05B5C12002068
:104FE000F0000020F4000020EC000020F800002079
:104FF00001FB04C100FB0310CDE9022000220223C3
:10500000DDE9020100F016FF0790F8490968A1F5F3
:10501000FA6101EB4101F54A1268A2F5FA6201FB5F
:1050200002F000EBD0714FEA610AF0490968A1F57E
:10503000FA6101EB8101ED4A1268A2F5FA6201FB07
:1050400002F0C11700EB51714FEAE109E74800682F
:10505000642190FBF1F010F10F0F3ADAE348006899
:1050600000F2DC50C0EBC001E048006800F2DC5008
:1050700001FB00AADD48006800F2DC508100DB483B
:10508000006800F2DC5001FB009922E0FFE7D748FE
:105090000068642190FBF1F014281ADB04FB04F093
:1050A0004000C11783460022202300F0C3FE079072
:1050B000CE490968A1F5FA61CC4A1268A2F5FA62F4
:1050C00001FB02F0C11700EB11714FEA211A4FF0FA
:1050D0000009DDE90810B1EB0A0760EBEA78B5EBEF
:1050E000090166EBE970CDE90410C0480168079832
:1050F000A1EB0000BD490860BD484FF00003026805
:10510000DDE90410A2FB01CB03FB01B102FB00109F
:105110004FF40012CDE900C06046019900F08AFE0C
:10512000C01B61EB08014FF400520023CDE90201DE
:1051300000F080FEAF4908600BB0BDE8F08F10B5FD
:1051400000224821EC20FBF7B4FE1420FBF7ABFD56
:1051500003230022A849EC20FBF736FFA64800787D
:105160000004A549497840EA0120A3498978084309
:105170009F49086000225821EC20FBF79AFE14207A
:10518000FBF791FD032300229B49EC20FBF71CFF5A
:105190009948007800049849497840EA01209649E6
:1051A000897808439549086010BD10B5EC20FBF7DD
:1051B000D6FE10BD70B504468E48006801F0ECF8CC
:1051C00006468F4900F022FF0546214600F0ECFE1E
:1051D00070BD10B58548006801F0DEF804468949C5
:1051E00000F014FF10BD2DE9F0478648FFF7E2FFFD
:1051F0008146854900F0D2FE044601F000F90746D9
:10520000824A834B01F059F8054601F00BF9BDE8DD
:10521000F0878049C860704710B5FFF790FFFFF72F
:1052200044FEFFF7D6FF7B494860FFF7DCFF0446EA
:105230007848C168204600F0B1FE764908607148A0
:10524000FFF7B8FF7349886010BD08B501207249A7
:105250000860FBF715FDFFF721FE0223A022694637
:10526000EC20FBF7B1FE9DF801009DF8001040EA2C
:1052700001206A4908800223A2226946EC20FBF73C
:10528000A3FE9DF801009DF8001040EA012063494B
:1052900048800223A4226946EC20FBF795FE9DF886
:1052A00001009DF8001040EA01205C49888002233B
:1052B000A6226946EC20FBF787FE9DF801009DF8C9
:1052C000001040EA01205549C8800223A8226946FF
:1052D000EC20FBF779FE9DF801009DF8001040EAF4
:1052E00001204E4908810223AA226946EC20FBF7DF
:1052F0006BFE9DF801009DF8001040EA012047492F
:1053000048810223AC226946EC20FBF75DFE9DF844
:1053100001009DF8001040EA012040498881FFF714
:105320007BFF3C490868FFF774FF08BD10B50022F9
:105330004821EC20FBF7BDFD10BD10B50323002272
:105340002D49EC20FBF740FE2B48007800042A4949
:10535000497840EA012028498978084324490860AF
:1053600000225821EC20FBF7A4FD10BD10B503234B
:1053700000222149EC20FBF727FE1F48007800049B
:105380001D49497840EA01201B49897808431B4997
:105390000860FFF78AFDFFF71CFF1E494860FFF712
:1053A00022FF04461B48C168204600F0F7FD19495A
:1053B00008601448FFF7FEFE1649886010BD10B55E
:1053C00017480068142847DB13480068012804D0F8
:1053D000022827D0032837D12DE0FFF7A7FF0220AE
:1053E0000D49086000200E49086034E0F4000020F8
:1053F000EC000020F800002000010020F000002058
:10540000000020410000C84200DAC5473945477214
:105410009D18C340DC000020FC0000205C1200202E
:1054200078000020FFF789FF03203849086000203A
:10543000374908600FE0FFF799FF01203349086002
:1054400000203349086006E0012030490860002050
:105450002F49086000BF00BF10BD7CB505460E4651
:105460002C4801682C48006800F0F8FF1AD0294841
:105470000068294908602748806826494968CDE9BD
:10548000001024482A4697210368012000F00CF8F8
:1054900029463046FFF799FC0446224631461F480C
:1054A000FBF73DFE20467CBD2DE9F04F87B0054659
:1054B0000E4614469B46CDF810B0109805901198F2
:1054C000069004A807C8C4E905122061207A00F5F7
:1054D0001740A0604FF00C08C2464FF05C0900274F
:1054E00000BF07EB47000E4901EBC0000390CDE978
:1054F00001A9CDF80080324629462046039BFFF7DC
:105500009CFB00BF07B0BDE8F08F0000FC0000204E
:1055100078000020DC000020040100200038014059
:105520006C12002002460B7883EA020080EA001326
:10553000D8B20B881B1283EA002383EAC00383EAF4
:1055400020130B8070472DE9F34FC1B08268C46807
:105550000569D0F814C08369C669076AD0F8248049
:10556000CDF80081002106E0DDF8088158F821809F
:105570004DF82180491C1029F6DB10214DE0A1F1E6
:1055800002085DF828804FEA5849A1F102085DF849
:10559000288049EAC838A1F102095DF829904FEA4C
:1055A000D94AA1F102095DF829904AEA493988EA05
:1055B0000908A1F102095DF8299088EA9929A1F169
:1055C00007085DF82880C844A1F10F095DF829900B
:1055D0004FEAD91AA1F10F091DF829904AEA496941
:1055E000A1F10F0A5DF82AA04FEA9A4BA1F10F0A28
:1055F0005DF82AA04BEA8A3A89EA0A09A1F10F0A62
:105600005DF82AA089EADA09C144A1F110085DF821
:105610002880C8444DF82180491C4029AFDB002177
:1056200049E04FEA931A4AEA836A4FEAD32B4BEADE
:10563000435B8AEA0B0A4FEA536B4BEAC31B8AEAC5
:105640000B0ADDF800B1D34403EA060A27EA030E89
:105650008AEA0E0ADA44DFF858B65BF821B0DA4479
:105660005DF821B00AEB0B084FEA920A4AEA827B06
:105670004FEA523A4AEAC24A8BEA0A0B4FEA925A76
:105680004AEA822A8BEA0A0B02EA040A02EA050EB7
:105690008AEA0E0A04EA050E8AEA0E0A0BEB0A09E8
:1056A000409737461E460CEB0803AC462546144689
:1056B00008EB0902491C4029B3DBD0F8088090446C
:1056C000C0F80880D0F80C8008EB0409C0F80C90F2
:1056D000D0F8108008EB0509C0F81090D0F81480BD
:1056E00008EB0C09C0F81490D0F8188008EB0309F7
:1056F000C0F81890D0F81C8008EB0609C0F81C9080
:10570000D0F8208008EB0709C0F82090D0F824904A
:10571000DDF80081C144C0F8249043B0BDE8F08FAB
:105720002DE9F04F91B0044689461546CA46D4F893
:1057300000B0206800EBC50020602068584502D208
:105740006068401C6060CBF3C50630E0C6F14007DE
:10575000BD4200D22F4604F1280188193A4651462D
:1057600000F099FB3E44BA44ED1B402E1ED104F1DB
:10577000280000904FF000080FE0009A02EB88002C
:1057800001AA02EB8801C2780A7082784A704278D6
:105790008A700278CA7008F10108B8F1100FECDBCA
:1057A00001A92046FFF7CFFE002600BF00BF002D55
:1057B000CCD111B0BDE8F08F2DE9F04192B0044694
:1057C0000E462088C0F3C508C8F1770000F03F00FE
:1057D000451C04F1080780208DF8000047210DF1D9
:1057E000010000F071FB2178E81D0DF80010208801
:1057F000C0F30721A81D0DF800102068C0F3074171
:10580000681D0DF800102068000E291D0DF801001C
:105810002179E81C0DF80010A088C0F30721A81C0E
:105820000DF800106068C0F30741681C0DF8001007
:105830006068000E0DF8050005F108026946204673
:10584000FFF76EFFF8783070B87870707878B070C5
:105850003878F070F8793071B879707112B0BDE8AD
:10586000F0812DE9F0479CB004460D4616461F46D0
:10587000DDE9259ADDF890801CB1207800F0010068
:1058800018B900201CB0BDE8F08760782870D4E912
:105890000201CDE900010098C5F80100BDF804003F
:1058A000A5F80500D4E90220521C40F10000C4E92B
:1058B000022002A8002101604160FE498160FE4A89
:1058C000C260FE4A0261FE4A4261FE4A8261FE4AAD
:1058D000C261FE4A0262FE4A426200BF202204F117
:1058E0001001FFF71DFF3A46314602A8FFF718FFE7
:1058F0004A46414602A8FFF713FF0222514602A87A
:10590000FFF70EFF0722294602A8FFF709FFE91D4E
:1059100002A8FFF751FF0D20B4E7024601E0481E40
:10592000C1B2012903DD481E105C0028F7D00846EB
:1059300070472DE9FF4F87B004461D46287BC0F312
:10594000400646B9286930B12869007800F00100A6
:1059500008B1012000E000208146B9F1000F01D01C
:105960000D2000E0002006900A271EB1FE20A07046
:10597000062701E0FD20A0700EB1149804E004F1A8
:1059800010001599FFF7C9FFE0700898E0710998B9
:10599000207200202071B9F1000F03D0207940F06F
:1059A0000100207100206071A879A071A879401CC5
:1059B000A871A0788DF80C00E0788DF80D006EB11C
:1059C000A0798DF80E00E0798DF80F00207A8DF81F
:1059D00010002089000A8DF811001AE020798DF856
:1059E0000E0060798DF80F00A0798DF81000E07935
:1059F0008DF81100207A8DF812002089000A8DF8A8
:105A00001300A068000C8DF81400A068000E8DF83B
:105A100015000DF10D08781E1FFA80FA00BF4FF631
:105A2000FF70029000BF04E018F8010B02A9FFF715
:105A300079FD5FEA0A00AAF101011FFA81FAF3D1A8
:105A4000BDF808002080A04604F1100AE07802901A
:105A5000D34604E01BF8010B4146FFF763FD0298B3
:105A6000411E89B202910028F4D100BF2146169848
:105A7000FFF758FD2178E27804F110008154208866
:105A80000212E078401C04F110010A54B9F1000F31
:105A90000FD0E17804F11000084404F11002CDE9C0
:105AA000002102903B4603AA04F58D712869FFF797
:105AB000D8FEE0783844801C069908440BB0BDE855
:105AC000F08F2DE9F04705460C46E678A078FE28D1
:105AD0001AD14FF000090527A07828706E70A079C0
