:020000040800F2
:100000003017002045010008850A0008870A00080B
:100010008B0A00088F0A0008930A000800000000FD
:10002000000000000000000000000000970A000827
:10003000990A0008000000009B0A00089D0A0008B9
:100040005F0100085F0100085F0100085F01000810
:100050005F0100085F0100085F0100085F01000800
:100060005F0100085F0100085F0100085F010008F0
:100070005F0100085F0100085F0100085F010008E0
:100080005F0100085F0100085F0100085F010008D0
:100090005F0100085F0100085F0100085F010008C0
:1000A0005F0100085F0100085F0100085F010008B0
:1000B0005F0100085F0100085F0100085F010008A0
:1000C0005F0100085F0100085F0100085F01000890
:1000D0005F010008A50A00085F010008E10A0008A6
:1000E0005F0100085F0100085F0100085F01000870
:1000F0005F0100085F0100085F0100085F01000860
:100100005F0100085F0100085F0100085F0100084F
:100110005F0100085F0100085F0100085F0100083F
:100120005F0100085F0100085F0100085F0100082F
:10013000DFF80CD004F02EFF0048004769010008EA
:10014000301700200648804706480047FEE7FEE7D4
:10015000FEE7FEE7FEE7FEE7FEE7FEE7FEE7FEE777
:100160007B170008310100089AB000F091FF00F001
:1001700093FD01F061F801F04BF901F0E3F901F0B2
:1001800083FA01F0E9F903F0ADFE03F0E5FF12A1F7
:1001900001A804F05BFF01A9164800F0E4FF07E0A6
:1001A00015A101A804F052FF01A9124800F0DBFFDD
:1001B00004F060FA0028F3D015A101A804F046FF6E
:1001C00001A90C4800F0CFFF04F0A4FA03F067FE89
:1001D00001E003F025FEFCE7546869732069732091
:1001E0007468652064656275672065646974696F09
:1001F0006E0A0000003801404D5335383337206413
:100200006973636F6E6E65637465640A0000000055
:100210004D533538333720636F6E6E656374656494
:100220000A0000002DE9F34FC1B08268C468056977
:10023000D0F814C08369C669076AD0F82480CDF865
:100240000081002106E0DDF8088158F821804DF892
:100250002180491C1029F6DB10214DE0A1F1020894
:100260005DF828804FEA5849A1F102085DF828801E
:1002700049EAC838A1F102095DF829904FEAD94A44
:10028000A1F102095DF829904AEA493988EA09088A
:10029000A1F102095DF8299088EA9929A1F10708DE
:1002A0005DF82880C844A1F10F095DF829904FEA54
:1002B000D91AA1F10F091DF829904AEA4969A1F15B
:1002C0000F0A5DF82AA04FEA9A4BA1F10F0A5DF8D8
:1002D0002AA04BEA8A3A89EA0A09A1F10F0A5DF8D5
:1002E0002AA089EADA09C144A1F110085DF8288042
:1002F000C8444DF82180491C4029AFDB002149E06A
:100300004FEA931A4AEA836A4FEAD32B4BEA435BDC
:100310008AEA0B0A4FEA536B4BEAC31B8AEA0B0AC1
:10032000DDF800B1D34403EA060A27EA030E8AEA9D
:100330000E0ADA44DFF82CB65BF821B0DA445DF837
:1003400021B00AEB0B084FEA920A4AEA827B4FEA95
:10035000523A4AEAC24A8BEA0A0B4FEA925A4AEAEE
:10036000822A8BEA0A0B02EA040A02EA050E8AEAEA
:100370000E0A04EA050E8AEA0E0A0BEB0A094097F8
:1003800037461E460CEB0803AC462546144608EBE0
:100390000902491C4029B3DBD0F808809044C0F81A
:1003A0000880D0F80C8008EB0409C0F80C90D0F855
:1003B000108008EB0509C0F81090D0F8148008EB05
:1003C0000C09C0F81490D0F8188008EB0309C0F8A5
:1003D0001890D0F81C8008EB0609C0F81C90D0F8E3
:1003E000208008EB0709C0F82090D0F82490DDF8B1
:1003F0000081C144C0F8249043B0BDE8F08F2DE9DE
:10040000F04F91B0044689461546CA46D4F800B06C
:10041000206800EBC50020602068584502D2606863
:10042000401C6060CBF3C50630E0C6F14007BD421A
:1004300000D22F4604F1280188193A46514604F0AB
:1004400016FB3E44BA44ED1B402E1ED104F1280099
:1004500000904FF000080FE0009A02EB880001AA1C
:1004600002EB8801C2780A7082784A7042788A70FA
:100470000278CA7008F10108B8F1100FECDB01A98D
:100480002046FFF7CFFE002600BF00BF002DCCD1D5
:1004900011B0BDE8F08F2DE9F04192B004460E4650
:1004A0002088C0F3C508C8F1770000F03F00451C64
:1004B00004F1080780208DF8000047210DF10100AC
:1004C00004F0EEFA2178E81D0DF800102088C0F342
:1004D0000721A81D0DF800102068C0F30741681D12
:1004E0000DF800102068000E291D0DF8010021797B
:1004F000E81C0DF80010A088C0F30721A81C0DF817
:1005000000106068C0F30741681C0DF800106068B7
:10051000000E0DF8050005F1080269462046FFF7B8
:100520006EFFF8783070B87870707878B07038787E
:10053000F070F8793071B879707112B0BDE8F0815F
:100540002DE9F04FA1B007460C46164606F1020B06
:1005500006F58D7808F1070020903878012121EA0E
:10056000500998F800A01FB9012021B0BDE8F08F14
:1005700006A8002101604160FB498160FB4AC2601E
:10058000FB4A0261FB4A4261FB4A8261FB4AC2614B
:10059000FB4A0262FB4A426200BF202207F11001BF
:1005A000FFF72DFFF07800F10A02594606A8FFF781
:1005B00026FF022206F58C7106A8FFF720FF07220E
:1005C000414606A8FFF71BFF04A906A8FFF763FF33
:1005D000062204A8209904F06EFA08B10020C4E7AE
:1005E000002102910391D8F801000290B8F80500AB
:1005F000ADF80C000CB90020B7E7002518E0F17940
:1006000005EBC502A01C1044407881420ED1317A1E
:1006100005EBC502A01C10448078814206D105EB91
:10062000C501A01C405C504500D104E0681C85B2A7
:100630002088A842E3DC00BF2088A84229D1208876
:10064000102801DB002090E7B9F1000F0CD0CE4B51
:10065000DDE90220D11840F10000D7E90223891A10
:10066000984101D2002080E7F17905EBC502A01C7A
:1006700010444170317A05EBC502A01C1044817012
:1006800005EBC501A01C00F801A02088401C2080BB
:1006900018E000210091019105EBC501A01C084460
:1006A00050F8031F00918088ADF80400B9F1000FE5
:1006B00007D001A80DC80099891A984101D30020DC
:1006C00053E700BF05EBC501A01C0844D8F8011092
:1006D00040F8031FB8F805108180D7E90230DDE942
:1006E0000212591A904103D2DDE90201C7E9020161
:1006F00001203AE700BF037883EA010282EA02138D
:10070000DAB203881B1283EA022383EAC20383EA74
:100710002213038000BF70472DE9F84F05460C46B1
:10072000164699460A9F002000902070E078102815
:1007300027D2DFE800F0080927485C646C747C94D9
:10074000A3B8C9F9FAF600BFFD2E0CD10220E07063
:100750000020E870AE70207B20F001002073284656
:1007600000F0FDF90DE0FE2E0BD10220E07000201C
:10077000E870AE70207B40F001002073284600F046
:10078000EEF94EE1207850B16078401C6070204650
:1007900000F0E1F9002020700120E07012E0EE701E
:1007A0000020207131462846FFF7A4FF207B00F08F
:1007B000010028B10020287168710520E07001E077
:1007C0000320E0702DE12E71287920F0010038B16E
:1007D000204600F0C0F9002020700120E07020E1E8
:1007E00031462846FFF786FF0420E07019E16E715C
:1007F00031462846FFF77EFF0520E07011E1AE711B
:1008000031462846FFF776FF0620E07009E1EE71D9
:1008100031462846FFF76EFF0720E07001E12E7297
:1008200031462846FFF766FF0820E070F9E0A86827
:1008300066F31F20A86031462846FFF75BFF207B48
:1008400000F0010040B1E878002802DD0B20E070E4
:1008500004E00C20E07001E00920E070E1E0A8680D
:10086000000A40EA0621A86861F31F20A86031460B
:100870002846FFF73FFF0A20E070D2E0A868000A90
:1008800040EA0641A86861F31F20A8603146284667
:10089000FFF730FFE878002802DD0B20E07001E070
:1008A0000C20E070BDE02179481C207105F110009A
:1008B000465431462846FFF71DFF2079E9788842E3
:1008C00001D10C20E070ACE0A968080A00F04DF9F5
:1008D0008046B8F1000F02D098F8040000E0002034
:1008E000834659462846FFF705FF2878B04202D0D4
:1008F0000E20E07001E00D20E07085F81861B8F17D
:10090000000F0DD0207998F80510884208DA98F881
:1009100005202379D11A05F11002981804F0C0F8C7
:100920007FE04DE001E0FFE700BFE0780E2803D054
:100930002888B6EB202F02D00220207001E0012091
:10094000207040F219104655287900F00100E8B1F6
:100950000F20E0700D206073207802282FD0002037
:1009600020702CE0BC50000867E6096A85AE67BBC2
:1009700072F36E3C3AF54FA57F520E518C68059B81
:10098000ABD9831F19CDE05B808D5B00206970B10E
:100990002069006B30B1A868010A2069026B20460B
:1009A000904720B92078022801D003202070012030
:1009B000E0704FF494722946484604F058F830E04D
:1009C000607BC0F10D0105F58D704654607B401EC3
:1009D0006073607B20BB2A46D4E90401FFF7B0FDB9
:1009E0008246BAF1000F0BD12069006B40B1A868B4
:1009F000010A2069026B2046904708B14FF0010AB6
:100A0000BAF1000F02D00120207001E00320207015
:100A10000120E0704FF494722946484604F027F80C
:100A200000BF00BF0098401C00902078012808D12A
:100A3000A8796071208908B9002060812089401C54
:100A40002081E87889F80300E078F870207938711F
:100A50006079401C787120893881A0787881207B6A
:100A600038730020A0702078022808D195F818115A
:100A700040F21910405D41EA0020A9F800002078FA
:100A8000BDE8F88F704700BFFEE700BFFEE700BF7C
:100A9000FEE700BFFEE770477047704710B503F0F0
:100AA000D8F810BD10B5D0B040F225516B4802F017
:100AB000A1FB98B1694802F01DFBC4B26B4606AABF
:100AC0002146002000F07FF818B165A1634800F0CE
:100AD0004AFB40F22551614802F0B6FB50B010BD10
:100AE00010B540F22771654802F084FBE0B164481C
:100AF00002780078401C624B18706248815C5F4845
:100B000002F0F4FA5E4800785F490978884205D11E
:100B1000002240F22771594802F087FA40F227710B
:100B2000564802F091FB10E040F22551534802F084
:100B300061FB50B15149091D0988C8B203F002FF99
:100B400040F225514D4802F07FFB4FF458714B485D
:100B500002F07AFB10BD8178491C8170704700BF9C
:100B60004FF6FF71018000BF704730B5014600228B
:100B7000A72316E0541C1C44600800EB4004434DBE
:100B800055F824408C4201D9431E0AE000EB400492
:100B90003E4D55F824408C4201D2024601E0024607
:100BA00001E09A42E6D300BF02EB4200374C54F812
:100BB0002000884201D0002030BD02EB4200334CBF
:100BC00004EB8000F8E72DE9F84F80460C46164606
:100BD0001D4600BF404600F031F88146404600F017
:100BE00034F882463346224649460095FFF794FD85
:100BF0000746022F01D0032F1ED1404600F025F8F2
:100C00008246404600F01AF881464846FFF7A3FFA7
:100C1000002089F80000012089F80300FD2C08D18C
:100C2000022089F8030000208AF803005046FFF7ED
:100C300096FF0020BDE8F88F3846FBE7014601EB40
:100C40004100134A02EBC0007047014601EB8100EE
:100C500000EB41100F4A02EBC00070470038014022
:100C60006D61766C696E6B206D657373616765206D
:100C700072656365697665640A000000004800409B
:100C8000000000203001002001000020BC510008BD
:100C9000300200209002002008B50121082001F058
:100CA00077F9C020ADF8000003208DF80200142071
:100CB0008DF803006946EB4800F0AEFE08BD014622
:100CC00041F2883201FB02F000E0401E0028FCD116
:100CD0007047052001E0411EC8B20028FBD17047D3
:100CE00000B54020DF4914310860FFF7F2FF802093
:100CF000DC4914310860FFF7ECFF4020D94910317E
:100D00000860FFF7E6FF4020D64914310860FFF77E
:100D1000E0FF00BD00B54020D24914310860FFF764
:100D2000D8FF8020CF4910310860FFF7D2FF402064
:100D3000CC4910310860FFF7CCFF4020C94914317D
:100D40000860FFF7C6FF00BD00B58020C54910311F
:100D5000086040200860FFF7BCFFC2480830006808
:100D600008B9012000E0002000F0800008B1002058
:100D700000BD8020BB4914310860FFF7AAFFB948C5
:100D80000830006800F0800008B10020F0E7802003
:100D9000B44914310860FFF79CFF0120E8E700B573
:100DA0004020B04914310860FFF793FF8020AD491F
:100DB00014310860FFF78DFF4020AA491031086008
:100DC000FFF787FF8020A74910310860FFF781FFF8
:100DD00000BD00B54020A34914310860FFF779FF3A
:100DE0008020A04910310860FFF773FF40209D4923
:100DF00010310860FFF76DFF9A480830006800F076
:100E0000800038B14020974914310860FFF761FF36
:100E1000002000BD4020934914310860FFF759FFBE
:100E20000120F6E700B5024608231BE040208D496B
:100E300014310860FFF74DFF02F0800020B18020E0
:100E400088491031086003E0802086491431086029
:100E50005006020EFFF73DFF402082491031086026
:100E6000FFF737FF181EA3F10101CBB2DED14020FE
:100E70007C491431086000BD00B5082300228020A1
:100E800078491031086015E05006020E402075497F
:100E900014310860FFF71DFF4020724910310860CF
:100EA000FFF717FF6F480830006800F0800008B1B6
:100EB00042F00102181EA3F10101CBB2E4D140209F
:100EC000684914310860104600BD70B504460D46EF
:100ED0001646FFF739FF08B9002070BD2046FFF71E
:100EE000A1FFFFF776FF18B9FFF759FF0020F4E7DD
:100EF0002846FFF797FFFFF76CFF3046FFF792FF9A
:100F0000FFF767FFFFF74BFF0120FFF7D8FE012037
:100F1000E3E770B504460D46FFF716FF08B9002059
:100F200070BD2046FFF77EFFFFF753FF18B9FFF7AC
:100F300036FF0020F4E72846FFF774FFFFF749FF6C
:100F400018B9FFF72CFF0020EAE7FFF7FDFE44F099
:100F50000100FFF767FFFFF73CFF18B9FFF71FFF1E
:100F60000020DDE7FFF788FF0646FFF7D3FEFFF717
:100F700016FF3046D4E730B50446FFF7E5FE08B962
:100F8000002030BD2046FFF74DFFFFF722FF05464A
:100F9000FFF705FF2846F4E7F0B505460E4617466D
:100FA000FFF7D2FE2846FFF73DFFFFF712FF18B903
:100FB000FFF7F5FE0020F0BD00240BE0305DFFF7E9
:100FC00031FFFFF706FF18B9FFF7E9FE0020F2E74F
:100FD000601CC4B2BC42F1DBFFF7E1FE0120EAE78E
:100FE000F0B504460E4617461D46FFF7ADFE08B99C
:100FF0000020F0BD2046FFF715FFFFF7EAFE18B905
:10100000FFF7CDFE0020F4E73846FFF70BFFFFF7B0
:10101000E0FE18B9FFF7C3FE0020EAE7FFF794FEF1
:1010200044F00100FFF7FEFEFFF7D3FE18B9FFF70B
:10103000B6FE0020DDE70EE0FFF71EFF3070761CE5
:10104000012D02DDFFF74CFE03E0FFF763FEFFF723
:10105000A6FE681E85B2002DEED1FFF7A0FE01208E
:10106000C7E70000000C014008B54FF4A06000F095
:1010700005FC25208DF8000003208DF801008DF877
:10108000020001208DF80300684600F0FCFB08BD5B
:1010900000B585B00121042000F07AFF012188030A
:1010A00000F076FF4FF40070ADF8100018208DF8B6
:1010B000130003208DF8120004A9534800F0ACFC83
:1010C0004FF48060ADF8100004208DF8130004A9DF
:1010D0004D4800F0A1FC4FF4E13000900020ADF845
:1010E0000400ADF80600ADF80800ADF80C000C20C7
:1010F000ADF80A006946454801F0FFFEFFF7B4FF6E
:10110000012240F22551414801F08FFF01213F4863
:1011100001F07FFF05B000BD70B504460D462946BD
:10112000204601F0E3FF00BF8021204602F04CF88A
:101130000028F9D070BD2DE9F04107460D4616464E
:10114000002405E0295D3846FFF7E6FF601CC4B2C5
:10115000B442F7DB00BF4021384602F035F80028E2
:10116000F9D0BDE8F08170B506460C46002500BFF9
:10117000615D3046FFF7D0FF6D1C605D0028F7D140
:1011800000BF4021304602F01FF80028F9D070BDA2
:101190002DE9F04105460C46260AE7B231462846BD
:1011A00001F0A4FF00BF8021284602F00DF80028BE
:1011B000F9D03946284601F099FF00BF8021284622
:1011C00002F002F80028F9D0BDE8F08170B50446BD
:1011D0000D46E1B20D4801F089FF00BF80210B48A8
:1011E00001F0F2FF0028F9D0204670BD10B504468A
:1011F00000BF2021054801F0E7FF0028F9D003488F
:1012000001F078FF10BD00000008014000380140E7
:1012100008B54FF4A06000F031FB27208DF80000E6
:1012200003208DF8010001208DF802008DF80300E5
:10123000684600F028FB08BD00B585B001211020EC
:1012400000F0A6FE0121880400F0AFFE012108464F
:1012500000F09EFE01211E4800F0AFFC4FF48060BC
:10126000ADF8100018208DF8130003208DF812003F
:1012700004A9184800F0D0FB4FF40060ADF810004E
:1012800004208DF8130004A9124800F0C5FB4FF4A8
:10129000165000900020ADF80400ADF80600ADF83F
:1012A0000800ADF80C000C20ADF80A0069460A48A9
:1012B00001F023FEFFF7ACFF012240F22551064862
:1012C00001F0B3FE0121044801F0A3FE05B000BD0A
:1012D00010001400001001400048004008B5012132
:1012E000042000F055FE4020ADF8000018208DF8D5
:1012F000030003208DF802006946484800F08CFB8B
:101300000121042000F044FE8020ADF800001820E8
:101310008DF8030003208DF8020069463F4800F075
:101320007BFB0121082000F033FE0120ADF8000016
:1013300018208DF8030003208DF802006946384814
:1013400000F06AFB0121082000F022FE0220ADF827
:10135000000018208DF8030003208DF80200694674
:101360002F4800F059FB08BDF0B587B040F2DC54BF
:101370002546264627460121022000F016FE44F6A7
:101380001F60ADF814004720ADF810000020ADF844
:101390001600ADF812008DF8180004A9214800F0DD
:1013A0002FFF6020ADF800000120ADF80200002002
:1013B000ADF80800ADF8064069461A4800F05DFF38
:1013C0000821184801F0A8FBADF8065069461548F9
:1013D00000F095FF0821134801F0A7FBADF8066067
:1013E0006946104800F0D8FF08210E4801F0AAFB1A
:1013F000ADF8067069460B4801F019F80821094854
:1014000001F0A9FB0121074801F056FA07B0F0BD31
:1014100010B5FFF763FFFFF7A7FF10BD00080140FD
:10142000000C01400004004008B50121102000F02C
:10143000AFFD0121042000F0ABFD18208DF8030062
:101440004020ADF8000003208DF8020069464048B6
:1014500000F0E2FA8020ADF8000069463C4800F058
:10146000DBFA4FF48070ADF800006946384800F0B0
:10147000D3FA4FF40070ADF800006946344800F02C
:10148000CBFA08BD00B587B00121480300F080FD0C
:1014900040F2CF70ADF8140040F2CF20ADF810004C
:1014A0000020ADF81600ADF812008DF8180004A960
:1014B000284800F0A5FE6020ADF800000120ADF83E
:1014C00002000020ADF808004FF48070ADF80C0069
:1014D00040F2DC50ADF8060069461E4800F0CDFE33
:1014E00008211C4801F018FB40F2DC50ADF8060062
:1014F0006946184800F003FF0821164801F015FB63
:1015000040F2DC50ADF806006946124800F044FF96
:101510000821104801F016FB40F2DC50ADF806003F
:1015200069460C4800F083FF08210A4801F013FBCC
:101530000121084801F0C0F90121064801F0C8F96D
:1015400007B000BD10B5FFF76FFFFFF79BFF10BDA1
:10155000001001400034014030B5164800684FF4D7
:101560007A72B0FBF2F1B1F1807F01D301201DE06E
:1015700021F07F40401E4FF0E022506150170D22B5
:10158000002807DA13071D0E0B4B00F00F04241F71
:101590001D5503E013071C0E084B1C5400BF002010
:1015A0004FF0E022906107201061002008B100BFD9
:1015B000FEE730BD0400002018ED00E000E400E08C
:1015C00008B50121082000F0E3FC4FF48070ADF86D
:1015D000000018208DF8030003208DF802006946F2
:1015E0002C4800F019FA0121082000F0D1FC4FF43A
:1015F0000070ADF8000018208DF8030003208DF86E
:1016000002006946234800F007FA08BD30B587B0EC
:1016100042F210752C460121042000F0C6FC44F66D
:101620001F60ADF814004720ADF810000020ADF8A1
:101630001600ADF812008DF8180004A9164800F045
:10164000DFFD6020ADF800000120ADF802000020B1
:10165000ADF80800ADF8065069460F4800F09CFE52
:1016600008210D4801F06EFAADF8064069460A48B7
:1016700000F0DDFE0821084801F06DFA012106485E
:1016800001F01AF907B030BD10B5FFF799FFFFF769
:10169000BDFF10BD000C0140000800400CB500204B
:1016A000019000906C48006840F480306A490860FE
:1016B00000BF6948006800F4003000900198401CA9
:1016C0000190009818B90198B0F5A06FF1D1624867
:1016D000006800F4003010B10120009001E000200B
:1016E00000900098012843D15C48006840F0100049
:1016F0005A4908600846006820F003000860084660
:10170000006840F002000860534840685249486051
:101710000846406848600846406840F48060486079
:101720000846406820F47C1048600846406840F451
:10173000E81048600846006840F08070086000BF0C
:101740004548006800F000700028F9D04248406821
:1017500020F00300404948600846406840F002001D
:10176000486000BF3C48406800F00C000828F9D1F0
:101770000CBD10B5FFF792FF10BD10B536480068DC
:1017800040F0010034490860084640683449084088
:101790003149486008460068324908402E490860CF
:1017A0000846006820F4802008600846406820F45D
:1017B000FE0048604FF41F008860FFF7DAFF4FF02B
:1017C00000602949086010BD10B5002100200022EA
:1017D000214B5B6803F00C0121B1042906D00829D4
:1017E00028D107E0214B224C236027E01F4B204CDF
:1017F000236023E0184B5B6803F47010164B5B68A2
:1018000003F48032022303EB904022B9194B434387
:10181000174C23600DE0104B5B6803F4003323B1D9
:10182000144B4343124C236003E0104B4343104CD2
:10183000236003E00D4B0E4C236000BF00BF064B3E
:101840005B68C3F303130C4CE15C094B1B68CB4092
:10185000074C236010BD0000001002400020024031
:101860000000FFF8FFFFF6FE08ED00E000127A002E
:101870000400002000093D00080000203149014318
:10188000314A1160704770B5002100230F22C478DF
:1018900004B32D4C246804F4E064C4F5E064210A28
:1018A000C1F10403CA40447804FA03F18478144077
:1018B00021430901254C0678A155047804F01F0541
:1018C0000124AC4005786D11AD0005F1E025C5F8A7
:1018D000004109E0047804F01F050124AC401C4DD0
:1018E0000678761145F8264070BD1A4A0A40024330
:1018F000154B1B1F1A60704739B1134A121D12682D
:101900000243114B1B1D1A6006E00F4A121D12689C
:1019100082430D4B1B1D1A607047042808D14FF0FD
:10192000E021096941F004014FF0E022116107E074
:101930004FF0E021096921F004014FF0E02211612C
:10194000704700000000FA050CED00E000E400E044
:1019500080E100E080FFFF1F10B50446CC488442C0
:1019600008D10121042000F02DFB0021042000F00B
:1019700029FB46E0C748844208D10121082000F035
:1019800021FB0021082000F01DFB3AE0C248844200
:1019900008D10121102000F015FB0021102000F0DB
:1019A00011FB2EE0BD48844208D10121202000F027
:1019B00009FB0021202000F005FB22E0B84884420A
:1019C00008D10121402000F0FDFA0021402000F064
:1019D000F9FA16E0B348844208D10121802000F0D2
:1019E000F1FA0021802000F0EDFA0AE0AE488442CE
:1019F00007D10121801500F0E5FA0021A01500F0C3
:101A0000E1FA10BD10B50121084600F0DBFA002113
:101A1000012000F0D7FA10BD2DE9F0410246002563
:101A20000026002000230024002791F803C00CF0BA
:101A30000F0591F803C00CF0100CBCF1000F03D09F
:101A400091F802C04CEA050591F800C0BCF1000F06
:101A500031D0146800202BE04FF0010C0CFA00F399
:101A6000B1F800C00CEA03069E4220D183004FF07B
:101A70000F0C0CFA03F7BC4305FA03FC4CEA040410
:101A800091F803C0BCF1280F06D14FF0010C0CFAFD
:101A900000FCC2F814C00AE091F803C0BCF1480F82
:101AA00005D14FF0010C0CFA00FCC2F810C0401C2C
:101AB0000828D1D31460B1F800C0BCF1FF0F34DDA9
:101AC000546800202EE000F1080C4FF0010808FADD
:101AD0000CF3B1F800C00CEA03069E4221D183004A
:101AE0004FF00F0C0CFA03F7BC4305FA03FC4CEA69
:101AF000040491F803C0BCF1280F05D100F1080CD3
:101B000008FA0CF8C2F8148091F803C0BCF1480F31
:101B100007D100F1080C4FF0010808FA0CF8C2F8E0
:101B20001080401C0828CED35460BDE8F0814FF6E9
:101B3000FF710180022181700421C170704702464B
:101B4000002093680B400BB1012000E0002070479B
:101B50000146886880B2704702460020D3680B4077
:101B60000BB1012000E0002070470146C86880B238
:101B7000704701617047416170470AB1016100E03F
:101B800041617047C16070474FF480320A438261FF
:101B90008161826182698269704702460020434BFD
:101BA00018684FF68073184040EA021008433F4B14
:101BB000186070473E49C8617047F0B50A46002377
:101BC00000240021002500F00046B6F1004F02D1AC
:101BD000364EF16901E0354E7168C0F3034583B2BA
:101BE00000F44016B6F5401F08D121F070612F4E69
:101BF000766826F070662D4F7E6012E000F4801645
:101C0000B6F5801F06D1032606FA05F4A14341F07C
:101C1000706106E0460D360103FA06F6B14341F065
:101C2000706122B1460D360103FA06F6314300F029
:101C30000046B6F1004F02D11C4EF16101E01B4E8F
:101C40007160F0BD30B500228B071C0F0F2303FA23
:101C500004F2164B08338C1053F824309343134C82
:101C600008348D1044F8253023468C1053F8243066
:101C70008C07240F00FA04F423430C4C08348D1015
:101C800044F8253030BD0A49DC3108607047000057
:101C900000080140000C0140001001400014014008
:101CA00000180140001C01400020014000000140DC
:101CB00000002042DF48006840F00100DD49086074
:101CC00008464068DC490840DA4948600846006830
:101CD000DA490840D74908600846006820F48020A7
:101CE00008600846406820F4FE0048604FF41F007A
:101CF00088607047CF49096821F48031CD4A11606E
:101D00001146096821F480211160B0F5803F03D0AD
:101D1000B0F5802F0ED106E0C649096841F4803144
:101D2000C44A116007E0C349096841F4A021C14ACF
:101D3000116000E000BF00BF704710B501460022EF
:101D4000002300204A11012A02D1BA4C236806E080
:101D5000022A02D1B74C236A01E0B64C636A01F053
:101D60001F02012494401C400CB1012000E000201F
:101D700010BD38B5002000900024002500BF3120A0
:101D8000FFF7DBFF05460098401C00900098B0F577
:101D9000A06F01D0002DF2D03120FFF7CEFF08B1A7
:101DA000012400E00024204638BD01460020A14A5D
:101DB000106820F0F80040EAC10010607047A049A8
:101DC00008607047024600209A4B586820F47C1047
:101DD00042EA01031843974B5860704798490866D8
:101DE000704701460020934A506820F003000843E2
:101DF000506070478F48406800F00C007047014603
:101E000000208C4A506820F0F00008435060704772
:101E100001460020874A506820F4E0600843506083
:101E2000704701460020834A506820F4605040EA21
:101E3000C1005060704729B17E4A527A02437D4BFF
:101E40005A7204E07B4A527A82437A4B5A72704744
:101E50007B49D8310860704701460020754A5068B8
:101E600020F440400843506070470021714A2032FE
:101E70001170704A82F82010012802D004280AD17B
:101E800004E001216B4A2032117005E00521694A06
:101E90002032117000E000BF00BF70476949086040
:101EA00070476449096A0143624A11627047654993
:101EB00044390860704730B5002100220024002317
:101EC0005C4D6D6805F00C0121B1042905D008298D
:101ED00023D105E05C4D056022E05B4D05601FE00D
:101EE000544D6D6805F47012524D6D6805F48034E0
:101EF000022505EB92421CB9544D554305600BE099
:101F00004C4D6D6805F400351DB1504D55430560CD
:101F100002E04D4D5543056002E04B4D056000BFAA
:101F200000BF444D6D6805F0F0010909484D6B5C38
:101F30000568DD4045603F4D6D6805F4E061090AC4
:101F4000434D6B5C4568DD4085603A4D6D6805F436
:101F50006051C90A3E4D6B5C4568DD40C560354D3A
:101F60006D6805F44041890B3A4D6B5CC568B5FB63
:101F7000F3F5056130BD29B12E4A526902432D4B5C
:101F80005A6104E02B4A526982432A4B5A617047D6
:101F900029B1284A92690243264B9A6104E0254AF6
:101FA00092698243234B9A61704729B1214AD269D1
:101FB0000243204BDA6104E01E4AD26982431D4B82
:101FC000DA61704729B11B4AD2680243194BDA60C3
:101FD00004E0184AD2688243164BDA60704729B190
:101FE000144A12690243134B1A6104E0114A126940
:101FF0008243104B1A61704712494039086070479C
:102000000F49C86470470B49C87170470948406A56
:1020100040F0807007494862704701460020054A39
:1020200092680A400AB1012000E00020704701498F
:1020300088727047001002400000FFF8FFFFF6FEB4
:10204000000042428004424200127A0000093D0032
:10205000180000202800002010B50446FE488442E5
:1020600008D10121C014FFF7ADFF0021E014FFF7F4
:10207000A9FFC4E0B4F1804F08D101210846FFF761
:10208000AEFF00210120FFF7AAFFB8E0F348844229
:1020900008D101210220FFF7A2FF00210220FFF753
:1020A0009EFFACE0EE48844208D101210420FFF7F6
:1020B00096FF00210420FFF792FFA0E0E948844248
:1020C00008D101210820FFF78AFF00210820FFF72F
:1020D00086FF94E0E448844208D101211020FFF7F4
:1020E0007EFF00211020FFF77AFF88E0DF4884425E
:1020F00008D101212020FFF772FF00212020FFF7E7
:102100006EFF7CE0DA48844208D101214014FFF7D9
:1021100059FF00216014FFF755FF70E0D548844255
:1021200009D10121C804FFF74DFF00214FF4002021
:10213000FFF748FF63E0D048844209D10121080538
:10214000FFF740FF00214FF48010FFF73BFF56E000
:10215000CA48844209D101214805FFF733FF002115
:102160004FF40010FFF72EFF49E0C548844208D124
:1021700001214020FFF733FF00214020FFF72FFF10
:102180003DE0C048844208D101218020FFF727FFAD
:1021900000218020FFF723FF31E0BB48844208D1B3
:1021A00001218015FFF71BFF0021A015FFF717FF86
:1021B00025E0B648844209D101210804FFF702FF57
:1021C00000214FF48030FFF7FDFE18E0B048844254
:1021D00009D101214804FFF7F5FE00214FF400303A
:1021E000FFF7F0FE0BE0AB48844208D101218804E0
:1021F000FFF7E8FE00214FF48020FFF7E3FE10BD5B
:1022000000220288944B98420ED0994B98420BD0F2
:10221000B0F1804F08D0914B984205D0904B984236
:1022200002D0904B984204D14FF68F731A404B88DE
:102230001A438D4B984207D08C4B984204D04FF6EE
:10224000FF431A40CB881A4302808B8883850B8812
:102250000385814B98420BD0854B984208D08B4B1D
:10226000984205D08A4B984202D08A4B984201D1BD
:102270000B7A038601238382704770B50024002205
:102280000023058C4FF6FE7635400584028C83884A
:10229000048B4FF68F752C40B51E2C400D882C43B7
:1022A000751E2A400D892A434D882A436A4DA8424B
:1022B0000BD06F4DA84208D0744DA84205D0744D84
:1022C000A84202D0734DA84213D14FF6F7752A40A9
:1022D0004D892A434FF6FB752A408D882A434FF6D5
:1022E000FF652B404FF6FF552B408D892B43CD8941
:1022F0002B4383800483CD888586028470BD70B5AE
:10230000002400220023058C4FF6EF76354005842B
:10231000028C8388048B48F6FF752C404FF6FF45EE
:102320002C400D884FF6FF7606EA05252C434FF624
:10233000DF752A400D8906EA05152A434D8806EA0D
:1023400005152A43444DA84202D0494DA8421DD14B
:102350004FF67F752A404D894FF6FF7606EA051540
:102360002A434FF6BF752A408D8806EA05152A4391
:102370004FF6FF352B404FF2FF752B408D8906EA53
:1023800085052B43CD8906EA85052B43838004838D
:10239000CD880587028470BD70B50024002200231B
:1023A000058C4FF6FF6635400584028C8388848B4C
:1023B0004FF68F752C404FF6FC752C400D882C4342
:1023C0004FF6FF552A400D894FF6FF7606EA0525A0
:1023D0002A434D8806EA05252A431F4DA84202D00C
:1023E000234DA8421DD14FF2FF752A404D894FF66B
:1023F000FF7606EA05252A434FF6FF352A408D88E9
:1024000006EA05252A434EF6FF752B404DF6FF756B
:102410002B408D8906EA05152B43CD8906EA051563
:102420002B4383808483CD888587028470BD70B5FB
:10243000002200230024058C4EF6FF7635400584EB
:10244000038C8488828B48F6FF752A404FF6FF453F
:102450002A400D8820E00000002C014000040040CC
:1024600000080040000C0040001000400014004034
:1024700000340140004C0140005001400054014034
:1024800000180040001C00400020004000400140B7
:1024900000440140004801404FF6FF7606EA05255A
:1024A0002A434DF6FF752B400D8906EA05352B436F
:1024B0004D8806EA05352B43FA4DA84202D0FA4D65
:1024C000A84208D14BF6FF752C408D894FF6FF7658
:1024D00006EA85152C4384808283CD88A0F840507D
:1024E000038470BD828B4FF2FF331A408283828B4C
:1024F0004FF6FF7303EA01231A4382837047F0B556
:102500000C461546002200210026078C4EF6FF7C63
:1025100007EA0C070784828B018C4FF6FF7707EAE6
:10252000043640F6FF473A404FF6FF7707EA0527A3
:102530003A434FF6FF7707EA03373A43D94FB84299
:102540000ED0D94FB8420BD0B0F1804F08D0D74F42
:10255000B84205D0D64FB84202D0D64FB84206D1C5
:102560004DF6FF77394046F48057394305E047F68A
:10257000FF57394044F48057394382830184F0BDCA
:10258000828B4FF6F3731A408283828B0A438283D5
:102590007047F0B50C461546002200210026078C36
:1025A0004FF6FF6C07EA0C070784828B018C4FF60D
:1025B000FF7707EA04264FF60C773A404FF6FF778D
:1025C00007EA03172F433A43B64FB8420ED0B64F2F
:1025D000B8420BD0B0F1804F08D0B44FB84205D00C
:1025E000B34FB84202D0B34FB84206D14FF6FF57AF
:1025F000394046F48077394305E04FF2FF573940C0
:1026000044F48077394382830184F0BD028B4FF21A
:10261000FF331A400283028B4FF6FF7303EA012354
:102620001A4302837047F0B50C461546002200217C
:102630000026078C4FF6EF7C07EA0C070784028B15
:10264000018C4FF6FF7707EA041640F6FF473A4041
:102650004FF6FF7707EA03373A434FF6FF7707EA6B
:1026600005273A438F4FB8420ED08F4FB8420BD058
:10267000B0F1804F08D08D4FB84205D08C4FB84292
:1026800002D08C4FB84206D14FF6DF77394046F082
:102690001007394305E04FF65F77394044F01007E3
:1026A000394302830184F0BD028B4FF6F3731A4065
:1026B0000283028B0A4302837047F0B50C4615462D
:1026C00000220021068C4FF6FE773E400684028BE6
:1026D000018C4FF60C7632407E1C06EA03162E4320
:1026E0003243704EB0420ED06F4EB0420BD0B0F1BC
:1026F000804F08D06D4EB04205D06D4EB04202D032
:102700006C4EB04206D14FF6FD76314044F00106E2
:10271000314305E04FF6F576314044F00106314390
:1027200002830184F0BD70B505460C465D488542C4
:102730000ED05D4885420BD0B5F1804F08D05B4884
:10274000854205D05A48854202D05A48854200D178
:1027500000E000BF208850B92389A28861882846FC
:10276000FFF7ABFFE1882846FFF79EFF25E02088B2
:1027700004280AD12389A28861882846FFF753FFDD
:10278000E1882846FFF742FF17E0208808280AD191
:102790002389A28861882846FFF7FBFEE188284646
:1027A000FFF7EEFE09E02389A28861882846FFF73B
:1027B000A6FEE1882846FFF795FE70BD2DE9F041A1
:1027C00005460C4600260127608808B9022600E06D
:1027D0000026A088012801D1022700E001272088D7
:1027E000A0B92389A28861882846FFF766FFE1889F
:1027F0002846FFF759FF23893A4631462846FFF716
:1028000012FFE1882846FFF701FF13E02389A28821
:1028100061882846FFF707FFE1882846FFF7F6FEA4
:1028200023893A4631462846FFF747FFE188284684
:10283000FFF73AFFBDE8F0810A884B881A438B887E
:102840001A43CB881A430B891A434B891A438B8945
:102850001A43A0F8442070474FF6FF718180002191
:102860000180C18041800172704700210180418058
:102870008180C180018141818181C18170470021B6
:1028800001804180012181800021C1800181704748
:102890000021018041808180C1800181418181814D
:1028A00070470000002C014000340140000400404B
:1028B00000080040000C004021B1028842F00102F3
:1028C000028004E002884FF6FE731A4002807047CF
:1028D00031B1B0F8442042F40042A0F8442005E0B1
:1028E000B0F84420C2F30E02A0F8442070471AB199
:1028F00083890B43838102E083898B438381704703
:102900008182704741EA0203A0F8483070471AB14B
:1029100083890B43838102E083898B4383817047E2
:1029200001894FF6F8721140018170470A46002173
:1029300001894FF68F73194011430181704730B5FB
:1029400004460D4629462046FFF7F0FF208940F057
:102950000700208130BD2DE9F04104460D461646A2
:102960001F46602D06D13B46012231462046FFF727
:102970005AFE05E03B46012231462046FFF79DFE08
:1029800029462046FFF7D2FF208940F0070020812A
:10299000BDE8F08130B50C4600210189C9B24FF67F
:1029A000FF7505EA0325154325432943018130BD01
:1029B0002DE9F04105460E46174698460024434649
:1029C0003A4631462846FFF7E5FF2C894FF6F87066
:1029D000044044F007044FF68F70044044F0700444
:1029E0002C81BDE8F081F0B504460D4616461F4621
:1029F0003B46324629462046FFF7CCFF208940F46B
:102A000080402081F0BD0185828270470A46002106
:102A100001884FF68F731940114301807047F0B55C
:102A20000C4615461E460021002200230189028B18
:102A3000038C4FF6F877394021434FF6FC473A4074
:102A400040F201173A434FF6DD773B404FF6FF77F0
:102A500007EA06172F433B43018102830384F0BD3D
:102A60000A460021018B4FF68F73194011430183F1
:102A700070470A460021018B48F6FF7319404FF654
:102A8000FF7303EA02231943018370470A460021BA
:102A9000818B4FF68F7319401143818370470A462B
:102AA0000021818B48F6FF7319404FF6FF7303EA4C
:102AB000022319438183704721B1028842F08002CA
:102AC000028004E002884FF67F731A40028070474C
:102AD00021B1828842F00402828004E082884FF6AD
:102AE000FB731A408280704721B1828842F008024D
:102AF000828004E082884FF6F7731A408280704724
:102B000021B1828842F00102828004E082884FF67F
:102B1000FE731A40828070470A460021018B4FF6EF
:102B2000F77319401143018370470A460021018B56
:102B30004FF2FF7319404FF6FF7303EA0223194364
:102B4000018370470A460021818B4FF6F7731940C5
:102B50001143818370470A460021818B4FF2FF7336
:102B600019404FF6FF7303EA02231943818370472C
:102B70000A460021018B4FF6FB7319401143018374
:102B800070470A460021018B4FF6FF3319404FF67C
:102B9000FF7303EA02231943018370470A460021A9
:102BA000818B4FF6FB7319401143818370470A46AE
:102BB0000021818B4FF6FF3319404FF6FF7303EA74
:102BC00002231943818370470A460021018B4FF687
:102BD0007F7319401143018370470A460021018B1E
:102BE000C1F30E014FF6FF7303EA02231943018379
:102BF00070470A460021818B4FF67F7319401143BD
:102C0000818370470A460021818BC1F30E014FF684
:102C1000FF7303EA02231943818370470A460021A8
:102C2000018C4FF6FD7319401143018470470A4629
:102C30000021018C4FF6F77319401143018470474E
:102C40000A460021018C4FF6DF7319404FF6FF73DF
:102C500003EA02131943018470470A460021018CDC
:102C60004FF67F7319404FF6FF7303EA02131943BF
:102C7000018470470A460021018C4FF6FF5319402A
:102C80004FF6FF7303EA02231943018470470A4693
:102C90000021018C4FF2FF7319404FF6FF7303EAD6
:102CA00002231943018470470A460021018C4DF626
:102CB000FF7319404FF6FF7303EA0233194301848F
:102CC000704730B5002301248C40A3B2048C9C4390
:102CD0000484048C02FA01F5ADB22C43048430BDA7
:102CE00030B5002304248C40A3B2048C9C4304849C
:102CF000048C02FA01F5ADB22C43048430BD70B5EA
:102D00000346002000241846183001258D40ACB23F
:102D10001D8CA5431D8409B1082909D100EB610070
:102D2000056825F0700505600568154305600EE02F
:102D30000D1FC5F34E052844056825F4E0450560E0
:102D400005684FF6FF7606EA02263543056070BD3A
:102D500021B1028842F00202028004E002884FF6AC
:102D6000FD731A400280704721B1028842F00402CC
:102D7000028004E002884FF6FB731A40028070471D
:102D800021B1828842F08002828004E082884FF67E
:102D90007F731A408280704702884FF6F7731A409B
:102DA000028002880A430280704782884FF68F7340
:102DB0001A40828082880A438280704702894FF6D7
:102DC000F8731A40028102890A430281704702891E
:102DD0004FF67F731A40028102890A4302817047CD
:102DE000818470478185704781867047018770476D
:102DF00081877047A0F84010704702884FF6FF4364
:102E00001A40028002880A43028070470146888E79
:102E100070470146088F70470146888F704701460A
:102E2000B1F8400070470146888C70470146088D14
:102E3000704702460020138A0B400BB1012000E0CE
:102E400000207047CA430282704730B50246002016
:102E500000230024158A05EA0103958905EA010487
:102E600013B10CB1012000E0002030BDCA43028242
:102E70007047000010B50446FB48844209D1012187
:102E80008803FFF79FF800214FF48040FFF79AF87E
:102E900032E0F648844209D101214804FFF79FF847
:102EA00000214FF40030FFF79AF825E0F048844203
:102EB00009D101218804FFF792F800214FF4802006
:102EC000FFF78DF818E0EB48844209D10121C804CE
:102ED000FFF785F800214FF40020FFF780F80BE0A2
:102EE000E548844208D101210805FFF778F8002160
:102EF0004FF48010FFF773F810BD2DE9F04786B04E
:102F000005460E460024A24600BFA1460027B08910
:102F100000B100BF2F462C8A4CF6FF700440F088A9
:102F200004432C82AC894EF6F3100440B0883189FA
:102F30000843718908430443AC81AC8A4FF6FF40D3
:102F40000440B0890443AC8201A8FEF7B4FFC64830
:102F5000874202D1DDF810A001E0DDF80CA0A889BD
:102F600000F4004040B10AEBCA0000EB0A103168DF
:102F70004900B0FBF1F807E00AEBCA0000EB0A10C9
:102F800031688900B0FBF1F86420B8FBF0F004016F
:102F90002009642101FB1089A88900F4004040B198
:102FA000322000EBC900B0FBF1F000F00700044351
:102FB00008E0322000EB09106421B0FBF1F000F0D2
:102FC0000F0004432C8106B0BDE8F0874FF4165182
:102FD000016000218180C18001810C21418100219B
:102FE0008181704710B502460020108A4FF2FF031E
:102FF00018400B884C8823438C882343CC88234378
:103000001843108210BD0021018041808180C18061
:10301000704721B1828942F40052828104E08289A2
:103020004DF6FF731A4082817047F0B503460024C5
:1030300000260025002040F66A17B94200D100BFE3
:103040001846C1F3421401F01F06012707FA06F5DE
:10305000012C01D10C3004E0022C01D1103000E031
:1030600014301AB107682F43076002E00768AF43C6
:103070000760F0BD1AB1838A0B43838202E0838A22
:103080008B4383827047028A4FF6F0731A400282A4
:10309000028A0A430282704782894FF2FF731A4004
:1030A000828182890A438281704721B1828942F0FC
:1030B0000202828104E082894FF6FD731A40828108
:1030C0007047028A4FF6DF731A400282028A0A436F
:1030D0000282704721B1028A42F48042028204E0F7
:1030E000028A4BF6FF731A4002827047C1F308024E
:1030F0008280704701468888C0F308007047818944
:1031000041F0010181817047028BD2B20283028BB0
:1031100042EA012202837047028B02F47F4202835B
:10312000028B0A430283704721B1828A42F0200257
:10313000828204E0828A4FF6DF731A4082827047EF
:1031400021B1828A42F01002828204E0828A4FF624
:10315000EF731A408282704721B1828A42F00802DE
:10316000828204E0828A4FF6F7731A4082827047A7
:1031700021B1828942F40042828103E08289C2F354
:103180000E028281704721B1828A42F400628282FB
:1031900004E0828A4FF2FF731A4082827047828A6B
:1031A0004FF6FB731A408282828A0A4382827047FA
:1031B00021B1828A42F00202828204E0828A4FF6C2
:1031C000FD731A408282704702460020B1F5007FED
:1031D00000D100BF13880B400BB1012000E000209C
:1031E000704701F40072B2F5007F00D100BFCA43FE
:1031F0000280704770B5024600240023002500209D
:1032000040F66A16B14200D100BFC1F3421501F089
:103210001F03012606FA03F3012D02D196893340DC
:1032200006E0022D02D1168A334001E0968A33402F
:103230000C12012606FA04F41688344013B10CB1BE
:10324000012000E0002070BD10B50022002340F6F0
:103250006A14A14200D100BF0A1201249440A3B213
:10326000DC43048010BD00000038014000440040F1
:1032700000480040004C00400050004003468B4294
:1032800001DA08467047934201DD1046FAE7184616
:10329000F8E770B5DDE904458462C56201804280CB
:1032A000838000268660C66006610662C66146624B
:1032B0004661066370BD10B50446D4E90501401AA5
:1032C0002062D4E90710401A6062206AE061208819
:1032D000216A4843A0606188226AE06801FB02001D
:1032E000E060A26A5142E068FFF7C8FFE060A08892
:1032F000616A4843206110BD416170470021C1608F
:1033000070470188026A51438160704710B50446D6
:103310006188226AE06801FB0200E060A26A514213
:10332000E068FFF7ABFFE06010BD8188426A51435F
:103330000161704710B50446D4E9020108442063D6
:10334000E26A5142206BFFF799FF206310BD10B570
:103350000446D4E902010844216908442063E26A72
:103360005142206BFFF78AFF206310BD2DE9F84F13
:103370000646002700240025704201F0E0FC0446C8
:1033800077480168204601F0F5FB07467448046061
:1033900021467448006801F09BFB7249086072493D
:1033A0007048006801F026FD02D26F486D49086040
:1033B0006E496C48006801F013FD02D26B48694900
:1033C000086039466A48006801F0DAFB214600903F
:1033D0006848006801F0D4FB8246214666480068D0
:1033E00001F0CEFB8346514601F072FB8146009905
:1033F00001F06EFB804601F0ABFC0546502D00DD70
:10340000502515F1500F01DA6FF04F052846BDE841
:10341000F88F2DE9F84F064600270024002570425A
:1034200001F08DFC044655480168204601F0A2FBDE
:1034300007465248046021465148006801F048FBA5
:103440004F49086048494E48006801F0D3FC02D259
:1034500045484B49086045494948006801F0C0FCAF
:1034600002D242484649086039464648006801F0A1
:1034700087FB214600904448006801F081FB8246AA
:1034800021464248006801F07BFB8346514601F02B
:103490001FFB8146009901F01BFB804601F058FCA0
:1034A00005463C2D00DD3C2515F13C0F01DA6FF09F
:1034B0003B052846BDE8F88F2DE9F84F0646002762
:1034C00000240025704201F03AFC044630480168AF
:1034D000204601F04FFB07462D48046021462D4849
:1034E000006801F0F5FA2B4908602B49294800686B
:1034F00001F080FC02D22848264908602749254867
:10350000006801F06DFC02D2244822490860394667
:103510002348006801F034FB2146009021480068F0
:1035200001F02EFB824621461F48006801F028FB6F
:103530008346514601F0CCFA8146009901F0C8FA61
:10354000804601F005FC0546642D00DD642515F17B
:10355000640F01DA6FF063052846BDE8F88F0000BC
:10356000500000205400002000002042000020C233
:1035700034000020300000202C00002058000020E3
:103580005C000020400000203C00002038000020AB
:1035900060000020640000200000C8420000C8C293
:1035A0004C000020480000204400002002460B7818
:1035B00083EA020080EA0013D8B20B881B1283EA68
:1035C000002383EAC00383EA20130B8070472DE9B0
:1035D000F34FC1B08268C4680569D0F814C083692C
:1035E000C669076AD0F82480CDF80081002106E082
:1035F000DDF8088158F821804DF82180491C1029F8
:10360000F6DB10214DE0A1F102085DF828804FEAB9
:103610005849A1F102085DF8288049EAC838A1F1AB
:1036200002095DF829904FEAD94AA1F102095DF833
:1036300029904AEA493988EA0908A1F102095DF8A6
:10364000299088EA9929A1F107085DF82880C844E3
:10365000A1F10F095DF829904FEAD91AA1F10F09DC
:103660001DF829904AEA4969A1F10F0A5DF82AA0DC
:103670004FEA9A4BA1F10F0A5DF82AA04BEA8A3A69
:1036800089EA0A09A1F10F0A5DF82AA089EADA0994
:10369000C144A1F110085DF82880C8444DF821808C
:1036A000491C4029AFDB002149E04FEA931A4AEA5E
:1036B000836A4FEAD32B4BEA435B8AEA0B0A4FEA51
:1036C000536B4BEAC31B8AEA0B0ADDF800B1D34403
:1036D00003EA060A27EA030E8AEA0E0ADA44DFF84A
:1036E00058B65BF821B0DA445DF821B00AEB0B085C
:1036F0004FEA920A4AEA827B4FEA523A4AEAC24ABF
:103700008BEA0A0B4FEA925A4AEA822A8BEA0A0BA0
:1037100002EA040A02EA050E8AEA0E0A04EA050E23
:103720008AEA0E0A0BEB0A09409737461E460CEB55
:103730000803AC462546144608EB0902491C4029FB
:10374000B3DBD0F808809044C0F80880D0F80C8033
:1037500008EB0409C0F80C90D0F8108008EB0509BC
:10376000C0F81090D0F8148008EB0C09C0F8149041
:10377000D0F8188008EB0309C0F81890D0F81C8026
:1037800008EB0609C0F81C90D0F8208008EB070968
:10379000C0F82090D0F82490DDF80081C144C0F832
:1037A000249043B0BDE8F08F2DE9F04F91B004466E
:1037B00089461546CA46D4F800B0206800EBC5001B
:1037C00020602068584502D26068401C6060CBF3DE
:1037D000C50630E0C6F14007BD4200D22F4604F1D5
:1037E000280188193A46514601F041F93E44BA444D
:1037F000ED1B402E1ED104F1280000904FF0000870
:103800000FE0009A02EB880001AA02EB8801C2785F
:103810000A7082784A7042788A700278CA7008F119
:103820000108B8F1100FECDB01A92046FFF7CFFE2D
:10383000002600BF00BF002DCCD111B0BDE8F08F35
:103840002DE9F04192B004460E462088C0F3C50829
:10385000C8F1770000F03F00451C04F10807802004
:103860008DF8000047210DF1010001F019F92178D0
:10387000E81D0DF800102088C0F30721A81D0DF8E1
:1038800000102068C0F30741681D0DF80010206883
:10389000000E291D0DF801002179E81C0DF800101B
:1038A000A088C0F30721A81C0DF800106068C0F3C1
:1038B0000741681C0DF800106068000E0DF8050047
:1038C00005F1080269462046FFF76EFFF878307070
:1038D000B87870707878B0703878F070F8793071A6
:1038E000B879707112B0BDE8F0812DE9F0479CB055
:1038F00004460D4616461F46DDE9259ADDF8908000
:103900001CB1207800F0010018B900201CB0BDE8FF
:10391000F08760782870D4E90201CDE900010098B1
:10392000C5F80100BDF80400A5F80500D4E902209F
:10393000521C40F10000C4E9022002A800210160ED
:103940004160FE498160FE4AC260FE4A0261FE4A51
:103950004261FE4A8261FE4AC261FE4A0262FE4A3A
:10396000426200BF202204F11001FFF71DFF3A461A
:10397000314602A8FFF718FF4A46414602A8FFF762
:1039800013FF0222514602A8FFF70EFF0722294625
:1039900002A8FFF709FFE91D02A8FFF751FF0D205C
:1039A000B4E7024601E0481EC1B2012903DD481E0A
:1039B000105C0028F7D0084670472DE9FF4F87B00C
:1039C00004461D46287BC0F3400646B9286930B13D
:1039D0002869007800F0010008B1012000E0002013
:1039E0008146B9F1000F01D00D2000E000200690C3
:1039F0000A271EB1FE20A070062701E0FD20A0705E
:103A00000EB1149804E004F110001599FFF7C9FFF6
:103A1000E0700898E0710998207200202071B9F1D7
:103A2000000F03D0207940F0010020710020607168
:103A3000A879A071A879401CA871A0788DF80C0015
:103A4000E0788DF80D006EB1A0798DF80E00E07968
:103A50008DF80F00207A8DF810002089000A8DF86B
:103A600011001AE020798DF80E0060798DF80F00B2
:103A7000A0798DF81000E0798DF81100207A8DF88A
:103A800012002089000A8DF81300A068000C8DF840
:103A90001400A068000E8DF815000DF10D08781EB9
:103AA0001FFA80FA00BF4FF6FF70029000BF04E0DB
:103AB00018F8010B02A9FFF779FDBAF10000AAF18D
:103AC00001011FFA81FAF3D1BDF808002080A04659
:103AD00004F1100AE0780290D34604E01BF8010BD1
:103AE0004146FFF763FD0298411E89B2029100280A
:103AF000F4D100BF21461698FFF758FD2178E278EF
:103B000004F11000815420880212E078401C04F176
:103B100010010A54B9F1000F0FD0E17804F1100040
:103B2000084404F11002CDE9002102903B4603AAAB
:103B300004F58D712869FFF7D8FEE0783844801CC1
:103B4000069908440BB0BDE8F08F2DE9FE4F804682
:103B50000E4692461C46DDE90C97002500BF05EB9A
:103B600045007E4901EBC00083465B465246314624
:103B70004046CDE901970094FFF71FFFBDE8FE8F97
:103B80002DE9F04705460C46E678A078FE281AD1C4
:103B90004FF000090527A07828706E70A079A870F2
:103BA000E079E870207A28712089000A6871E2784B
:103BB00004F11001A81D00F05AFFE819401CE1783B
:103BC00000EB01082FE0314604F11000FFF7E9FE99
:103BD00006460927A07828706E702079A870607951
:103BE000E870A0792871E0796871207AA87120893D
:103BF000000AE871A068000C2872A068000E6872C4
:103C0000324604F1100105F10A0000F030FFE81916
:103C1000401C00EB0608207900F0010008B10D20DF
:103C200000E000208146207888F8000020880012FB
:103C300088F80100B9F1000F06DD4A4604F58D71E0
:103C400008F1020000F013FFF81C30444844BDE8BE
:103C5000F08743480088401C00B241490880414831
:103C60000088401C00B23F4908803F480088401C43
:103C700000B23D4908803D480088401C00B23B49E5
:103C800008803B480088401C00B239490880394808
:103C90000088401C00B23749088037480068401C43
:103CA00035490860704710B500F066FB10BD10B5CF
:103CB00000F080FA10BD10B500F037F910BD2DE905
:103CC000F04786B02D4A11682D4A106801F088F837
:103CD00064D02A4800682A4908602848C068C8603B
:103CE00026488068886025484068486001269727F4
:103CF000244C2248D0F80080D0F80490D0F808A0D6
:103D0000CDF80C80CDF81090CDF814A003A807C80A
:103D1000C4E905122061207A00F51740A0605C20FC
:103D20000C210B463A46CDE9001031462046FFF7FC
:103D30000CFF2146144829E09059000867E6096AFB
:103D400085AE67BB72F36E3C3AF54FA57F520E51BC
:103D50008C68059BABD9831F19CDE05B5810002000
:103D6000680000206A0000206C0000206E00002027
:103D7000700000207200002074000020EC00002081
:103D8000780000203007002058080020FFF7F8FED8
:103D900005462A4649494A48FDF7CDF906B0BDE82F
:103DA000F08710B500F08BFD10BD2DE9F04F87B006
:103DB000002006900125C826424C0C2780464FF073
:103DC000D809C2464FF0040BCDF80CA08DF8107046
:103DD0008DF811808DF812908DF813B003208DF8B6
:103DE0001400092203A904F1100000F040FE207A1B
:103DF000A060322009210B463246CDE90010294649
:103E00002046FFF7A2FE21462C48FFF7B9FE069098
:103E10002A492B48069AFDF78EF907B0BDE8F08FC6
:103E200010B52948B0F90000052804DBFFF73BFF77
:103E30000020254908802548B0F900000A2804DB45
:103E4000FFF735FF0020214908802148B0F9000024
:103E5000142804DBFFF72FFF00201D4908801D48B0
:103E6000B0F90000322804DBFFF729FF00201949D0
:103E700008801948B0F90000432804DBFFF791FFE0
:103E80000020154908801548B0F90000B0F57A7F88
:103E900004DBFFF78AFF00201049088010BD0020D6
:103EA00009490880094908800949088009490880AA
:103EB000094908800A490860704700005808002036
:103EC0000038014030070020680000206A00002010
:103ED0006C0000206E0000207000002072000020A6
:103EE000740000201CB542F21070411000231A46E5
:103EF000CDE9001001212C48FFF7CBF942F21070F8
:103F0000411005231422CDE9001011462748FFF780
:103F1000C0F942F21070411000233222CDE90010A6
:103F200011462348FFF7B5F91CBD10B52148B0F97B
:103F300000001D4988611F48B0F902001B498861D3
:103F40001C48B0F904001A4988611748FFF7B3F913
:103F50001648FFF7B0F91648FFF7ADF91248FFF71A
:103F6000F6F91248FFF7F3F91148FFF7F0F90E4898
:103F7000006B114908600D48006B104908600C483F
:103F8000006B0F4908600C4801680E48FFF7B4F950
:103F90000A4801680C48FFF7AFF9094801680B4867
:103FA000FFF7AAF910BD0000B8100020EC100020A7
:103FB0002011002024010020880000208C00002017
:103FC000900000205411002088110020BC11002016
:103FD00070B504460D46B4F5FA7F01DD4FF4FA746E
:103FE00014F5FA7F00DACE4C35B104F2DC5081B220
:103FF000CC48FEF7F9FE06E040F2DC50001B81B22F
:10400000C848FEF7F1FE70BD70B504460D46B4F524
:10401000FA7F01DD4FF4FA7414F5FA7F00DAC04C30
:1040200035B104F2DC5081B2BE48FEF7DFFE06E097
:1040300040F2DC50001B81B2BA48FEF7D7FE70BDDB
:1040400070B504460D46B4F5FA7F01DD4FF4FA74FD
:1040500014F5FA7F00DAB24C35B104F2DC5081B2CB
:10406000B048FEF7C5FE06E040F2DC50001B81B20E
:10407000AC48FEF7BDFE70BD70B504460D46B4F504
:10408000FA7F01DD4FF4FA7414F5FA7F00DAA44CDC
:1040900035B104F2DC5081B2A248FEF7ABFE06E077
:1040A00040F2DC50001B81B29E48FEF7A3FE70BDBB
:1040B00070B504460D46B4F5FA7F01DD4FF4FA748D
:1040C00014F5FA7F00DA964C35B104F2DC5081B277
:1040D0009548FEF789FE06E040F2DC50001B81B2F5
:1040E0009148FEF781FE70BD70B504460D46B4F5EB
:1040F000FA7F01DD4FF4FA7414F5FA7F00DA884C88
:1041000035B104F2DC5081B28748FEF76FFE06E05D
:1041100040F2DC50001B81B28348FEF767FE70BDA1
:1041200070B504460D46B4F5FA7F01DD4FF4FA741C
:1041300014F5FA7F00DA7A4C35B104F2DC5081B222
:104140007948FEF755FE06E040F2DC50001B81B2D4
:104150007548FEF74DFE70BD1CB542F2107041105F
:1041600005230422CDE90010C8217048FFF791F81B
:1041700042F21070411000231A46CDE900100121CF
:104180006B48FFF786F842F21070411005230A22AF
:10419000CDE9001014216748FFF77BF842F2107058
:1041A000411000230A22CDE9001032216248FFF7B6
:1041B00070F81CBD10B56148B0F900005C49886119
:1041C0005E48B0F902005B4988615C48B0F90400C0
:1041D0005949886100F06CFA044600F0B9FD534972
:1041E00088615348FFF767F85248FFF764F8524870
:1041F000FFF761F84D48FFF75EF84D48FFF7A7F865
:104200004C48FFF7A4F84C48FFF7A1F84748FFF7E0
:104210009EF84748006B642190FBF1F04849086024
:104220004448006B642190FBF1F046490860424825
:10423000006B642190FBF1F0434908603B48006B40
:10424000322190FBF1F04149086041490968414A37
:10425000126811443C4A1268012303FB02103E49D4
:104260000968FFF7D1FE3A4909683A4A1268891A83
:10427000354A1268012303FB121038490968FFF719
:10428000A7FE33490968334A1268891A2E4A126810
:10429000012303FB021032490968FFF7D1FE2C49C4
:1042A00009682C4A12681144274A1268012303FB4B
:1042B00012102C490968FFF7DFFE2B490968234AD1
:1042C000126811441F4A1268012303FB02111C4AA1
:1042D000126803FB021025490968FFF7E9FE22492D
:1042E00009681A4A12681144164A1268012303FB2E
:1042F0001211134A126803FB02101D490968FFF7E7
:10430000F3FE19490968114A126811440C4A1268EF
:10431000022303FB121017490968FFF701FF10BDC4
:104320000CFEFFFF0004004000340140F0110020AB
:104330005411002088110020BC1100201C01002015
:1043400094000020980000209C000020A000002085
:10435000DC000020E0000020A4000020A8000020D5
:10436000B0000020AC000020E4000020B4000020D9
:10437000B8000020BC00002010B5064801680648BF
:10438000FEF7BAFF054801680548FEF7B5FF10BD06
:1043900070470000D8000020F0110020E800002045
:1043A0002011002010B51E221146EC20FCF78DFDD7
:1043B00010BD2DE9F04F8BB0FE484089FE490968D9
:1043C000A1EB0024FB48C0880022E117A0FB043CBD
:1043D00002FB04C200FB01204FF48072CDE90230E1
:1043E0000023DDE9020100F011FBF24A52884FF48C
:1043F0000043A2FB0323851841EB0306ED48008927
:104400000022E117A0FB043C02FB04C200FB0120D8
:104410008022CDE902300023DDE9020100F0F6FA46
:10442000E44A92884FF48033A2FB03238018594159
:10443000CDE90801DF4880890022E117A0FB043C98
:1044400002FB04C200FB01204FF40002CDE9023060
:104450000023DDE9020100F0D9FA4FF4FA614018B7
:10446000D6490860D64800684FF00001A0FB05B3AC
:1044700001FB053100FB06114FF400124FF0000361
:10448000584600F0C3FADDE90823801A61EB030106
:104490004FF400520023CDE9020100F0B7FAC949F8
:1044A0000860C6480068642190FBF1F0142853DAD4
:1044B000032080FB0401E317A0FB042C01FB04C1D3
:1044C00000FB0310CDE9022000220223DDE90201F6
:1044D00000F09CFA0790B9490968A1F5FA6101EB6F
:1044E0004101B64A1268A2F5FA6201FB02F000EB44
:1044F000D0714FEA610AB1490968A1F5FA6101EB8F
:104500008101AE4A1268A2F5FA6201FB02F0C117FE
:1045100000EB51714FEAE109A8480068642190FB63
:10452000F1F010F10F0F39DAA448006800F2DC5006
:10453000C0EBC001A148006800F2DC5001FB00AAFA
:104540009E48006800F2DC5081009C48006800F240
:10455000DC5001FB009921E098480068642190FB41
:10456000F1F014281ADB04FB04F04000C117834665
:104570000022202300F04AFA079090490968A1F52B
:10458000FA618E4A1268A2F5FA6201FB02F0C117C5
:1045900000EB11714FEA211A4FF00009DDE9081014
:1045A000B1EB0A0760EBEA78B5EB090166EBE9705D
:1045B000CDE90410814801680798A1EB00007F490C
:1045C00008607F484FF000030268DDE90410A2FB99
:1045D00001CB03FB01B102FB00104FF40012CDE947
:1045E00000C06046019900F011FAC01B61EB0801A0
:1045F0004FF400520023CDE9020100F007FA71499F
:1046000008600BB0BDE8F08F10B500224821EC2007
:10461000FCF75BFC1420FCF752FB032300226A49E1
:10462000EC20FCF7DDFC6848007800046649497816
:1046300040EA012064498978084361490860002202
:104640005821EC20FCF741FC1420FCF738FB032335
:1046500000225D49EC20FCF7C3FC5B4800780004B5
:104660005949497840EA0120574989780843524915
:10467000086010BD10B5EC20FCF77DFC10BD70B5D6
:1046800004465048006800F05AFB06464F4900F0C7
:10469000A9FA0546214600F073FA70BD10B54748E7
:1046A000006800F04CFB0446494900F09BFA10BD3D
:1046B0002DE9F0474648FFF7E2FF8146454900F003
:1046C00059FA044600F05DFB0746434A434B00F0AD
:1046D000C7FA054600F068FBBDE8F0874049C860AE
:1046E000704710B5FFF790FFFFF763FEFFF7D6FFA7
:1046F0003B494860FFF7DCFF04463948C168204663
:1047000000F038FA364908603148FFF7B8FF3449FD
:10471000886010BD08B5012032490860FCF7BCFA7A
:10472000FFF740FE0223A0226946EC20FCF758FC6C
:104730009DF801009DF8001040EA01201D49088005
:104740000223A2226946EC20FCF74AFC9DF80100F6
:104750009DF8001040EA0120164948800223A42257
:104760006946EC20FCF73CFC9DF801009DF8001028
:1047700040EA01200F4988800223A6226946EC20E6
:10478000FCF72EFC9DF801009DF8001040EA012086
:104790000849C8800223A8226946EC20FCF720FCC7
:1047A0009DF801009DF8001040EA012001490881B0
:1047B000022319E02412002000010020040100203F
:1047C000FC00002008010020100100200000204112
:1047D0000000C84200DAC547394547729D18C340FA
:1047E000EC0000200C010020AA226946EC20FCF716
:1047F000F7FB9DF801009DF8001040EA01204949AF
:1048000048810223AC226946EC20FCF7E9FB9DF8C5
:1048100001009DF8001040EA012042498881FFF71D
:1048200060FF41490868FFF759FF08BD10B5002235
:104830004821EC20FCF749FB10BD10B503230022F2
:104840003A49EC20FCF7CCFB3848007800043749A3
:10485000497840EA0120354989780843344908609D
:1048600000225821EC20FCF730FB10BD10B50323CB
:1048700000222E49EC20FCF7B3FB2C480078000402
:104880002A49497840EA012028498978084329497A
:104890000860FFF78EFDFFF701FF23494860FFF72F
:1048A00007FF04462048C168204600F063F91E490E
:1048B00008602148FFF7E3FE1B49886010BD10B572
:1048C0001E48006814282BDB1D480068012804D00E
:1048D00002280BD003281BD111E0FFF7A7FF02200D
:1048E0001749086000201549086018E0FFF7A5FF88
:1048F0000320134908600020104908600FE0FFF70B
:10490000B5FF01200E49086000200C49086006E050
:1049100001200B49086000200849086000BF00BF63
:1049200010BD000024120020EC0000201001002027
:10493000FC000020000100200000C842740000209C
:104940000C0100202D490A780978491C2B4B19705D
:104950002B4988540978552903D000211A46117033
:104960007047264909780B2900DAF9E72449497884
:10497000512904D0522903D0532939D11CE037E002
:104980001F4989781E4AD27841EA022109B21D4A9C
:1049900011801B4909791A4A527941EA022109B268
:1049A000184A518016498979154AD27941EA02217B
:1049B00009B2144A91801BE011498978104AD278D3
:1049C00041EA022109B2104A11800D4909790C4AC5
:1049D000527941EA022109B20B4A5180084989798A
:1049E000074AD27941EA022109B2074A918000BF01
:1049F00000BF0021014A117000BFB1E72C01002067
:104A0000341200201C010020240100202DE9F04177
:104A10000024061B254671F1000605DA0124002753
:104A2000D0EB070067EB0101161E73F1000605DAF3
:104A30000027D2EB0702012567EB030300F0E4F93E
:104A400086460E4617469C46AC4204D00025D0EB65
:104A5000050E65EB010624B10020D2EB000760EBE8
:104A6000030C704631463A466346BDE8F08140EAA1
:104A700001039B0703D009E008C9121F08C0042ADC
:104A8000FAD203E011F8013B00F8013B521EF9D2C3
:104A90007047D2B201E000F8012B491EFBD27047EB
:104AA0000022F6E710B513460A4604461946FFF7FA
:104AB000F0FF204610BD30B504460020034600E05C
:104AC0005B1C934203D2E05CCD5C401BF8D030BD50
:104AD000F0B480EA0102D40F4200B2EB410F02D2DF
:104AE0000246084611464A0042D0C30DDDB2C1F36A
:104AF000C752AD1A202D35DAC1F3160141F4000278
:104B000004B15242C5F1200602FA06F12A411044CE
:104B1000B3EBD05F23D0C4B1012DA0EBC35009DCAF
:104B2000F0BC4FF0004202EAC352DBB200F50000D5
:104B300000F0A4B9400000F1807000EBC350A0F178
:104B4000807040EAD170490009E0490841EAC0712B
:104B5000A0EBC35000F50000400800EBC350F0BCD0
:104B600000F083B96142012202EB4101001BF6E72C
:104B7000F0BC704781F00041AAE780F00040A7E751
:104B800080EA010210B502F00043400022D04A0042
:104B90001FD0010E01EB1261C0F35600C2F35602A2
:104BA00040F4000042F40002A0FB022000047F3920
:104BB000140400D0401C50EA124001D44000491EA9
:104BC000C2B20C0604EBD010401C4008802A02D070
:104BD00003E0002010BD20F00100002900DA0020D1
:104BE000184310BD30B480EA010202F0004530F0F5
:104BF000004221F0004013D090B1C30DD40DC2F398
:104C00001601C0F31600E41A41F4000140F400025A
:104C10007D34914201D3641C00E04900002C02DA8B
:104C200030BC002070474FF400000023914201D3B4
:104C3000891A034340084FEA4101F7D151B191422B
:104C400002D14FF0004105E002D24FF0010101E036
:104C50006FF0010103EBC450284430BC00F005B9EB
:104C60002DE9F04D81EA030404F0004B21F00045EA
:104C700014464FF0000A23F0004150EA050220D00C
:104C800054EA01021DD0C5F30A570246C5F31303C7
:104C9000C1F31300C1F30A5640F4801543F48013A6
:104CA000A7EB0608101BD64608F2FD3873EB05008B
:104CB00002D308F1010801E092185B41B8F1000F3E
:104CC00003DA00200146BDE8F08D00204FF480118A
:104CD000064684460EE0171B73EB050705D3121B2F
:104CE00063EB050306434CEA010C49084FEA300028
:104CF00092185B4150EA0107EDD152EA030012D04D
:104D000082EA040083EA0501084305D0101BAB4189
:104D100006D20122002306E000224FF0004302E009
:104D20006FF0010253101AEB06004CEB085110EB28
:104D30000A0041EB0B01BDE8F04D00F0CDB8C10F0A
:104D400080EAE0700844CA079623002100F096B874
:104D500000F0004220F00040C10DC0F3160040F406
:104D600000007F2901DA00207047962903DCC1F199
:104D70009601C84001E096398840002AF4D04042AC
:104D8000704700F0004230F000400AD0C10D01F53C
:104D90006071C0F3160042EA0151C2084007114396
:104DA000704700200146704701F0004330B421F005
:104DB000004150EA010206D00A0DA2F56072C1F36B
:104DC0001301002A02DC30BC00207047440F44EA83
:104DD000C104C100E01830BC00EBC25000F045B87F
:104DE000002801DBC0F10040002901DBC1F10041D6
:104DF00081427047002801DBC0F10040002901DB3F
:104E0000C1F10041884270472DE9F05F054600205E
:104E100092469B4688460646814640241BE028462B
:104E200041464746224600F0D6F853465A46C01A35
:104E3000914110D311461846224600F0BDF82D1AB4
:104E400067EB01084F4622460120002100F0B4F82C
:104E500017EB00094E41201EA4F10104DFDC484697
:104E600031462A464346BDE8F09F0029A8BF704757
:104E7000401C490008BF20F00100704710B4B0FA90
:104E800080FC00FA0CF050EA010404BF10BC70472B
:104E900049B1CCF1200421FA04F411FA0CF118BF45
:104EA000012121430843A3EB0C01CB1D4FEA006114
:104EB0004FEA102042BF002010BC704700EBC350E7
:104EC00010440029A4BF10BC7047401C490008BF13
:104ED00020F0010010BC704710B5141E73F10004DF
:104EE00008DA401C41F1000192185B411A4301D1DC
:104EF00020F0010010BD2DE9F04D92469B4611B106
:104F0000B1FA81F202E0B0FA80F22032904600F06D
:104F100053F804460F4640EA0A0041EA0B015346A3
:104F20005A46084313D0114653EA010019D0C8F17C
:104F30004002504600F04FF805460E46504659468E
:104F4000424600F039F8084305D0012004E020462D
:104F50003946BDE8F08D0020054346EAE0762C4353
:104F600037430A986305E40AA0EB08000022FD0A13
:104F700044EA47540A3002D500200146E9E701051A
:104F800010196941DDE9084500196941BDE8F04D96
:104F9000A2E70000064C074D06E0E06840F0010380
:104FA00094E8070098471034AC42F6D3FBF7C4F8F6
:104FB000905A0008B05A0008202A04DB203A00FA70
:104FC00002F1002070479140C2F1200320FA03F360
:104FD000194390407047202A04DB203A21FA02F05E
:104FE0000021704721FA02F3D040C2F12002914023
:104FF00008431946704770B58C1810F8015B15F01E
:10500000070301D110F8013B2A1106D110F8012B3A
:1050100003E010F8016B01F8016B5B1EF9D12B075F
:1050200005D40023521E0DD401F8013BFAE710F815
:10503000013BCB1A921C03E013F8015B01F8015B02
:10504000521EF9D5A142D8D3002070BD0FB4084636
:1050500010B5064A02A900F01AF8044602A9002079
:1050600000F026F8204610BC5DF814FBB150000893
:1050700002E008C8121F08C1002AFAD17047704721
:10508000002001E001C1121F002AFBD170472DE969
:10509000F04116460F460446002503E03946B04766
:1050A000641C6D1C20780028F8D12846BDE8F081EA
:1050B0000A68531C0B60107070470000982F8A42DA
:1050C00091443771CFFBC0B5A5DBB5E95BC256395A
:1050D000F111F159A4823F92D55E1CAB98AA07D872
:1050E000015B8312BE853124C37D0C55745DBE7295
:1050F000FEB1DE80A706DC9B74F19BC1C1699BE415
:105100008647BEEFC69DC10FCCA10C246F2CE92DA4
:10511000AA84744ADCA9B05CDA88F97652513E98C8
:105120006DC631A8C82703B0C77F59BFF30BE0C6CF
:105130004791A7D55163CA0667292914850AB7275D
:1051400038211B2EFC6D2C4D130D385354730A65FA
:10515000BB0A6A762EC9C281852C7292A1E8BFA2D1
:105160004B661AA8708B4BC2A3516CC719E892D139
:10517000240699D685350EF470A06A1016C1A419BC
:10518000086C371E4C774827B5BCB034B30C1C39BB
:105190004AAAD84E4FCA9C5BF36F2E68EE828F747A
:1051A0006F63A5781478C8840802C78CFAFFBE9094
:1051B000EB6C50A4F7A3F9BEF27871C600000000B2
:1051C0003209000000000000010000007C1F000008
:1051D0000000000002000000890C00000000000038
:1051E00004000000ED0E030C0D000000050000009F
:1051F000D91C010000000000060000006803000048
:105200000000000007000000772000000000000000
:105210000B0000005906010400000000140000000B
:10522000D614030203000000150000009F020300D3
:105230000100000016000000DC1900000000000062
:1052400017000000A8170304050000001800000064
:10525000181E000000000000190000001765000083
:10526000000000001A000000AA1600000000000064
:105270001B000000901A0000000000001C0000004D
:1052800043100000000000001D000000730E00002D
:10529000000000001E000000271C000000000000AD
:1052A0001F000000F62000000000000020000000A9
:1052B000B91C00000000000021000000681C000074
:1052C0000000000022000000ED16000000000000B9
:1052D00023000000F416000000000000240000007D
:1052E000DE1500000000000025000000D4060304C5
:1052F0000500000026000000090603040500000068
:1053000027000000FE2503202100000028000000E7
:10531000E604030203000000290000001C0403024D
:10532000030000002A0000001C0200000000000032
:105330002B00000084020300010000002C0000008C
:10534000DD040302030000002D000000E80203005A
:10535000010000002E0000000B0200000000000011
:105360002F0000009903030001000000300000003E
:10537000290D010C0000000031000000270C000086
:1053800000000000320000004E2503121300000050
:1053900033000000C40403020300000036000000D4
:1053A0000F1B03181900000037000000031900004C
:1053B000000000003D000000A748000000000000C1
:1053C0003E000000B71A0000000000003F0000008F
:1053D00077B500000000000040000000BFE10000C1
:1053E0000000000041000000762A000000000000DC
:1053F0004200000094060302030000004300000086
:10540000150400000000000045000000F30B000040
:1054100000000000460000007C1203101100000094
:105420004900000026250320210000004A0000005A
:1054300014140000000000004B0000009E23031E17
:105440001F0000004C0000009821031E1F000000F8
:105450004D0000008F030308090000005100000008
:105460006A160000000000005200000031270324EB
:105470002500000053000000162500000000000079
:10548000540000008F350332330000005500000047
:105490008C33000000000000560000000535033288
:1054A00033000000570000009633000000000000A9
:1054B00059000000E71C0000000000005A00000036
:1054C000B7380000000000005B0000003F2A000029
:1054D000000000005C000000362100000000000019
:1054E0005D0000002F51000000000000640000007B
:1054F000AF1A0000000000006500000066200000F8
:1055000000000000660000009E2000000000000077
:1055100067000000D01400000000000068000000D8
:105520003820000000000000690000005D3E00001F
:10553000000000006A0000008A2C0000000000004B
:105540006B0000006C400000000000006C000000D8
:1055500020540000000000006D000000B9090000A8
:10556000000000006E00000054FE03010200000075
:105570006F0000002210000000000000700000001A
:10558000AE0C000000000000710000007C24000050
:105590000000000072000000ED2C00000000000080
:1055A00073000000044000000000000074000000D0
:1055B0004C16000000000000750000008006030487
:1055C0000500000076000000380E0000000000001A
:1055D00077000000740C030A0B0000007800000044
:1055E000866100000000000079000000ED02030069
:1055F000010000007A000000CB020300010000005F
:105600007B000000FA710300010000007C00000034
:1056100057230000000000007D000000CB060000C2
:10562000000000007E000000DC4F000000000000D1
:105630007F0000001923000000000000800000002F
:10564000E223000000000000810000002E16000090
:1056500000000000820000001D0D0000000000009E
:1056600083000000DFFF0000000000008400000055
:10567000550E00000000000085000000061200002A
:105680000000000086000000E52B00000000000084
:1056900087000000CB080000000000008800000028
:1056A000011600000000000089000000C30E000089
:1056B000000000008A0000006D24000000000000CF
:1056C0008B000000A82B03292A0000008C0000009A
:1056D000B5290000000000008D0000002F20000010
:1056E000000000008E00000048F3000000000000F1
:1056F0008F000000830E00000000000090000000FA
:105700007F5D000000000000920000006764000060
:1057100000000000930000009A2400000000000038
:1057200094000000B23C0000000000009500000062
:10573000C81E00000000000096000000180A0000CB
:1057400000000000970000005C0C0000000000005A
:1057500098000000F13000000000000099000000F7
:105760006F020000000000009A00000049010000E4
:1057700000000000E6000000A32A00000000000076
:10578000E70000006928000000000000E8000000B9
:10579000973F000000000000E900000023B6000071
:1057A00000000000EA000000962800000000000051
:1057B000EB000000B32A000000000000F100000030
:1057C0005A20000000000000F200000068340000D1
:1057D00000000000F3000000553501340000000017
:1057E000F40000005F06000000000000F50000006B
:1057F0008202000000000000F6000000B826000051
:1058000000000000F700000051130000000000003D
:10581000F800000008FE030304000000F900000087
:10582000CC24000000000000FA000000311E00003F
:1058300000000000FB000000AA12000000000000B1
:10584000FC0000002C12000000000000FD00000021
:105850005333000000000000FE0000002E0900008D
:105860000000000000010000472A030809000000B2
:105870000101000083090000000000000201000097
:10588000BB20030001000000030100005CEB0000EE
:10589000000000000401000092050000000000006C
:1058A00005010000B31B000000000000060100001D
:1058B0000C120000000000000701000085FF00003E
:1058C0000000000008010000311C00000000000082
:1058D000090100001A100000000000000A01000089
:1058E000C1FF0302030000000B01000023FF0302BD
:1058F000030000000C0100000E040302030000007E
:105900000D0100003AF60000000000000E0100004A
:10591000E8F7030E0F0000002B01000013600000E9
:10592000000000002C010000D9160000000000005B
:10593000360100001C1100000000000037010000CB
:105940005F7400000000000040010000F314030237
:1059500003000000410100005802030001000000A4
:1059600042010000F3950000000000004301000028
:105970004E930300010000004401000084920000E7
:10598000000000004A010000179E00000000000017
:10599000982F8A4291443771CFFBC0B5A5DBB5E99A
:1059A0005BC25639F111F159A4823F92D55E1CAB0E
:1059B00098AA07D8015B8312BE853124C37D0C559C
:1059C000745DBE72FEB1DE80A706DC9B74F19BC1E4
:1059D000C1699BE48647BEEFC69DC10FCCA10C24D4
:1059E0006F2CE92DAA84744ADCA9B05CDA88F976B8
:1059F00052513E986DC631A8C82703B0C77F59BF22
:105A0000F30BE0C64791A7D55163CA06672929144D
:105A1000850AB72738211B2EFC6D2C4D130D3853EA
:105A200054730A65BB0A6A762EC9C281852C7292AC
:105A3000A1E8BFA24B661AA8708B4BC2A3516CC7DA
:105A400019E892D1240699D685350EF470A06A1013
:105A500016C1A419086C371E4C774827B5BCB03462
:105A6000B30C1C394AAAD84E4FCA9C5BF36F2E6800
:105A7000EE828F746F63A5781478C8840802C78C8F
:105A8000FAFFBE90EB6C50A4F7A3F9BEF27871C692
:105A9000B05A00080000002030010000F64F000856
:105AA000E05A000830010020001600008050000875
:105AB0005184A24A04680901020304060708090C7C
:105AC00069103502040608663F9A99193E0A158046
:105AD0000C013205708FC2F53C09127402230100DB
