:020000040800F2
:10000000B018002045010008910A0008930A000872
:10001000970A00089B0A00089F0A000800000000D9
:10002000000000000000000000000000A30A00081B
:10003000A50A000800000000A70A0008A90A000895
:100040005F0100085F0100085F0100085F01000810
:100050005F0100085F0100085F0100085F01000800
:100060005F0100085F0100085F0100085F010008F0
:100070005F0100085F0100085F0100085F010008E0
:100080005F0100085F0100085F0100085F010008D0
:100090005F0100085F0100085F0100085F010008C0
:1000A0005F0100085F0100085F0100085F010008B0
:1000B0005F0100085F0100085F0100085F010008A0
:1000C0005F0100085F0100085F0100085F01000890
:1000D0005F010008B10A00085F010008F50A000886
:1000E0005F0100085F0100085F0100085F01000870
:1000F0005F0100085F0100085F0100085F01000860
:100100005F0100085F0100085F0100085F0100084F
:100110005F0100085F0100085F0100085F0100083F
:100120005F0100085F0100085F0100085F0100082F
:10013000DFF80CD006F05AFB0048004769010008C0
:10014000B01800200648804706480047FEE7FEE753
:10015000FEE7FEE7FEE7FEE7FEE7FEE7FEE7FEE777
:10016000F3170008310100089AB000F0A7FF00F073
:10017000A9FD01F077F801F061F901F00CFA01F046
:10018000BFFA01F025FA42F2107000F0AEFD04F063
:1001900055FA03F0EBFE04F0BAF812A101A806F03C
:1001A00047FB01A9164800F0F4FF07E015A101A8DC
:1001B00006F03EFB01A9124800F0EBFF05F027F81E
:1001C0000028F3D015A101A806F032FB01A90C48C4
:1001D00000F0DFFF05F06BF803F067FE01E003F0CD
:1001E000F6FDFCE754686973206973207468652024
:1001F00064656275672065646974696F6E0A0000E2
:10020000003801404D533538333720646973636FCC
:100210006E6E65637465640A000000004D533538E6
:10022000333720636F6E6E65637465640A00000087
:100230002DE9F34FC1B08268C4680569D0F814C0D5
:100240008369C669076AD0F82480CDF8008100214F
:1002500006E0DDF8088158F821804DF82180491C1E
:100260001029F6DB10214DE0A1F102085DF828808D
:100270004FEA5849A1F102085DF8288049EAC838D8
:10028000A1F102095DF829904FEAD94AA1F10209CA
:100290005DF829904AEA493988EA0908A1F102097A
:1002A0005DF8299088EA9929A1F107085DF828806E
:1002B000C844A1F10F095DF829904FEAD91AA1F1BC
:1002C0000F091DF829904AEA4969A1F10F0A5DF862
:1002D0002AA04FEA9A4BA1F10F0A5DF82AA04BEA37
:1002E0008A3A89EA0A09A1F10F0A5DF82AA089EA87
:1002F000DA09C144A1F110085DF82880C8444DF81E
:100300002180491C4029AFDB002149E04FEA931AC4
:100310004AEA836A4FEAD32B4BEA435B8AEA0B0A29
:100320004FEA536B4BEAC31B8AEA0B0ADDF800B1B4
:10033000D34403EA060A27EA030E8AEA0E0ADA44DD
:10034000DFF82CB65BF821B0DA445DF821B00AEB97
:100350000B084FEA920A4AEA827B4FEA523A4AEA8B
:10036000C24A8BEA0A0B4FEA925A4AEA822A8BEA7D
:100370000A0B02EA040A02EA050E8AEA0E0A04EAF5
:10038000050E8AEA0E0A0BEB0A09409737461E460D
:100390000CEB0803AC462546144608EB0902491C41
:1003A0004029B3DBD0F808809044C0F80880D0F82A
:1003B0000C8008EB0409C0F80C90D0F8108008EB12
:1003C0000509C0F81090D0F8148008EB0C09C0F8AB
:1003D0001490D0F8188008EB0309C0F81890D0F8F2
:1003E0001C8008EB0609C0F81C90D0F8208008EBB0
:1003F0000709C0F82090D0F82490DDF80081C144AE
:10040000C0F8249043B0BDE8F08F2DE9F04F91B0D3
:10041000044689461546CA46D4F800B0206800EB69
:10042000C50020602068584502D26068401C6060AA
:10043000CBF3C50630E0C6F14007BD4200D22F46DF
:1004400004F1280188193A46514605F0ACFD3E44B6
:10045000BA44ED1B402E1ED104F1280000904FF04D
:1004600000080FE0009A02EB880001AA02EB880165
:10047000C2780A7082784A7042788A700278CA70AC
:1004800008F10108B8F1100FECDB01A92046FFF7D5
:10049000CFFE002600BF00BF002DCCD111B0BDE8BB
:1004A000F08F2DE9F04192B004460E462088C0F34B
:1004B000C508C8F1770000F03F00451C04F10807AB
:1004C00080208DF8000047210DF1010005F084FD2A
:1004D0002178E81D0DF800102088C0F30721A81D21
:1004E0000DF800102068C0F30741681D0DF80010DA
:1004F0002068000E291D0DF801002179E81C0DF877
:100500000010A088C0F30721A81C0DF80010606837
:10051000C0F30741681C0DF800106068000E0DF86C
:10052000050005F1080269462046FFF76EFFF878DE
:100530003070B87870707878B0703878F070F8797A
:100540003071B879707112B0BDE8F0812DE9F04FCB
:10055000A1B007460C46164606F1020B06F58D784B
:1005600008F1070020903878012121EA500998F815
:1005700000A01FB9012021B0BDE8F08F06A800211E
:1005800001604160FB498160FB4AC260FB4A026135
:10059000FB4A4261FB4A8261FB4AC261FB4A02623A
:1005A000FB4A426200BF202207F11001FFF72DFF36
:1005B000F07800F10A02594606A8FFF726FF02224A
:1005C00006F58C7106A8FFF720FF0722414606A812
:1005D000FFF71BFF04A906A8FFF763FF062204A884
:1005E000209905F004FD08B10020C4E70021029124
:1005F0000391D8F801000290B8F80500ADF80C009E
:100600000CB90020B7E7002518E0F17905EBC50229
:10061000A01C1044407881420ED1317A05EBC5020E
:10062000A01C10448078814206D105EBC501A01CB6
:10063000405C504500D104E0681C85B22088A84287
:10064000E3DC00BF2088A84229D12088102801DBE4
:10065000002090E7B9F1000F0CD0CE4BDDE902206D
:10066000D11840F10000D7E90223891A984101D23C
:10067000002080E7F17905EBC502A01C1044417011
:10068000317A05EBC502A01C1044817005EBC50151
:10069000A01C00F801A02088401C208018E0002148
:1006A0000091019105EBC501A01C084450F8031FFF
:1006B00000918088ADF80400B9F1000F07D001A8BF
:1006C0000DC80099891A984101D3002053E700BF53
:1006D00005EBC501A01C0844D8F8011040F8031F21
:1006E000B8F805108180D7E90230DDE90212591A05
:1006F000904103D2DDE90201C7E9020101203AE796
:1007000000BF037883EA010282EA0213DAB20388A7
:100710001B1283EA022383EAC20383EA22130380C3
:1007200000BF70472DE9F84F05460C46164699461E
:100730000A9F002000902070E078102827D2DFE880
:1007400000F0080927485C646C747C94A3B8C9F96C
:10075000FAF600BFFD2E0CD10220E0700020E870F8
:10076000AE70207B20F001002073284600F001FAD3
:100770000DE0FE2E0BD10220E0700020E870AE707C
:10078000207B40F001002073284600F0F2F94EE192
:10079000207850B16078401C6070204600F0E5F988
:1007A000002020700120E07012E0EE700020207127
:1007B00031462846FFF7A4FF207B00F0010028B156
:1007C0000020287168710520E07001E00320E070CE
:1007D0002DE12E71287920F0010038B1204600F07B
:1007E000C4F9002020700120E07020E13146284645
:1007F000FFF786FF0420E07019E16E71314628464C
:10080000FFF77EFF0520E07011E1AE71314628460A
:10081000FFF776FF0620E07009E1EE7131462846C9
:10082000FFF76EFF0720E07001E12E723146284687
:10083000FFF766FF0820E070F9E0A86866F31F2064
:10084000A86031462846FFF75BFF207B00F00100DF
:1008500040B1E878002802DD0B20E07004E00C20B5
:10086000E07001E00920E070E1E0A868000A40EAD9
:100870000621A86861F31F20A86031462846FFF7CB
:100880003FFF0A20E070D2E0A868000A40EA064173
:10089000A86861F31F20A86031462846FFF730FFA3
:1008A000E878002802DD0B20E07001E00C20E07009
:1008B000BDE02179481C207105F1100046543146F5
:1008C0002846FFF71DFF2079E978884201D10C20E6
:1008D000E070ACE0A968080A00F051F98046B8F170
:1008E000000F02D098F8040000E00020834659462B
:1008F0002846FFF705FF2878B04202D00E20E070AE
:1009000001E00D20E07085F81861B8F1000F0DD0FE
:10091000207998F80510884208DA98F8052023799C
:10092000D11A05F11002981805F056FB7FE04DE052
:1009300001E0FFE700BFE0780E2803D02888B6EB7F
:10094000202F02D00220207001E00120207040F210
:1009500019104655287900F00100E8B10F20E07029
:100960000D206073207802282FD0002020702CE00A
:100970001471000867E6096A85AE67BB72F36E3CC6
:100980003AF54FA57F520E518C68059BABD9831F5A
:1009900019CDE05B808D5B00206970B12069006B30
:1009A00030B1A868010A2069026B2046904720B93F
:1009B0002078022801D0032020700120E0704FF43D
:1009C00094722946484605F0EEFA30E0607BC0F1AB
:1009D0000D0105F58D704654607B401E6073607B91
:1009E00020BB2A46D4E90401FFF7B0FD8246BAF1E4
:1009F000000F0BD12069006B40B1A868010A206983
:100A0000026B2046904708B14FF0010ABAF1000F7F
:100A100002D00120207001E0032020700120E0704E
:100A20004FF494722946484605F0BDFA00BF00BF56
:100A30000098401C00902078012808D1A8796071A6
:100A4000208908B9002060812089401C2081E87835
:100A500089F80300E078F870207938716079401CDB
:100A6000787120893881A0787881207B38730020C4
:100A7000A0702078022808D195F8181140F21910BA
:100A8000405D41EA0020A9F800002078BDE8F88F19
:100A9000704700BFFEE700BFFEE700BFFEE700BFF4
:100AA000FEE770477047704710B503F02BF910BD93
:100AB00010B5D0B040F225516D4802F0D7FBB8B167
:100AC0006B4802F053FBC4B26B4606AA21460020D5
:100AD00000F083F860B106A803F0EAFD0898020A66
:100AE00064A1704805F0A4FE6E49614800F051FB16
:100AF00050B010BD10B540F227716B4802F0B6FB44
:100B0000E0B16A4802780078401C684B1870684869
:100B1000815C654802F026FB6448007865490978E5
:100B2000884205D1002240F227715F4802F0B9FAED
:100B300040F227715C4802F0C3FB10E040F22551FF
:100B4000594802F093FB50B15749091D0988C8B2B2
:100B500005F0EAF840F22551534802F0B1FB4FF49A
:100B60005871514802F0ACFB10BD8178491C81706E
:100B7000704700BF4FF6FF71018000BF704730B56E
:100B800001460022A72316E0541C1C44600800EB19
:100B90004004494D55F824408C4201D9431E0AE0D7
:100BA00000EB4004444D55F824408C4201D20246EB
:100BB00001E0024601E09A42E6D300BF02EB4200A8
:100BC0003D4C54F82000884201D0002030BD02EB9B
:100BD0004200394C04EB8000F8E72DE9F84F8046DD
:100BE0000C4616461D4600BF404600F031F88146CF
:100BF000404600F034F88246334622464946009586
:100C0000FFF790FD0746022F01D0032F1ED140466B
:100C100000F025F88246404600F01AF88146484622
:100C2000FFF7A3FF002089F80000012089F80300E6
:100C3000FD2C08D1022089F8030000208AF8030067
:100C40005046FFF796FF0020BDE8F88F3846FBE7D7
:100C5000014601EB4100194A02EBC0007047014612
:100C600001EB810000EB4110154A02EBC000704718
:100C7000003801406D61766C696E6B206D65737331
:100C80006167652072656365697665642C207468A8
:100C900065206D6573736167652049442069732021
:100CA00025640A00180200200048004000000020CF
:100CB0001801002001000020147200087C020020AE
:100CC000E002002008B50121082001F09DF9C020B4
:100CD000ADF8000003208DF8020014208DF8030009
:100CE0006946EB4800F0D4FE08BD014641F2883267
:100CF00001FB02F000E0401E0028FCD170470520F7
:100D000001E0411EC8B20028FBD1704700B5402069
:100D1000DF4914310860FFF7F2FF8020DC4914310D
:100D20000860FFF7ECFF4020D94910310860FFF759
:100D3000E6FF4020D64914310860FFF7E0FF00BD10
:100D400000B54020D24914310860FFF7D8FF802059
:100D5000CF4910310860FFF7D2FF4020CC49103155
:100D60000860FFF7CCFF4020C94914310860FFF745
:100D7000C6FF00BD00B58020C54910310860402085
:100D80000860FFF7BCFFC2480830006808B90120BE
:100D900000E0002000F0800008B1002000BD8020AD
:100DA000BB4914310860FFF7AAFFB9480830006852
:100DB00000F0800008B10020F0E78020B449143131
:100DC0000860FFF79CFF0120E8E700B54020B0492C
:100DD00014310860FFF793FF8020AD49143108609B
:100DE000FFF78DFF4020AA4910310860FFF787FF09
:100DF0008020A74910310860FFF781FF00BD00B5D2
:100E00004020A34914310860FFF779FF8020A049F2
:100E100010310860FFF773FF40209D4910310860D2
:100E2000FFF76DFF9A480830006800F0800038B185
:100E30004020974914310860FFF761FF002000BD92
:100E40004020934914310860FFF759FF0120F6E76D
:100E500000B5024608231BE040208D49143108608C
:100E6000FFF74DFF02F0800020B18020884910314B
:100E7000086003E080208649143108605006020EA5
:100E8000FFF73DFF4020824910310860FFF737FF30
:100E90001800A3F10101CBB2DED140207C4914310E
:100EA000086000BD00B50823002280207849103179
:100EB000086015E05006020E4020754914310860A4
:100EC000FFF71DFF4020724910310860FFF717FF40
:100ED0006F480830006800F0800008B142F001025D
:100EE0001800A3F10101CBB2E4D1402068491431CC
:100EF0000860104600BD70B504460D461646FFF763
:100F000039FF08B9002070BD2046FFF7A1FFFFF7A9
:100F100076FF18B9FFF759FF0020F4E72846FFF7DE
:100F200097FFFFF76CFF3046FFF792FFFFF767FF71
:100F3000FFF74BFF0120FFF7D8FE0120E3E770B574
:100F400004460D46FFF716FF08B9002070BD204685
:100F5000FFF77EFFFFF753FF18B9FFF736FF0020BA
:100F6000F4E72846FFF774FFFFF749FF18B9FFF7CA
:100F70002CFF0020EAE7FFF7FDFE44F00100FFF739
:100F800067FFFFF73CFF18B9FFF71FFF0020DDE701
:100F9000FFF788FF0646FFF7D3FEFFF716FF304640
:100FA000D4E730B50446FFF7E5FE08B9002030BDB0
:100FB0002046FFF74DFFFFF722FF0546FFF705FF2D
:100FC0002846F4E7F0B505460E461746FFF7D2FE71
:100FD0002846FFF73DFFFFF712FF18B9FFF7F5FEB0
:100FE0000020F0BD00240BE0305DFFF731FFFFF77C
:100FF00006FF18B9FFF7E9FE0020F2E7601CC4B253
:10100000BC42F1DBFFF7E1FE0120EAE7F0B5044660
:101010000E4617461D46FFF7ADFE08B90020F0BD8D
:101020002046FFF715FFFFF7EAFE18B9FFF7CDFEE0
:101030000020F4E73846FFF70BFFFFF7E0FE18B992
:10104000FFF7C3FE0020EAE7FFF794FE44F001003B
:10105000FFF7FEFEFFF7D3FE18B9FFF7B6FE00203C
:10106000DDE70EE0FFF71EFF3070761C012D02DD7C
:10107000FFF74CFE03E0FFF763FEFFF7A6FE681ED6
:1010800085B2002DEED1FFF7A0FE0120C7E70000DA
:10109000000C014008B54FF4A06000F02BFC2520A7
:1010A0008DF8000003208DF801008DF8020001206A
:1010B0008DF80300684600F022FC08BD00B585B03D
:1010C0000121042000F0A0FF0121880300F09CFF13
:1010D0004FF40070ADF8100018208DF813000320B5
:1010E0008DF8120004A9534800F0D2FC4FF4806040
:1010F000ADF8100004208DF8130004A94D4800F04D
:10110000C7FC4FF4E13000900020ADF80400ADF8CA
:101110000600ADF80800ADF80C000C20ADF80A0090
:101120006946454801F025FFFFF7B4FF012240F270
:101130002551414801F0B5FF01213F4801F0A5FFCD
:1011400005B000BD70B504460D462946204602F0A4
:1011500009F800BF8021204602F072F80028F9D07B
:1011600070BD2DE9F04107460D461646002405E006
:10117000295D3846FFF7E6FF601CC4B2B442F7DBD6
:1011800000BF4021384602F05BF80028F9D0BDE8E6
:10119000F08170B506460C46002500BF615D304603
:1011A000FFF7D0FF6D1C605D0028F7D100BF402124
:1011B000304602F045F80028F9D070BD2DE9F04125
:1011C00005460C46260AE7B23146284601F0CAFF1A
:1011D00000BF8021284602F033F80028F9D03946B4
:1011E000284601F0BFFF00BF8021284602F028F802
:1011F0000028F9D0BDE8F08170B504460D46E1B293
:101200000D4801F0AFFF00BF80210B4802F018F835
:101210000028F9D0204670BD10B5044600BF20213B
:10122000054802F00DF80028F9D0034801F09EFFB0
:1012300010BD0000000801400038014008B54FF41F
:10124000A06000F057FB27208DF8000003208DF8E8
:10125000010001208DF802008DF80300684600F0BF
:101260004EFB08BD00B585B00121102000F0CCFE7A
:101270000121880400F0D5FE0121084600F0C4FEDB
:1012800001211E4800F0D5FC4FF48060ADF810003D
:1012900018208DF8130003208DF8120004A91848B7
:1012A00000F0F6FB4FF40060ADF8100004208DF85C
:1012B000130004A9124800F0EBFB4FF41650009005
:1012C0000020ADF80400ADF80600ADF80800ADF858
:1012D0000C000C20ADF80A0069460A4801F049FEEE
:1012E000FFF7ACFF012240F22551064801F0D9FE7C
:1012F0000121044801F0C9FE05B000BD1000140032
:10130000001001400048004008B50121042000F011
:101310007BFE4020ADF8000018208DF8030003206C
:101320008DF802006946524800F0B2FB012104200A
:1013300000F06AFE8020ADF8000018208DF8030050
:1013400003208DF802006946494800F0A1FB012105
:10135000082000F059FE0120ADF8000018208DF89B
:10136000030003208DF802006946424800F090FB1C
:101370000121082000F048FE0220ADF800001820EE
:101380008DF8030003208DF802006946394800F00B
:101390007FFB08BDF0B587B04FF4C86425462646EC
:1013A00027460121022000F03CFE44F61F60ADF804
:1013B00014004720ADF810000020ADF81600ADF87D
:1013C00012008DF8180004A92B4800F055FF60208A
:1013D000ADF800000120ADF802000020ADF80800D3
:1013E000ADF806406946244800F083FF08212248F2
:1013F00001F0CEFBADF8065069461F4800F0BBFF78
:1014000008211D4801F0CDFBADF8066069461A4879
:1014100000F0FEFF0821184801F0D0FBADF806707F
:101420006946154801F03FF80821134801F0CFFB49
:101430000121114801F07CFA07B0F0BD10B5FFF7AB
:1014400063FFFFF7A7FF10BD10B50446A1B20A481D
:1014500001F006FDA1B2084801F004FDA1B2064862
:1014600001F002FDA1B2044801F000FD10BD000032
:1014700000080140000C01400004004008B50121B3
:10148000102000F0C1FD0121042000F0BDFD182056
:101490008DF803004020ADF8000003208DF8020015
:1014A0006946494800F0F4FA8020ADF8000069462A
:1014B000454800F0EDFA4FF48070ADF80000694641
:1014C000414800F0E5FA4FF40070ADF800006946BD
:1014D0003D4800F0DDFA08BD00B587B001214803A2
:1014E00000F092FD44F61F60ADF814004720ADF8FF
:1014F00010000020ADF81600ADF812008DF81800AD
:1015000004A9324800F0B8FE6020ADF800000120C8
:10151000ADF802000020ADF808004FF48070ADF87F
:101520000C004FF4C860ADF806006946274800F08B
:10153000E0FE0821254801F02BFB4FF4C860ADF810
:1015400006006946214800F016FF08211F4801F0F7
:1015500028FB4FF4C860ADF8060069461B4800F050
:1015600057FF0821194801F029FB4FF4C860ADF876
:1015700006006946154800F096FF0821134801F05F
:1015800026FB0121114801F0D3F901210F4801F098
:10159000DBF907B000BD10B5FFF770FFFFF79CFF48
:1015A00010BD10B50446A1B2084801F059FCA1B223
:1015B000064801F057FCA1B2044801F055FCA1B265
:1015C000024801F053FC10BD0010014000340140FE
:1015D00030B5164800684FF47A72B0FBF2F1B1F101
:1015E000807F01D301201DE021F07F40401E4FF09D
:1015F000E022506150170D22002807DA13071D0E54
:101600000B4B00F00F04241F1D5503E013071C0EA5
:10161000084B1C5400BF00204FF0E02290610720CF
:101620001061002008B100BFFEE730BD04000020BB
:1016300018ED00E000E400E008B50121082000F00A
:10164000E3FC4FF48070ADF8000018208DF8030023
:1016500003208DF8020069462C4800F019FA012198
:10166000082000F0D1FC4FF40070ADF80000182005
:101670008DF8030003208DF802006946234800F02E
:1016800007FA08BD30B587B042F210752C4601212B
:10169000042000F0C6FC44F61F60ADF8140047209B
:1016A000ADF810000020ADF81600ADF812008DF86E
:1016B000180004A9164800F0DFFD6020ADF8000016
:1016C0000120ADF802000020ADF80800ADF806508A
:1016D00069460F4800F09CFE08210D4801F06EFAA3
:1016E000ADF8064069460A4800F0DDFE08210848CA
:1016F00001F06DFA0121064801F01AF907B030BD7A
:1017000010B5FFF799FFFFF7BDFF10BD000C0140BA
:10171000000800400CB50020019000906C48006863
:1017200040F480306A49086000BF6948006800F4EE
:10173000003000900198401C0190009818B9019861
:10174000B0F5A06FF1D16248006800F4003010B12C
:101750000120009001E0002000900098012843D172
:101760005C48006840F010005A490860084600686C
:1017700020F0030008600846006840F0020008609E
:1017800053484068524948600846406848600846E7
:10179000406840F4806048600846406820F47C104F
:1017A00048600846406840F4E81048600846006811
:1017B00040F08070086000BF4548006800F000708D
:1017C0000028F9D04248406820F0030040494860B2
:1017D0000846406840F00200486000BF3C4840684E
:1017E00000F00C000828F9D10CBD10B5FFF792FFEE
:1017F00010BD10B53648006840F00100344908605B
:101800000846406834490840314948600846006845
:10181000324908402E4908600846006820F48020BC
:1018200008600846406820F4FE0048604FF41F003E
:101830008860FFF7DAFF4FF000602949086010BDAB
:1018400010B5002100200022214B5B6803F00C0141
:1018500021B1042906D0082928D107E0214B224CC8
:10186000236027E01F4B204C236023E0184B5B686C
:1018700003F47010164B5B6803F48032022303EB11
:10188000904022B9194B4343174C23600DE0104B95
:101890005B6803F4003323B1144B4343124C2360C1
:1018A00003E0104B4343104C236003E00D4B0E4C00
:1018B000236000BF00BF064B5B68C3F303130C4CEF
:1018C000E15C094B1B68CB40074C236010BD000056
:1018D00000100240002002400000FFF8FFFFF6FE6B
:1018E00008ED00E000127A000400002000093D002D
:1018F0000800002031490143314A1160704770B53A
:10190000002100230F22C47804B32D4C246804F472
:10191000E064C4F5E064210AC1F10403CA404478DC
:1019200004FA03F18478144021430901254C067818
:10193000A155047804F01F050124AC4005786D1111
:10194000AD0005F1E025C5F8004109E0047804F098
:101950001F050124AC401C4D0678761145F8264041
:1019600070BD1A4A0A400243154B1B1F1A6070478C
:1019700039B1134A121D12680243114B1B1D1A6024
:1019800006E00F4A121D126882430D4B1B1D1A60A0
:101990007047042808D14FF0E021096941F00401A3
:1019A0004FF0E022116107E04FF0E021096921F0DA
:1019B00004014FF0E0221161704700000000FA05B9
:1019C0000CED00E000E400E080E100E080FFFF1F9C
:1019D00010B50446CC48844208D10121042000F00F
:1019E0002DFB0021042000F029FB46E0C74884427B
:1019F00008D10121082000F021FB0021082000F07F
:101A00001DFB3AE0C248844208D10121102000F0B9
:101A100015FB0021102000F011FB2EE0BD48844290
:101A200008D10121202000F009FB0021202000F036
:101A300005FB22E0B848844208D10121402000F093
:101A4000FDFA0021402000F0F9FA16E0B348844284
:101A500008D10121802000F0F1FA0021802000F05F
:101A6000EDFA0AE0AE48844207D10121801500F06A
:101A7000E5FA0021A01500F0E1FA10BD10B5012132
:101A8000084600F0DBFA0021012000F0D7FA10BD73
:101A90002DE9F04102460025002600200023002405
:101AA000002791F803C00CF00F0591F803C00CF06B
:101AB000100CBCF1000F03D091F802C04CEA0505F0
:101AC00091F800C0BCF1000F31D0146800202BE069
:101AD0004FF0010C0CFA00F3B1F800C00CEA030659
:101AE0009E4220D183004FF00F0C0CFA03F7BC4349
:101AF00005FA03FC4CEA040491F803C0BCF1280F7A
:101B000006D14FF0010C0CFA00FCC2F814C00AE038
:101B100091F803C0BCF1480F05D14FF0010C0CFA4D
:101B200000FCC2F810C0401C0828D1D31460B1F8E2
:101B300000C0BCF1FF0F34DD546800202EE000F13E
:101B4000080C4FF0010808FA0CF3B1F800C00CEAD9
:101B500003069E4221D183004FF00F0C0CFA03F7CD
:101B6000BC4305FA03FC4CEA040491F803C0BCF141
:101B7000280F05D100F1080C08FA0CF8C2F81480FF
:101B800091F803C0BCF1480F07D100F1080C4FF0E9
:101B9000010808FA0CF8C2F81080401C0828CED3BF
:101BA0005460BDE8F0814FF6FF7101800221817021
:101BB0000421C17070470246002093680B400BB1AE
:101BC000012000E0002070470146886880B270471D
:101BD00002460020D3680B400BB1012000E000203A
:101BE00070470146C86880B2704701617047416123
:101BF00070470AB1016100E041617047C160704700
:101C00004FF480320A438261816182618269826914
:101C1000704702460020434B18684FF68073184007
:101C200040EA021008433F4B186070473E49C861C4
:101C30007047F0B50A46002300240021002500F07B
:101C40000046B6F1004F02D1364EF16901E0354E43
:101C50007168C0F3034583B200F44016B6F5401F27
:101C600008D121F070612F4E766826F070662D4FF6
:101C70007E6012E000F48016B6F5801F06D10326C0
:101C800006FA05F4A14341F0706106E0460D360105
:101C900003FA06F6B14341F0706122B1460D3601F8
:101CA00003FA06F6314300F00046B6F1004F02D1C8
:101CB0001C4EF16101E01B4E7160F0BD30B5002299
:101CC0008B071C0F0F2303FA04F2164B08338C10FA
:101CD00053F824309343134C08348D1044F82530C6
:101CE00023468C1053F824308C07240F00FA04F498
:101CF00023430C4C08348D1044F8253030BD0A497C
:101D0000DC3108607047000000080140000C014011
:101D1000001001400014014000180140001C014067
:101D2000002001400000014000002042DF48006820
:101D300040F00100DD49086008464068DC49084081
:101D4000DA49486008460068DA490840D74908601F
:101D50000846006820F4802008600846406820F4A7
:101D6000FE0048604FF41F0088607047CF49096843
:101D700021F48031CD4A11601146096821F4802197
:101D80001160B0F5803F03D0B0F5802F0ED106E092
:101D9000C649096841F48031C44A116007E0C3496B
:101DA000096841F4A021C14A116000E000BF00BFF2
:101DB000704710B501460022002300204A11012A75
:101DC00002D1BA4C236806E0022A02D1B74C236A3A
:101DD00001E0B64C636A01F01F02012494401C40EC
:101DE0000CB1012000E0002010BD38B500200090AB
:101DF0000024002500BF3120FFF7DBFF05460098D7
:101E0000401C00900098B0F5A06F01D0002DF2D0DA
:101E10003120FFF7CEFF08B1012400E00024204666
:101E200038BD01460020A14A106820F0F80040EAC1
:101E3000C10010607047A04908607047024600204A
:101E40009A4B586820F47C1042EA01031843974BE0
:101E50005860704798490866704701460020934AC9
:101E6000506820F003000843506070478F48406876
:101E700000F00C007047014600208C4A506820F0AA
:101E8000F00008435060704701460020874A5068C0
:101E900020F4E06008435060704701460020834A08
:101EA000506820F4605040EAC1005060704729B18A
:101EB0007E4A527A02437D4B5A7204E07B4A527A40
:101EC00082437A4B5A7270477B49D8310860704719
:101ED00001460020754A506820F440400843506095
:101EE00070470021714A20321170704A82F8201028
:101EF000012802D004280AD104E001216B4A2032D3
:101F0000117005E00521694A2032117000E000BF20
:101F100000BF70476949086070476449096A014316
:101F2000624A11627047654944390860704730B5AC
:101F300000210022002400235C4D6D6805F00C0197
:101F400021B1042905D0082923D105E05C4D0560A5
:101F500022E05B4D05601FE0544D6D6805F4701282
:101F6000524D6D6805F48034022505EB92421CB990
:101F7000544D554305600BE04C4D6D6805F400353C
:101F80001DB1504D5543056002E04D4D5543056070
:101F900002E04B4D056000BF00BF444D6D6805F089
:101FA000F0010909484D6B5C0568DD4045603F4D17
:101FB0006D6805F4E061090A434D6B5C4568DD40DE
:101FC00085603A4D6D6805F46051C90A3E4D6B5C01
:101FD0004568DD40C560354D6D6805F44041890BAD
:101FE0003A4D6B5CC568B5FBF3F5056130BD29B1B1
:101FF0002E4A526902432D4B5A6104E02B4A526922
:1020000082432A4B5A61704729B1284A9269024398
:10201000264B9A6104E0254A92698243234B9A61D8
:10202000704729B1214AD2690243204BDA6104E0AA
:102030001E4AD26982431D4BDA61704729B11B4A9F
:10204000D2680243194BDA6004E0184AD26882432E
:10205000164BDA60704729B1144A12690243134BD8
:102060001A6104E0114A12698243104B1A617047E9
:1020700012494039086070470F49C86470470B49DE
:10208000C87170470948406A40F08070074948624B
:10209000704701460020054A92680A400AB10120B3
:1020A00000E000207047014988727047001002402C
:1020B0000000FFF8FFFFF6FE0000424280044242AB
:1020C00000127A0000093D001800002028000020BE
:1020D00010B50446FE48844208D10121C014FFF720
:1020E000ADFF0021E014FFF7A9FFC4E0B4F1804F79
:1020F00008D101210846FFF7AEFF00210120FFF7BC
:10210000AAFFB8E0F348844208D101210220FFF77A
:10211000A2FF00210220FFF79EFFACE0EE488442C0
:1021200008D101210420FFF796FF00210420FFF7CA
:1021300092FFA0E0E948844208D101210820FFF77E
:102140008AFF00210820FFF786FF94E0E4488442DC
:1021500008D101211020FFF77EFF00211020FFF79A
:102160007AFF88E0DF48844208D101212020FFF770
:1021700072FF00212020FFF76EFF7CE0DA488442E6
:1021800008D101214014FFF759FF00216014FFF727
:1021900055FF70E0D548844209D10121C804FFF7FA
:1021A0004DFF00214FF40020FFF748FF63E0D048C7
:1021B000844209D101210805FFF740FF00214FF4B7
:1021C0008010FFF73BFF56E0CA48844209D1012145
:1021D0004805FFF733FF00214FF40010FFF72EFFF3
:1021E00049E0C548844208D101214020FFF733FF70
:1021F00000214020FFF72FFF3DE0C048844208D176
:1022000001218020FFF727FF00218020FFF723FF17
:1022100031E0BB48844208D101218015FFF71BFF44
:102220000021A015FFF717FF25E0B648844209D129
:1022300001210804FFF702FF00214FF48030FFF76F
:10224000FDFE18E0B048844209D101214804FFF79F
:10225000F5FE00214FF40030FFF7F0FE0BE0AB4835
:10226000844208D101218804FFF7E8FE00214FF4E1
:102270008020FFF7E3FE10BD00220288944B9842B5
:102280000ED0994B98420BD0B0F1804F08D0914BB3
:10229000984205D0904B984202D0904B984204D17E
:1022A0004FF68F731A404B881A438D4B984207D0D4
:1022B0008C4B984204D04FF6FF431A40CB881A4308
:1022C00002808B8883850B880385814B98420BD0D5
:1022D000854B984208D08B4B984205D08A4B984248
:1022E00002D08A4B984201D10B7A03860123838264
:1022F000704770B5002400220023058C4FF6FE764F
:1023000035400584028C8388048B4FF68F752C40F2
:10231000B51E2C400D882C43751E2A400D892A437A
:102320004D882A436A4DA8420BD06F4DA84208D071
:10233000744DA84205D0744DA84202D0734DA842F6
:1023400013D14FF6F7752A404D892A434FF6FB7596
:102350002A408D882A434FF6FF652B404FF6FF55E4
:102360002B408D892B43CD892B4383800483CD88DB
:102370008586028470BD70B5002400220023058C80
:102380004FF6EF7635400584028C8388048B48F63F
:10239000FF752C404FF6FF452C400D884FF6FF7619
:1023A00006EA05252C434FF6DF752A400D8906EA1B
:1023B00005152A434D8806EA05152A43444DA842CF
:1023C00002D0494DA8421DD14FF67F752A404D8954
:1023D0004FF6FF7606EA05152A434FF6BF752A40E9
:1023E0008D8806EA05152A434FF6FF352B404FF23C
:1023F000FF752B408D8906EA85052B43CD8906EABA
:1024000085052B4383800483CD880587028470BDB6
:1024100070B5002400220023058C4FF6FF6635407E
:102420000584028C8388848B4FF68F752C404FF681
:10243000FC752C400D882C434FF6FF552A400D8922
:102440004FF6FF7606EA05252A434D8806EA05255C
:102450002A431F4DA84202D0234DA8421DD14FF25E
:10246000FF752A404D894FF6FF7606EA05252A4377
:102470004FF6FF352A408D8806EA05252A434EF699
:10248000FF752B404DF6FF752B408D8906EA05152B
:102490002B43CD8906EA05152B4383808483CD88A1
:1024A0008587028470BD70B5002200230024058C4E
:1024B0004EF6FF7635400584038C8488828B48F67F
:1024C000FF752A404FF6FF452A400D8820E00000A6
:1024D000002C01400004004000080040000C0040B7
:1024E000001000400014004000340140004C014046
:1024F000005001400054014000180040001C004002
:1025000000200040004001400044014000480140DC
:102510004FF6FF7606EA05252A434DF6FF752B4058
:102520000D8906EA05352B434D8806EA05352B4310
:10253000FA4DA84202D0FA4DA84208D14BF6FF75D9
:102540002C408D894FF6FF7606EA85152C43848052
:102550008283CD88A0F84050038470BD828B4FF2F7
:10256000FF331A408283828B4FF6FF7303EA012305
:102570001A4382837047F0B50C46154600220021AD
:102580000026078C4EF6FF7C07EA0C070784828B37
:10259000018C4FF6FF7707EA043640F6FF473A40D2
:1025A0004FF6FF7707EA05273A434FF6FF7707EA2A
:1025B00003373A43D94FB8420ED0D94FB8420BD067
:1025C000B0F1804F08D0D74FB84205D0D64FB842AF
:1025D00002D0D64FB84206D14DF6FF77394046F4C7
:1025E0008057394305E047F6FF57394044F4805798
:1025F000394382830184F0BD828B4FF6F3731A4016
:102600008283828B0A4382837047F0B50C4615465D
:10261000002200210026078C4FF6FF6C07EA0C070A
:102620000784828B018C4FF6FF7707EA04264FF66A
:102630000C773A404FF6FF7707EA03172F433A43E8
:10264000B64FB8420ED0B64FB8420BD0B0F1804F63
:1026500008D0B44FB84205D0B34FB84202D0B34F00
:10266000B84206D14FF6FF57394046F480773943D8
:1026700005E04FF2FF57394044F4807739438283B5
:102680000184F0BD028B4FF2FF331A400283028BAC
:102690004FF6FF7303EA01231A4302837047F0B534
:1026A0000C461546002200210026078C4FF6EF7CD1
:1026B00007EA0C070784028B018C4FF6FF7707EAC5
:1026C000041640F6FF473A404FF6FF7707EA033714
:1026D0003A434FF6FF7707EA05273A438F4FB84250
:1026E0000ED08F4FB8420BD0B0F1804F08D08D4F35
:1026F000B84205D08C4FB84202D08C4FB84206D1B8
:102700004FF6DF77394046F01007394305E04FF6C2
:102710005F77394044F01007394302830184F0BDEC
:10272000028B4FF6F3731A400283028B0A43028333
:102730007047F0B50C46154600220021068C4FF676
:10274000FE773E400684028B018C4FF60C763240B9
:102750007E1C06EA03162E433243704EB0420ED062
:102760006F4EB0420BD0B0F1804F08D06D4EB042EA
:1027700005D06D4EB04202D06C4EB04206D14FF63D
:10278000FD76314044F00106314305E04FF6F57621
:10279000314044F00106314302830184F0BD70B53D
:1027A00005460C465D4885420ED05D4885420BD0FB
:1027B000B5F1804F08D05B48854205D05A48854224
:1027C00002D05A48854200D100E000BF208850B9AD
:1027D0002389A28861882846FFF7ABFFE188284655
:1027E000FFF79EFF25E0208804280AD12389A288CC
:1027F00061882846FFF753FFE1882846FFF742FF2C
:1028000017E0208808280AD12389A28861882846F1
:10281000FFF7FBFEE1882846FFF7EEFE09E023897B
:10282000A28861882846FFF7A6FEE1882846FFF7C0
:1028300095FE70BD2DE9F04105460C4600260127A6
:10284000608808B9022600E00026A088012801D18E
:10285000022700E001272088A0B92389A288618887
:102860002846FFF766FFE1882846FFF759FF2389CE
:102870003A4631462846FFF712FFE1882846FFF71F
:1028800001FF13E02389A28861882846FFF707FF2C
:10289000E1882846FFF7F6FE23893A463146284666
:1028A000FFF747FFE1882846FFF73AFFBDE8F081D0
:1028B0000A884B881A438B881A43CB881A430B89A2
:1028C0001A434B891A438B891A43A0F84420704756
:1028D0004FF6FF71818000210180C180418001722B
:1028E00070470021018041808180C1800181418148
:1028F0008181C18170470021018041800121818057
:102900000021C180018170470021018041808180C8
:10291000C18001814181818170470000002C01400C
:10292000003401400004004000080040000C00405A
:1029300021B1028842F00102028004E002884FF6D1
:10294000FE731A400280704731B1B0F8442042F45F
:102950000042A0F8442005E0B0F84420C2F30E0283
:10296000A0F8442070471AB183890B43838102E0A9
:1029700083898B43838170478182704741EA0203D8
:10298000A0F8483070471AB183890B43838102E075
:1029900083898B438381704701894FF6F872114018
:1029A000018170470A46002101894FF68F73194053
:1029B00011430181704730B504460D462946204633
:1029C000FFF7F0FF208940F00700208130BD2DE99E
:1029D000F04104460D4616461F46602D06D13B4683
:1029E000012231462046FFF75AFE05E03B46012210
:1029F00031462046FFF79DFE29462046FFF7D2FFCD
:102A0000208940F007002081BDE8F08130B50C46F8
:102A100000210189C9B24FF6FF7505EA0325154368
:102A200025432943018130BD2DE9F04105460E467D
:102A300017469846002443463A4631462846FFF753
:102A4000E5FF2C894FF6F870044044F007044FF678
:102A50008F70044044F070042C81BDE8F081F0B523
:102A600004460D4616461F463B463246294620463A
:102A7000FFF7CCFF208940F480402081F0BD018524
:102A8000828270470A46002101884FF68F731940F1
:102A9000114301807047F0B50C4615461E460021D3
:102AA000002200230189028B038C4FF6F87739400E
:102AB00021434FF6FC473A4040F201173A434FF6A4
:102AC000DD773B404FF6FF7707EA06172F433B437E
:102AD000018102830384F0BD0A460021018B4FF679
:102AE0008F7319401143018370470A460021018BFF
:102AF00048F6FF7319404FF6FF7303EA02231943A8
:102B0000018370470A460021818B4FF68F7319406D
:102B10001143818370470A460021818B48F6FF7379
:102B200019404FF6FF7303EA02231943818370476C
:102B300021B1028842F08002028004E002884FF650
:102B40007F731A400280704721B1828842F00402EC
:102B5000828004E082884FF6FB731A4082807047BF
:102B600021B1828842F00802828004E082884FF618
:102B7000F7731A408280704721B1828842F00102C7
:102B8000828004E082884FF6FE731A40828070478C
:102B90000A460021018B4FF6F77319401143018358
:102BA00070470A460021018B4FF2FF7319404FF620
:102BB000FF7303EA02231943018370470A46002189
:102BC000818B4FF6F77319401143818370470A4692
:102BD0000021818B4FF2FF7319404FF6FF7303EA18
:102BE00002231943818370470A460021018B4FF667
:102BF000FB7319401143018370470A460021018B82
:102C00004FF6FF3319404FF6FF7303EA02231943CF
:102C1000018370470A460021818B4FF6FB731940F0
:102C20001143818370470A460021818B4FF6FF33A1
:102C300019404FF6FF7303EA02231943818370475B
:102C40000A460021018B4FF67F731940114301831F
:102C500070470A460021018BC1F30E014FF6FF7346
:102C600003EA02231943018370470A460021818B3E
:102C70004FF67F7319401143818370470A46002144
:102C8000818BC1F30E014FF6FF7303EA0223194350
:102C9000818370470A460021018C4FF6FD7319406D
:102CA0001143018470470A460021018C4FF6F773E7
:102CB00019401143018470470A460021018C4FF6E8
:102CC000DF7319404FF6FF7303EA021319430184BF
:102CD00070470A460021018C4FF67F7319404FF66A
:102CE000FF7303EA02131943018470470A46002167
:102CF000018C4FF6FF5319404FF6FF7303EA02238E
:102D00001943018470470A460021018C4FF2FF737A
:102D100019404FF6FF7303EA0223194301847047F9
:102D20000A460021018C4DF6FF7319404FF6FF73E0
:102D300003EA023319430184704730B500230124AC
:102D40008C40A3B2048C9C430484048C02FA01F5E9
:102D5000ADB22C43048430BD30B5002304248C4034
:102D6000A3B2048C9C430484048C02FA01F5ADB236
:102D70002C43048430BD70B503460020002418465F
:102D8000183001258D40ACB21D8CA5431D8409B1BE
:102D9000082909D100EB6100056825F07005056080
:102DA0000568154305600EE00D1FC5F34E05284468
:102DB000056825F4E045056005684FF6FF7606EAEC
:102DC00002263543056070BD21B1028842F002023F
:102DD000028004E002884FF6FD731A4002807047BB
:102DE00021B1028842F00402028004E002884FF61A
:102DF000FB731A400280704721B1828842F0800242
:102E0000828004E082884FF67F731A408280704788
:102E100002884FF6F7731A40028002880A43028044
:102E2000704782884FF68F731A40828082880A43E7
:102E30008280704702894FF6F8731A400281028936
:102E40000A430281704702894FF67F731A4002815C
:102E500002890A43028170478184704781857047E7
:102E6000818670470187704781877047A0F84010BE
:102E7000704702884FF6FF431A40028002880A43D7
:102E8000028070470146888E70470146088F704760
:102E90000146888F70470146B1F8400070470146EF
:102EA000888C70470146088D704702460020138ABF
:102EB0000B400BB1012000E000207047CA430282A2
:102EC000704730B50246002000230024158A05EA29
:102ED0000103958905EA010413B10CB1012000E05A
:102EE000002030BDCA4302827047000010B504467E
:102EF000FB48844209D101218803FFF79FF8002194
:102F00004FF48040FFF79AF832E0F648844209D146
:102F100001214804FFF79FF800214FF40030FFF72C
:102F20009AF825E0F048844209D101218804FFF78E
:102F300092F800214FF48020FFF78DF818E0EB485D
:102F4000844209D10121C804FFF785F800214FF41C
:102F50000020FFF780F80BE0E548844208D101210A
:102F60000805FFF778F800214FF48010FFF773F899
:102F700010BD2DE9F04786B005460E460024A24656
:102F800000BFA1460027B08900B100BF2F462C8AA0
:102F90004CF6FF700440F08804432C82AC894EF656
:102FA000F3100440B0883189084371890843044311
:102FB000AC81AC8A4FF6FF400440B0890443AC8238
:102FC00001A8FEF7B4FFC648874202D1DDF810A081
:102FD00001E0DDF80CA0A88900F4004040B10AEB44
:102FE000CA0000EB0A1031684900B0FBF1F807E0B5
:102FF0000AEBCA0000EB0A1031688900B0FBF1F857
:103000006420B8FBF0F004012009642101FB108961
:10301000A88900F4004040B1322000EBC900B0FBA9
:10302000F1F000F00700044308E0322000EB091043
:103030006421B0FBF1F000F00F0004432C8106B0D6
:10304000BDE8F0874FF41651016000218180C180F6
:1030500001810C21418100218181704710B5024618
:103060000020108A4FF2FF0318400B884C8823433E
:103070008C882343CC8823431843108210BD002141
:10308000018041808180C180704721B1828942F4F2
:103090000052828104E082894DF6FF731A408281DA
:1030A0007047F0B50346002400260025002040F6B6
:1030B0006A17B94200D100BF1846C1F3421401F0AB
:1030C0001F06012707FA06F5012C01D10C3004E098
:1030D000022C01D1103000E014301AB107682F43E0
:1030E000076002E00768AF430760F0BD1AB1838A4A
:1030F0000B43838202E0838A8B4383827047028A78
:103100004FF6F0731A400282028A0A430282704725
:1031100082894FF2FF731A40828182890A43828139
:10312000704721B1828942F00202828104E08289E3
:103130004FF6FD731A4082817047028A4FF6DF73A3
:103140001A400282028A0A430282704721B1028A2F
:1031500042F48042028204E0028A4BF6FF731A4076
:1031600002827047C1F30802828070470146888856
:10317000C0F308007047818941F0010181817047E7
:10318000028BD2B20283028B42EA01220283704791
:10319000028B02F47F420283028B0A430283704750
:1031A00021B1828A42F02002828204E0828A4FF6B4
:1031B000DF731A408282704721B1828A42F0100286
:1031C000828204E0828A4FF6EF731A40828270474F
:1031D00021B1828A42F00802828204E0828A4FF69C
:1031E000F7731A408282704721B1828942F400420B
:1031F000828103E08289C2F30E028281704721B18D
:10320000828A42F40062828204E0828A4FF2FF7373
:103210001A4082827047828A4FF6FB731A4082827C
:10322000828A0A438282704721B1828A42F0020276
:10323000828204E0828A4FF6FD731A4082827047D0
:1032400002460020B1F5007F00D100BF13880B407B
:103250000BB1012000E00020704701F40072B2F5CC
:10326000007F00D100BFCA430280704770B502469C
:10327000002400230025002040F66A16B14200D148
:1032800000BFC1F3421501F01F03012606FA03F344
:10329000012D02D19689334006E0022D02D1168A13
:1032A000334001E0968A33400C12012606FA04F4FA
:1032B0001688344013B10CB1012000E0002070BD2D
:1032C00010B50022002340F66A14A14200D100BFCD
:1032D0000A1201249440A3B2DC43048010BD000014
:1032E000003801400044004000480040004C0040CD
:1032F000005000402DE9F04104460D461646284690
:1033000003F0D2F88046214603F03AF903D228466A
:1033100003F0CAF80CE0304603F0C6F880462146B8
:1033200003F024F903D2304603F0BEF800E0204653
:10333000074603F0D3F8BDE8F08170B5DDE9044538
:103340000463456301604260836000260661466154
:10335000866186624662C662C661866370BD70B56C
:103360000446D4E9070102F0A1FEA062D4E90910E5
:1033700002F09CFEE062A06A6062A16A206802F02E
:103380009BFE2061A16A606802F096FE05466169B5
:1033900002F03AFE6061226B51426069FFF7AAFFBA
:1033A000054603F081F86061E16AA06802F084FEDE
:1033B000A06170BDC161704700214161704710B5C7
:1033C0000446A16A206802F077FE206110BD70B546
:1033D0000446A16A606802F06FFE0546616902F06A
:1033E00013FE6061226B51426069FFF783FF05465F
:1033F00003F05AF8606170BD10B50446E16AA06838
:1034000002F05AFEA06110BD70B50446D4E9040173
:1034100002F0FAFDA063626B5142A06BFFF76AFFF6
:10342000054603F041F8A06370BD70B50446D4E9C9
:10343000040102F0E9FD0546A16902F0E5FDA06383
:10344000626B5142A06BFFF755FF054603F02CF865
:10345000A06370BD2DE9F84F064600270024002523
:10346000704203F021F8044677480168204602F0D4
:103470001DFE07467448046021467448006802F047
:10348000C3FD7249086072497048006803F078F81B
:1034900002D26F486D4908606E496C48006803F0BD
:1034A00065F802D26B486949086039466A48006885
:1034B00002F002FE214600906848006802F0FCFD20
:1034C000824621466648006802F0F6FD8346514672
:1034D00002F09AFD8146009902F096FD804602F0C6
:1034E000FDFF0546502D00DD502515F1500F01DA86
:1034F0006FF04F052846BDE8F88F2DE9F84F0646D6
:10350000002700240025704202F0CEFF04465548F3
:103510000168204602F0CAFD074652480460214671
:103520005148006802F070FD4F49086048494E4814
:10353000006803F025F802D245484B490860454928
:103540004948006803F012F802D242484649086030
:1035500039464648006802F0AFFD214600904448D5
:10356000006802F0A9FD824621464248006802F048
:10357000A3FD8346514602F047FD8146009902F0C3
:1035800043FD804602F0AAFF05463C2D00DD3C25A8
:1035900015F13C0F01DA6FF03B052846BDE8F88FC6
:1035A0002DE9F84F0646002700240025704202F05E
:1035B0007BFF044630480168204602F077FD07464D
:1035C0002D48046021462D48006802F01DFD2B495E
:1035D00008602B492948006802F0D2FF02D228482F
:1035E0002649086027492548006802F0BFFF02D23B
:1035F00024482249086039462348006802F05CFDEF
:10360000214600902148006802F056FD824621467E
:103610001F48006802F050FD8346514602F0F4FC5A
:103620008146009902F0F0FC804602F057FF054603
:10363000642D00DD642515F1640F01DA6FF0630578
:103640002846BDE8F88F00005000002054000020FC
:1036500000002042000020C2340000203000002082
:103660002C000020580000205C00002040000020BA
:103670003C00002038000020600000206400002092
:103680000000C8420000C8C24C00002048000020D2
:103690004400002002460B7883EA020080EA00130F
:1036A000D8B20B881B1283EA002383EAC00383EAA3
:1036B00020130B8070472DE9F34FC1B08268C468B6
:1036C0000569D0F814C08369C669076AD0F82480F8
:1036D000CDF80081002106E0DDF8088158F821804E
:1036E0004DF82180491C1029F6DB10214DE0A1F195
:1036F00002085DF828804FEA5849A1F102085DF8F8
:10370000288049EAC838A1F102095DF829904FEAFA
:10371000D94AA1F102095DF829904AEA493988EAB3
:103720000908A1F102095DF8299088EA9929A1F117
:1037300007085DF82880C844A1F10F095DF82990B9
:103740004FEAD91AA1F10F091DF829904AEA4969EF
:10375000A1F10F0A5DF82AA04FEA9A4BA1F10F0AD6
:103760005DF82AA04BEA8A3A89EA0A09A1F10F0A10
:103770005DF82AA089EADA09C144A1F110085DF8D0
:103780002880C8444DF82180491C4029AFDB002126
:1037900049E04FEA931A4AEA836A4FEAD32B4BEA8D
:1037A000435B8AEA0B0A4FEA536B4BEAC31B8AEA74
:1037B0000B0ADDF800B1D34403EA060A27EA030E38
:1037C0008AEA0E0ADA44DFF858B65BF821B0DA4428
:1037D0005DF821B00AEB0B084FEA920A4AEA827BB5
:1037E0004FEA523A4AEAC24A8BEA0A0B4FEA925A25
:1037F0004AEA822A8BEA0A0B02EA040A02EA050E66
:103800008AEA0E0A04EA050E8AEA0E0A0BEB0A0996
:10381000409737461E460CEB0803AC462546144637
:1038200008EB0902491C4029B3DBD0F8088090441A
:10383000C0F80880D0F80C8008EB0409C0F80C90A0
:10384000D0F8108008EB0509C0F81090D0F814806B
:1038500008EB0C09C0F81490D0F8188008EB0309A5
:10386000C0F81890D0F81C8008EB0609C0F81C902E
:10387000D0F8208008EB0709C0F82090D0F82490F9
:10388000DDF80081C144C0F8249043B0BDE8F08F5A
:103890002DE9F04F91B0044689461546CA46D4F842
:1038A00000B0206800EBC50020602068584502D2B7
:1038B0006068401C6060CBF3C50630E0C6F140078D
:1038C000BD4200D22F4604F1280188193A465146DC
:1038D00002F069FB3E44BA44ED1B402E1ED104F1B8
:1038E000280000904FF000080FE0009A02EB8800DB
:1038F00001AA02EB8801C2780A7082784A70427885
:103900008A700278CA7008F10108B8F1100FECDB78
:1039100001A92046FFF7CFFE002600BF00BF002D03
:10392000CCD111B0BDE8F08F2DE9F04192B0044642
:103930000E462088C0F3C508C8F1770000F03F00AC
:10394000451C04F1080780208DF8000047210DF187
:10395000010002F041FB2178E81D0DF800102088DD
:10396000C0F30721A81D0DF800102068C0F307411F
:10397000681D0DF800102068000E291D0DF80100CB
:103980002179E81C0DF80010A088C0F30721A81CBD
:103990000DF800106068C0F30741681C0DF80010B6
:1039A0006068000E0DF8050005F108026946204622
:1039B000FFF76EFFF8783070B87870707878B07074
:1039C0003878F070F8793071B879707112B0BDE85C
:1039D000F0812DE9F0479CB004460D4616461F467F
:1039E000DDE9259ADDF890801CB1207800F0010017
:1039F00018B900201CB0BDE8F08760782870D4E9C1
:103A00000201CDE900010098C5F80100BDF80400ED
:103A1000A5F80500D4E90220521C40F10000C4E9D9
:103A2000022002A8002101604160FE498160FE4A37
:103A3000C260FE4A0261FE4A4261FE4A8261FE4A5B
:103A4000C261FE4A0262FE4A426200BF202204F1C5
:103A50001001FFF71DFF3A46314602A8FFF718FF95
:103A60004A46414602A8FFF713FF0222514602A828
:103A7000FFF70EFF0722294602A8FFF709FFE91DFD
:103A800002A8FFF751FF0D20B4E7024601E0481EEF
:103A9000C1B2012903DD481E105C0028F7D008469A
:103AA00070472DE9FF4F87B004461D46287BC0F3C1
:103AB000400646B9286930B12869007800F0010055
:103AC00008B1012000E000208146B9F1000F01D0CB
:103AD0000D2000E0002006900A271EB1FE20A070F5
:103AE000062701E0FD20A0700EB1149804E004F157
:103AF00010001599FFF7C9FFE0700898E071099868
:103B0000207200202071B9F1000F03D0207940F01D
:103B10000100207100206071A879A071A879401C73
:103B2000A871A0788DF80C00E0788DF80D006EB1CA
:103B3000A0798DF80E00E0798DF80F00207A8DF8CD
:103B400010002089000A8DF811001AE020798DF804
:103B50000E0060798DF80F00A0798DF81000E079E3
:103B60008DF81100207A8DF812002089000A8DF856
:103B70001300A068000C8DF81400A068000E8DF8EA
:103B800015000DF10D08781E1FFA80FA00BF4FF6E0
:103B9000FF70029000BF04E018F8010B02A9FFF7C4
:103BA00079FD5FEA0A00AAF101011FFA81FAF3D157
:103BB000BDF808002080A04604F1100AE0780290C9
:103BC000D34604E01BF8010B4146FFF763FD029862
:103BD000411E89B202910028F4D100BF21461698F7
:103BE000FFF758FD2178E27804F110008154208815
:103BF0000212E078401C04F110010A54B9F1000FE0
:103C00000FD0E17804F11000084404F11002CDE96E
:103C1000002102903B4603AA04F58D712869FFF745
:103C2000D8FEE0783844801C069908440BB0BDE803
:103C3000F08F2DE9F04705460C46E678A078FE287F
:103C40001AD14FF000090527A07828706E70A0796E
:103C5000A870E079E870207A28712089000A6871DC
:103C6000E27804F11001A81D02F09DF9E819401C4A
:103C7000E17800EB01082FE0314604F11000FFF776
:103C800004FF06460927A07828706E702079A87076
:103C90006079E870A0792871E0796871207AA8715C
:103CA0002089000AE871A068000C2872A068000E44
:103CB0006872324604F1100105F10A0002F073F94E
:103CC000E819401C00EB0608207900F0010008B15B
:103CD0000D2000E000208146207888F80000208830
:103CE000001288F80100B9F1000F06DD4A4604F51C
:103CF0008D7108F1020002F056F9F81C3044484476
:103D0000BDE8F0874F480088401C00B24D4908804C
:103D10004D480088401C00B24B4908804B48008841
:103D2000401C00B24949088049480088401C00B244
:103D30004749088047480088401C00B24549088030
:103D400045480088401C00B2434908804348006849
:103D5000401C42490860704710B500F006FB10BDDA
:103D600010B500F099FC10BD10B500F022F910BD9F
:103D700010B53B493B4801F0CDFB04463849394872
:103D800002F0A7F804463649364802F0A2F8044685
:103D900010BD10B501F045FB10BD1FB50024042077
:103DA0000021D822CDE900120C232E4ACDE90210C1
:103DB000C821012000F08EF82A492948FFF739FF71
:103DC0000446224626492848FDF7CBF91FBD10B509
:103DD0001C48B0F90000142807DB2448007808B11B
:103DE000FFF7BAFF0020174908801748B0F9000014
:103DF0000A2804DBFFF7B4FF0020134908801348AA
:103E0000B0F90000642807DB1848007808B1FFF714
:103E1000ABFF00200D4908800D48B0F9000027E0F5
:103E2000E879000867E6096A85AE67BB72F36E3C05
:103E30003AF54FA57F520E518C68059BABD9831F75
:103E400019CDE05B680000206A0000206C000020B3
:103E50006E0000207000002072000020780000201A
:103E6000A8080020800700200038014074000020CE
:103E7000322804DBFFF77CFF0020334908803348F9
:103E8000B0F90000432804DBFFF783FF00202F492F
:103E900008802F48B0F90000B0F57A7F04DBFFF707
:103EA0007CFF00202A49088010BD00202949088095
:103EB000294908805120294908800020224908808A
:103EC00022490880224908802549086001202549A7
:103ED000087070472DE9F04F87B005460E4614462E
:103EE0009B46129804908DF814B010988DF8150028
:103EF00011988DF8160013988DF8170003208DF88F
:103F00001800092204A904F1100002F04CF8207AEC
:103F1000A0600927BA464FF032084FF0000900BFF1
:103F200009EB4900104901EBC0000390CDE901A85D
:103F30000097324629462046039BFFF7B2FD00BF9B
:103F400007B0BDE8F08F00006E0000207000002078
:103F500072000020680000206A0000206C00002031
:103F60007800002074000020A81000201CB542F248
:103F700010704110524B534ACDE90010524953483A
:103F8000FFF7DBF942F2107041104D4B4E4ACDE97C
:103F9000001011464E48FFF7D0F942F21070411060
:103FA00000234C4ACDE9001011464B48FFF7C5F9F4
:103FB0001CBD2DE9F0414948006845490862474861
:103FC0004068454908624548806840490862086A77
:103FD000434902F0D5FA0DD83C49086A02F097FA35
:103FE000064600223F4B02F078F9044602F0A2FA9E
:103FF000364908623649086A394902F0C1FA0DD8D3
:104000003349086A02F083FA06460022354B02F073
:1040100064F9044602F08EFA2D49086232480168BC
:104020002F4801F0F1FF04462B48016A204602F0B8
:104030009DFA0DD82849086A02F069FA064600225E
:10404000284B02F04AF9044602F074FA2249086249
:104050001E48FFF784F91E48FFF781F91E48FFF755
:104060007EF91A48FFF7E1F91948FFF7DEF91A4817
:10407000FFF7DBF91549886B1C4902F04FF81C4922
:1040800008601349886B194902F048F8194908601B
:104090001149886B154902F041F817490860144826
:1040A00001681648FFF786F9124801681448FFF7BF
:1040B00081F9114801681348FFF77CF9BDE8F081E8
:1040C0000000A040000020410000A0410811002095
:1040D00044110020000048428011002044130020B9
:1040E0000000344300807640D80000200000C84221
:1040F0007C0000208000002084000020BC110020F3
:10410000F81100203412002070B504460D46FE4818
:10411000FEF7B8FEA0F2DC50A04200D170BDB4F5AD
:10412000FA7F01DD4FF4FA7414F5FA7F00DAF74CE8
:1041300035B104F2DC5081B2F348FEF791FE06E09F
:1041400040F2DC50001B81B2EF48FEF789FE00BF51
:10415000E4E770B504460D46EB48FEF796FEA0F284
:10416000DC50A04200D170BDB4F5FA7F01DD4FF400
:10417000FA7414F5FA7F00DAE44C35B104F2DC503D
:1041800081B2E148FEF76EFE06E040F2DC50001B13
:1041900081B2DD48FEF766FE00BFE4E770B5044675
:1041A0000D46D948FEF774FEA0F2DC50A04200D1C3
:1041B00070BDB4F5FA7F01DD4FF4FA7414F5FA7F9F
:1041C00000DAD24C35B104F2DC5081B2CE48FEF7B1
:1041D0004BFE06E040F2DC50001B81B2CA48FEF7FD
:1041E00043FE00BFE4E770B504460D46C648FEF73F
:1041F00052FEA0F2DC50A04200D170BDB4F5FA7FAF
:1042000001DD4FF4FA7414F5FA7F00DABF4C35B1D2
:1042100004F2DC5081B2BC48FEF728FE06E040F212
:10422000DC50001B81B2B848FEF720FE00BFE4E777
:1042300070B504460D46B648FEF724FEA0F2DC50E9
:10424000A04200D170BDB4F5FA7F01DD4FF4FA74DD
:1042500014F5FA7F00DAAD4C35B104F2DC5081B2CE
:10426000AB48FEF7FDFD06E040F2DC50001B81B2DA
:10427000A748FEF7F5FD00BFE4E770B504460D461C
:10428000A348FEF702FEA0F2DC50A04200D170BDB0
:10429000B4F5FA7F01DD4FF4FA7414F5FA7F00DA11
:1042A0009A4C35B104F2DC5081B29948FEF7DAFD40
:1042B00006E040F2DC50001B81B29548FEF7D2FDCB
:1042C00000BFE4E770B504460D469148FEF7E0FDF7
:1042D000A0F2DC50A04200D170BDB4F5FA7F01DD40
:1042E0004FF4FA7414F5FA7F00DA884C35B104F211
:1042F000DC5081B28648FEF7B7FD06E040F2DC50A4
:10430000001B81B28248FEF7AFFD00BFE4E71CB599
:1043100042F21070411000231A46CDE900107D4989
:104320007D48FFF70AF842F2107041107B4B7C4A3F
:10433000CDE9001077497B48FEF7FFFF42F210708D
:104340004110764B764ACDE9001072497648FEF767
:10435000F4FF42F2107041100023714ACDE90010C1
:104360006C497248FEF7E9FF1CBD2DE9F047704823
:1043700000686D4908626E4840686C4908626C4884
:1043800080686849086200F060FF63490862664916
:10439000C869684901F038FE04466348016A20464E
:1043A00002F0E4F806D86049086A634901F07EFE2D
:1043B0005D4908625D49C8695E4901F025FE044611
:1043C0005A48016A204602F0D1F806D85749086ACF
:1043D000594901F06BFE554908625249C86955496F
:1043E00001F012FE04464F48016A204602F0BEF872
:1043F00006D84C49086A504901F058FE49490862FC
:104400004848FEF7ACFF4848FEF7A9FF4748FEF7CB
:10441000A6FF4148FEF7A3FF4248FFF706F84248CF
:10442000FFF703F84148FFF700F83B48FEF7FDFFB0
:104430003949886B414901F071FE4149086000200B
:1044400040490860404908604049086008460168E2
:104450004FF07E5001F030FE06463D4801683D4871
:10446000006801F0D1FD0746314601F0CDFD05465B
:1044700002F034F80446384801682046FFF769FE28
:10448000334801683348006801F010FE054602F029
:1044900025F80446314801682046FFF735FE2C48D0
:1044A00001682C48006801F001FE054602F016F88C
:1044B00004462B4801682046FFF770FE2348016838
:1044C0004FF07E5001F0F8FD064621480168214872
:1044D000006801F099FD0746314601F0E7FD054609
:1044E00001F0FCFF04461F4801682046FFF77BFEF1
:1044F000144801684FF07E5001F0DEFD0746124877
:1045000001684FF07E502FE0000400400CFEFFFFDA
:10451000003401400000A041701200200000A040C3
:1045200000002041BC110020F811002034120020AE
:10453000341300200000FA4400007A45000048428D
:1045400094000020880000208C00002090000020B3
:10455000D0000020CC000020980000209C0000200B
:10456000A4000020A000002001F0A6FD80462C48F9
:1045700001682C48006801F047FD8146414601F082
:1045800043FD0646394601F03FFD054601F0A6FF12
:104590000446254801682046FFF74AFE2348016883
:1045A0004FF07E5001F088FD0746214801684FF02A
:1045B0007E5001F081FD8046194801681948006865
:1045C00001F022FD8146414601F070FD0646394664
:1045D00001F01AFD054601F081FF04461548016807
:1045E0002046FFF74AFE114801684FF0804001F075
:1045F00063FD06460A4801680A48006801F004FDA8
:104600000746314601F052FD054601F067FF0446BA
:10461000094801682046FFF755FEBDE8F087000015
:1046200094000020D4000020A80000208800002072
:104630008C000020AC000020B000002010B500204D
:104640006F4908606F4908606F4908606F490860EA
:104650006F4908606F4908606F4840686F4908609B
:1046600000206F4908606F4908606F49086068481A
:1046700001686E48FEF79EFE664801686C48FEF7CA
:1046800099FE664801686B48FEF794FE5E48016833
:104690006948FEF78FFE10BD10B55B48016866489B
:1046A000FEF788FE594801686248FEF783FE10BD98
:1046B0002DE9F047A2B082469621DAF80800B1EB66
:1046C000102F7DD154465D4DE0780A2801DAE0785C
:1046D00000E00A20064600202860686028813246F3
:1046E00004F11001284601F05EFC00BF5349B1F906
:1046F000000001F0E2FE80460022514B01F065FE11
:10470000064600224F4B01F0EEFD044601F012FF79
:104710003B4908604949B1F9020001F0CEFE8046EC
:104720000022474B01F051FE06460022454B01F0A6
:10473000DAFD044601F0FEFE324908603F49B1F956
:10474000040001F0BAFE064600223D4B01F03DFE9A
:10475000804600223B4B01F0C6FD044601F0EAFE14
:10476000294908602D48006801F0D1FE804689463D
:104770003249B1F9060001F0A0FE0022304BCDE92C
:10478000040101F022FE064600222F4B01F0ABFD92
:10479000044642464B4601F0FFFCCDE9060101F01C
:1047A000C9FE1A4908600846006801F0B0FE0446D8
:1047B0000D461548006801F0AAFE06460F4600E0C7
:1047C0001BE01048006801F0A2FE804689460C48B4
:1047D000006801F09CFE02460B46CDE90089CDE958
:1047E0000267CDE90445CDE9060118A108A802F049
:1047F0001FF808A92548FCF7CCFC22B0BDE8F087DB
:10480000CC000020D0000020D4000020D8000020E0
:10481000B4000020B800002044130020BC00002099
:10482000C0000020C4000020C800002008110020A3
:10483000441100208011002070120020AC120020D2
:104840000000E04000406F400080664072656D6F80
:1048500074655F783D252E31662C72656D6F7465C9
:104860005F793D252E31662C72656D6F74655F7AB8
:104870003D252E31662C72656D6F74655F796177A9
:10488000203D20252E31660A00000000003801403E
:1048900002460B7883EA020080EA0013D8B20B8844
:1048A0001B1283EA002383EAC00383EA20130B80F0
:1048B00070472DE9F34FC1B08268C4680569D0F82C
:1048C00014C08369C669076AD0F82480CDF80081D6
:1048D000002106E0DDF8088158F821804DF821809C
:1048E000491C1029F6DB10214DE0A1F102085DF80A
:1048F00028804FEA5849A1F102085DF8288049EA6A
:10490000C838A1F102095DF829904FEAD94AA1F10E
:1049100002095DF829904AEA493988EA0908A1F1B3
:1049200002095DF8299088EA9929A1F107085DF844
:104930002880C844A1F10F095DF829904FEAD91ADF
:10494000A1F10F091DF829904AEA4969A1F10F0A5E
:104950005DF82AA04FEA9A4BA1F10F0A5DF82AA050
:104960004BEA8A3A89EA0A09A1F10F0A5DF82AA0FE
:1049700089EADA09C144A1F110085DF82880C84429
:104980004DF82180491C4029AFDB002149E04FEA66
:10499000931A4AEA836A4FEAD32B4BEA435B8AEACB
:1049A0000B0A4FEA536B4BEAC31B8AEA0B0ADDF88A
:1049B00000B1D34403EA060A27EA030E8AEA0E0A84
:1049C000DA44DFF858B65BF821B0DA445DF821B07C
:1049D0000AEB0B084FEA920A4AEA827B4FEA523A04
:1049E0004AEAC24A8BEA0A0B4FEA925A4AEA822AF8
:1049F0008BEA0A0B02EA040A02EA050E8AEA0E0AA8
:104A000004EA050E8AEA0E0A0BEB0A0940973746BC
:104A10001E460CEB0803AC462546144608EB09027B
:104A2000491C4029B3DBD0F808809044C0F80880C6
:104A3000D0F80C8008EB0409C0F80C90D0F8108076
:104A400008EB0509C0F81090D0F8148008EB0C09A9
:104A5000C0F81490D0F8188008EB0309C0F818903B
:104A6000D0F81C8008EB0609C0F81C90D0F8208014
:104A700008EB0709C0F82090D0F82490DDF80081F9
:104A8000C144C0F8249043B0BDE8F08F2DE9F04F49
:104A900091B0044689461546CA46D4F800B020684D
:104AA00000EBC50020602068584502D26068401CB9
:104AB0006060CBF3C50630E0C6F14007BD4200D2CE
:104AC0002F4604F1280188193A46514601F06BFA45
:104AD0003E44BA44ED1B402E1ED104F12800009044
:104AE0004FF000080FE0009A02EB880001AA02EBE9
:104AF0008801C2780A7082784A7042788A70027897
:104B0000CA7008F10108B8F1100FECDB01A92046CA
:104B1000FFF7CFFE002600BF00BF002DCCD111B0A3
:104B2000BDE8F08F2DE9F04192B004460E46208892
:104B3000C0F3C508C8F1770000F03F00451C04F140
:104B4000080780208DF8000047210DF1010001F0D9
:104B500043FA2178E81D0DF800102088C0F30721E2
:104B6000A81D0DF800102068C0F30741681D0DF85E
:104B700000102068000E291D0DF801002179E81CA5
:104B80000DF80010A088C0F30721A81C0DF8001034
:104B90006068C0F30741681C0DF800106068000EE3
:104BA0000DF8050005F1080269462046FFF76EFF83
:104BB000F8783070B87870707878B0703878F070B5
:104BC000F8793071B879707112B0BDE8F0812DE9D3
:104BD000F0479CB004460D4616461F46DDE9259A6F
:104BE000DDF890801CB1207800F0010018B9002099
:104BF0001CB0BDE8F08760782870D4E90201CDE9E7
:104C000000010098C5F80100BDF80400A5F80500F2
:104C1000D4E90220521C40F10000C4E9022002A89D
:104C2000002101604160FE498160FE4AC260FE4A87
:104C30000261FE4A4261FE4A8261FE4AC261FE4A48
:104C40000262FE4A426200BF202204F11001FFF717
:104C50001DFF3A46314602A8FFF718FF4A46414673
:104C600002A8FFF713FF0222514602A8FFF70EFF2A
:104C70000722294602A8FFF709FFE91D02A8FFF74E
:104C800051FF0D20B4E7024601E0481EC1B20129E0
:104C900003DD481E105C0028F7D0084670472DE958
:104CA000FF4F87B004461D46287BC0F3400646B937
:104CB000286930B12869007800F0010008B10120AE
:104CC00000E000208146B9F1000F01D00D2000E086
:104CD000002006900A271EB1FE20A070062701E0E2
:104CE000FD20A0700EB1149804E004F11000159995
:104CF000FFF7C9FFE0700898E07109982072002062
:104D00002071B9F1000F03D0207940F0010020712B
:104D100000206071A879A071A879401CA871A078C2
:104D20008DF80C00E0788DF80D006EB1A0798DF84B
:104D30000E00E0798DF80F00207A8DF810002089A0
:104D4000000A8DF811001AE020798DF80E006079C4
:104D50008DF80F00A0798DF81000E0798DF8110022
:104D6000207A8DF812002089000A8DF81300A068BF
:104D7000000C8DF81400A068000E8DF815000DF1E0
:104D80000D08781E1FFA80FA00BF4FF6FF700290E0
:104D900000BF04E018F8010B02A9FFF779FD5FEAF4
:104DA0000A00AAF101011FFA81FAF3D1BDF8080047
:104DB0002080A04604F1100AE0780290D34604E077
:104DC0001BF8010B4146FFF763FD0298411E89B2B3
:104DD00002910028F4D100BF21461698FFF758FD34
:104DE0002178E27804F11000815420880212E078E2
:104DF000401C04F110010A54B9F1000F0FD0E17802
:104E000004F11000084404F11002CDE900210290E1
:104E10003B4603AA04F58D712869FFF7D8FEE078B8
:104E20003844801C069908440BB0BDE8F08F2DE98A
:104E3000F04705460C46E678A078FE281AD14FF0D8
:104E400000090527A07828706E70A079A870E07915
:104E5000E870207A28712089000A6871E27804F1EC
:104E60001001A81D01F09FF8E819401CE17800EB43
:104E700001082FE0314604F11000FFF704FF064659
:104E80000927A07828706E702079A8706079E87082
:104E9000A0792871E0796871207AA8712089000AC8
:104EA000E871A068000C2872A068000E6872324693
:104EB00004F1100105F10A0001F075F8E819401C31
:104EC00000EB0608207900F0010008B10D2000E099
:104ED00000208146207888F800002088001288F899
:104EE0000100B9F1000F06DD4A4604F58D7108F1A5
:104EF000020001F058F8F81C30444844BDE8F0873F
:104F000010B51E221146EC20FBF7F5FF10BD2DE970
:104F1000F04F8BB04A4840894A490968A1EB002408
:104F20004748C0880022E117A0FB043C02FB04C2F2
:104F300000FB01204FF48072CDE902300023DDE94F
:104F4000020100F0FFFF3E4A52884FF40043A2FBEB
:104F50000323851841EB0306394800890022E11735
:104F6000A0FB043C02FB04C200FB01208022CDE92F
:104F700002300023DDE9020100F0E4FF304A9288AC
:104F80004FF48033A2FB032380185941CDE9080177
:104F90002B4880890022E117A0FB043C02FB04C2DD
:104FA00000FB01204FF40002CDE902300023DDE9CF
:104FB000020100F0C7FF4FF4FA614018224908606F
:104FC000224800684FF00001A0FB05B301FB05314A
:104FD00000FB06114FF400124FF00003584600F09A
:104FE000B1FFDDE90823801A61EB03014FF40052A1
:104FF0000023CDE9020100F0A5FF15490860124821
:105000000068642190FBF1F0142872DA032080FB21
:105010000401E317A0FB042C1CE00000E87A000860
:1050200067E6096A85AE67BB72F36E3C3AF54FA539
:105030007F520E518C68059BABD9831F19CDE05B65
:10504000C4120020F0000020F4000020EC0000203A
:10505000F800002001FB04C100FB0310CDE9022091
:1050600000220223DDE9020100F06CFF0790F949FC
:105070000968A1F5FA6101EB4101F64A1268A2F54F
:10508000FA6201FB02F000EBD0714FEA610AF149CC
:105090000968A1F5FA6101EB8101EE4A1268A2F5F7
:1050A000FA6201FB02F0C11700EB51714FEAE1090E
:1050B000E8480068642190FBF1F010F10F0F3ADA34
:1050C000E448006800F2DC50C0EBC001E148006831
:1050D00000F2DC5001FB00AADE48006800F2DC5060
:1050E0008100DC48006800F2DC5001FB009922E0FE
:1050F000FFE7D8480068642190FBF1F014281ADB20
:1051000004FB04F04000C11783460022202300F076
:1051100019FF0790CF490968A1F5FA61CD4A1268D5
:10512000A2F5FA6201FB02F0C11700EB11714FEA20
:10513000211A4FF00009DDE90810B1EB0A0760EB16
:10514000EA78B5EB090166EBE970CDE90410C148D6
:1051500001680798A1EB0000BE490860BE484FF007
:1051600000030268DDE90410A2FB01CB03FB01B1DF
:1051700002FB00104FF40012CDE900C06046019917
:1051800000F0E0FEC01B61EB08014FF40052002369
:10519000CDE9020100F0D6FEB04908600BB0BDE8D1
:1051A000F08F10B500224821EC20FBF7A4FE14205C
:1051B000FBF79BFD03230022A949EC20FBF726FF08
:1051C000A74800780004A649497840EA0120A4498C
:1051D00089780843A049086000225821EC20FBF799
:1051E0008AFE1420FBF781FD032300229C49EC205A
:1051F000FBF70CFF9A48007800049949497840EA87
:1052000001209749897808439649086010BD10B578
:10521000EC20FBF7C6FE10BD70B504468F48006851
:1052200001F042F90646904900F078FF0546214614
:1052300000F042FF70BD10B58648006801F034F9F7
:1052400004468A4900F06AFF10BD2DE9F0478748FF
:10525000FFF7E2FF8146864900F028FF044601F08F
:1052600056F90746834A844B01F0AFF8054601F032
:1052700061F9BDE8F0878149C860704710B5FFF754
:1052800090FFFFF744FEFFF7D6FF7C494860FFF729
:10529000DCFF04467948C168204600F007FF7749E3
:1052A00008607248FFF7B8FF7449886010BD08B500
:1052B000012073490860FBF705FDFFF721FE02237B
:1052C000A0226946EC20FBF7A1FE9DF801009DF8A5
:1052D000001040EA01206B4908800223A22269469F
:1052E000EC20FBF793FE9DF801009DF8001040EACA
:1052F0000120644948800223A4226946EC20FBF780
:1053000085FE9DF801009DF8001040EA01205D49EE
:1053100088800223A6226946EC20FBF777FE9DF8E1
:1053200001009DF8001040EA01205649C880022380
:10533000A8226946EC20FBF769FE9DF801009DF864
:10534000001040EA01204F4908810223AA22694641
:10535000EC20FBF75BFE9DF801009DF8001040EA91
:105360000120484948810223AC226946EC20FBF722
:105370004DFE9DF801009DF8001040EA01204149D2
:105380008881FFF77BFF3D490868FFF774FF08BD80
:1053900010B500224821EC20FBF7ADFD10BD10B583
:1053A000032300222E49EC20FBF730FE2C48007826
:1053B00000042B49497840EA0120294989780843AB
:1053C0002549086000225821EC20FBF794FD10BD10
:1053D00010B5032300222249EC20FBF717FE2048DA
:1053E000007800041E49497840EA01201C49897868
:1053F00008431C490860FFF78AFDFFF71CFF1F499F
:105400004860FFF722FF04461C48C168204600F0B0
:105410004DFE1A4908601548FFF7FEFE17498860DF
:1054200010BD2DE9F04F9FB01748006814286EDBBF
:1054300013480068012804D0022827D003285ED131
:105440002DE0FFF7A5FF02200D49086000200E495E
:1054500008605BE0F4000020EC000020F800002071
:1054600000010020F0000020000020410000C842A0
:1054700000DAC547394547729D18C340DC0000205B
:10548000FC000020C412002078000020FFF787FFF6
:1054900003205149086000205049086036E0FFF7BA
:1054A00097FF01204C49086000204C4908604C4996
:1054B000C86801F02CF804460D464949886801F097
:1054C00026F806460F464649086801F020F880464F
:1054D00089464349486801F01AF8824652460B460D
:1054E00040A106A8CDE90089CDE90267CDE90445D0
:1054F00001F09EF906A94548FBF74BFE06E00120A6
:105500003549086000203549086000BF00BF1FB062
:10551000BDE8F08F70B59CB005460E463CA103A8CF
:1055200001F086F903A93948FBF733FE2C480168DE
:105530003E48006801F01AF81AD0294800683B4933
:1055400008602748806826494968CDE9001024484A
:105550002A4697210368012000F00DF829463046BD
:10556000FFF765FC0446224631462848FBF7F9FD63
:1055700020461CB070BD2DE9F04F87B005460E46A1
:1055800014469B46CDF810B01098059011980690DF
:1055900004A807C8C4E905122061207A00F5174065
:1055A000A0604FF00C08C2464FF05C09002700BF16
:1055B00007EB47001E4901EBC0000390CDE901A9AC
:1055C000CDF80080324629462046039BFFF767FB53
:1055D00000BF07B0BDE8F08FFC000020780000207D
:1055E000DC00002074656D703D25662C6465707468
:1055F000683D25662C70726573737572653D25660E
:105600002C6F66667365743D25660A00003801409C
:1056100073656E64696E67206D61766C696E6B2070
:105620006D6573736167650A000000000401002066
:10563000D412002002460B7883EA020080EA0013AD
:10564000D8B20B881B1283EA002383EAC00383EAE3
:1056500020130B8070472DE9F34FC1B08268C468F6
:105660000569D0F814C08369C669076AD0F8248038
:10567000CDF80081002106E0DDF8088158F821808E
:105680004DF82180491C1029F6DB10214DE0A1F1D5
:1056900002085DF828804FEA5849A1F102085DF838
:1056A000288049EAC838A1F102095DF829904FEA3B
:1056B000D94AA1F102095DF829904AEA493988EAF4
:1056C0000908A1F102095DF8299088EA9929A1F158
:1056D00007085DF82880C844A1F10F095DF82990FA
:1056E0004FEAD91AA1F10F091DF829904AEA496930
:1056F000A1F10F0A5DF82AA04FEA9A4BA1F10F0A17
:105700005DF82AA04BEA8A3A89EA0A09A1F10F0A50
:105710005DF82AA089EADA09C144A1F110085DF810
:105720002880C8444DF82180491C4029AFDB002166
:1057300049E04FEA931A4AEA836A4FEAD32B4BEACD
:10574000435B8AEA0B0A4FEA536B4BEAC31B8AEAB4
:105750000B0ADDF800B1D34403EA060A27EA030E78
:105760008AEA0E0ADA44DFF858B65BF821B0DA4468
:105770005DF821B00AEB0B084FEA920A4AEA827BF5
:105780004FEA523A4AEAC24A8BEA0A0B4FEA925A65
:105790004AEA822A8BEA0A0B02EA040A02EA050EA6
:1057A0008AEA0E0A04EA050E8AEA0E0A0BEB0A09D7
:1057B000409737461E460CEB0803AC462546144678
:1057C00008EB0902491C4029B3DBD0F8088090445B
:1057D000C0F80880D0F80C8008EB0409C0F80C90E1
:1057E000D0F8108008EB0509C0F81090D0F81480AC
:1057F00008EB0C09C0F81490D0F8188008EB0309E6
:10580000C0F81890D0F81C8008EB0609C0F81C906E
:10581000D0F8208008EB0709C0F82090D0F8249039
:10582000DDF80081C144C0F8249043B0BDE8F08F9A
:105830002DE9F04F91B0044689461546CA46D4F882
:1058400000B0206800EBC50020602068584502D2F7
:105850006068401C6060CBF3C50630E0C6F14007CD
:10586000BD4200D22F4604F1280188193A4651461C
:1058700000F099FB3E44BA44ED1B402E1ED104F1CA
:10588000280000904FF000080FE0009A02EB88001B
:1058900001AA02EB8801C2780A7082784A704278C5
:1058A0008A700278CA7008F10108B8F1100FECDBB9
:1058B00001A92046FFF7CFFE002600BF00BF002D44
:1058C000CCD111B0BDE8F08F2DE9F04192B0044683
:1058D0000E462088C0F3C508C8F1770000F03F00ED
:1058E000451C04F1080780208DF8000047210DF1C8
:1058F000010000F071FB2178E81D0DF800102088F0
:10590000C0F30721A81D0DF800102068C0F307415F
:10591000681D0DF800102068000E291D0DF801000B
:105920002179E81C0DF80010A088C0F30721A81CFD
:105930000DF800106068C0F30741681C0DF80010F6
:105940006068000E0DF8050005F108026946204662
:10595000FFF76EFFF8783070B87870707878B070B4
:105960003878F070F8793071B879707112B0BDE89C
:10597000F0812DE9F0479CB004460D4616461F46BF
:10598000DDE9259ADDF890801CB1207800F0010057
:1059900018B900201CB0BDE8F08760782870D4E901
:1059A0000201CDE900010098C5F80100BDF804002E
:1059B000A5F80500D4E90220521C40F10000C4E91A
:1059C000022002A8002101604160FE498160FE4A78
:1059D000C260FE4A0261FE4A4261FE4A8261FE4A9C
:1059E000C261FE4A0262FE4A426200BF202204F106
:1059F0001001FFF71DFF3A46314602A8FFF718FFD6
:105A00004A46414602A8FFF713FF0222514602A868
:105A1000FFF70EFF0722294602A8FFF709FFE91D3D
:105A200002A8FFF751FF0D20B4E7024601E0481E2F
:105A3000C1B2012903DD481E105C0028F7D00846DA
:105A400070472DE9FF4F87B004461D46287BC0F301
:105A5000400646B9286930B12869007800F0010095
:105A600008B1012000E000208146B9F1000F01D00B
:105A70000D2000E0002006900A271EB1FE20A07035
:105A8000062701E0FD20A0700EB1149804E004F197
:105A900010001599FFF7C9FFE0700898E0710998A8
:105AA000207200202071B9F1000F03D0207940F05E
:105AB0000100207100206071A879A071A879401CB4
:105AC000A871A0788DF80C00E0788DF80D006EB10B
:105AD000A0798DF80E00E0798DF80F00207A8DF80E
