:020000040800F2
:1000000030180020450100089D0A00089F0A0008DA
:10001000A30A0008A70A0008AB0A000800000000B5
:10002000000000000000000000000000AF0A00080F
:10003000B10A000800000000B30A0008B50A000871
:100040005F0100085F0100085F0100085F01000810
:100050005F0100085F0100085F0100085F01000800
:100060005F0100085F0100085F0100085F010008F0
:100070005F0100085F0100085F0100085F010008E0
:100080005F0100085F0100085F0100085F010008D0
:100090005F0100085F0100085F0100085F010008C0
:1000A0005F0100085F0100085F0100085F010008B0
:1000B0005F0100085F0100085F0100085F010008A0
:1000C0005F0100085F0100085F0100085F01000890
:1000D0005F010008BD0A00085F010008F50A00087A
:1000E0005F0100085F0100085F0100085F01000870
:1000F0005F0100085F0100085F0100085F01000860
:100100005F0100085F0100085F0100085F0100084F
:100110005F0100085F0100085F0100085F0100083F
:100120005F0100085F0100085F0100085F0100082F
:10013000DFF80CD006F0D8F9004800476901000844
:10014000301800200648804706480047FEE7FEE7D3
:10015000FEE7FEE7FEE7FEE7FEE7FEE7FEE7FEE777
:100160008F170008310100089AB000F09BFF00F0E3
:100170009DFD01F06BF801F055F901F0ECF901F08B
:100180008DFA01F0F3F94FF47A7000F0A2FD4FF40C
:100190007A7000F09EFD4FF47A7000F09AFD03F043
:1001A0009DFE04F009F812A101A806F0D1F901A9F9
:1001B000164800F0E2FF07E015A101A806F0C8F913
:1001C00001A9124800F0D9FF04F0B3FE0028F3D0D3
:1001D00015A101A806F0BCF901A90C4800F0CDFF5B
:1001E00004F0F7FE03F022FE01E003F0B9FDFCE7A6
:1001F000546869732069732074686520646562754A
:10020000672065646974696F6E0A000000380140F8
:100210004D533538333720646973636F6E6E656391
:100220007465640A000000004D533538333720638D
:100230006F6E6E65637465640A0000002DE9F34F0C
:10024000C1B08268C4680569D0F814C08369C66902
:10025000076AD0F82480CDF80081002106E0DDF89F
:10026000088158F821804DF82180491C1029F6DBBF
:1002700010214DE0A1F102085DF828804FEA5849AD
:10028000A1F102085DF8288049EAC838A1F1020905
:100290005DF829904FEAD94AA1F102095DF8299049
:1002A0004AEA493988EA0908A1F102095DF829906A
:1002B00088EA9929A1F107085DF82880C844A1F1CE
:1002C0000F095DF829904FEAD91AA1F10F091DF81D
:1002D00029904AEA4969A1F10F0A5DF82AA04FEA7C
:1002E0009A4BA1F10F0A5DF82AA04BEA8A3A89EAF3
:1002F0000A09A1F10F0A5DF82AA089EADA09C144C6
:10030000A1F110085DF82880C8444DF82180491CEF
:100310004029AFDB002149E04FEA931A4AEA836A99
:100320004FEAD32B4BEA435B8AEA0B0A4FEA536B43
:100330004BEAC31B8AEA0B0ADDF800B1D34403EA97
:10034000060A27EA030E8AEA0E0ADA44DFF82CB618
:100350005BF821B0DA445DF821B00AEB0B084FEAF4
:10036000920A4AEA827B4FEA523A4AEAC24A8BEA46
:100370000A0B4FEA925A4AEA822A8BEA0A0B02EAED
:10038000040A02EA050E8AEA0E0A04EA050E8AEA5F
:100390000E0A0BEB0A09409737461E460CEB080382
:1003A000AC462546144608EB0902491C4029B3DB3C
:1003B000D0F808809044C0F80880D0F80C8008EB92
:1003C0000409C0F80C90D0F8108008EB0509C0F8BB
:1003D0001090D0F8148008EB0C09C0F81490D0F8F5
:1003E000188008EB0309C0F81890D0F81C8008EBBF
:1003F0000609C0F81C90D0F8208008EB0709C0F867
:100400002090D0F82490DDF80081C144C0F82490F9
:1004100043B0BDE8F08F2DE9F04F91B00446894616
:100420001546CA46D4F800B0206800EBC50020602D
:100430002068584502D26068401C6060CBF3C50656
:1004400030E0C6F14007BD4200D22F4604F128013A
:1004500088193A46514605F016FC3E44BA44ED1B55
:10046000402E1ED104F1280000904FF000080FE04C
:10047000009A02EB880001AA02EB8801C2780A7098
:1004800082784A7042788A700278CA7008F101084E
:10049000B8F1100FECDB01A92046FFF7CFFE0026D4
:1004A00000BF00BF002DCCD111B0BDE8F08F2DE909
:1004B000F04192B004460E462088C0F3C508C8F14A
:1004C000770000F03F00451C04F1080780208DF8FC
:1004D000000047210DF1010005F0EEFB2178E81D39
:1004E0000DF800102088C0F30721A81D0DF800109A
:1004F0002068C0F30741681D0DF800102068000E49
:10050000291D0DF801002179E81C0DF80010A088C4
:10051000C0F30721A81C0DF800106068C0F3074164
:10052000681C0DF800106068000E0DF8050005F15C
:10053000080269462046FFF76EFFF8783070B878F9
:1005400070707878B0703878F070F8793071B87968
:10055000707112B0BDE8F0812DE9F04FA1B00746EF
:100560000C46164606F1020B06F58D7808F10700D9
:1005700020903878012121EA500998F800A01FB98D
:10058000012021B0BDE8F08F06A800210160416084
:10059000FB498160FB4AC260FB4A0261FB4A42613F
:1005A000FB4A8261FB4AC261FB4A0262FB4A426229
:1005B00000BF202207F11001FFF72DFFF07800F1B6
:1005C0000A02594606A8FFF726FF022206F58C719B
:1005D00006A8FFF720FF0722414606A8FFF71BFFEA
:1005E00004A906A8FFF763FF062204A8209905F0D6
:1005F0006EFB08B10020C4E7002102910391D8F8F6
:1006000001000290B8F80500ADF80C000CB900200C
:10061000B7E7002518E0F17905EBC502A01C1044EE
:10062000407881420ED1317A05EBC502A01C1044FE
:100630008078814206D105EBC501A01C405C504585
:1006400000D104E0681C85B22088A842E3DC00BF2A
:100650002088A84229D12088102801DB002090E7BB
:10066000B9F1000F0CD0CE4BDDE90220D11840F1DA
:100670000000D7E90223891A984101D2002080E7BF
:10068000F17905EBC502A01C10444170317A05EBED
:10069000C502A01C1044817005EBC501A01C00F828
:1006A00001A02088401C208018E0002100910191C9
:1006B00005EBC501A01C084450F8031F0091808879
:1006C000ADF80400B9F1000F07D001A80DC80099DA
:1006D000891A984101D3002053E700BF05EBC501FB
:1006E000A01C0844D8F8011040F8031FB8F8051002
:1006F0008180D7E90230DDE90212591A904103D214
:10070000DDE90201C7E9020101203AE700BF0378F1
:1007100083EA010282EA0213DAB203881B1283EA37
:10072000022383EAC20383EA2213038000BF7047D7
:100730002DE9F84F05460C46164699460A9F0020BB
:1007400000902070E078102827D2DFE800F0080938
:1007500027485C646C747C94A3B8C9F9FAF600BFAE
:10076000FD2E0CD10220E0700020E870AE70207BDE
:1007700020F001002073284600F0FBF90DE0FE2E6A
:100780000BD10220E0700020E870AE70207B40F0BA
:1007900001002073284600F0ECF94EE1207850B1BA
:1007A0006078401C6070204600F0DFF90020207067
:1007B0000120E07012E0EE700020207131462846E2
:1007C000FFF7A4FF207B00F0010028B10020287172
:1007D00068710520E07001E00320E0702DE12E71CA
:1007E000287920F0010038B1204600F0BEF9002041
:1007F00020700120E07020E131462846FFF786FF97
:100800000420E07019E16E7131462846FFF77EFF43
:100810000520E07011E1AE7131462846FFF776FF02
:100820000620E07009E1EE7131462846FFF76EFFC1
:100830000720E07001E12E7231462846FFF766FF7F
:100840000820E070F9E0A86866F31F20A860314630
:100850002846FFF75BFF207B00F0010040B1E878FD
:10086000002802DD0B20E07004E00C20E07001E0C5
:100870000920E070E1E0A868000A40EA0621A868C3
:1008800061F31F20A86031462846FFF73FFF0A208A
:10089000E070D2E0A868000A40EA0641A86861F367
:1008A0001F20A86031462846FFF730FFE87800286F
:1008B00002DD0B20E07001E00C20E070BDE021794A
:1008C000481C207105F11000465431462846FFF7B8
:1008D0001DFF2079E978884201D10C20E070ACE05E
:1008E000A968080A00F04BF98046B8F1000F02D061
:1008F00098F8040000E00020834659462846FFF798
:1009000005FF2878B04202D00E20E07001E00D20F3
:10091000E07085F81861B8F1000F0DD0207998F8D3
:100920000510884208DA98F805202379D11A05F1D4
:100930001002981805F0C0F97FE04DE001E0FFE7F4
:1009400000BFE0780E2803D02888B6EB202F02D015
:100950000220207001E00120207040F2191046555D
:10096000287900F00100E8B10F20E0700D206073DD
:10097000207802282FD0002020702CE0346E000850
:1009800067E6096A85AE67BB72F36E3C3AF54FA520
:100990007F520E518C68059BABD9831F19CDE05B4C
:1009A000808D5B00206970B12069006B30B1A86850
:1009B000010A2069026B2046904720B9207802285E
:1009C00001D0032020700120E0704FF4947229467A
:1009D000484605F058F930E0607BC0F10D0105F59F
:1009E0008D704654607B401E6073607B20BB2A463E
:1009F000D4E90401FFF7B0FD8246BAF1000F0BD134
:100A00002069006B40B1A868010A2069026B20468A
:100A1000904708B14FF0010ABAF1000F02D001204F
:100A2000207001E0032020700120E0704FF49472E8
:100A30002946484605F027F900BF00BF0098401C32
:100A400000902078012808D1A8796071208908B920
:100A5000002060812089401C2081E87889F803000B
:100A6000E078F870207938716079401C78712089BD
:100A70003881A0787881207B38730020A07020789E
:100A8000022808D195F8181140F21910405D41EA8A
:100A90000020A9F800002078BDE8F88F704700BF5B
:100AA000FEE700BFFEE700BFFEE700BFFEE77047BE
:100AB0007047704710B503F0F3F810BD10B5D0B013
:100AC00040F225516A4802F09FFB88B1684802F065
:100AD0001BFBC4B26B4606AA2146002000F07DF83D
:100AE00030B106A803F002FD62A1614800F045FBA9
:100AF00050B010BD10B540F22771654802F084FB7C
:100B0000E0B1644802780078401C624B187062487B
:100B1000815C5F4802F0F4FA5E4800785F4909782A
:100B2000884205D1002240F22771594802F087FA25
:100B300040F22771564802F091FB10E040F2255137
:100B4000534802F061FB50B15149091D0988C8B2F0
:100B500004F07CFF40F225514D4802F07FFB4FF43A
:100B600058714B4802F07AFB10BD8178491C8170A6
:100B7000704700BF4FF6FF71018000BF704730B56E
:100B800001460022A72316E0541C1C44600800EB19
:100B90004004434D55F824408C4201D9431E0AE0DD
:100BA00000EB40043E4D55F824408C4201D20246F1
:100BB00001E0024601E09A42E6D300BF02EB4200A8
:100BC000374C54F82000884201D0002030BD02EBA1
:100BD0004200334C04EB8000F8E72DE9F84F8046E3
:100BE0000C4616461D4600BF404600F031F88146CF
:100BF000404600F034F88246334622464946009586
:100C0000FFF796FD0746022F01D0032F1ED1404665
:100C100000F025F88246404600F01AF88146484622
:100C2000FFF7A3FF002089F80000012089F80300E6
:100C3000FD2C08D1022089F8030000208AF8030067
:100C40005046FFF796FF0020BDE8F88F3846FBE7D7
:100C5000014601EB4100134A02EBC0007047014618
:100C600001EB810000EB41100F4A02EBC00070471E
:100C7000003801406D61766C696E6B206D65737331
:100C80006167652072656365697665640A000000C6
:100C9000004800400000002020010020010000204A
:100CA000346F0008200200208002002008B50121D6
:100CB000082001F077F9C020ADF8000003208DF87E
:100CC000020014208DF803006946EB4800F0AEFEE8
:100CD00008BD014641F2883201FB02F000E0401EEF
:100CE0000028FCD17047052001E0411EC8B2002851
:100CF000FBD1704700B54020DF4914310860FFF791
:100D0000F2FF8020DC4914310860FFF7ECFF40203F
:100D1000D94910310860FFF7E6FF4020D649143169
:100D20000860FFF7E0FF00BD00B54020D249143154
:100D30000860FFF7D8FF8020CF4910310860FFF727
:100D4000D2FF4020CC4910310860FFF7CCFF402093
:100D5000C94914310860FFF7C6FF00BD00B5802007
:100D6000C5491031086040200860FFF7BCFFC24849
:100D70000830006808B9012000E0002000F0800081
:100D800008B1002000BD8020BB4914310860FFF786
:100D9000AAFFB9480830006800F0800008B10020C0
:100DA000F0E78020B44914310860FFF79CFF012070
:100DB000E8E700B54020B04914310860FFF793FF21
:100DC0008020AD4914310860FFF78DFF4020AA490B
:100DD00010310860FFF787FF8020A74910310860B5
:100DE000FFF781FF00BD00B54020A3491431086022
:100DF000FFF779FF8020A04910310860FFF773FFEB
:100E000040209D4910310860FFF76DFF9A48083077
:100E1000006800F0800038B1402097491431086024
:100E2000FFF761FF002000BD4020934914310860A6
:100E3000FFF759FF0120F6E700B5024608231BE043
:100E400040208D4914310860FFF74DFF02F080000B
:100E500020B1802088491031086003E08020864955
:100E6000143108605006020EFFF73DFF4020824912
:100E700010310860FFF737FF1800A3F10101CBB272
:100E8000DED140207C491431086000BD00B5082344
:100E90000022802078491031086015E05006020ECB
:100EA0004020754914310860FFF71DFF402072494A
:100EB00010310860FFF717FF6F480830006800F036
:100EC000800008B142F001021800A3F10101CBB289
:100ED000E4D14020684914310860104600BD70B567
:100EE00004460D461646FFF739FF08B9002070BDCD
:100EF0002046FFF7A1FFFFF776FF18B9FFF759FF6C
:100F00000020F4E72846FFF797FFFFF76CFF304615
:100F1000FFF792FFFFF767FFFFF74BFF0120FFF797
:100F2000D8FE0120E3E770B504460D46FFF716FF33
:100F300008B9002070BD2046FFF77EFFFFF753FF82
:100F400018B9FFF736FF0020F4E72846FFF774FFD3
:100F5000FFF749FF18B9FFF72CFF0020EAE7FFF77A
:100F6000FDFE44F00100FFF767FFFFF73CFF18B9F3
:100F7000FFF71FFF0020DDE7FFF788FF0646FFF7BA
:100F8000D3FEFFF716FF3046D4E730B50446FFF72F
:100F9000E5FE08B9002030BD2046FFF74DFFFFF702
:100FA00022FF0546FFF705FF2846F4E7F0B50546A2
:100FB0000E461746FFF7D2FE2846FFF73DFFFFF724
:100FC00012FF18B9FFF7F5FE0020F0BD00240BE07A
:100FD000305DFFF731FFFFF706FF18B9FFF7E9FEB5
:100FE0000020F2E7601CC4B2BC42F1DBFFF7E1FE77
:100FF0000120EAE7F0B504460E4617461D46FFF706
:10100000ADFE08B90020F0BD2046FFF715FFFFF741
:10101000EAFE18B9FFF7CDFE0020F4E73846FFF7E7
:101020000BFFFFF7E0FE18B9FFF7C3FE0020EAE769
:10103000FFF794FE44F00100FFF7FEFEFFF7D3FE3A
:1010400018B9FFF7B6FE0020DDE70EE0FFF71EFF40
:101050003070761C012D02DDFFF74CFE03E0FFF738
:1010600063FEFFF7A6FE681E85B2002DEED1FFF7E6
:10107000A0FE0120C7E70000000C014008B54FF4B6
:10108000A06000F005FC25208DF8000003208DF8FD
:1010900001008DF8020001208DF80300684600F081
:1010A000FCFB08BD00B585B00121042000F07AFFEB
:1010B0000121880300F076FF4FF40070ADF81000B6
:1010C00018208DF8130003208DF8120004A953484E
:1010D00000F0ACFC4FF48060ADF8100004208DF8F7
:1010E000130004A94D4800F0A1FC4FF4E13000903A
:1010F0000020ADF80400ADF80600ADF80800ADF82A
:101100000C000C20ADF80A006946454801F0FFFECE
:10111000FFF7B4FF012240F22551414801F08FFF53
:1011200001213F4801F07FFF05B000BD70B50446C6
:101130000D462946204601F0E3FF00BF80212046EE
:1011400002F04CF80028F9D070BD2DE9F0410746B7
:101150000D461646002405E0295D3846FFF7E6FFF8
:10116000601CC4B2B442F7DB00BF4021384602F035
:1011700035F80028F9D0BDE8F08170B506460C4678
:10118000002500BF615D3046FFF7D0FF6D1C605D3C
:101190000028F7D100BF4021304602F01FF8002898
:1011A000F9D070BD2DE9F04105460C46260AE7B29C
:1011B0003146284601F0A4FF00BF8021284602F0F6
:1011C0000DF80028F9D03946284601F099FF00BFF4
:1011D0008021284602F002F80028F9D0BDE8F0810D
:1011E00070B504460D46E1B20D4801F089FF00BF1D
:1011F00080210B4801F0F2FF0028F9D0204670BD95
:1012000010B5044600BF2021054801F0E7FF002883
:10121000F9D0034801F078FF10BD0000000801403C
:101220000038014008B54FF4A06000F031FB2720E2
:101230008DF8000003208DF8010001208DF80200D8
:101240008DF80300684600F028FB08BD00B585B0A6
:101250000121102000F0A6FE0121880400F0AFFE5D
:101260000121084600F09EFE01211E4800F0AFFC5F
:101270004FF48060ADF8100018208DF813000320A3
:101280008DF8120004A9184800F0D0FB4FF400605C
:10129000ADF8100004208DF8130004A9124800F0E6
:1012A000C5FB4FF4165000900020ADF80400ADF8D7
:1012B0000600ADF80800ADF80C000C20ADF80A00EF
:1012C00069460A4801F023FEFFF7ACFF012240F215
:1012D0002551064801F0B3FE0121044801F0A3FEA8
:1012E00005B000BD1000140000100140004800408F
:1012F00008B50121042000F055FE4020ADF80000A3
:1013000018208DF8030003208DF802006946484834
:1013100000F08CFB0121042000F044FE8020ADF899
:10132000000018208DF8030003208DF802006946A4
:101330003F4800F07BFB0121082000F033FE012034
:10134000ADF8000018208DF8030003208DF802008E
:101350006946384800F06AFB0121082000F022FEAF
:101360000220ADF8000018208DF8030003208DF84E
:10137000020069462F4800F059FB08BDF0B587B060
:1013800040F2DC542546264627460121022000F083
:1013900016FE44F61F60ADF814004720ADF81000AB
:1013A0000020ADF81600ADF812008DF8180004A961
:1013B000214800F02FFF6020ADF800000120ADF8BB
:1013C00002000020ADF80800ADF8064069461A4852
:1013D00000F05DFF0821184801F0A8FBADF80650A9
:1013E0006946154800F095FF0821134801F0A7FB56
:1013F000ADF806606946104800F0D8FF08210E4895
:1014000001F0AAFBADF8067069460B4801F019F827
:101410000821094801F0A9FB0121074801F056FA0B
:1014200007B0F0BD10B5FFF763FFFFF7A7FF10BDD2
:1014300000080140000C01400004004008B50121F3
:10144000102000F0AFFD0121042000F0ABFD1820BA
:101450008DF803004020ADF8000003208DF8020055
:101460006946404800F0E2FA8020ADF80000694685
:101470003C4800F0DBFA4FF48070ADF8000069469C
:10148000384800F0D3FA4FF40070ADF80000694618
:10149000344800F0CBFA08BD00B587B001214803FD
:1014A00000F080FD44F61F60ADF814004720ADF851
:1014B00010000020ADF81600ADF812008DF81800ED
:1014C00004A9294800F0A6FE6020ADF80000012024
:1014D000ADF802000020ADF808004FF48070ADF8C0
:1014E0000C0040F2DC50ADF8060069461E4800F0E2
:1014F000CEFE08211C4801F019FB40F2DC50ADF88B
:1015000006006946184800F004FF0821164801F05B
:1015100016FB40F2DC50ADF806006946124800F0B8
:1015200045FF0821104801F017FB40F2DC50ADF8F0
:10153000060069460C4800F084FF08210A4801F0C3
:1015400014FB0121084801F0C1F90121064801F00E
:10155000C9F907B000BD10B5FFF770FFFFF79CFF9A
:1015600010BD0000001001400034014030B51648A5
:1015700000684FF47A72B0FBF2F1B1F1807F01D3D1
:1015800001201DE021F07F40401E4FF0E02250611D
:1015900050170D22002807DA13071D0E0B4B00F021
:1015A0000F04241F1D5503E013071C0E084B1C5489
:1015B00000BF00204FF0E022906107201061002062
:1015C00008B100BFFEE730BD0400002018ED00E0C8
:1015D00000E400E008B50121082000F0E3FC4FF42E
:1015E0008070ADF8000018208DF8030003208DF8FE
:1015F000020069462C4800F019FA0121082000F089
:10160000D1FC4FF40070ADF8000018208DF80300F5
:1016100003208DF802006946234800F007FA08BD50
:1016200030B587B042F210752C460121042000F03D
:10163000C6FC44F61F60ADF814004720ADF810005A
:101640000020ADF81600ADF812008DF8180004A9BE
:10165000164800F0DFFD6020ADF800000120ADF875
:1016600002000020ADF80800ADF8065069460F48AA
:1016700000F09CFE08210D4801F06EFAADF806401E
:1016800069460A4800F0DDFE0821084801F06DFABD
:101690000121064801F01AF907B030BD10B5FFF777
:1016A00099FFFFF7BDFF10BD000C0140000800408E
:1016B0000CB50020019000906C48006840F4803028
:1016C0006A49086000BF6948006800F40030009073
:1016D0000198401C0190009818B90198B0F5A06FCE
:1016E000F1D16248006800F4003010B10120009090
:1016F00001E0002000900098012843D15C48006878
:1017000040F010005A4908600846006820F00300C5
:1017100008600846006840F00200086053484068CE
:10172000524948600846406848600846406840F4AE
:10173000806048600846406820F47C104860084695
:10174000406840F4E81048600846006840F0807047
:10175000086000BF4548006800F000700028F9D01C
:101760004248406820F0030040494860084640680D
:1017700040F00200486000BF3C48406800F00C00A8
:101780000828F9D10CBD10B5FFF792FF10BD10B5B8
:101790003648006840F00100344908600846406857
:1017A00034490840314948600846006832490840D9
:1017B0002E4908600846006820F48020086008462A
:1017C000406820F4FE0048604FF41F008860FFF777
:1017D000DAFF4FF000602949086010BD10B5002104
:1017E00000200022214B5B6803F00C0121B1042989
:1017F00006D0082928D107E0214B224C236027E09E
:101800001F4B204C236023E0184B5B6803F47010DF
:10181000164B5B6803F48032022303EB904022B93D
:10182000194B4343174C23600DE0104B5B6803F4E6
:10183000003323B1144B4343124C236003E0104B9D
:101840004343104C236003E00D4B0E4C236000BF5C
:1018500000BF064B5B68C3F303130C4CE15C094B00
:101860001B68CB40074C236010BD000000100240F5
:10187000002002400000FFF8FFFFF6FE08ED00E048
:1018800000127A000400002000093D00080000203A
:1018900031490143314A1160704770B5002100237E
:1018A0000F22C47804B32D4C246804F4E064C4F51A
:1018B000E064210AC1F10403CA40447804FA03F148
:1018C0008478144021430901254C0678A1550478F9
:1018D00004F01F050124AC4005786D11AD0005F141
:1018E000E025C5F8004109E0047804F01F05012453
:1018F000AC401C4D0678761145F8264070BD1A4A5A
:101900000A400243154B1B1F1A60704739B1134A36
:10191000121D12680243114B1B1D1A6006E00F4A8C
:10192000121D126882430D4B1B1D1A60704704285C
:1019300008D14FF0E021096941F004014FF0E022A5
:10194000116107E04FF0E021096921F004014FF037
:10195000E0221161704700000000FA050CED00E084
:1019600000E400E080E100E080FFFF1F10B50446C6
:10197000CC48844208D10121042000F02DFB002135
:10198000042000F029FB46E0C748844208D1012129
:10199000082000F021FB0021082000F01DFB3AE0A8
:1019A000C248844208D10121102000F015FB00211B
:1019B000102000F011FB2EE0BD48844208D1012127
:1019C000202000F009FB0021202000F005FB22E090
:1019D000B848844208D10121402000F0FDFA0021DE
:1019E000402000F0F9FA16E0B348844208D1012102
:1019F000802000F0F1FA0021802000F0EDFA0AE0EA
:101A0000AE48844207D10121801500F0E5FA00219B
:101A1000A01500F0E1FA10BD10B50121084600F054
:101A2000DBFA0021012000F0D7FA10BD2DE9F041CA
:101A3000024600250026002000230024002791F8FC
:101A400003C00CF00F0591F803C00CF0100CBCF1B2
:101A5000000F03D091F802C04CEA050591F800C0D0
:101A6000BCF1000F31D0146800202BE04FF0010CC6
:101A70000CFA00F3B1F800C00CEA03069E4220D134
:101A800083004FF00F0C0CFA03F7BC4305FA03FC7C
:101A90004CEA040491F803C0BCF1280F06D14FF0C2
:101AA000010C0CFA00FCC2F814C00AE091F803C063
:101AB000BCF1480F05D14FF0010C0CFA00FCC2F844
:101AC00010C0401C0828D1D31460B1F800C0BCF18C
:101AD000FF0F34DD546800202EE000F1080C4FF0B9
:101AE000010808FA0CF3B1F800C00CEA03069E42A4
:101AF00021D183004FF00F0C0CFA03F7BC4305FA19
:101B000003FC4CEA040491F803C0BCF1280F05D192
:101B100000F1080C08FA0CF8C2F8148091F803C020
:101B2000BCF1480F07D100F1080C4FF0010808FA8A
:101B30000CF8C2F81080401C0828CED35460BDE8D1
:101B4000F0814FF6FF710180022181700421C17084
:101B500070470246002093680B400BB1012000E063
:101B6000002070470146886880B270470246002016
:101B7000D3680B400BB1012000E000207047014604
:101B8000C86880B2704701617047416170470AB10F
:101B9000016100E041617047C16070474FF48032DD
:101BA0000A4382618161826182698269704702466B
:101BB0000020434B18684FF68073184040EA02102B
:101BC00008433F4B186070473E49C8617047F0B505
:101BD0000A46002300240021002500F00046B6F14B
:101BE000004F02D1364EF16901E0354E7168C0F305
:101BF000034583B200F44016B6F5401F08D121F02A
:101C000070612F4E766826F070662D4F7E6012E070
:101C100000F48016B6F5801F06D1032606FA05F4F7
:101C2000A14341F0706106E0460D360103FA06F665
:101C3000B14341F0706122B1460D360103FA06F658
:101C4000314300F00046B6F1004F02D11C4EF16165
:101C500001E01B4E7160F0BD30B500228B071C0FF8
:101C60000F2303FA04F2164B08338C1053F8243078
:101C70009343134C08348D1044F8253023468C10C0
:101C800053F824308C07240F00FA04F423430C4C3F
:101C900008348D1044F8253030BD0A49DC31086025
:101CA0007047000000080140000C01400010014096
:101CB0000014014000180140001C014000200140B8
:101CC0000000014000002042DF48006840F00100B1
:101CD000DD49086008464068DC490840DA49486048
:101CE00008460068DA490840D74908600846006895
:101CF00020F4802008600846406820F4FE00486018
:101D00004FF41F0088607047CF49096821F4803183
:101D1000CD4A11601146096821F480211160B0F5A7
:101D2000803F03D0B0F5802F0ED106E0C649096888
:101D300041F48031C44A116007E0C349096841F4A5
:101D4000A021C14A116000E000BF00BF704710B57C
:101D500001460022002300204A11012A02D1BA4C78
:101D6000236806E0022A02D1B74C236A01E0B64C90
:101D7000636A01F01F02012494401C400CB1012051
:101D800000E0002010BD38B50020009000240025A0
:101D900000BF3120FFF7DBFF05460098401C009094
:101DA0000098B0F5A06F01D0002DF2D03120FFF7E0
:101DB000CEFF08B1012400E00024204638BD0146D2
:101DC0000020A14A106820F0F80040EAC10010602D
:101DD0007047A04908607047024600209A4B586837
:101DE00020F47C1042EA01031843974B5860704777
:101DF00098490866704701460020934A506820F0D1
:101E000003000843506070478F48406800F00C00A2
:101E10007047014600208C4A506820F0F0000843CB
:101E20005060704701460020874A506820F4E06007
:101E300008435060704701460020834A506820F4F0
:101E4000605040EAC1005060704729B17E4A527A22
:101E500002437D4B5A7204E07B4A527A82437A4BAA
:101E60005A7270477B49D83108607047014600209C
:101E7000754A506820F44040084350607047002184
:101E8000714A20321170704A82F82010012802D065
:101E900004280AD104E001216B4A2032117005E0C8
:101EA0000521694A2032117000E000BF00BF704771
:101EB0006949086070476449096A0143624A1162CE
:101EC0007047654944390860704730B500210022E9
:101ED000002400235C4D6D6805F00C0121B104293C
:101EE00005D0082923D105E05C4D056022E05B4D5B
:101EF00005601FE0544D6D6805F47012524D6D6819
:101F000005F48034022505EB92421CB9544D55432B
:101F100005600BE04C4D6D6805F400351DB1504D6A
:101F20005543056002E04D4D5543056002E04B4DC1
:101F3000056000BF00BF444D6D6805F0F001090960
:101F4000484D6B5C0568DD4045603F4D6D6805F4AC
:101F5000E061090A434D6B5C4568DD4085603A4DA0
:101F60006D6805F46051C90A3E4D6B5C4568DD4003
:101F7000C560354D6D6805F44041890B3A4D6B5C89
:101F8000C568B5FBF3F5056130BD29B12E4A52692C
:101F900002432D4B5A6104E02B4A526982432A4B7B
:101FA0005A61704729B1284A92690243264B9A61C7
:101FB00004E0254A92698243234B9A61704729B114
:101FC000214AD2690243204BDA6104E01E4AD269F9
:101FD00082431D4BDA61704729B11B4AD268024324
:101FE000194BDA6004E0184AD2688243164BDA6073
:101FF000704729B1144A12690243134B1A6104E075
:10200000114A12698243104B1A61704712494039D4
:10201000086070470F49C86470470B49C871704722
:102020000948406A40F0807007494862704701469D
:102030000020054A92680A400AB1012000E0002011
:102040007047014988727047001002400000FFF895
:10205000FFFFF6FE000042428004424200127A0076
:1020600000093D00180000202800002010B504469B
:10207000FE48844208D10121C014FFF7ADFF0021C2
:10208000E014FFF7A9FFC4E0B4F1804F08D10121AB
:102090000846FFF7AEFF00210120FFF7AAFFB8E0D6
:1020A000F348844208D101210220FFF7A2FF00215A
:1020B0000220FFF79EFFACE0EE48844208D10121E8
:1020C0000420FFF796FF00210420FFF792FFA0E015
:1020D000E948844208D101210820FFF78AFF002146
:1020E0000820FFF786FF94E0E448844208D10121EC
:1020F0001020FFF77EFF00211020FFF77AFF88E015
:10210000DF48844208D101212020FFF772FF00211F
:102110002020FFF76EFF7CE0DA48844208D10121DD
:102120004014FFF759FF00216014FFF755FF70E0DE
:10213000D548844209D10121C804FFF74DFF002191
:102140004FF40020FFF748FF63E0D048844209D1F4
:1021500001210805FFF740FF00214FF48010FFF731
:102160003BFF56E0CA48844209D101214805FFF7E8
:1021700033FF00214FF40010FFF72EFF49E0C54860
:10218000844208D101214020FFF733FF0021402085
:10219000FFF72FFF3DE0C048844208D10121802095
:1021A000FFF727FF00218020FFF723FF31E0BB4826
:1021B000844208D101218015FFF71BFF0021A015E3
:1021C000FFF717FF25E0B648844209D10121080432
:1021D000FFF702FF00214FF48030FFF7FDFE18E00B
:1021E000B048844209D101214804FFF7F5FE0021DF
:1021F0004FF40030FFF7F0FE0BE0AB48844208D10B
:1022000001218804FFF7E8FE00214FF48020FFF74A
:10221000E3FE10BD00220288944B98420ED0994BE9
:1022200098420BD0B0F1804F08D0914B984205D026
:10223000904B984202D0904B984204D14FF68F7346
:102240001A404B881A438D4B984207D08C4B9842CA
:1022500004D04FF6FF431A40CB881A4302808B8884
:1022600083850B880385814B98420BD0854B984220
:1022700008D08B4B984205D08A4B984202D08A4BAB
:10228000984201D10B7A038601238382704770B58F
:10229000002400220023058C4FF6FE76354005848D
:1022A000028C8388048B4FF68F752C40B51E2C4012
:1022B0000D882C43751E2A400D892A434D882A43D8
:1022C0006A4DA8420BD06F4DA84208D0744DA84269
:1022D00005D0744DA84202D0734DA84213D14FF6D9
:1022E000F7752A404D892A434FF6FB752A408D88A1
:1022F0002A434FF6FF652B404FF6FF552B408D8943
:102300002B43CD892B4383800483CD88858602842B
:1023100070BD70B5002400220023058C4FF6EF76C7
:1023200035400584028C8388048B48F6FF752C4069
:102330004FF6FF452C400D884FF6FF7606EA05253F
:102340002C434FF6DF752A400D8906EA05152A430E
:102350004D8806EA05152A43444DA84202D0494D4E
:10236000A8421DD14FF67F752A404D894FF6FF7662
:1023700006EA05152A434FF6BF752A408D8806EAFE
:1023800005152A434FF6FF352B404FF2FF752B40C2
:102390008D8906EA85052B43CD8906EA85052B4301
:1023A00083800483CD880587028470BD70B50024C6
:1023B00000220023058C4FF6FF6635400584028C11
:1023C0008388848B4FF68F752C404FF6FC752C401C
:1023D0000D882C434FF6FF552A400D894FF6FF76A6
:1023E00006EA05252A434D8806EA05252A431F4D9E
:1023F000A84202D0234DA8421DD14FF2FF752A40BA
:102400004D894FF6FF7606EA05252A434FF6FF353C
:102410002A408D8806EA05252A434EF6FF752B4093
:102420004DF6FF752B408D8906EA05152B43CD89A6
:1024300006EA05152B4383808483CD888587028433
:1024400070BD70B5002200230024058C4EF6FF7687
:1024500035400584038C8488828B48F6FF752A40BA
:102460004FF6FF452A400D8820E00000002C014077
:102470000004004000080040000C00400010004034
:102480000014004000340140004C01400050014065
:102490000054014000180040001C00400020004093
:1024A0000040014000440140004801404FF6FF76E3
:1024B00006EA05252A434DF6FF752B400D8906EAED
:1024C00005352B434D8806EA05352B43FA4DA842C6
:1024D00002D0FA4DA84208D14BF6FF752C408D89E9
:1024E0004FF6FF7606EA85152C4384808283CD88DB
:1024F000A0F84050038470BD828B4FF2FF331A4026
:102500008283828B4FF6FF7303EA01231A4382838F
:102510007047F0B50C461546002200210026078CB6
:102520004EF6FF7C07EA0C070784828B018C4FF67E
:10253000FF7707EA043640F6FF473A404FF6FF7749
:1025400007EA05273A434FF6FF7707EA03373A438E
:10255000D94FB8420ED0D94FB8420BD0B0F1804F0E
:1025600008D0D74FB84205D0D64FB84202D0D64F88
:10257000B84206D14DF6FF77394046F480573943CB
:1025800005E047F6FF57394044F4805739438283CA
:102590000184F0BD828B4FF6F3731A408283828BE5
:1025A0000A4382837047F0B50C461546002200218D
:1025B0000026078C4FF6FF6C07EA0C070784828B16
:1025C000018C4FF6FF7707EA04264FF60C773A4066
:1025D0004FF6FF7707EA03172F433A43B64FB84247
:1025E0000ED0B64FB8420BD0B0F1804F08D0B44FE8
:1025F000B84205D0B34FB84202D0B34FB84206D16B
:102600004FF6FF57394046F48077394305E04FF2E3
:10261000FF57394044F48077394382830184F0BD09
:10262000028B4FF2FF331A400283028B4FF6FF7387
:1026300003EA01231A4302837047F0B50C4615469E
:10264000002200210026078C4FF6EF7C07EA0C07DA
:102650000784028B018C4FF6FF7707EA041640F6D9
:10266000FF473A404FF6FF7707EA03373A434FF602
:10267000FF7707EA05273A438F4FB8420ED08F4FB6
:10268000B8420BD0B0F1804F08D08D4FB84205D082
:102690008C4FB84202D08C4FB84206D14FF6DF774C
:1026A000394046F01007394305E04FF65F7739406F
:1026B00044F01007394302830184F0BD028B4FF6CA
:1026C000F3731A400283028B0A4302837047F0B50A
:1026D0000C46154600220021068C4FF6FE773E4040
:1026E0000684028B018C4FF60C7632407E1C06EA83
:1026F00003162E433243704EB0420ED06F4EB0429E
:102700000BD0B0F1804F08D06D4EB04205D06D4E69
:10271000B04202D06C4EB04206D14FF6FD76314049
:1027200044F00106314305E04FF6F576314044F0C0
:102730000106314302830184F0BD70B505460C46A5
:102740005D4885420ED05D4885420BD0B5F1804F83
:1027500008D05B48854205D05A48854202D05A4885
:10276000854200D100E000BF208850B92389A288AB
:1027700061882846FFF7ABFFE1882846FFF79EFFF8
:1027800025E0208804280AD12389A2886188284668
:10279000FFF753FFE1882846FFF742FF17E0208844
:1027A00008280AD12389A28861882846FFF7FBFE02
:1027B000E1882846FFF7EEFE09E02389A2886188B8
:1027C0002846FFF7A6FEE1882846FFF795FE70BD74
:1027D0002DE9F04105460C4600260127608808B91E
:1027E000022600E00026A088012801D1022700E08F
:1027F00001272088A0B92389A28861882846FFF78D
:1028000066FFE1882846FFF759FF23893A4631469B
:102810002846FFF712FFE1882846FFF701FF13E083
:102820002389A28861882846FFF707FFE1882846A8
:10283000FFF7F6FE23893A4631462846FFF747FF61
:10284000E1882846FFF73AFFBDE8F0810A884B8807
:102850001A438B881A43CB881A430B891A434B8936
:102860001A438B891A43A0F8442070474FF6FF7132
:10287000818000210180C180418001727047002168
:10288000018041808180C180018141818181C1813C
:102890007047002101804180012181800021C18099
:1028A000018170470021018041808180C1800181C8
:1028B0004181818170470000002C014000340140BB
:1028C0000004004000080040000C004021B10288D4
:1028D00042F00102028004E002884FF6FE731A40C3
:1028E0000280704731B1B0F8442042F40042A0F8B1
:1028F000442005E0B0F84420C2F30E02A0F84420C2
:1029000070471AB183890B43838102E083898B432B
:10291000838170478182704741EA0203A0F8483002
:1029200070471AB183890B43838102E083898B430B
:102930008381704701894FF6F87211400181704719
:102940000A46002101894FF68F7319401143018116
:10295000704730B504460D4629462046FFF7F0FF84
:10296000208940F00700208130BD2DE9F041044668
:102970000D4616461F46602D06D13B4601223146C4
:102980002046FFF75AFE05E03B460122314620462D
:10299000FFF79DFE29462046FFF7D2FF208940F031
:1029A00007002081BDE8F08130B50C460021018987
:1029B000C9B24FF6FF7505EA0325154325432943A0
:1029C000018130BD2DE9F04105460E461746984677
:1029D000002443463A4631462846FFF7E5FF2C8956
:1029E0004FF6F870044044F007044FF68F7004402F
:1029F00044F070042C81BDE8F081F0B504460D462A
:102A000016461F463B46324629462046FFF7CCFF76
:102A1000208940F480402081F0BD0185828270478A
:102A20000A46002101884FF68F7319401143018037
:102A30007047F0B50C4615461E46002100220023C3
:102A40000189028B038C4FF6F877394021434FF60A
:102A5000FC473A4040F201173A434FF6DD773B40DE
:102A60004FF6FF7707EA06172F433B4301810283A6
:102A70000384F0BD0A460021018B4FF68F73194085
:102A80001143018370470A460021018B48F6FF730A
:102A900019404FF6FF7303EA02231943018370477D
:102AA0000A460021818B4FF68F73194011438183B1
:102AB00070470A460021818B48F6FF7319404FF694
:102AC000FF7303EA022319438183704721B102880F
:102AD00042F08002028004E002884FF67F731A40C1
:102AE0000280704721B1828842F00402828004E0B3
:102AF00082884FF6FB731A408280704721B182882A
:102B000042F00802828004E082884FF6F7731A4090
:102B10008280704721B1828842F00102828004E005
:102B200082884FF6FE731A40828070470A46002161
:102B3000018B4FF6F77319401143018370470A4622
:102B40000021018B4FF2FF7319404FF6FF7303EA28
:102B500002231943018370470A460021818B4FF6F7
:102B6000F77319401143818370470A460021818B16
:102B70004FF2FF7319404FF6FF7303EA0223194324
:102B8000818370470A460021018B4FF6FB73194081
:102B90001143018370470A460021018B4FF6FF3332
:102BA00019404FF6FF7303EA02231943018370476C
:102BB0000A460021818B4FF6FB7319401143818334
:102BC00070470A460021818B4FF6FF3319404FF6BC
:102BD000FF7303EA02231943818370470A460021E9
:102BE000018B4FF67F7319401143018370470A46EA
:102BF0000021018BC1F30E014FF6FF7303EA02239C
:102C00001943018370470A460021818B4FF67F7379
:102C100019401143818370470A460021818BC1F31B
:102C20000E014FF6FF7303EA0223194381837047B5
:102C30000A460021018C4FF6FD73194011430184AF
:102C400070470A460021018C4FF6F7731940114373
:102C5000018470470A460021018C4FF6DF7319404A
:102C60004FF6FF7303EA02131943018470470A46C3
:102C70000021018C4FF67F7319404FF6FF7303EA72
:102C800002131943018470470A460021018C4FF654
:102C9000FF5319404FF6FF7303EA022319430184DF
:102CA00070470A460021018C4FF2FF7319404FF61E
:102CB000FF7303EA02231943018470470A46002187
:102CC000018C4DF6FF7319404FF6FF7303EA023390
:102CD00019430184704730B5002301248C40A3B20E
:102CE000048C9C430484048C02FA01F5ADB22C439D
:102CF000048430BD30B5002304248C40A3B2048C7E
:102D00009C430484048C02FA01F5ADB22C43048484
:102D100030BD70B503460020002418461830012548
:102D20008D40ACB21D8CA5431D8409B1082909D181
:102D300000EB6100056825F0700505600568154326
:102D400005600EE00D1FC5F34E052844056825F407
:102D5000E045056005684FF6FF7606EA0226354332
:102D6000056070BD21B1028842F00202028004E0D9
:102D700002884FF6FD731A400280704721B1028825
:102D800042F00402028004E002884FF6FB731A400E
:102D90000280704721B1828842F08002828004E084
:102DA00082884FF67F731A408280704702884FF600
:102DB000F7731A40028002880A43028070478288B3
:102DC0004FF68F731A40828082880A438280704750
:102DD00002894FF6F8731A40028102890A43028180
:102DE000704702894FF67F731A40028102890A43B5
:102DF0000281704781847047818570478186704762
:102E00000187704781877047A0F84010704702889B
:102E10004FF6FF431A40028002880A43028070473F
:102E20000146888E70470146088F70470146888F9B
:102E300070470146B1F8400070470146888C7047E2
:102E40000146088D704702460020138A0B400BB1E3
:102E5000012000E000207047CA430282704730B56D
:102E60000246002000230024158A05EA0103958903
:102E700005EA010413B10CB1012000E0002030BDCF
:102E8000CA4302827047000010B50446FB488442E2
:102E900009D101218803FFF79FF800214FF48040FA
:102EA000FFF79AF832E0F648844209D1012148043C
:102EB000FFF79FF800214FF40030FFF79AF825E064
:102EC000F048844209D101218804FFF792F80021DB
:102ED0004FF48020FFF78DF818E0EB48844209D1C9
:102EE0000121C804FFF785F800214FF40020FFF707
:102EF00080F80BE0E548844208D101210805FFF77E
:102F000078F800214FF48010FFF773F810BD2DE919
:102F1000F04786B005460E460024A24600BFA146F3
:102F20000027B08900B100BF2F462C8A4CF6FF70F5
:102F30000440F08804432C82AC894EF6F310044020
:102F4000B08831890843718908430443AC81AC8A55
:102F50004FF6FF400440B0890443AC8201A8FEF75D
:102F6000B4FFC648874202D1DDF810A001E0DDF8C9
:102F70000CA0A88900F4004040B10AEBCA0000EBA5
:102F80000A1031684900B0FBF1F807E00AEBCA000B
:102F900000EB0A1031688900B0FBF1F86420B8FB3F
:102FA000F0F004012009642101FB1089A88900F4D4
:102FB000004040B1322000EBC900B0FBF1F000F05E
:102FC0000700044308E0322000EB09106421B0FB45
:102FD000F1F000F00F0004432C8106B0BDE8F0874B
:102FE0004FF41651016000218180C18001810C21C4
:102FF000418100218181704710B502460020108A6E
:103000004FF2FF0318400B884C8823438C882343DE
:10301000CC8823431843108210BD002101804180D9
:103020008180C180704721B1828942F4005282813F
:1030300004E082894DF6FF731A4082817047F0B533
:103040000346002400260025002040F66A17B942F6
:1030500000D100BF1846C1F3421401F01F0601273A
:1030600007FA06F5012C01D10C3004E0022C01D145
:10307000103000E014301AB107682F43076002E0F7
:103080000768AF430760F0BD1AB1838A0B438382A0
:1030900002E0838A8B4383827047028A4FF6F07383
:1030A0001A400282028A0A430282704782894FF2E2
:1030B000FF731A40828182890A438281704721B15D
:1030C000828942F00202828104E082894FF6FD7318
:1030D0001A4082817047028A4FF6DF731A400282DB
:1030E000028A0A430282704721B1028A42F4804276
:1030F000028204E0028A4BF6FF731A400282704794
:10310000C1F308028280704701468888C0F3080036
:103110007047818941F0010181817047028BD2B2F1
:103120000283028B42EA012202837047028B02F47F
:103130007F420283028B0A430283704721B1828A55
:1031400042F02002828204E0828A4FF6DF731A4046
:103150008282704721B1828A42F01002828204E0AA
:10316000828A4FF6EF731A408282704721B1828AB9
:1031700042F00802828204E0828A4FF6F7731A4016
:103180008282704721B1828942F40042828103E049
:103190008289C2F30E028281704721B1828A42F491
:1031A0000062828204E0828A4FF2FF731A408282B8
:1031B0007047828A4FF6FB731A408282828A0A43E2
:1031C0008282704721B1828A42F00202828204E048
:1031D000828A4FF6FD731A408282704702460020B1
:1031E000B1F5007F00D100BF13880B400BB1012067
:1031F00000E00020704701F40072B2F5007F00D1BA
:1032000000BFCA430280704770B502460024002305
:103210000025002040F66A16B14200D100BFC1F37C
:10322000421501F01F03012606FA03F3012D02D116
:103230009689334006E0022D02D1168A334001E020
:10324000968A33400C12012606FA04F4168834409C
:1032500013B10CB1012000E0002070BD10B50022B8
:10326000002340F66A14A14200D100BF0A120124D3
:103270009440A3B2DC43048010BD0000003801403C
:103280000044004000480040004C00400050004016
:103290002DE9F04104460D461646284602F0CDFEC3
:1032A0008046214602F054FF03D2284602F0C5FEB4
:1032B0000CE0304602F0C1FE8046214602F03EFF9F
:1032C00003D2304602F0B9FE00E02046074602F085
:1032D000CEFEBDE8F08170B5DDE9044504634563C9
:1032E00001604260836000260661466186618662F5
:1032F0004662C662C661866370BD70B50446D4E995
:10330000070102F043FDA062D4E9091002F03EFD7E
:10331000E062A06A6062A16A206802F03DFD20615F
:10332000A16A606802F038FD0546616902F0DCFCC4
:103330006061226B51426069FFF7AAFF054602F007
:103340007CFE6061E16AA06802F026FDA06170BDAC
:10335000C161704700214161704710B50446A16A00
:10336000206802F019FD206110BD70B50446A16A05
:10337000606802F011FD0546616902F0B5FC60610C
:10338000226B51426069FFF783FF054602F055FE4C
:10339000606170BD10B50446E16AA06802F0FCFCF3
:1033A000A06110BD70B50446D4E9040102F09CFC94
:1033B000A063626B5142A06BFFF76AFF054602F003
:1033C0003CFEA06370BD70B50446D4E9040102F070
:1033D0008BFC0546A16902F087FCA063626B514239
:1033E000A06BFFF755FF054602F027FEA06370BDF6
:1033F0002DE9F84F0646002700240025704202F010
:103400001CFE044677480168204602F0BFFC0746D0
:103410007448046021467448006802F065FC7249F3
:10342000086072497048006802F092FE02D26F484C
:103430006D4908606E496C48006802F07FFE02D258
:103440006B486949086039466A48006802F0A4FC84
:10345000214600906848006802F09EFC82462146A2
:103460006648006802F098FC8346514602F03CFC36
:103470008146009902F038FC804602F0F8FD0546CE
:10348000502D00DD502515F1500F01DA6FF04F057A
:103490002846BDE8F88F2DE9F84F0646002700249E
:1034A0000025704202F0C9FD0446554801682046D7
:1034B00002F06CFC074652480460214651480068FF
:1034C00002F012FC4F49086048494E48006802F07B
:1034D0003FFE02D245484B490860454949480068CB
:1034E00002F02CFE02D2424846490860394646485E
:1034F000006802F051FC214600904448006802F048
:103500004BFC824621464248006802F045FC834657
:10351000514602F0E9FB8146009902F0E5FB804646
:1035200002F0A5FD05463C2D00DD3C2515F13C0FC4
:1035300001DA6FF03B052846BDE8F88F2DE9F84F1A
:103540000646002700240025704202F076FD04465E
:1035500030480168204602F019FC07462D480460F7
:1035600021462D48006802F0BFFB2B4908602B491B
:103570002948006802F0ECFD02D22848264908607C
:1035800027492548006802F0D9FD02D22448224983
:10359000086039462348006802F0FEFB214600908F
:1035A0002148006802F0F8FB824621461F48006867
:1035B00002F0F2FB8346514602F096FB81460099E9
:1035C00002F092FB804602F052FD0546642D00DDBC
:1035D000642515F1640F01DA6FF063052846BDE834
:1035E000F88F00005000002054000020000020420E
:1035F000000020C234000020300000202C000020F9
:10360000580000205C000020400000203C0000200A
:103610003800002060000020640000200000C84244
:103620000000C8C24C0000204800002044000020D8
:1036300002460B7883EA020080EA0013D8B20B88B6
:103640001B1283EA002383EAC00383EA20130B8062
:1036500070472DE9F34FC1B08268C4680569D0F89E
:1036600014C08369C669076AD0F82480CDF8008148
:10367000002106E0DDF8088158F821804DF821800E
:10368000491C1029F6DB10214DE0A1F102085DF87C
:1036900028804FEA5849A1F102085DF8288049EADC
:1036A000C838A1F102095DF829904FEAD94AA1F181
:1036B00002095DF829904AEA493988EA0908A1F126
:1036C00002095DF8299088EA9929A1F107085DF8B7
:1036D0002880C844A1F10F095DF829904FEAD91A52
:1036E000A1F10F091DF829904AEA4969A1F10F0AD1
:1036F0005DF82AA04FEA9A4BA1F10F0A5DF82AA0C3
:103700004BEA8A3A89EA0A09A1F10F0A5DF82AA070
:1037100089EADA09C144A1F110085DF82880C8449B
:103720004DF82180491C4029AFDB002149E04FEAD8
:10373000931A4AEA836A4FEAD32B4BEA435B8AEA3D
:103740000B0A4FEA536B4BEAC31B8AEA0B0ADDF8FC
:1037500000B1D34403EA060A27EA030E8AEA0E0AF6
:10376000DA44DFF858B65BF821B0DA445DF821B0EE
:103770000AEB0B084FEA920A4AEA827B4FEA523A76
:103780004AEAC24A8BEA0A0B4FEA925A4AEA822A6A
:103790008BEA0A0B02EA040A02EA050E8AEA0E0A1A
:1037A00004EA050E8AEA0E0A0BEB0A09409737462F
:1037B0001E460CEB0803AC462546144608EB0902EE
:1037C000491C4029B3DBD0F808809044C0F8088039
:1037D000D0F80C8008EB0409C0F80C90D0F81080E9
:1037E00008EB0509C0F81090D0F8148008EB0C091C
:1037F000C0F81490D0F8188008EB0309C0F81890AE
:10380000D0F81C8008EB0609C0F81C90D0F8208086
:1038100008EB0709C0F82090D0F82490DDF800816B
:10382000C144C0F8249043B0BDE8F08F2DE9F04FBB
:1038300091B0044689461546CA46D4F800B02068BF
:1038400000EBC50020602068584502D26068401C2B
:103850006060CBF3C50630E0C6F14007BD4200D240
:103860002F4604F1280188193A46514602F00BFA16
:103870003E44BA44ED1B402E1ED104F128000090B6
:103880004FF000080FE0009A02EB880001AA02EB5B
:103890008801C2780A7082784A7042788A70027809
:1038A000CA7008F10108B8F1100FECDB01A920463D
:1038B000FFF7CFFE002600BF00BF002DCCD111B016
:1038C000BDE8F08F2DE9F04192B004460E46208805
:1038D000C0F3C508C8F1770000F03F00451C04F1B3
:1038E000080780208DF8000047210DF1010002F04B
:1038F000E3F92178E81D0DF800102088C0F30721B6
:10390000A81D0DF800102068C0F30741681D0DF8D0
:1039100000102068000E291D0DF801002179E81C17
:103920000DF80010A088C0F30721A81C0DF80010A6
:103930006068C0F30741681C0DF800106068000E55
:103940000DF8050005F1080269462046FFF76EFFF5
:10395000F8783070B87870707878B0703878F07027
:10396000F8793071B879707112B0BDE8F0812DE945
:10397000F0479CB004460D4616461F46DDE9259AE1
:10398000DDF890801CB1207800F0010018B900200B
:103990001CB0BDE8F08760782870D4E90201CDE959
:1039A00000010098C5F80100BDF80400A5F8050065
:1039B000D4E90220521C40F10000C4E9022002A810
:1039C000002101604160FE498160FE4AC260FE4AFA
:1039D0000261FE4A4261FE4A8261FE4AC261FE4ABB
:1039E0000262FE4A426200BF202204F11001FFF78A
:1039F0001DFF3A46314602A8FFF718FF4A464146E6
:103A000002A8FFF713FF0222514602A8FFF70EFF9C
:103A10000722294602A8FFF709FFE91D02A8FFF7C0
:103A200051FF0D20B4E7024601E0481EC1B2012952
:103A300003DD481E105C0028F7D0084670472DE9CA
:103A4000FF4F87B004461D46287BC0F3400646B9A9
:103A5000286930B12869007800F0010008B1012020
:103A600000E000208146B9F1000F01D00D2000E0F8
:103A7000002006900A271EB1FE20A070062701E054
:103A8000FD20A0700EB1149804E004F11000159907
:103A9000FFF7C9FFE0700898E071099820720020D4
:103AA0002071B9F1000F03D0207940F0010020719E
:103AB00000206071A879A071A879401CA871A07835
:103AC0008DF80C00E0788DF80D006EB1A0798DF8BE
:103AD0000E00E0798DF80F00207A8DF81000208913
:103AE000000A8DF811001AE020798DF80E00607937
:103AF0008DF80F00A0798DF81000E0798DF8110095
:103B0000207A8DF812002089000A8DF81300A06831
:103B1000000C8DF81400A068000E8DF815000DF152
:103B20000D08781E1FFA80FA00BF4FF6FF70029052
:103B300000BF04E018F8010B02A9FFF779FD5FEA66
:103B40000A00AAF101011FFA81FAF3D1BDF80800B9
:103B50002080A04604F1100AE0780290D34604E0E9
:103B60001BF8010B4146FFF763FD0298411E89B225
:103B700002910028F4D100BF21461698FFF758FDA6
:103B80002178E27804F11000815420880212E07854
:103B9000401C04F110010A54B9F1000F0FD0E17874
:103BA00004F11000084404F11002CDE90021029054
:103BB0003B4603AA04F58D712869FFF7D8FEE0782B
:103BC0003844801C069908440BB0BDE8F08F2DE9FD
:103BD000F04705460C46E678A078FE281AD14FF04B
:103BE00000090527A07828706E70A079A870E07988
:103BF000E870207A28712089000A6871E27804F15F
:103C00001001A81D02F03FF8E819401CE17800EB14
:103C100001082FE0314604F11000FFF704FF0646CB
:103C20000927A07828706E702079A8706079E870F4
:103C3000A0792871E0796871207AA8712089000A3A
:103C4000E871A068000C2872A068000E6872324605
:103C500004F1100105F10A0002F015F8E819401C02
:103C600000EB0608207900F0010008B10D2000E00B
:103C700000208146207888F800002088001288F80B
:103C80000100B9F1000F06DD4A4604F58D7108F117
:103C9000020001F0F8FFF81C30444844BDE8F0870A
:103CA0004F480088401C00B24D4908804D480088AC
:103CB000401C00B24B4908804B480088401C00B2B1
:103CC0004949088049480088401C00B2474908809B
:103CD00047480088401C00B2454908804548008894
:103CE000401C00B24349088043480068401C4249D8
:103CF0000860704710B500F08FFA10BD10B500F0E5
:103D0000E9FB10BD10B500F00DF910BD10B53B4931
:103D10003B4801F091FA04463849394801F03FFF29
:103D2000044610BD10B501F00EFA10BD1FB50024F9
:103D300004200021D822CDE900120C23304ACDE91D
:103D40000210C821012000F07FF82D492B48FFF711
:103D50003EFF0446224629492A48FDF7F6F91FBDD1
:103D600010B51F48B0F90000052804DBFFF7C2FFBB
:103D700000201B4908801B48B0F900000A2804DB1A
:103D8000FFF7BCFF0020174908801748B0F9000072
:103D9000142804DBFFF7B6FF0020134908801348FE
:103DA000B0F90000322804DBFFF7B0FF00200F4914
:103DB00008800F48B0F90000432825E00877000884
:103DC00067E6096A85AE67BB72F36E3C3AF54FA5AC
:103DD0007F520E518C68059BABD9831F19CDE05BD8
:103DE000680000206A0000206C0000206E000020A7
:103DF000700000207200002074000020480800209D
:103E0000200700200038014004DBFFF78BFF002073
:103E10002A4908802A48B0F90000B0F57A7F04DB0F
:103E2000FFF784FF00202649088010BD00202549A7
:103E300008802549088025490880254908801F49B0
:103E400008802449086070472DE9F04F87B0054687
:103E50000E4614469B46129804908DF814B01098A4
:103E60008DF8150011988DF8160013988DF817002D
:103E700003208DF81800092204A904F1100001F0B4
:103E800002FF207AA0600927BA464FF032084FF0AF
:103E9000000900BF09EB49000F4901EBC000039086
:103EA000CDE901A80097324629462046039BFFF73B
:103EB000C6FD00BF07B0BDE8F08F00007000002015
:103EC00072000020680000206A0000206C000020C2
:103ED0006E00002074000020481000201CB542F243
:103EE0001070411000231A46CDE900104FF07E51AA
:103EF0004048FFF7F0F942F2107041103E4B3F4A44
:103F0000CDE9001011463E48FFF7E5F942F2107086
:103F1000411000233B4ACDE9001011463A48FFF713
:103F2000DAF91CBD70B53949B1F9000002F085F825
:103F300005464FF08E4101F061FF0446344901F01F
:103F40002BFF2C4908623149B1F9020002F075F8E3
:103F500005464FF08E4101F051FF04462C4901F017
:103F60001BFF274908622949B1F9040002F065F8EE
:103F700005464FF08E4101F041FF0446244901F00F
:103F80000BFF214908621B48FFF7B7F91C48FFF7F0
:103F9000B4F91D48FFF7B1F91648FFF714FA1848AD
:103FA000FFF711FA1848FFF70EFA1249886B194902
:103FB00001F024FF184908601149886B154901F088
:103FC0001DFF164908601049886B124901F016FF61
:103FD00013490860104801681248FFF7B9F90F4803
:103FE00001681148FFF7B4F90D4801680F48FFF761
:103FF000AFF970BDA81000200000A0400000A04153
:10400000E41000200000484220110020140100208C
:10401000000034430000C842780000207C000020EB
:10402000800000205C11002098110020D411002095
:1040300070B504460D46B4F5FA7F01DD4FF4FA740D
:1040400014F5FA7F00DAFE4C35B104F2DC5081B28F
:10405000FC48FEF7D3FE06E040F2DC50001B81B2C4
:10406000F848FEF7CBFE70BD70B504460D46B4F5BA
:10407000FA7F01DD4FF4FA7414F5FA7F00DAF04CA0
:1040800035B104F2DC5081B2EE48FEF7B9FE06E02D
:1040900040F2DC50001B81B2EA48FEF7B1FE70BD71
:1040A00070B504460D46B4F5FA7F01DD4FF4FA749D
:1040B00014F5FA7F00DAE24C35B104F2DC5081B23B
:1040C000E048FEF79FFE06E040F2DC50001B81B2A4
:1040D000DC48FEF797FE70BD70B504460D46B4F59A
:1040E000FA7F01DD4FF4FA7414F5FA7F00DAD44C4C
:1040F00035B104F2DC5081B2D248FEF785FE06E00D
:1041000040F2DC50001B81B2CE48FEF77DFE70BD50
:1041100070B504460D46B4F5FA7F01DD4FF4FA742C
:1041200014F5FA7F00DAC64C35B104F2DC5081B2E6
:10413000C548FEF763FE06E040F2DC50001B81B28A
:10414000C148FEF75BFE70BD70B504460D46B4F580
:10415000FA7F01DD4FF4FA7414F5FA7F00DAB84CF7
:1041600035B104F2DC5081B2B748FEF749FE06E0F3
:1041700040F2DC50001B81B2B348FEF741FE70BD37
:1041800070B504460D46B4F5FA7F01DD4FF4FA74BC
:1041900014F5FA7F00DAAA4C35B104F2DC5081B292
:1041A000A948FEF72FFE06E040F2DC50001B81B26A
:1041B000A548FEF727FE70BD1CB542F210704110F5
:1041C000A24B4FF08142CDE90010A149A148FFF771
:1041D00082F842F21070411000231A46CDE9001017
:1041E0004FF07E519C48FFF776F842F21070411074
:1041F000964B9A4ACDE9001099499A48FFF76BF817
:1042000042F2107041100023944ACDE90010964903
:104210009648FFF760F81CBD2DE9F0479449B1F9C5
:10422000000001F00AFF05464FF08E4101F0E6FD67
:104230000446904901F0B0FD874908628C49B1F904
:10424000020001F0FAFE05464FF08E4101F0D6FD66
:104250000446884901F0A0FD824908628449B1F909
:10426000040001F0EAFE05464FF08E4101F0C6FD64
:104270000446804901F090FD7C49086200F077FE19
:10428000744908627448FFF738F87648FFF735F844
:104290007648FFF732F86F48FFF72FF86E48FFF7C0
:1042A00092F87048FFF78FF87048FFF78CF869486C
:1042B000FFF789F86849886B6F4901F09FFD6F49E6
:1042C00008606849886B6C4901F098FD6C4908608A
:1042D0006649886B684901F091FD6A4908605D494B
:1042E000886B614901F08AFD67490860654801688B
:1042F0004FF07E5001F050FD064664480168644866
:10430000006801F0F1FC0746314601F0EDFC05467E
:1043100001F0ADFE04465F4801682046FFF7A4FEA9
:104320005A4801685A48006801F030FD054601F01E
:104330009EFE0446584801682046FFF779FE534820
:1043400001685348006801F021FD054601F08FFE29
:104350000446524801682046FFF7A2FE494801681A
:104360004FF07E5001F018FD064648480168484865
:10437000006801F0B9FC0746314601F007FD05462B
:1043800001F075FE0446464801682046FFF7A4FE8A
:104390003A4801684FF07E5001F0FEFC074638486D
:1043A00001684FF07E5001F0F7FC80463648016806
:1043B0003C48006801F098FC8146414601F094FCBD
:1043C0000646394601F090FC054601F050FE0446D1
:1043D000354801682046FFF79BFE284801684FF0EA
:1043E0007E5001F0D9FC0746254801684FF07E5009
:1043F00001F0D2FC8046244801682A48006801F098
:1044000073FC8146414601F0C1FC0646394601F085
:104410006BFC054601F02BFE04462448016820464B
:10442000FFF792FE154801684FF0804001F0B4FCA0
:104430000646154801681B48006801F055FC37E046
:104440000CFEFFFF00040040003401400000A040CB
:1044500000004843101200205C11002000002041A1
:104460000000A0419811002000004842D411002013
:104470000C0100200000FA440000C8428400002023
:10448000880000208C00002090000020CC0000203C
:10449000C80000209400002098000020A000002008
:1044A0009C000020D0000020A4000020A8000020D4
:1044B0000746314601F06AFC054601F0D8FD044686
:1044C000034801682046FFF75BFEBDE8F087000067
:1044D000AC00002010B52F4801682F48FEF738FFC8
:1044E0002E4801682E48FEF733FF10BD2DE9F0413C
:1044F0000446A068000A10B1962846D114E025466B
:10450000284EE878092801DAE87800E00920074613
:104510000921304601F0D0FB3A4605F11001304642
:1045200001F0B1FB00BF31E025461F4EE8780A28B4
:1045300001DAE87800E00A20074600203060706069
:1045400030813A4605F11001304601F09CFB00BF76
:104550001549B1F9000001F070FD144908601249D5
:10456000B1F9020001F069FD114908600E49B1F985
:10457000040001F062FD074908600B49B1F906002B
:1045800001F05BFD0549086000E000BF00BFBDE829
:10459000F0810000D000002010120020D400002084
:1045A00020110020581200204C120020C8000020CA
:1045B000CC00002002460B7883EA020080EA001358
:1045C000D8B20B881B1283EA002383EAC00383EA74
:1045D00020130B8070472DE9F34FC1B08268C46887
:1045E0000569D0F814C08369C669076AD0F82480C9
:1045F000CDF80081002106E0DDF8088158F821801F
:104600004DF82180491C1029F6DB10214DE0A1F165
:1046100002085DF828804FEA5849A1F102085DF8C8
:10462000288049EAC838A1F102095DF829904FEACB
:10463000D94AA1F102095DF829904AEA493988EA84
:104640000908A1F102095DF8299088EA9929A1F1E8
:1046500007085DF82880C844A1F10F095DF829908A
:104660004FEAD91AA1F10F091DF829904AEA4969C0
:10467000A1F10F0A5DF82AA04FEA9A4BA1F10F0AA7
:104680005DF82AA04BEA8A3A89EA0A09A1F10F0AE1
:104690005DF82AA089EADA09C144A1F110085DF8A1
:1046A0002880C8444DF82180491C4029AFDB0021F7
:1046B00049E04FEA931A4AEA836A4FEAD32B4BEA5E
:1046C000435B8AEA0B0A4FEA536B4BEAC31B8AEA45
:1046D0000B0ADDF800B1D34403EA060A27EA030E09
:1046E0008AEA0E0ADA44DFF858B65BF821B0DA44F9
:1046F0005DF821B00AEB0B084FEA920A4AEA827B86
:104700004FEA523A4AEAC24A8BEA0A0B4FEA925AF5
:104710004AEA822A8BEA0A0B02EA040A02EA050E36
:104720008AEA0E0A04EA050E8AEA0E0A0BEB0A0967
:10473000409737461E460CEB0803AC462546144608
:1047400008EB0902491C4029B3DBD0F808809044EB
:10475000C0F80880D0F80C8008EB0409C0F80C9071
:10476000D0F8108008EB0509C0F81090D0F814803C
:1047700008EB0C09C0F81490D0F8188008EB030976
:10478000C0F81890D0F81C8008EB0609C0F81C90FF
:10479000D0F8208008EB0709C0F82090D0F82490CA
:1047A000DDF80081C144C0F8249043B0BDE8F08F2B
:1047B0002DE9F04F91B0044689461546CA46D4F813
:1047C00000B0206800EBC50020602068584502D288
:1047D0006068401C6060CBF3C50630E0C6F140075E
:1047E000BD4200D22F4604F1280188193A465146AD
:1047F00001F049FA3E44BA44ED1B402E1ED104F1AB
:10480000280000904FF000080FE0009A02EB8800AB
:1048100001AA02EB8801C2780A7082784A70427855
:104820008A700278CA7008F10108B8F1100FECDB49
:1048300001A92046FFF7CFFE002600BF00BF002DD4
:10484000CCD111B0BDE8F08F2DE9F04192B0044613
:104850000E462088C0F3C508C8F1770000F03F007D
:10486000451C04F1080780208DF8000047210DF158
:10487000010001F021FA2178E81D0DF800102088D0
:10488000C0F30721A81D0DF800102068C0F30741F0
:10489000681D0DF800102068000E291D0DF801009C
:1048A0002179E81C0DF80010A088C0F30721A81C8E
:1048B0000DF800106068C0F30741681C0DF8001087
:1048C0006068000E0DF8050005F1080269462046F3
:1048D000FFF76EFFF8783070B87870707878B07045
:1048E0003878F070F8793071B879707112B0BDE82D
:1048F000F0812DE9F0479CB004460D4616461F4650
:10490000DDE9259ADDF890801CB1207800F00100E7
:1049100018B900201CB0BDE8F08760782870D4E991
:104920000201CDE900010098C5F80100BDF80400BE
:10493000A5F80500D4E90220521C40F10000C4E9AA
:10494000022002A8002101604160FE498160FE4A08
:10495000C260FE4A0261FE4A4261FE4A8261FE4A2C
:10496000C261FE4A0262FE4A426200BF202204F196
:104970001001FFF71DFF3A46314602A8FFF718FF66
:104980004A46414602A8FFF713FF0222514602A8F9
:10499000FFF70EFF0722294602A8FFF709FFE91DCE
:1049A00002A8FFF751FF0D20B4E7024601E0481EC0
:1049B000C1B2012903DD481E105C0028F7D008466B
:1049C00070472DE9FF4F87B004461D46287BC0F392
:1049D000400646B9286930B12869007800F0010026
:1049E00008B1012000E000208146B9F1000F01D09C
:1049F0000D2000E0002006900A271EB1FE20A070C6
:104A0000062701E0FD20A0700EB1149804E004F127
:104A100010001599FFF7C9FFE0700898E071099838
:104A2000207200202071B9F1000F03D0207940F0EE
:104A30000100207100206071A879A071A879401C44
:104A4000A871A0788DF80C00E0788DF80D006EB19B
:104A5000A0798DF80E00E0798DF80F00207A8DF89E
:104A600010002089000A8DF811001AE020798DF8D5
:104A70000E0060798DF80F00A0798DF81000E079B4
:104A80008DF81100207A8DF812002089000A8DF827
:104A90001300A068000C8DF81400A068000E8DF8BB
:104AA00015000DF10D08781E1FFA80FA00BF4FF6B1
:104AB000FF70029000BF04E018F8010B02A9FFF795
:104AC00079FD5FEA0A00AAF101011FFA81FAF3D128
:104AD000BDF808002080A04604F1100AE07802909A
:104AE000D34604E01BF8010B4146FFF763FD029833
:104AF000411E89B202910028F4D100BF21461698C8
:104B0000FFF758FD2178E27804F1100081542088E5
:104B10000212E078401C04F110010A54B9F1000FB0
:104B20000FD0E17804F11000084404F11002CDE93F
:104B3000002102903B4603AA04F58D712869FFF716
:104B4000D8FEE0783844801C069908440BB0BDE8D4
:104B5000F08F2DE9F04705460C46E678A078FE2850
:104B60001AD14FF000090527A07828706E70A0793F
:104B7000A870E079E870207A28712089000A6871AD
:104B8000E27804F11001A81D01F07DF8E819401C3D
:104B9000E17800EB01082FE0314604F11000FFF747
:104BA00004FF06460927A07828706E702079A87047
:104BB0006079E870A0792871E0796871207AA8712D
:104BC0002089000AE871A068000C2872A068000E15
:104BD0006872324604F1100105F10A0001F053F841
:104BE000E819401C00EB0608207900F0010008B12C
:104BF0000D2000E000208146207888F80000208801
:104C0000001288F80100B9F1000F06DD4A4604F5EC
:104C10008D7108F1020001F036F8F81C3044484468
:104C2000BDE8F08710B51E221146EC20FCF757F9BD
:104C300010BD2DE9F04F8BB04A4840894A490968B8
:104C4000A1EB00244748C0880022E117A0FB043CE8
:104C500002FB04C200FB01204FF48072CDE9023058
:104C60000023DDE9020100F0DDFF3E4A52884FF4E7
:104C70000043A2FB0323851841EB03063948008952
:104C80000022E117A0FB043C02FB04C200FB012050
:104C90008022CDE902300023DDE9020100F0C2FFED
:104CA000304A92884FF48033A2FB03238018594185
:104CB000CDE908012B4880890022E117A0FB043CC4
:104CC00002FB04C200FB01204FF40002CDE90230D8
:104CD0000023DDE9020100F0A5FF4FF4FA6140185E
:104CE00022490860224800684FF00001A0FB05B38C
:104CF00001FB053100FB06114FF400124FF00003D9
:104D0000584600F08FFFDDE90823801A61EB0301AC
:104D10004FF400520023CDE9020100F083FF154952
:104D2000086012480068642190FBF1F0142872DAE0
:104D3000032080FB0401E317A0FB042C1CE000000F
:104D40000878000867E6096A85AE67BB72F36E3CB7
:104D50003AF54FA57F520E518C68059BABD9831F46
:104D600019CDE05B64120020EC000020F000002070
:104D7000E8000020F400002001FB04C100FB031048
:104D8000CDE9022000220223DDE9020100F04AFF02
:104D90000790F9490968A1F5FA6101EB4101F64A6A
:104DA0001268A2F5FA6201FB02F000EBD0714FEA43
:104DB000610AF1490968A1F5FA6101EB8101EE4A46
:104DC0001268A2F5FA6201FB02F0C11700EB517103
:104DD0004FEAE109E8480068642190FBF1F010F126
:104DE0000F0F3ADAE448006800F2DC50C0EBC00173
:104DF000E148006800F2DC5001FB00AADE480068D0
:104E000000F2DC508100DC48006800F2DC5001FB5D
:104E1000009922E0FFE7D8480068642190FBF1F098
:104E200014281ADB04FB04F04000C117834600225B
:104E3000202300F0F7FE0790CF490968A1F5FA6139
:104E4000CD4A1268A2F5FA6201FB02F0C11700EB2D
:104E500011714FEA211A4FF00009DDE90810B1EB9A
:104E60000A0760EBEA78B5EB090166EBE970CDE97A
:104E70000410C14801680798A1EB0000BE49086012
:104E8000BE484FF000030268DDE90410A2FB01CB2D
:104E900003FB01B102FB00104FF40012CDE900C08A
:104EA0006046019900F0BEFEC01B61EB08014FF4A3
:104EB00000520023CDE9020100F0B4FEB0490860C1
:104EC0000BB0BDE8F08F10B500224821EC20FCF7B4
:104ED00006F81420FBF7FDFE03230022A949EC206D
:104EE000FCF788F8A74800780004A649497840EA0A
:104EF0000120A44989780843A0490860002258216C
:104F0000EC20FBF7ECFF1420FBF7E3FE0323002269
:104F10009C49EC20FCF76EF89A4800780004994907
:104F2000497840EA01209749897808439649086002
:104F300010BD10B5EC20FCF728F810BD70B5044684
:104F40008F48006801F079F80646904900F056FF56
:104F50000546214600F020FF70BD10B58648006868
:104F600001F06BF804468A4900F048FF10BD2DE9B6
:104F7000F0478748FFF7E2FF8146864900F006FFC9
:104F8000044601F0ACF80746834A844B00F0E6FF84
:104F9000054601F0B7F8BDE8F0878149C860704761
:104FA00010B5FFF790FFFFF744FEFFF7D6FF7C49EF
:104FB0004860FFF7DCFF04467948C168204600F0EE
:104FC000E5FE774908607248FFF7B8FF74498860CA
:104FD00010BD08B5012073490860FBF767FEFFF7B5
:104FE00021FE0223A0226946EC20FCF703F89DF87D
:104FF00001009DF8001040EA01206B49088002235F
:10500000A2226946EC20FBF7F5FF9DF801009DF810
:10501000001040EA0120644948800223A422694626
:10502000EC20FBF7E7FF9DF801009DF8001040EA37
:1050300001205D4988800223A6226946EC20FBF707
:10504000D9FF9DF801009DF8001040EA0120564963
:10505000C8800223A8226946EC20FBF7CBFF9DF80D
:1050600001009DF8001040EA01204F490881022309
:10507000AA226946EC20FBF7BDFF9DF801009DF8D0
:10508000001040EA0120484948810223AC226946C9
:10509000EC20FBF7AFFF9DF801009DF8001040EAFF
:1050A000012041498881FFF77BFF3D490868FFF7F0
:1050B00074FF08BD10B500224821EC20FBF70FFF5C
:1050C00010BD10B5032300222E49EC20FBF792FF00
:1050D0002C48007800042B49497840EA01202949EE
:1050E000897808432549086000225821EC20FBF705
:1050F000F6FE10BD10B5032300222249EC20FBF779
:1051000079FF2048007800041E49497840EA0120D0
:105110001C49897808431C490860FFF78AFDFFF79E
:105120001CFF1F494860FFF722FF04461C48C16866
:10513000204600F02BFE1A4908601548FFF7FEFED6
:105140001749886010BD2DE9F04F9FB017480068DF
:1051500014286EDB13480068012804D0022827D0E9
:1051600003285ED12DE0FFF7A5FF02200D4908605E
:1051700000200E4908605BE0F0000020E8000020FD
:10518000F4000020FC000020EC0000200000204182
:105190000000C84200DAC547394547729D18C34030
:1051A000D8000020F80000206412002074000020C5
:1051B000FFF787FF0320514908600020504908602D
:1051C00036E0FFF797FF01204C49086000204C496A
:1051D00008604C49C86800F082FF04460D46494902
:1051E000886800F07CFF06460F464649086800F0D4
:1051F00076FF804689464349486800F070FF824642
:1052000052460B4640A106A8CDE90089CDE90267C8
:10521000CDE9044501F09CF906A94548FBF7ADFF2F
:1052200006E001203549086000203549086000BFCC
:1052300000BF1FB0BDE8F08F70B59CB005460E46AC
:105240003CA103A801F084F903A93948FBF795FFB5
:105250002C4801683E48006800F070FF1AD02948C9
:1052600000683B4908602748806826494968CDE9BD
:10527000001024482A4697210368012000F00DF809
:1052800029463046FFF765FC044622463146284849
:10529000FBF75BFF20461CB070BD2DE9F04F87B0D7
:1052A00005460E4614469B46CDF810B01098059062
:1052B0001198069004A807C8C4E905122061207A55
:1052C00000F51740A0604FF00C08C2464FF05C0993
:1052D000002700BF07EB47001E4901EBC000039009
:1052E000CDE901A9CDF80080324629462046039B2E
:1052F000FFF767FB00BF07B0BDE8F08FF8000020A4
:1053000074000020D800002074656D703D25662C67
:1053100064657074683D25662C7072657373757270
:10532000653D25662C6F66667365743D25660A00CB
:105330000038014073656E64696E67206D61766C3C
:10534000696E6B206D6573736167650A000000000C
:10535000000100207412002002460B7883EA02004C
:1053600080EA0013D8B20B881B1283EA002383EA79
:10537000C00383EA20130B8070472DE9F34FC1B0BF
:105380008268C4680569D0F814C08369C669076A71
:10539000D0F82480CDF80081002106E0DDF80881F6
:1053A00058F821804DF82180491C1029F6DB102186
:1053B0004DE0A1F102085DF828804FEA5849A1F1BB
:1053C00002085DF8288049EAC838A1F102095DF8B1
:1053D00029904FEAD94AA1F102095DF829904AEAD9
:1053E000493988EA0908A1F102095DF8299088EA9B
:1053F0009929A1F107085DF82880C844A1F10F0997
:105400005DF829904FEAD91AA1F10F091DF82990EA
:105410004AEA4969A1F10F0A5DF82AA04FEA9A4BBE
:10542000A1F10F0A5DF82AA04BEA8A3A89EA0A0933
:10543000A1F10F0A5DF82AA089EADA09C144A1F1B5
:1054400010085DF82880C8444DF82180491C402987
:10545000AFDB002149E04FEA931A4AEA836A4FEA38
:10546000D32B4BEA435B8AEA0B0A4FEA536B4BEAB6
:10547000C31B8AEA0B0ADDF800B1D34403EA060A2B
:1054800027EA030E8AEA0E0ADA44DFF840B65BF830
:1054900021B0DA445DF821B00AEB0B084FEA920A1A
:1054A0004AEA827B4FEA523A4AEAC24A8BEA0A0B3C
:1054B0004FEA925A4AEA822A8BEA0A0B02EA040A63
:1054C00002EA050E8AEA0E0A04EA050E8AEA0E0AC4
:1054D0000BEB0A09409737461E460CEB0803AC4617
:1054E0002546144608EB0902491C4029B3DBD0F8D5
:1054F00008809044C0F80880D0F80C8008EB0409BC
:10550000C0F80C90D0F8108008EB0509C0F8109096
:10551000D0F8148008EB0C09C0F81490D0F818806B
:1055200008EB0309C0F81890D0F81C8008EB0609B6
:10553000C0F81C90D0F8208008EB0709C0F8209034
:10554000D0F82490DDF80081C144C0F8249043B025
:10555000BDE8F08F2DE9F04F91B00446894615461D
:10556000CA46D4F800B0206800EBC500206020686F
:10557000584502D26068401C6060CBF3C50630E03D
:10558000C6F14007BD4200D22F4604F12801881918
:105590003A46514600F077FB3E44BA44ED1B402E9C
:1055A0001ED104F1280000904FF000080FE0009A8F
:1055B00002EB880001AA02EB8801C2780A708278A7
:1055C0004A7042788A700278CA7008F10108B8F10E
:1055D000100FECDB01A92046FFF7CFFE002600BF2D
:1055E00000BF002DCCD111B0BDE8F08F2DE9F04106
:1055F00092B004460E462088C0F3C508C8F1770073
:1056000000F03F00451C04F1080780208DF80000E1
:1056100047210DF1010000F04FFB2178E81D0DF846
:1056200000102088C0F30721A81D0DF80010206885
:10563000C0F30741681D0DF800102068000E291DF9
:105640000DF801002179E81C0DF80010A088C0F3C6
:105650000721A81C0DF800106068C0F30741681C02
:105660000DF800106068000E0DF8050005F1080245
:1056700069462046FFF76EFFF8783070B878707092
:105680007878B0703878F070F8793071B8797071D6
:1056900012B0BDE8F0812DE9F0479CB004460D46FC
:1056A00016461F46DDE9259ADDF890801CB120786A
:1056B00000F0010018B900201CB0BDE8F087607848
:1056C0002870D4E90201CDE900010098C5F8010075
:1056D000BDF80400A5F80500D4E90220521C40F1F1
:1056E0000000C4E9022002A8002101604160F849DD
:1056F0008160F84AC260F84A0261F84A4261F84A99
:105700008261F84AC261F84A0262F84A426200BF06
:10571000202204F11001FFF71DFF3A46314602A88E
:10572000FFF718FF4A46414602A8FFF713FF02227F
:10573000514602A8FFF70EFF0722294602A8FFF7ED
:1057400009FFE91D02A8FFF751FF0D20B4E702464B
:1057500001E0481EC1B2012903DD481E105C00288B
:10576000F7D0084670472DE9FF4F87B004461D4625
:10577000287BC0F3400646B9286930B12869007813
:1057800000F0010008B1012000E000208146B9F1DD
:10579000000F01D00D2000E0002006900A271EB166
:1057A000FE20A070062701E0FD20A0700EB1149825
:1057B00004E004F110001599FFF7C9FFE0700898A4
:1057C000E0710998207200202071B9F1000F03D018
:1057D000207940F00100207100206071A879A0714B
:1057E000A879401CA871A0788DF80C00E0788DF89D
:1057F0000D006EB1A0798DF80E00E0798DF80F00E4
:10580000207A8DF810002089000A8DF811001AE026
:1058100020798DF80E0060798DF80F00A0798DF851
:105820001000E0798DF81100207A8DF8120020899F
:10583000000A8DF81300A068000C8DF81400A06811
:10584000000E8DF815000DF10D08781E1FFA80FA74
:1058500000BF4FF6FF70029000BF04E018F8010B84
:1058600002A9FFF779FD5FEA0A00AAF101011FFA18
:1058700081FAF3D1BDF808002080A04604F1100A97
:10588000E0780290D34604E01BF8010B4146FFF795
:1058900063FD0298411E89B202910028F4D100BF35
:1058A00021461698FFF758FD2178E27804F11000A0
:1058B000815420880212E078401C04F110010A543F
:1058C000B9F1000F0FD0E17804F11000084404F1A1
:1058D0001002CDE9002102903B4603AA04F58D7128
:1058E0002869FFF7D8FEE0783844801C0699084400
:1058F0000BB0BDE8F08F2DE9F04705460C46E67881
:10590000A078FE281AD14FF000090527A07828704A
:105910006E70A079A870E079E870207A28712089EB
:10592000000A6871E27804F11001A81D00F0ABF9DB
:10593000E819401CE17800EB01082FE0314604F142
:105940001000FFF704FF06460927A07828706E7044
:105950002079A8706079E870A0792871E079687181
:10596000207AA8712089000AE871A068000C2872CA
:10597000A068000E6872324604F1100105F10A00B9
:1059800000F081F9E819401C00EB0608207900F0CE
:10599000010008B10D2000E000208146207888F841
:1059A00000002088001288F80100B9F1000F06DD20
:1059B0004A4604F58D7108F1020000F064F9F81C04
:1059C00030444844BDE8F0872DE9F04F91B00546DA
:1059D0000E4614469B46CDF814B01A9806901B98B4
:1059E00007901C9808901D9809901E980A901F987F
:1059F0000B9020980C9021980D9022980E9023984F
:105A00000F9024981090302205A904F1100000F0A6
:105A10003AF9207A00F51840A0603027B8464FF0D8
:105A2000F1094FF0000A504600EB4001304A02EB0A
:105A3000C10104918DE88003324629462046049B2B
:105A4000FFF791FE00BF11B0BDE8F08F2DE9F047E0
:105A50008246284801780078401C264A1070264863
:105A600000F801A00078552804D0002011460870E5
:105A7000BDE8F0871F4800780B2800DAF8E71E48D9
:105A80004078512804D0522803D0532800D137E061
:105A90007FE0194800791849497940EA012000B2AD
:105AA00016490880144880791349C97940EA0120D1
:105AB00000B212494880104880780F49C97840EAFE
:105AC000012000B20D49888063E0000008790008D9
:105AD00067E6096A85AE67BB72F36E3C3AF54FA57F
