:020000040800F2
:1000000080060020450100080D0400080F040008C8
:1000100013040008170400081B0400080000000077
:100020000000000000000000000000001F040008A5
:100030002104000800000000230400082504000833
:100040005F0100085F0100085F0100085F01000810
:100050005F0100085F0100085F0100085F01000800
:100060005F0100085F0100085F0100085F010008F0
:100070005F0100085F0100085F0100085F010008E0
:100080005F0100085F0100085F0100085F010008D0
:100090005F0100085F0100085F0100085F010008C0
:1000A0005F0100085F0100085F0100085F010008B0
:1000B0005F0100085F0100085F0100085F010008A0
:1000C0005F0100085F0100085F0100085F01000890
:1000D0005F0100082D0400085F0100084D040008BE
:1000E0005F0100085F0100085F0100085F01000870
:1000F0005F0100085F0100085F0100085F01000860
:100100005F0100085F0100085F0100085F0100084F
:100110005F0100085F0100085F0100085F0100083F
:100120005F0100085F0100085F0100085F0100082F
:10013000DFF80CD003F0CEFB00480047690100084F
:10014000800600200648804706480047FEE7FEE795
:10015000FEE7FEE7FEE7FEE7FEE7FEE7FEE7FEE777
:10016000D70E000831010008A0B000F0B1FB00F08C
:10017000B3F900F081FC00F06BFD00F0FFFD00F032
:1001800007FE07E07AA107A803F0E8FB07A97E486D
:1001900000F009FC02F010FE0028F3D07BA107A8B4
:1001A00003F0DCFB07A9784800F0FDFB02F054FEE9
:1001B00002F072FCDBE002F024FF7949C86803F02A
:1001C00036F904460D467649886803F030F906464C
:1001D0000F467349086803F02AF98046894670493A
:1001E000486803F024F9824652460B466DA107A8E1
:1001F000CDE90089CDE90267CDE9044503F0AEFB06
:1002000007A9614800F0CFFB6549C86803F00FF902
:1002100082468B466249886803F009F904460D4618
:100220005F49086803F003F906460F465C494868D1
:1002300003F0FDF8804642460B465AA107A8CDE9D7
:1002400004ABCDE90067CDE9024503F087FB07A9C0
:100250004D4800F0A8FB5D49B1F9040003F0DEF859
:100260004FF08E41069003F02CF88346584902F077
:10027000F6FF824603F0DBF804460D465349B1F918
:10028000020003F0CBF84FF08E41069003F019F80E
:1002900083464F4902F0E3FF824603F0C8F8064662
:1002A0000F464A49B1F9000003F0B8F84FF08E410B
:1002B000069003F006F88346454902F0D0FF8246D7
:1002C00003F0B5F8804642460B4642A107A8CDE9A7
:1002D0000067CDE9024503F041FB07A92A4800F079
:1002E00062FB4249B1F9040003F098F84FF08E41E7
:1002F000069002F0E6FF83463D4902F0B0FF8246D9
:1003000003F095F8804689463849B1F9020003F0B8
:1003100085F84FF08E41069002F0D3FF83463449B2
:1003200002F09DFF824603F082F804460D462F49F5
:10033000B1F9000003F072F84FF08E41069002F020
:10034000C0FF83462A4902F08AFF824603F06FF815
:10035000064632460B4627A107A88DE8300303F076
:10036000FDFA07A9084800F01EFB02F06BFB22E72C
:100370004D533538333720646973636F6E6E656330
:100380007465640A00000000003801404D533538A0
:10039000333720636F6E6E65637465640A00000016
:1003A0003800002074656D703D25662C646570749E
:1003B000683D25662C70726573737572653D2566A0
:1003C0002C6F66667365743D25660A006000002028
:1003D0000000FA444779726F3A252E336620252EA5
:1003E000336620252E33660D0A00000068000020C9
:1003F00000003443416E676C653A252E3366202534
:100400002E336620252E33660D0A0000704700BF8C
:10041000FEE700BFFEE700BFFEE700BFFEE7704754
:100420007047704710B502F0D7FA10BD10B540F212
:100430002551244802F08CFA38B1224802F008FA1B
:10044000C4B221461F4802F0FFF910BD10B540F2BA
:1004500027711D4802F07CFAE0B11C480278007850
:10046000401C1A4B18701A48815C174802F0ECF9CE
:100470001648007817490978884205D1002240F2D1
:100480002771114802F07FF940F227710E4802F0FF
:1004900089FA10E040F225510B4802F059FA50B1A8
:1004A0000949091D0988C8B202F0EEFD40F2255144
:1004B000054802F077FA4FF45871034802F072FAD7
:1004C00010BD00000038014000480040000000203E
:1004D000740000200100002008B50121082001F06F
:1004E00005F9C020ADF8000003208DF802001420AB
:1004F0008DF803006946EB4800F03CFE08BD01465C
:1005000041F2883201FB02F000E0401E0028FCD1DD
:100510007047052001E0411EC8B20028FBD170479A
:1005200000B54020DF4914310860FFF7F2FF80205A
:10053000DC4914310860FFF7ECFF4020D949103145
:100540000860FFF7E6FF4020D64914310860FFF746
:10055000E0FF00BD00B54020D24914310860FFF72C
:10056000D8FF8020CF4910310860FFF7D2FF40202C
:10057000CC4910310860FFF7CCFF4020C949143145
:100580000860FFF7C6FF00BD00B58020C5491031E7
:10059000086040200860FFF7BCFFC24808300068D0
:1005A00008B9012000E0002000F0800008B1002020
:1005B00000BD8020BB4914310860FFF7AAFFB9488D
:1005C0000830006800F0800008B10020F0E78020CB
:1005D000B44914310860FFF79CFF0120E8E700B53B
:1005E0004020B04914310860FFF793FF8020AD49E7
:1005F00014310860FFF78DFF4020AA4910310860D0
:10060000FFF787FF8020A74910310860FFF781FFBF
:1006100000BD00B54020A34914310860FFF779FF01
:100620008020A04910310860FFF773FF40209D49EA
:1006300010310860FFF76DFF9A480830006800F03D
:10064000800038B14020974914310860FFF761FFFE
:10065000002000BD4020934914310860FFF759FF86
:100660000120F6E700B5024608231BE040208D4933
:1006700014310860FFF74DFF02F0800020B18020A8
:1006800088491031086003E08020864914310860F1
:100690005006020EFFF73DFF4020824910310860EE
:1006A000FFF737FF1800A3F10101CBB2DED14020E4
:1006B0007C491431086000BD00B508230022802069
:1006C00078491031086015E05006020E4020754947
:1006D00014310860FFF71DFF402072491031086097
:1006E000FFF717FF6F480830006800F0800008B17E
:1006F00042F001021800A3F10101CBB2E4D1402085
:10070000684914310860104600BD70B504460D46B6
:100710001646FFF739FF08B9002070BD2046FFF7E5
:10072000A1FFFFF776FF18B9FFF759FF0020F4E7A4
:100730002846FFF797FFFFF76CFF3046FFF792FF61
:10074000FFF767FFFFF74BFF0120FFF7D8FE0120FF
:10075000E3E770B504460D46FFF716FF08B9002021
:1007600070BD2046FFF77EFFFFF753FF18B9FFF774
:1007700036FF0020F4E72846FFF774FFFFF749FF34
:1007800018B9FFF72CFF0020EAE7FFF7FDFE44F061
:100790000100FFF767FFFFF73CFF18B9FFF71FFFE6
:1007A0000020DDE7FFF788FF0646FFF7D3FEFFF7DF
:1007B00016FF3046D4E730B50446FFF7E5FE08B92A
:1007C000002030BD2046FFF74DFFFFF722FF054612
:1007D000FFF705FF2846F4E7F0B505460E46174635
:1007E000FFF7D2FE2846FFF73DFFFFF712FF18B9CB
:1007F000FFF7F5FE0020F0BD00240BE0305DFFF7B1
:1008000031FFFFF706FF18B9FFF7E9FE0020F2E716
:10081000601CC4B2BC42F1DBFFF7E1FE0120EAE755
:10082000F0B504460E4617461D46FFF7ADFE08B963
:100830000020F0BD2046FFF715FFFFF7EAFE18B9CC
:10084000FFF7CDFE0020F4E73846FFF70BFFFFF778
:10085000E0FE18B9FFF7C3FE0020EAE7FFF794FEB9
:1008600044F00100FFF7FEFEFFF7D3FE18B9FFF7D3
:10087000B6FE0020DDE70EE0FFF71EFF3070761CAD
:10088000012D02DDFFF74CFE03E0FFF763FEFFF7EB
:10089000A6FE681E85B2002DEED1FFF7A0FE012056
:1008A000C7E70000000C014008B54FF4A06000F05D
:1008B00093FB25208DF8000003208DF801008DF8B2
:1008C000020001208DF80300684600F08AFB08BD95
:1008D00000B585B00121042000F008FF0121880344
:1008E00000F004FF4FF40070ADF8100018208DF8F0
:1008F000130003208DF8120004A9534800F03AFCBD
:100900004FF48060ADF8100004208DF8130004A9A6
:100910004D4800F02FFC4FF4E13000900020ADF87E
:100920000400ADF80600ADF80800ADF80C000C208E
:10093000ADF80A006946454801F08DFEFFF7B4FFA7
:10094000012240F22551414801F01DFF01213F489D
:1009500001F00DFF05B000BD70B504460D462946F7
:10096000204601F071FF00BF8021204601F0DAFF30
:100970000028F9D070BD2DE9F04107460D46164616
:10098000002405E0295D3846FFF7E6FF601CC4B28D
:10099000B442F7DB00BF4021384601F0C3FF002816
:1009A000F9D0BDE8F08170B506460C46002500BFC1
:1009B000615D3046FFF7D0FF6D1C605D0028F7D108
:1009C00000BF4021304601F0ADFF0028F9D070BDD6
:1009D0002DE9F04105460C46260AE7B23146284685
:1009E00001F032FF00BF8021284601F09BFF002864
:1009F000F9D03946284601F027FF00BF802128465C
:100A000001F090FF0028F9D0BDE8F08170B50446F0
:100A10000D46E1B20D4801F017FF00BF80210B48E1
:100A200001F080FF0028F9D0204670BD10B50446C3
:100A300000BF2021054801F075FF0028F9D00348C8
:100A400001F006FF10BD0000000801400038014021
:100A500008B54FF4A06000F0BFFA27208DF8000021
:100A600003208DF8010001208DF802008DF80300AD
:100A7000684600F0B6FA08BD00B585B00121102027
:100A800000F034FE0121880400F03DFE01210846FB
:100A900000F02CFE01211E4800F03DFC4FF4806068
:100AA000ADF8100018208DF8130003208DF8120007
:100AB00004A9184800F05EFB4FF40060ADF8100088
:100AC00004208DF8130004A9124800F053FB4FF4E2
:100AD000165000900020ADF80400ADF80600ADF807
:100AE0000800ADF80C000C20ADF80A0069460A4871
:100AF00001F0B1FDFFF7ACFF012240F2255106489D
:100B000001F041FE0121044801F031FE05B000BDB5
:100B100010001400001001400048004008B50121F9
:100B2000042000F0E3FD4020ADF8000018208DF80F
:100B3000030003208DF802006946484800F01AFBC4
:100B40000121042000F0D2FD8020ADF80000182023
:100B50008DF8030003208DF8020069463F4800F03D
:100B600009FB0121082000F0C1FD0120ADF80000C3
:100B700018208DF8030003208DF8020069463848DC
:100B800000F0F8FA0121082000F0B0FD0220ADF8D5
:100B9000000018208DF8030003208DF8020069463C
:100BA0002F4800F0E7FA08BDF0B587B096249625E7
:100BB000962696270121022000F0A5FD40F2CF7075
:100BC000ADF8140040F2CF20ADF810000020ADF8D1
:100BD0001600ADF812008DF8180004A9214800F0A5
:100BE000BDFE6020ADF800000120ADF8020000203D
:100BF000ADF80800ADF8064069461A4800F0EBFE73
:100C00000821184801F036FBADF806506946154832
:100C100000F023FF0821134801F035FBADF8066012
:100C20006946104800F066FF08210E4801F038FBC5
:100C3000ADF8067069460B4800F0A7FF0821094887
:100C400001F037FB0121074801F0E4F907B0F0BDDE
:100C500010B5FFF763FFFFF7A7FF10BD00080140C5
:100C6000000C01400004004008B50121102000F0F4
:100C70003DFD0121042000F039FD18208DF803000E
:100C80004020ADF8000003208DF8020069463E4880
:100C900000F070FA8020ADF8000069463A4800F094
:100CA00069FA4FF48070ADF800006946364800F0EC
:100CB00061FA4FF40070ADF800006946324800F068
:100CC00059FA08BD00B587B00121480300F00EFDB8
:100CD00040F2CF70ADF8140040F2CF20ADF8100014
:100CE0000020ADF81600ADF812008DF8180004A928
:100CF000264800F033FE6020ADF800000120ADF87A
:100D000002000020ADF808004FF48070ADF80C0030
:100D10009620ADF8060069461C4800F05CFE0821EC
:100D20001A4801F0A7FA9620ADF806006946174860
:100D300000F093FE0821154801F0A5FA9620ADF8C1
:100D400006006946114800F0D5FE08210F4801F061
:100D5000A7FA9620ADF8060069460C4800F015FF8A
:100D600008210A4801F0A5FA0121084801F052F9CA
:100D70000121064801F05AF907B000BD10B5FFF790
:100D800073FFFFF79FFF10BD0010014000340140CA
:100D900030B5164800684FF47A72B0FBF2F1B1F149
:100DA000807F01D301201DE021F07F40401E4FF0E5
:100DB000E022506150170D22002807DA13071D0E9C
:100DC0000B4B00F00F04241F1D5503E013071C0EEE
:100DD000084B1C5400BF00204FF0E0229061072018
:100DE0001061002008B100BFFEE730BD0400002004
:100DF00018ED00E000E400E00CB500200190009048
:100E00006C48006840F480306A49086000BF694857
:100E1000006800F4003000900198401C0190009898
:100E200018B90198B0F5A06FF1D16248006800F4DC
:100E3000003010B10120009001E0002000900098E7
:100E4000012843D15C48006840F010005A4908600E
:100E50000846006820F0030008600846006840F07B
:100E6000020008605348406852494860084640689C
:100E700048600846406840F4806048600846406822
:100E800020F47C1048600846406840F4E810486050
:100E90000846006840F08070086000BF4548006860
:100EA00000F000700028F9D04248406820F00300AC
:100EB000404948600846406840F00200486000BF72
:100EC0003C48406800F00C000828F9D10CBD10B572
:100ED000FFF792FF10BD10B53648006840F00100E2
:100EE0003449086008464068344908403149486040
:100EF00008460068324908402E49086008460068E4
:100F000020F4802008600846406820F4FE00486015
:100F10004FF41F008860FFF7DAFF4FF000602949A7
:100F2000086010BD10B5002100200022214B5B6835
:100F300003F00C0121B1042906D0082928D107E0CB
:100F4000214B224C236027E01F4B204C236023E0E1
:100F5000184B5B6803F47010164B5B6803F4803227
:100F6000022303EB904022B9194B4343174C2360F3
:100F70000DE0104B5B6803F4003323B1144B434383
:100F8000124C236003E0104B4343104C236003E0FA
:100F90000D4B0E4C236000BF00BF064B5B68C3F3D4
:100FA00003130C4CE15C094B1B68CB40074C2360DE
:100FB00010BD000000100240002002400000FFF8B9
:100FC000FFFFF6FE08ED00E000127A0004000020AA
:100FD00000093D000800002031490143314A1160F9
:100FE000704770B5002100230F22C47804B32D4C44
:100FF000246804F4E064C4F5E064210AC1F1040348
:10100000CA40447804FA03F184781440214309016A
:10101000254C0678A155047804F01F050124AC4046
:1010200005786D11AD0005F1E025C5F8004109E036
:10103000047804F01F050124AC401C4D067876119D
:1010400045F8264070BD1A4A0A400243154B1B1F43
:101050001A60704739B1134A121D12680243114BCE
:101060001B1D1A6006E00F4A121D126882430D4BC9
:101070001B1D1A607047042808D14FF0E021096950
:1010800041F004014FF0E022116107E04FF0E02150
:10109000096921F004014FF0E0221161704700005E
:1010A0000000FA050CED00E000E400E080E100E063
:1010B00080FFFF1F10B50446CC48844208D10121AF
:1010C000042000F02DFB0021042000F029FB46E065
:1010D000C748844208D10121082000F021FB0021EB
:1010E000082000F01DFB3AE0C248844208D10121EB
:1010F000102000F015FB0021102000F011FB2EE065
:10110000BD48844208D10121202000F009FB0021C4
:10111000202000F005FB22E0B848844208D10121DC
:10112000402000F0FDFA0021402000F0F9FA16E01E
:10113000B348844208D10121802000F0F1FA002157
:10114000802000F0EDFA0AE0AE48844207D1012188
:10115000801500F0E5FA0021A01500F0E1FA10BDBD
:1011600010B50121084600F0DBFA0021012000F053
:10117000D7FA10BD2DE9F0410246002500260020D7
:1011800000230024002791F803C00CF00F0591F80C
:1011900003C00CF0100CBCF1000F03D091F802C09A
:1011A0004CEA050591F800C0BCF1000F31D014687D
:1011B00000202BE04FF0010C0CFA00F3B1F800C056
:1011C0000CEA03069E4220D183004FF00F0C0CFA6C
:1011D00003F7BC4305FA03FC4CEA040491F803C08E
:1011E000BCF1280F06D14FF0010C0CFA00FCC2F83C
:1011F00014C00AE091F803C0BCF1480F05D14FF0CC
:10120000010C0CFA00FCC2F810C0401C0828D1D315
:101210001460B1F800C0BCF1FF0F34DD5468002049
:101220002EE000F1080C4FF0010808FA0CF3B1F8B9
:1012300000C00CEA03069E4221D183004FF00F0C40
:101240000CFA03F7BC4305FA03FC4CEA040491F8DA
:1012500003C0BCF1280F05D100F1080C08FA0CF806
:10126000C2F8148091F803C0BCF1480F07D100F117
:10127000080C4FF0010808FA0CF8C2F81080401C66
:101280000828CED35460BDE8F0814FF6FF7101808D
:10129000022181700421C1707047024600209368CA
:1012A0000B400BB1012000E0002070470146886828
:1012B00080B2704702460020D3680B400BB101207A
:1012C00000E0002070470146C86880B270470161A5
:1012D0007047416170470AB1016100E041617047A8
:1012E000C16070474FF480320A438261816182613C
:1012F00082698269704702460020434B18684FF6A6
:101300008073184040EA021008433F4B1860704752
:101310003E49C8617047F0B50A4600230024002109
:10132000002500F00046B6F1004F02D1364EF169BB
:1013300001E0354E7168C0F3034583B200F44016F6
:10134000B6F5401F08D121F070612F4E766826F067
:1013500070662D4F7E6012E000F48016B6F5801F97
:1013600006D1032606FA05F4A14341F0706106E0B8
:10137000460D360103FA06F6B14341F0706122B121
:10138000460D360103FA06F6314300F00046B6F189
:10139000004F02D11C4EF16101E01B4E7160F0BDA7
:1013A00030B500228B071C0F0F2303FA04F2164BF3
:1013B00008338C1053F824309343134C08348D10A9
:1013C00044F8253023468C1053F824308C07240F22
:1013D00000FA04F423430C4C08348D1044F82530F3
:1013E00030BD0A49DC310860704700000008014048
:1013F000000C0140001001400014014000180140A1
:10140000001C01400020014000000140000020427B
:10141000DF48006840F00100DD4908600846406888
:10142000DC490840DA49486008460068DA49084063
:10143000D74908600846006820F480200860084604
:10144000406820F4FE0048604FF41F008860704739
:10145000CF49096821F48031CD4A116011460968ED
:1014600021F480211160B0F5803F03D0B0F5802FCA
:101470000ED106E0C649096841F48031C44A1160C2
:1014800007E0C349096841F4A021C14A116000E0A6
:1014900000BF00BF704710B50146002200230020A6
:1014A0004A11012A02D1BA4C236806E0022A02D16D
:1014B000B74C236A01E0B64C636A01F01F020124B5
:1014C00094401C400CB1012000E0002010BD38B554
:1014D000002000900024002500BF3120FFF7DBFF33
:1014E00005460098401C00900098B0F5A06F01D010
:1014F000002DF2D03120FFF7CEFF08B1012400E02B
:101500000024204638BD01460020A14A106820F082
:10151000F80040EAC10010607047A04908607047B9
:10152000024600209A4B586820F47C1042EA0103DE
:101530001843974B586070479849086670470146B2
:101540000020934A506820F0030008435060704721
:101550008F48406800F00C007047014600208C4A1C
:10156000506820F0F00008435060704701460020AA
:10157000874A506820F4E060084350607047014695
:101580000020834A506820F4605040EAC100506057
:10159000704729B17E4A527A02437D4B5A7204E069
:1015A0007B4A527A82437A4B5A7270477B49D831D0
:1015B0000860704701460020754A506820F440409A
:1015C0000843506070470021714A20321170704A00
:1015D00082F82010012802D004280AD104E0012159
:1015E0006B4A2032117005E00521694A20321170E2
:1015F00000E000BF00BF7047694908607047644958
:10160000096A0143624A11627047654944390860BA
:10161000704730B500210022002400235C4D6D6826
:1016200005F00C0121B1042905D0082923D105E0DA
:101630005C4D056022E05B4D05601FE0544D6D6818
:1016400005F47012524D6D6805F48034022505EBE7
:1016500092421CB9544D554305600BE04C4D6D68EA
:1016600005F400351DB1504D5543056002E04D4D68
:101670005543056002E04B4D056000BF00BF444D7F
:101680006D6805F0F0010909484D6B5C0568DD40A7
:1016900045603F4D6D6805F4E061090A434D6B5CA0
:1016A0004568DD4085603A4D6D6805F46051C90AB2
:1016B0003E4D6B5C4568DD40C560354D6D6805F499
:1016C0004041890B3A4D6B5CC568B5FBF3F505618C
:1016D00030BD29B12E4A526902432D4B5A6104E0B4
:1016E0002B4A526982432A4B5A61704729B1284AD2
:1016F00092690243264B9A6104E0254A926982432B
:10170000234B9A61704729B1214AD2690243204B89
:10171000DA6104E01E4AD26982431D4BDA617047E8
:1017200029B11B4AD2680243194BDA6004E0184A17
:10173000D2688243164BDA60704729B1144A1269A5
:101740000243134B1A6104E0114A12698243104BA1
:101750001A61704712494039086070470F49C864E0
:1017600070470B49C87170470948406A40F0807063
:1017700007494862704701460020054A92680A40BE
:101780000AB1012000E000207047014988727047CB
:10179000001002400000FFF8FFFFF6FE000042428A
:1017A0008004424200127A0000093D001800002027
:1017B0002800002010B50446FE48844208D10121CB
:1017C000C014FFF7ADFF0021E014FFF7A9FFC4E04C
:1017D000B4F1804F08D101210846FFF7AEFF002188
:1017E0000120FFF7AAFFB8E0F348844208D10121A5
:1017F0000220FFF7A2FF00210220FFF79EFFACE0CE
:10180000EE48844208D101210420FFF796FF002111
:101810000420FFF792FFA0E0E948844208D10121AB
:101820000820FFF78AFF00210820FFF786FF94E0D9
:10183000E448844208D101211020FFF77EFF0021F7
:101840001020FFF77AFF88E0DF48844208D10121A9
:101850002020FFF772FF00212020FFF76EFF7CE0C1
:10186000DA48844208D101214014FFF759FF0021D2
:101870006014FFF755FF70E0D548844209D101217B
:10188000C804FFF74DFF00214FF40020FFF748FF89
:1018900063E0D048844209D101210805FFF740FFE9
:1018A00000214FF48010FFF73BFF56E0CA48844206
:1018B00009D101214805FFF733FF00214FF4001043
:1018C000FFF72EFF49E0C548844208D1012140209E
:1018D000FFF733FF00214020FFF72FFF3DE0C04816
:1018E000844208D101218020FFF727FF00218020BA
:1018F000FFF723FF31E0BB48844208D10121801566
:10190000FFF71BFF0021A015FFF717FF25E0B648E2
:10191000844209D101210804FFF702FF00214FF49E
:101920008030FFF7FDFE18E0B048844209D1012164
:101930004804FFF7F5FE00214FF40030FFF7F0FEFA
:101940000BE0AB48844208D101218804FFF7E8FE90
:1019500000214FF48020FFF7E3FE10BD0022028833
:10196000944B98420ED0994B98420BD0B0F1804FD7
:1019700008D0914B984205D0904B984202D0904BA2
:10198000984204D14FF68F731A404B881A438D4BFF
:10199000984207D08C4B984204D04FF6FF431A4030
:1019A000CB881A4302808B8883850B880385814B03
:1019B00098420BD0854B984208D08B4B984205D06B
:1019C0008A4B984202D08A4B984201D10B7A038607
:1019D00001238382704770B5002400220023058C08
:1019E0004FF6FE7635400584028C8388048B4FF6D3
:1019F0008F752C40B51E2C400D882C43751E2A4037
:101A00000D892A434D882A436A4DA8420BD06F4D59
:101A1000A84208D0744DA84205D0744DA84202D007
:101A2000734DA84213D14FF6F7752A404D892A43CA
:101A30004FF6FB752A408D882A434FF6FF652B40F1
:101A40004FF6FF552B408D892B43CD892B43838047
:101A50000483CD888586028470BD70B50024002281
:101A60000023058C4FF6EF7635400584028C838881
:101A7000048B48F6FF752C404FF6FF452C400D882F
:101A80004FF6FF7606EA05252C434FF6DF752A4010
:101A90000D8906EA05152A434D8806EA05152A43ED
:101AA000444DA84202D0494DA8421DD14FF67F7542
:101AB0002A404D894FF6FF7606EA05152A434FF670
:101AC000BF752A408D8806EA05152A434FF6FF3573
:101AD0002B404FF2FF752B408D8906EA85052B437D
:101AE000CD8906EA85052B4383800483CD8805874D
:101AF000028470BD70B5002400220023058C4FF6CF
:101B0000FF6635400584028C8388848B4FF68F7581
:101B10002C404FF6FC752C400D882C434FF6FF559A
:101B20002A400D894FF6FF7606EA05252A434D889F
:101B300006EA05252A431F4DA84202D0234DA8429C
:101B40001DD14FF2FF752A404D894FF6FF7606EA08
:101B500005252A434FF6FF352A408D8806EA0525DC
:101B60002A434EF6FF752B404DF6FF752B408D89AD
:101B700006EA05152B43CD8906EA05152B4383801C
:101B80008483CD888587028470BD70B500220023D0
:101B90000024058C4EF6FF7635400584038C84883E
:101BA000828B48F6FF752A404FF6FF452A400D8884
:101BB00020E00000002C014000040040000800402C
:101BC000000C0040001000400014004000340140B0
:101BD000004C0140005001400054014000180040FA
:101BE000001C004000200040004001400044014033
:101BF000004801404FF6FF7606EA05252A434DF6D8
:101C0000FF752B400D8906EA05352B434D8806EA02
:101C100005352B43FA4DA84202D0FA4DA84208D10F
:101C20004BF6FF752C408D894FF6FF7606EA851539
:101C30002C4384808283CD88A0F84050038470BDFB
:101C4000828B4FF2FF331A408283828B4FF6FF73F1
:101C500003EA01231A4382837047F0B50C46154608
:101C6000002200210026078C4EF6FF7C07EA0C07B5
:101C70000784828B018C4FF6FF7707EA043640F623
:101C8000FF473A404FF6FF7707EA05273A434FF6FA
:101C9000FF7707EA03373A43D94FB8420ED0D94FFE
:101CA000B8420BD0B0F1804F08D0D74FB84205D022
:101CB000D64FB84202D0D64FB84206D14DF6FF7784
:101CC000394046F48057394305E047F6FF5739401D
:101CD00044F48057394382830184F0BD828B4FF6F0
:101CE000F3731A408283828B0A4382837047F0B574
:101CF0000C461546002200210026078C4FF6FF6C8B
:101D000007EA0C070784828B018C4FF6FF7707EAFE
:101D100004264FF60C773A404FF6FF7707EA031791
:101D20002F433A43B64FB8420ED0B64FB8420BD00D
:101D3000B0F1804F08D0B44FB84205D0B34FB8428D
:101D400002D0B34FB84206D14FF6FF57394046F4A0
:101D50008077394305E04FF2FF57394044F48077EC
:101D6000394382830184F0BD028B4FF2FF331A4066
:101D70000283028B4FF6FF7303EA01231A430283A7
:101D80007047F0B50C461546002200210026078C4E
:101D90004FF6EF7C07EA0C070784028B018C4FF6A5
:101DA000FF7707EA041640F6FF473A404FF6FF7701
:101DB00007EA03373A434FF6FF7707EA05273A4326
:101DC0008F4FB8420ED08F4FB8420BD0B0F1804F3A
:101DD00008D08D4FB84205D08C4FB84202D08C4FFE
:101DE000B84206D14FF6DF77394046F01007394345
:101DF00005E04FF65F77394044F01007394302831E
:101E00000184F0BD028B4FF6F3731A400283028BFC
:101E10000A4302837047F0B50C46154600220021A4
:101E2000068C4FF6FE773E400684028B018C4FF6FF
:101E30000C7632407E1C06EA03162E433243704E67
:101E4000B0420ED06F4EB0420BD0B0F1804F08D0F0
:101E50006D4EB04205D06D4EB04202D06C4EB042D5
:101E600006D14FF6FD76314044F00106314305E0DE
:101E70004FF6F576314044F0010631430283018488
:101E8000F0BD70B505460C465D4885420ED05D48F4
:101E900085420BD0B5F1804F08D05B48854205D014
:101EA0005A48854202D05A48854200D100E000BF1E
:101EB000208850B92389A28861882846FFF7ABFFA4
:101EC000E1882846FFF79EFF25E0208804280AD1F4
:101ED0002389A28861882846FFF753FFE1882846B6
:101EE000FFF742FF17E0208808280AD12389A2883B
:101EF00061882846FFF7FBFEE1882846FFF7EEFEE3
:101F000009E02389A28861882846FFF7A6FEE188B8
:101F10002846FFF795FE70BD2DE9F04105460C46B9
:101F200000260127608808B9022600E00026A08864
:101F3000012801D1022700E001272088A0B92389C8
:101F4000A28861882846FFF766FFE1882846FFF7E8
:101F500059FF23893A4631462846FFF712FFE188A8
:101F60002846FFF701FF13E02389A28861882846ED
:101F7000FFF707FFE1882846FFF7F6FE23893A4678
:101F800031462846FFF747FFE1882846FFF73AFF2A
:101F9000BDE8F0810A884B881A438B881A43CB88A6
:101FA0001A430B891A434B891A438B891A43A0F8A9
:101FB000442070474FF6FF71818000210180C1806D
:101FC0004180017270470021018041808180C18081
:101FD000018141818181C18170470021018041805F
:101FE000012181800021C180018170470021018091
:101FF00041808180C18001814181818170470000E1
:10200000002C014000340140000400400008004062
:10201000000C004021B1028842F00102028004E07D
:1020200002884FF6FE731A400280704731B1B0F853
:10203000442042F40042A0F8442005E0B0F84420D7
:10204000C2F30E02A0F8442070471AB183890B43F3
:10205000838102E083898B4383817047818270474B
:1020600041EA0203A0F8483070471AB183890B4354
:10207000838102E083898B438381704701894FF616
:10208000F8721140018170470A46002101894FF61C
:102090008F73194011430181704730B504460D46D6
:1020A00029462046FFF7F0FF208940F007002081F5
:1020B00030BD2DE9F04104460D4616461F46602D01
:1020C00006D13B46012231462046FFF75AFE05E085
:1020D0003B46012231462046FFF79DFE2946204619
:1020E000FFF7D2FF208940F007002081BDE8F08192
:1020F00030B50C4600210189C9B24FF6FF7505EADB
:102100000325154325432943018130BD2DE9F041C5
:1021100005460E4617469846002443463A46314641
:102120002846FFF7E5FF2C894FF6F870044044F08D
:1021300007044FF68F70044044F070042C81BDE812
:10214000F081F0B504460D4616461F463B46324622
:1021500029462046FFF7CCFF208940F480402081AB
:10216000F0BD0185828270470A46002101884FF642
:102170008F731940114301807047F0B50C46154626
:102180001E460021002200230189028B038C4FF69A
:10219000F877394021434FF6FC473A4040F20117A7
:1021A0003A434FF6DD773B404FF6FF7707EA0617D5
:1021B0002F433B43018102830384F0BD0A46002183
:1021C000018B4FF68F7319401143018370470A4604
:1021D0000021018B48F6FF7319404FF6FF7303EAA5
:1021E00002231943018370470A460021818B4FF671
:1021F0008F7319401143818370470A460021818BF8
:1022000048F6FF7319404FF6FF7303EA02231943A0
:102210008183704721B1028842F08002028004E08D
:1022200002884FF67F731A400280704721B182887E
:1022300042F00402828004E082884FF6FB731A4069
:102240008280704721B1828842F00802828004E0D7
:1022500082884FF6F7731A408280704721B18288D6
:1022600042F00102828004E082884FF6FE731A4039
:10227000828070470A460021018B4FF6F7731940A0
:102280001143018370470A460021018B4FF2FF730F
:1022900019404FF6FF7303EA022319430183704785
:1022A0000A460021818B4FF6F77319401143818351
:1022B00070470A460021818B4FF2FF7319404FF699
:1022C000FF7303EA02231943818370470A46002102
:1022D000018B4FF6FB7319401143018370470A4687
:1022E0000021018B4FF6FF3319404FF6FF7303EACD
:1022F00002231943018370470A460021818B4FF660
:10230000FB7319401143818370470A460021818B7A
:102310004FF6FF3319404FF6FF7303EA02231943C8
:10232000818370470A460021018B4FF67F73194065
:102330001143018370470A460021018BC1F30E014E
:102340004FF6FF7303EA02231943018370470A46DD
:102350000021818B4FF67F731940114381837047B1
:102360000A460021818BC1F30E014FF6FF7303EA89
:1023700002231943818370470A460021018C4FF6DE
:10238000FD7319401143018470470A460021018CF6
:102390004FF6F77319401143018470470A46002134
:1023A000018C4FF6DF7319404FF6FF7303EA0213F7
:1023B0001943018470470A460021018C4FF67F7350
:1023C00019404FF6FF7303EA021319430184704763
:1023D0000A460021018C4FF6FF5319404FF6FF7358
:1023E00003EA02231943018470470A460021018C45
:1023F0004FF2FF7319404FF6FF7303EA02231943AC
:10240000018470470A460021018C4DF6FF73194084
:102410004FF6FF7303EA023319430184704730B566
:10242000002301248C40A3B2048C9C430484048CBC
:1024300002FA01F5ADB22C43048430BD30B500235F
:1024400004248C40A3B2048C9C430484048C02FAC0
:1024500001F5ADB22C43048430BD70B503460020B5
:1024600000241846183001258D40ACB21D8CA543C0
:102470001D8409B1082909D100EB6100056825F028
:10248000700505600568154305600EE00D1FC5F376
:102490004E052844056825F4E045056005684FF6BB
:1024A000FF7606EA02263543056070BD21B1028839
:1024B00042F00202028004E002884FF6FD731A40E7
:1024C0000280704721B1028842F00402028004E0D9
:1024D00002884FF6FB731A400280704721B1828850
:1024E00042F08002828004E082884FF67F731A40B7
:1024F0008280704702884FF6F7731A400280028884
:102500000A430280704782884FF68F731A40828098
:1025100082880A438280704702894FF6F8731A4016
:10252000028102890A430281704702894FF67F7354
:102530001A40028102890A430281704781847047F0
:102540008185704781867047018770478187704712
:10255000A0F84010704702884FF6FF431A400280EF
:1025600002880A43028070470146888E7047014600
:10257000088F70470146888F70470146B1F84000C8
:1025800070470146888C70470146088D70470246A7
:102590000020138A0B400BB1012000E0002070479F
:1025A000CA430282704730B502460020002300244F
:1025B000158A05EA0103958905EA010413B10CB1F6
:1025C000012000E0002030BDCA43028270470000B5
:1025D00010B50446FB48844209D101218803FFF766
:1025E0009FF800214FF48040FFF79AF832E0F64858
:1025F000844209D101214804FFF79FF800214FF4DC
:102600000030FFF79AF825E0F048844209D1012113
:102610008804FFF792F800214FF48020FFF78DF82F
:1026200018E0EB48844209D10121C804FFF785F87E
:1026300000214FF40020FFF780F80BE0E5488442CA
:1026400008D101210805FFF778F800214FF4801028
:10265000FFF773F810BD2DE9F04786B005460E462A
:102660000024A24600BFA1460027B08900B100BFE8
:102670002F462C8A4CF6FF700440F08804432C82CD
:10268000AC894EF6F3100440B08831890843718953
:1026900008430443AC81AC8A4FF6FF400440B08944
:1026A0000443AC8201A8FEF7B4FFC648874202D1BA
:1026B000DDF810A001E0DDF80CA0A88900F40040CE
:1026C00040B10AEBCA0000EB0A1031684900B0FBC8
:1026D000F1F807E00AEBCA0000EB0A103168890044
:1026E000B0FBF1F86420B8FBF0F00401200964218C
:1026F00001FB1089A88900F4004040B1322000EBB2
:10270000C900B0FBF1F000F00700044308E03220FC
:1027100000EB09106421B0FBF1F000F00F0004435E
:102720002C8106B0BDE8F0874FF4165101600021FE
:102730008180C18001810C2141810021818170470C
:1027400010B502460020108A4FF2FF0318400B8894
:102750004C8823438C882343CC882343184310821E
:1027600010BD0021018041808180C180704721B16E
:10277000828942F40052828104E082894DF6FF731F
:102780001A4082817047F0B50346002400260025D8
:10279000002040F66A17B94200D100BF1846C1F3C5
:1027A000421401F01F06012707FA06F5012C01D19A
:1027B0000C3004E0022C01D1103000E014301AB1CA
:1027C00007682F43076002E00768AF430760F0BD6A
:1027D0001AB1838A0B43838202E0838A8B4383820C
:1027E0007047028A4FF6F0731A400282028A0A4347
:1027F0000282704782894FF2FF731A408281828978
:102800000A438281704721B1828942F002028281AB
:1028100004E082894FF6FD731A4082817047028A74
:102820004FF6DF731A400282028A0A43028270471F
:1028300021B1028A42F48042028204E0028A4BF60D
:10284000FF731A4002827047C1F30802828070470A
:1028500001468888C0F308007047818941F0010172
:1028600081817047028BD2B20283028B42EA01223D
:1028700002837047028B02F47F420283028B0A4379
:102880000283704721B1828A42F02002828204E0F2
:10289000828A4FF6DF731A408282704721B1828AA2
:1028A00042F01002828204E0828A4FF6EF731A40EF
:1028B0008282704721B1828A42F00802828204E05B
:1028C000828A4FF6F7731A408282704721B182895B
:1028D00042F40042828103E08289C2F30E028281C7
:1028E000704721B1828A42F40062828204E0828AC7
:1028F0004FF2FF731A4082827047828A4FF6FB7351
:102900001A408282828A0A438282704721B1828A77
:1029100042F00202828204E0828A4FF6FD731A407E
:102920008282704702460020B1F5007F00D100BFCF
:1029300013880B400BB1012000E00020704701F428
:102940000072B2F5007F00D100BFCA430280704719
:1029500070B50246002400230025002040F66A16C8
:10296000B14200D100BFC1F3421501F01F0301269F
:1029700006FA03F3012D02D19689334006E0022DB9
:1029800002D1168A334001E0968A33400C120126A8
:1029900006FA04F41688344013B10CB1012000E0AB
:1029A000002070BD10B50022002340F66A14A14239
:1029B00000D100BF0A1201249440A3B2DC4304807A
:1029C00010BD0000003801400044004000480040B5
:1029D000004C00400050004035480088401C00B2C8
:1029E0003349088033480088401C00B231490880D0
:1029F00031480088401C00B22F4908802F480088C9
:102A0000401C00B22D4908802D480068401C2C490C
:102A10000860704710B52BA12C48FDF7C4FF10BD0E
:102A200010B52BA12948FDF7BEFF10BD10B52AA196
:102A30002648FDF7B8FF10BD10B529A12348FDF7C2
:102A4000B2FF10BD10B51A48B0F90000052804DB2C
:102A5000FFF7E0FF0020164908801648B0F9000093
:102A60000A2804DBFFF7DCFF002012490880124827
:102A7000B0F90000142804DBFFF7D8FF00200E494E
:102A800008800E48B0F90000322804DBFFF7D4FFBD
:102A900000200A49088010BD00200549088005492A
:102AA0000880054908800549088005490860704785
:102AB0002C0000202E0000203000002032000020DA
:102AC00034000020323030487A00000000380140E5
:102AD000313030487A0000003530487A000000007C
:102AE0003230487A0A00000010B51E221146EC2050
:102AF000FDF70BFE10BD2DE9F04F8BB0FE4840896D
:102B0000FE490968A1EB0024FB48C0880022E117B8
:102B1000A0FB043C02FB04C200FB01204FF48072C6
:102B2000CDE902300023DDE9020100F00FFBF24A9B
:102B300052884FF40043A2FB0323851841EB0306A0
:102B4000ED4800890022E117A0FB043C02FB04C20F
:102B500000FB01208022CDE902300023DDE90201E3
:102B600000F0F4FAE44A92884FF48033A2FB032386
:102B700080185941CDE90801DF4880890022E1171A
:102B8000A0FB043C02FB04C200FB01204FF4000246
:102B9000CDE902300023DDE9020100F0D7FA4FF45D
:102BA000FA614018D6490860D64800684FF0000125
:102BB000A0FB05B301FB053100FB06114FF4001229
:102BC0004FF00003584600F0C1FADDE90823801AEF
:102BD00061EB03014FF400520023CDE9020100F044
:102BE000B5FAC9490860C6480068642190FBF1F055
:102BF000142853DA032080FB0401E317A0FB042C04
:102C000001FB04C100FB0310CDE9022000220223D6
:102C1000DDE9020100F09AFA0790B9490968A1F5C7
:102C2000FA6101EB4101B64A1268A2F5FA6201FBB2
:102C300002F000EBD0714FEA610AB1490968A1F5D1
:102C4000FA6101EB8101AE4A1268A2F5FA6201FB5A
:102C500002F0C11700EB51714FEAE109A848006882
:102C6000642190FBF1F010F10F0F39DAA4480068ED
:102C700000F2DC50C0EBC001A148006800F2DC505B
:102C800001FB00AA9E48006800F2DC5081009C48CD
:102C9000006800F2DC5001FB009921E098480068D0
:102CA000642190FBF1F014281ADB04FB04F04000CF
:102CB000C11783460022202300F048FA079090496C
:102CC0000968A1F5FA618E4A1268A2F5FA6201FB61
:102CD00002F0C11700EB11714FEA211A4FF0000901
:102CE000DDE90810B1EB0A0760EBEA78B5EB090102
:102CF00066EBE970CDE90410814801680798A1EB03
:102D000000007F4908607F484FF000030268DDE95A
:102D10000410A2FB01CB03FB01B102FB00104FF436
:102D20000012CDE900C06046019900F00FFAC01B07
:102D300061EB08014FF400520023CDE9020100F0DD
:102D400005FA714908600BB0BDE8F08F10B500229C
:102D50004821EC20FDF7D9FC1420FDF7D0FB03231C
:102D600000226A49EC20FDF75BFD6848007800040A
:102D70006649497840EA01206449897808436149F5
:102D8000086000225821EC20FDF7BFFC1420FDF75D
:102D9000B6FB032300225D49EC20FDF741FD5B48B3
:102DA000007800045949497840EA01205749897858
:102DB00008435249086010BD10B5EC20FDF7FBFC3C
:102DC00010BD70B504465048006800F027FB064669
:102DD0004F4900F076FA0546214600F040FA70BDF2
:102DE00010B54748006800F019FB0446494900F057
:102DF00068FA10BD2DE9F0474648FFF7E2FF81462B
:102E0000454900F026FA044600F011FB0746434A04
:102E1000434B00F094FA054600F01CFBBDE8F08738
:102E20004049C860704710B5FFF790FFFFF763FE99
:102E3000FFF7D6FF3B494860FFF7DCFF04463948FF
:102E4000C168204600F005FA364908603148FFF7AE
:102E5000B8FF3449886010BD08B5012032490860C8
:102E6000FDF73AFBFFF740FE0223A0226946EC2063
:102E7000FDF7D6FC9DF801009DF8001040EA012006
:102E80001D4908800223A2226946EC20FDF7C8FCF8
:102E90009DF801009DF8001040EA01201649488085
:102EA0000223A4226946EC20FDF7BAFC9DF801003C
:102EB0009DF8001040EA01200F4988800223A622D5
:102EC0006946EC20FDF7ACFC9DF801009DF8001070
:102ED00040EA01200849C8800223A8226946EC2064
:102EE000FDF79EFC9DF801009DF8001040EA0120CE
:102EF00001490881022319E0740100204C000020E0
:102F00005000002048000020540000205C000020F9
:102F1000000020410000C84200DAC5473945477229
:102F20009D18C3403800002058000020AA2269469E
:102F3000EC20FDF775FC9DF801009DF8001040EABB
:102F40000120494948810223AC226946EC20FDF763
:102F500067FC9DF801009DF8001040EA01204249FD
:102F60008881FFF760FF41490868FFF759FF08BDF6
:102F700010B500224821EC20FDF7C7FB10BD10B5AD
:102F8000032300223A49EC20FDF74AFC3848007838
:102F900000043749497840EA0120354989780843D7
:102FA0003449086000225821EC20FDF7AEFB10BD2B
:102FB00010B5032300222E49EC20FDF731FC2C48EC
:102FC000007800042A49497840EA01202849897894
:102FD000084329490860FFF78EFDFFF701FF2349E9
:102FE0004860FFF707FF04462048C168204600F00C
:102FF00030F91E4908602148FFF7E3FE1B4988604D
:1030000010BD10B51E48006814282BDB1D48006851
:10301000012804D002280BD003281BD111E0FFF7B0
:10302000A7FF02201749086000201549086018E032
:10303000FFF7A5FF0320134908600020104908602E
:103040000FE0FFF7B5FF01200E49086000200C4992
:10305000086006E001200B4908600020084908606C
:1030600000BF00BF10BD0000740100203800002028
:103070005C000020480000204C0000200000C842F6
:1030800034000020580000202C490A780978491C97
:103090002A4B19702A4988540978552903D00021F0
:1030A0001A4611707047254909780B2900DAF9E7AB
:1030B00023494978522902D0532938D11BE02049AD
:1030C00089781F4AD27841EA022109B21D4A11804B
:1030D0001B4909791A4A527941EA022109B2194A6F
:1030E000518017498979164AD27941EA022109B2F9
:1030F000144A91801BE012498978114AD27841EA3A
:10310000022109B2104A11800D4909790C4A5279FD
:1031100041EA022109B20C4A518009498979084AD9
:10312000D27941EA022109B2074A918000BF00BF6B
:103130000021024A117000BFB4E7000070000020B7
:103140008401002060000020680000202DE9F0418B
:103150000024061B254671F1000605DA012400272C
:10316000D0EB070067EB0101161E73F1000605DACC
:103170000027D2EB0702012567EB030300F09CF95F
:1031800086460E4617469C46AC4204D00025D0EB3E
:10319000050E65EB010624B10020D2EB000760EBC1
:1031A000030C704631463A466346BDE8F081F0B400
:1031B00080EA0102D40F4200B2EB410F02D2024674
:1031C000084611464A0042D0C30DDDB2C1F3C752D2
:1031D000AD1A202D35DAC1F3160141F4000204B115
:1031E0005242C5F1200602FA06F12A411044B3EB1F
:1031F000D05F23D0C4B1012DA0EBC35009DCF0BCDB
:103200004FF0004202EAC352DBB200F5000000F0CA
:103210008DB9400000F1807000EBC350A0F18070C8
:1032200040EAD170490009E0490841EAC071A0EBC9
:10323000C35000F50000400800EBC350F0BC00F0A4
:103240006CB96142012202EB4101001BF6E7F0BCC0
:10325000704781F00041AAE780F00040A7E780EACC
:10326000010210B502F00043400022D04A001FD0F6
:10327000010E01EB1261C0F35600C2F3560240F496
:10328000000042F40002A0FB022000047F39140475
:1032900000D0401C50EA124001D44000491EC2B286
:1032A0000C0604EBD010401C4008802A02D003E03A
:1032B000002010BD20F00100002900DA0020184392
:1032C00010BD30B480EA010202F0004530F0004247
:1032D00021F0004013D090B1C30DD40DC2F31601FC
:1032E000C0F31600E41A41F4000140F400027D34FA
:1032F000914201D3641C00E04900002C02DA30BC8A
:10330000002070474FF400000023914201D3891A36
:10331000034340084FEA4101F7D151B1914202D134
:103320004FF0004105E002D24FF0010101E06FF0E3
:10333000010103EBC450284430BC00F0EEB82DE985
:10334000F04D81EA030404F0004B21F000451446DF
:103350004FF0000A23F0004150EA050220D054EA61
:1033600001021DD0C5F30A570246C5F31303C1F38A
:103370001300C1F30A5640F4801543F48013A7EB01
:103380000608101BD64608F2FD3873EB050002D381
:1033900008F1010801E092185B41B8F1000F03DA6F
:1033A00000200146BDE8F08D00204FF48011064654
:1033B00084460EE0171B73EB050705D3121B63EB66
:1033C000050306434CEA010C49084FEA3000921805
:1033D0005B4150EA0107EDD152EA030012D082EAC4
:1033E000040083EA0501084305D0101BAB4106D257
:1033F0000122002306E000224FF0004302E06FF0BC
:10340000010253101AEB06004CEB085110EB0A00B6
:1034100041EB0B01BDE8F04D00F0B6B8C10F80EAFA
:10342000E0700844CA079623002100F07FB800F03E
:10343000004230F000400AD0C10D01F56071C0F3C8
:10344000160042EA0151C2084007114370470020AC
:103450000146704701F0004330B421F0004150EACA
:10346000010206D00A0DA2F56072C1F31301002A11
:1034700002DC30BC00207047440F44EAC104C100A4
:10348000E01830BC00EBC25000F047B830B50B4636
:10349000014600202022012409E021FA02F59D4284
:1034A00005D303FA02F5491B04FA02F52844151E58
:1034B000A2F10102F1DC30BD2DE9F05F05460020EC
:1034C00092469B4688460646814640241BE0284695
:1034D00041464746224600F01EFA53465A46C01A55
:1034E000914110D311461846224600F005FA2D1AD4
:1034F00067EB01084F4622460120002100F0FCF94D
:1035000017EB00094E41201EA4F10104DFDC484600
:1035100031462A464346BDE8F09F0029A8BF7047C0
:10352000401C490008BF20F00100704710B4B0FAF9
:1035300080FC00FA0CF050EA010404BF10BC704794
:1035400049B1CCF1200421FA04F411FA0CF118BFAE
:10355000012121430843A3EB0C01CB1D4FEA00617D
:103560004FEA102042BF002010BC704700EBC35050
:1035700010440029A4BF10BC7047401C490008BF7C
:1035800020F0010010BC704710B5141E73F1000448
:1035900008DA401C41F1000192185B411A4301D145
:1035A00020F0010010BD2DE9F04D92469B4611B16F
:1035B000B1FA81F202E0B0FA80F22032904600F0D7
:1035C0009BF904460F4640EA0A0041EA0B015346C4
:1035D0005A46084313D0114653EA010019D0C8F1E6
:1035E0004002504600F097F905460E4650465946AF
:1035F000424600F081F9084305D0012004E020464E
:103600003946BDE8F08D0020054346EAE0762C43BC
:1036100037430A986305E40AA0EB08000022FD0A7C
:1036200044EA47540A3002D500200146E9E7010583
:1036300010196941DDE9084500196941BDE8F04DFF
:10364000A2E72DE9FE4F804681EA0300C00F0C4639
:10365000009021F0004123F00045B8EB0200A941A1
:1036600005D24046214690461C460B46024623F0B2
:103670000040104347D0270DC7F30A00C3F30A5197
:103680000290401A019040286BDAC3F3130040F413
:10369000801B0098924620B10023D2EB030A63EB13
:1036A0000B0B01985946C0F14002504600F024F936
:1036B00006460D4650465946019A00F03CF910EB7B
:1036C00008006141002487EA115284EAE7731A4333
:1036D00040D0009A62B3019A012A4FEA075215DCE2
:1036E000001B61EB02014FF0004202EA0752CDE9F4
:1036F0000042001C41F5801132462B46FFF753FF74
:1037000003B0BDE8F08F40462146F9E7001B61EBAE
:103710000201001C41F5801300185B412018A2F53E
:10372000001747EB030140EAD570B6196D4111E06F
:103730006D084FEA360645EAC0754FEA0752001B8E
:1037400061EB0201001C41F5801149084FEA30008D
:103750000019514132462B4603B0BDE8F04FFFF748
:1037600013BF0098012240000023D0EB020263EB5C
:10377000E073009821464FEAE074B8EB000061EB7B
:103780000401E9E783F000435BE781F0004158E77B
:103790002DE9FE4F81EA030404F0004421F00041CA
:1037A00000944FF0000B23F0004350EA01045ED078
:1037B00052EA03045BD0C3F30A54C1F30A552C4404
:1037C000A4F2F3340194A0FB0254C1F3130141F4B9
:1037D0008011C3F3130343F4801301FB024400FB85
:1037E000034E840A970A44EA815447EA8357A4FBAC
:1037F000076802958D0A05FB07854FEA932C04FBA9
:103800000C542705029D4FEA065847EA1637B5EBD8
:1038100008056EEB070C870E920E47EA811742EA05
:103820008312A7FB0201B6EB0B0164EB00042B0D26
:1038300043EA0C335E1844EB1C50DA465146E7FB72
:103840000201C5F313044FEA0B3343EA14534FEA62
:103850000432019C43EA0603A4F10C040294009C88
:10386000CDE900B4FFF79FFE03B0BDE8F08F002064
:103870000146F9E7C1F30A52C1F3130140F2FF33E5
:1038800041F480119A4202DA00200146704740F26A
:1038900033439A42A2F2334202DC524200F03BB878
:1038A00000F02AB830B5041E71F1000404DB4FF0BB
:1038B0000044404264EB0101141E73F1000405DB77
:1038C0001C464FF00043524263EB0403994208BF89
:1038D000904230BD064C074D06E0E06840F0010321
:1038E00094E8070098471034AC42F6D3FCF724FC68
:1038F0004042000860420008202A04DB203A00FA17
:1039000002F1002070479140C2F1200320FA03F336
:10391000194390407047202A04DB203A21FA02F034
:103920000021704721FA02F3D040C2F120029140F9
:10393000084319467047202A06DBCB17203A41FA84
:1039400002F043EAE07306E041FA02F3D040C2F12C
:103950002002914008431946704700000FB4084BFD
:1039600010B504A902AA039800F0CEF8044602A9F3
:10397000002000F060FC204610BC5DF814FB000045
:103980003742000802E008C8121F08C1002AFAD115
:1039900070477047002001E001C1121F002AFBD1CF
:1039A000704700002DE9FF5FDDE90220010DDDF821
:1039B00038B0024318D044F61050A1F2FF31414311
:1039C0000D140F98012820D0A5EB0B00401C5FEAD6
:1039D000000A4FF00004474EDFF81C91A046504605
:1039E00016D5CAF1000728E00F98012443A2012848
:1039F00008D0002100980F9BC0E90021C0E90243D4
:103A0000BDE8FF9F6FEA0B01F4E7CBF10000DEE7B2
:103A1000074612E0F80707D022463346404649469B
:103A2000FFF7B6FE804689462246334610461946C1
:103A3000FFF7AEFE04460E467F10002FEAD1DDE907
:103A40000201BAF1000F42464B4602DAFFF7A0FE30
:103A500001E0FFF774FC04460E460022284BFFF7F6
:103A600021FF03D84FF0FF30014607E00022254B2D
:103A700020463146FFF7E5FDFFF7FCFE102409E084
:103A8000002C0ADB0A220023FFF716FD019B3032CF
:103A90001A55641E50EA0102F2D1641C019AC4F165
:103AA000110314440F9A012A03D0012208430DD1B7
:103AB0000AE0084304D000204FF0110B0F9080E77C
:103AC000A3EB0B056D1E0DE05B4504DD4FF000021E
:103AD00005F1010504E003DA4FF00002A5F101054C
:103AE000002AECD000980F99C0E90231C0E90045E6
:103AF00086E70000000024400000F03F3000000096
:103B00000000F0430000E03F2DE9FF4F95B09B46D9
:103B10008946064600250FE2252877D1002427464E
:103B2000F84A0121059400E0044316F8013F203BC8
:103B300001FA03F01042F7D130782A2811D06FF043
:103B40002F033078A0F13002092A16D8059A44F0E4
:103B5000020402EB820203EB42021044761C059041
:103B6000EFE759F8042B0592002A03DA504244F497
:103B70000054059044F00204761C30782E2816D1AB
:103B800016F8010F44F004042A280DD06FF02F021C
:103B90003078A0F13003092B09D807EB870302EB3B
:103BA0004303C718761CF3E759F8047B761C30787A
:103BB0006C280FD006DC4C2817D068280DD06A2856
:103BC00014D104E0742810D07A280FD10DE044F409
:103BD00000140AE044F4801401E044F440147278C4
:103BE000824202D104F58014761C761C3078662857
:103BF0000BD013DC582877D009DC002875D0452875
:103C0000F6D04628F4D047281AD19DE118E0632861
:103C100035D0642879D0652812D195E1702873D009
:103C200008DC6728F1D069286FD06E280DD06F2886
:103C300006D1B5E073282CD0752875D0782874D0BB
:103C40005A46179990476D1C75E1C4F3025002283B
:103C500009D003280DD0D9F8001004280DD00D602C
:103C600009F1040967E1D9F80010EA17C1E9005227
:103C7000F6E7D9F800100D80F2E70D70F0E719F8BB
:103C8000041B8DF8001000208DF80100EA46012089
:103C900003E059F804AB4FF0FF3061074FF000012B
:103CA00002D40DE008F101018846B9420FDA8045DF
:103CB000F8DB1AF808100029F4D108E008F1010136
:103CC00088468142FADB1AF808100029F6D10598D7
:103CD0005B46A0EB080721463846179A00F094FA95
:103CE000284400EB080507E04DE029E10DE01AF853
:103CF000010B5A4617999047B8F10108F7D25B4675
:103D000021463846179A13E142E00A220092C4F392
:103D100002524FF0000A022A08D059F804CB032AB5
:103D20004FEAEC710AD00DE029E02AE009F1070121
:103D300021F00702F2E802C1914609E00FFA8CFC7B
:103D40004FEAEC71042A03D14FFA8CFC4FEAEC7174
:103D5000002907DA0A460021DCF1000C61EB0201C0
:103D60002D2202E0220504D52B228DF80420012209
:103D700003E0E20701D02022F7E7904659E00A214C
:103D800002E010220DE010214FF0000A00910BE03C
:103D900010224FF0000A44F004040827009203E0C8
:103DA00008224FF0000A0092C4F30252022A05D002
:103DB00059F804CB0021032A08D009E009F10701D2
:103DC00021F00702F2E802C1914605E01FFA8CFCDF
:103DD000042A01D10CF0FF0C4FF00008220728D56F
:103DE000702806D0009B83F0100353EA0A0305D025
:103DF0000EE040228DF80420012208E05CEA010276
:103E000006D030228DF804208DF80500022290465D
:103E1000009B83F0080353EA0A030AD15CEA01021B
:103E200001D1620705D530228DF804204FF001083A
:103E30007F1E582804D034A003900EA802900DE0F5
:103E400036A0F9E753466046009AFFF735FB8446F3
:103E50000398825C0298401E029002705CEA0100A6
:103E6000F0D1029806A9081A00F1200A600702D5CD
:103E700024F4803400E00127574502DDA7EB0A0057
:103E800000E0002000EB0A01009005984144401A30
:103E90000590E00306D45B462146179A059800F08A
:103EA000B3F90544002706E001A85A46C05D1799FA
:103EB00090476D1C7F1C4745F6DBE0030CD55B4645
:103EC0002146179A059800F09FF9054404E0302038
:103ED0005A46179990476D1C0099481E009000297A
:103EE000F5DC08E0029802995A460078491C0291D4
:103EF000179990476D1CBAF10001AAF1010AF1DC93
:103F000065E100000928010030313233343536379D
:103F10003839616263646566000000003031323315
:103F200034353637383941424344454600000000B5
:103F300000F058F90544761C307800287FF4ECAD89
:103F400019B02846BDE8F08F620700D4062709F1B2
:103F5000070222F0070CFCE80223E14603F00048C8
:103F60005FEA080C02D00FF2702C0DE05FEA045CEF
:103F700002D50FF2682C07E05FEAC47C02D00FF292
:103F8000602C01E0AFF2700C4FF0FF3823F00043DB
:103F9000CDF850C065280CD006DC452809D046284D
:103FA0001DD047283DD13DE0662818D067287ED136
:103FB00038E00021112F01DB112000E0781CCDE951
:103FC000000106A90EA8FFF7EDFCDDE90F010E9A2E
:103FD00003910021009207F1010A04914DE04FF096
:103FE00000400097CDE9011006A90EA8FFF7DAFC02
:103FF000DDE90F0203920E9B11990022DDF80CA05F
:104000000093049211B9791C00EB010AB7EB0A0086
:1040100004D4C0F1FF3007F1010A0490AAEB0700B5
:10402000019044E0012F00DA01270021112F01DD6A
:10403000112000E03846CDE9000106A90EA8FFF7DF
:10404000B1FCDDE90F010E9A039100210491009269
:10405000BA4621070CD40399514500DA8A46BAF1D1
:10406000010F05DD009AAAF10101515C302908D049
:10407000B84202DA10F1040F06DA0121CDE901108D
:1040800015E0AAF10101E9E7002805DC04990144E3
:104090000491AAEB000102E0411C514500DD8A4673
:1040A0000499401A401C01904FF0004002902007F4
:1040B00004D40198504501DBCDF8048000208DF830
:1040C0004F0002980DF14F07B0F1004F25D02B2083
:1040D0000E9002984FF0020800280CDA404202903D
:1040E0002D200E9007E00A210298FFF7CFF930311A
:1040F000029007F8011DB8F10001A8F10108F2DCF7
:1041000002980028EFD1791E0E980870307800F0E0
:10411000200040F0450007F8020D12A8C01B00F176
:1041200007081498007800B1012000EB0A010198FB
:1041300001EBE07105984144401A401E0590E003F0
:1041400006D45B462146179A059800F05DF80544B1
:104150001498007818B15A46179990476D1CE003DF
:1041600024D55B462146179A059800F04DF8054482
:104170001CE00498002807DBDDE90301884203DD29
:104180000098405C179901E0179930205A469047F3
:10419000049805F10105401C04900198401E01900F
:1041A00004D12E205A46179990476D1CBAF1000190
:1041B000AAF1010ADDDC05E017F8010B5A46179950
:1041C00090476D1CB8F10001A8F10108F4DC5B46D2
:1041D0002146179A0598ABE62D0000002B00000041
:1041E000200000002DE9F041044600251E46174638
:1041F000880404D405E039462020B0476D1C641EB5
:10420000F9D52846BDE8F0812DE9F04104460025A6
:104210001E469046C80301D5302700E020278804B9
:1042200004D505E041463846B0476D1C641EF9D5FB
:104230002846BDE8F0810A68531C0B601070704777
:10424000604200080000002074000000843900086B
:10425000D4420008740000200C06000094390008C5
:104260000000000000A24A0400000000000000005E
:10427000010203040607080900000000010203040C
:1042800001020304060708090204060800000000F2
:10429000000000000000000000000000000000001E
:1042A000000000008FC2F53C00000000000000008C
:1042B00000000000000000000100000000000000FD
:1042C00000000000000000000000000000000000EE
:0442D00000000000EA
:0400000508000131BD
:00000001FF
